{"contracts/Channel.sol":{"Channel":{"abi":[{"inputs":[{"internalType":"string","name":"name","type":"string"},{"internalType":"string","name":"symbol","type":"string"},{"internalType":"string","name":"ipfsCid","type":"string"},{"internalType":"uint256","name":"mintFee","type":"uint256"},{"internalType":"uint256","name":"maxTokenId","type":"uint256"}],"stateMutability":"nonpayable","type":"constructor"},{"inputs":[],"name":"ApprovalCallerNotOwnerNorApproved","type":"error"},{"inputs":[],"name":"ApprovalQueryForNonexistentToken","type":"error"},{"inputs":[],"name":"ApprovalToCurrentOwner","type":"error"},{"inputs":[],"name":"ApproveToCaller","type":"error"},{"inputs":[],"name":"BalanceQueryForZeroAddress","type":"error"},{"inputs":[],"name":"InvalidQueryRange","type":"error"},{"inputs":[],"name":"MintToZeroAddress","type":"error"},{"inputs":[],"name":"MintZeroQuantity","type":"error"},{"inputs":[],"name":"OwnerQueryForNonexistentToken","type":"error"},{"inputs":[],"name":"TransferCallerNotOwnerNorApproved","type":"error"},{"inputs":[],"name":"TransferFromIncorrectOwner","type":"error"},{"inputs":[],"name":"TransferToNonERC721ReceiverImplementer","type":"error"},{"inputs":[],"name":"TransferToZeroAddress","type":"error"},{"inputs":[],"name":"URIQueryForNonexistentToken","type":"error"},{"anonymous":false,"inputs":[{"indexed":true,"internalType":"address","name":"owner","type":"address"},{"indexed":true,"internalType":"address","name":"approved","type":"address"},{"indexed":true,"internalType":"uint256","name":"tokenId","type":"uint256"}],"name":"Approval","type":"event"},{"anonymous":false,"inputs":[{"indexed":true,"internalType":"address","name":"owner","type":"address"},{"indexed":true,"internalType":"address","name":"operator","type":"address"},{"indexed":false,"internalType":"bool","name":"approved","type":"bool"}],"name":"ApprovalForAll","type":"event"},{"anonymous":false,"inputs":[{"indexed":false,"internalType":"uint256","name":"tokenId","type":"uint256"}],"name":"MintEvent","type":"event"},{"anonymous":false,"inputs":[{"indexed":true,"internalType":"address","name":"previousOwner","type":"address"},{"indexed":true,"internalType":"address","name":"newOwner","type":"address"}],"name":"OwnershipTransferred","type":"event"},{"anonymous":false,"inputs":[{"indexed":true,"internalType":"address","name":"from","type":"address"},{"indexed":true,"internalType":"address","name":"to","type":"address"},{"indexed":true,"internalType":"uint256","name":"tokenId","type":"uint256"}],"name":"Transfer","type":"event"},{"inputs":[],"name":"MAX_MINT_AMOUNT","outputs":[{"internalType":"uint256","name":"","type":"uint256"}],"stateMutability":"view","type":"function"},{"inputs":[{"internalType":"address","name":"to","type":"address"},{"internalType":"uint256","name":"tokenId","type":"uint256"}],"name":"approve","outputs":[],"stateMutability":"nonpayable","type":"function"},{"inputs":[{"internalType":"address","name":"owner","type":"address"}],"name":"balanceOf","outputs":[{"internalType":"uint256","name":"","type":"uint256"}],"stateMutability":"view","type":"function"},{"inputs":[],"name":"contractURI","outputs":[{"internalType":"string","name":"","type":"string"}],"stateMutability":"view","type":"function"},{"inputs":[{"internalType":"uint256","name":"tokenId","type":"uint256"}],"name":"explicitOwnershipOf","outputs":[{"components":[{"internalType":"address","name":"addr","type":"address"},{"internalType":"uint64","name":"startTimestamp","type":"uint64"},{"internalType":"bool","name":"burned","type":"bool"}],"internalType":"struct IERC721A.TokenOwnership","name":"","type":"tuple"}],"stateMutability":"view","type":"function"},{"inputs":[{"internalType":"uint256[]","name":"tokenIds","type":"uint256[]"}],"name":"explicitOwnershipsOf","outputs":[{"components":[{"internalType":"address","name":"addr","type":"address"},{"internalType":"uint64","name":"startTimestamp","type":"uint64"},{"internalType":"bool","name":"burned","type":"bool"}],"internalType":"struct IERC721A.TokenOwnership[]","name":"","type":"tuple[]"}],"stateMutability":"view","type":"function"},{"inputs":[{"internalType":"uint256","name":"tokenId","type":"uint256"}],"name":"getApproved","outputs":[{"internalType":"address","name":"","type":"address"}],"stateMutability":"view","type":"function"},{"inputs":[{"internalType":"address","name":"owner","type":"address"},{"internalType":"address","name":"operator","type":"address"}],"name":"isApprovedForAll","outputs":[{"internalType":"bool","name":"","type":"bool"}],"stateMutability":"view","type":"function"},{"inputs":[{"internalType":"uint256","name":"quantity","type":"uint256"}],"name":"mint","outputs":[],"stateMutability":"payable","type":"function"},{"inputs":[{"internalType":"uint256","name":"quantity","type":"uint256"},{"internalType":"uint256","name":"start","type":"uint256"}],"name":"mintFromStartOrFail","outputs":[],"stateMutability":"payable","type":"function"},{"inputs":[],"name":"name","outputs":[{"internalType":"string","name":"","type":"string"}],"stateMutability":"view","type":"function"},{"inputs":[],"name":"owner","outputs":[{"internalType":"address","name":"","type":"address"}],"stateMutability":"view","type":"function"},{"inputs":[{"internalType":"uint256","name":"tokenId","type":"uint256"}],"name":"ownerOf","outputs":[{"internalType":"address","name":"","type":"address"}],"stateMutability":"view","type":"function"},{"inputs":[],"name":"renounceOwnership","outputs":[],"stateMutability":"nonpayable","type":"function"},{"inputs":[{"internalType":"address","name":"from","type":"address"},{"internalType":"address","name":"to","type":"address"},{"internalType":"uint256","name":"tokenId","type":"uint256"}],"name":"safeTransferFrom","outputs":[],"stateMutability":"nonpayable","type":"function"},{"inputs":[{"internalType":"address","name":"from","type":"address"},{"internalType":"address","name":"to","type":"address"},{"internalType":"uint256","name":"tokenId","type":"uint256"},{"internalType":"bytes","name":"_data","type":"bytes"}],"name":"safeTransferFrom","outputs":[],"stateMutability":"nonpayable","type":"function"},{"inputs":[{"internalType":"address","name":"operator","type":"address"},{"internalType":"bool","name":"approved","type":"bool"}],"name":"setApprovalForAll","outputs":[],"stateMutability":"nonpayable","type":"function"},{"inputs":[{"internalType":"bytes4","name":"interfaceId","type":"bytes4"}],"name":"supportsInterface","outputs":[{"internalType":"bool","name":"","type":"bool"}],"stateMutability":"view","type":"function"},{"inputs":[],"name":"symbol","outputs":[{"internalType":"string","name":"","type":"string"}],"stateMutability":"view","type":"function"},{"inputs":[{"internalType":"uint256","name":"tokenId","type":"uint256"}],"name":"tokenURI","outputs":[{"internalType":"string","name":"","type":"string"}],"stateMutability":"view","type":"function"},{"inputs":[{"internalType":"address","name":"owner","type":"address"}],"name":"tokensOfOwner","outputs":[{"internalType":"uint256[]","name":"","type":"uint256[]"}],"stateMutability":"view","type":"function"},{"inputs":[{"internalType":"address","name":"owner","type":"address"},{"internalType":"uint256","name":"start","type":"uint256"},{"internalType":"uint256","name":"stop","type":"uint256"}],"name":"tokensOfOwnerIn","outputs":[{"internalType":"uint256[]","name":"","type":"uint256[]"}],"stateMutability":"view","type":"function"},{"inputs":[],"name":"totalMinted","outputs":[{"internalType":"uint256","name":"","type":"uint256"}],"stateMutability":"view","type":"function"},{"inputs":[],"name":"totalSupply","outputs":[{"internalType":"uint256","name":"","type":"uint256"}],"stateMutability":"view","type":"function"},{"inputs":[{"internalType":"address","name":"from","type":"address"},{"internalType":"address","name":"to","type":"address"},{"internalType":"uint256","name":"tokenId","type":"uint256"}],"name":"transferFrom","outputs":[],"stateMutability":"nonpayable","type":"function"},{"inputs":[{"internalType":"address","name":"newOwner","type":"address"}],"name":"transferOwnership","outputs":[],"stateMutability":"nonpayable","type":"function"},{"inputs":[{"internalType":"uint256","name":"_i","type":"uint256"}],"name":"uint2str","outputs":[{"internalType":"string","name":"_uintAsString","type":"string"}],"stateMutability":"pure","type":"function"},{"inputs":[],"name":"withdraw","outputs":[],"stateMutability":"payable","type":"function"}],"evm":{"bytecode":{"linkReferences":{},"object":"6080604052600a600d553480156200001657600080fd5b5060405162002ffb38038062002ffb8339810160408190526200003991620002a6565b8451859085906200005290600290602085019062000133565b5080516200006890600390602084019062000133565b50506001600055506200007b33620000e1565b600b829055600c81905582516200009a90600a90602086019062000133565b50600a604051602001620000af919062000386565b60405160208183030381529060405260099080519060200190620000d592919062000133565b50505050505062000470565b600880546001600160a01b038381166001600160a01b0319831681179093556040519116919082907f8be0079c531659141344cd1fd0a4f28419497f9722a3daafe3b4186f6b6457e090600090a35050565b82805462000141906200034a565b90600052602060002090601f016020900481019282620001655760008555620001b0565b82601f106200018057805160ff1916838001178555620001b0565b82800160010185558215620001b0579182015b82811115620001b057825182559160200191906001019062000193565b50620001be929150620001c2565b5090565b5b80821115620001be5760008155600101620001c3565b634e487b7160e01b600052604160045260246000fd5b600082601f8301126200020157600080fd5b81516001600160401b03808211156200021e576200021e620001d9565b604051601f8301601f19908116603f01168101908282118183101715620002495762000249620001d9565b816040528381526020925086838588010111156200026657600080fd5b600091505b838210156200028a57858201830151818301840152908201906200026b565b838211156200029c5760008385830101525b9695505050505050565b600080600080600060a08688031215620002bf57600080fd5b85516001600160401b0380821115620002d757600080fd5b620002e589838a01620001ef565b96506020880151915080821115620002fc57600080fd5b6200030a89838a01620001ef565b955060408801519150808211156200032157600080fd5b506200033088828901620001ef565b606088015160809098015196999598509695949350505050565b600181811c908216806200035f57607f821691505b6020821081036200038057634e487b7160e01b600052602260045260246000fd5b50919050565b66697066733a2f2f60c81b8152600060076000845481600182811c915080831680620003b357607f831692505b60208084108203620003d357634e487b7160e01b86526022600452602486fd5b818015620003ea5760018114620004005762000433565b60ff1986168a890152848a018801965062000433565b60008b81526020902060005b86811015620004295781548c82018b01529085019083016200040c565b505087858b010196505b50505050505062000467817f2f636f6e74726163744d657461646174612e6a736f6e00000000000000000000815260160190565b95945050505050565b612b7b80620004806000396000f3fe6080604052600436106101b75760003560e01c80638da5cb5b116100ec578063c23dc68f1161008a578063e985e9c511610064578063e985e9c514610515578063f2fde38b1461056b578063f76f950e1461058b578063fa9b7018146105ab57600080fd5b8063c23dc68f146104b3578063c87b56dd146104e0578063e8a3d4851461050057600080fd5b8063a0712d68116100c6578063a0712d6814610429578063a22cb4651461043c578063a2309ff81461045c578063b88d4fde1461049357600080fd5b80638da5cb5b146103c957806395d89b41146103f457806399a2557a1461040957600080fd5b806342842e0e1161015957806370a082311161013357806370a0823114610354578063715018a6146103745780637a4d892a146103895780638462151c1461039c57600080fd5b806342842e0e146102e75780635bbb2177146103075780636352211e1461033457600080fd5b8063095ea7b311610195578063095ea7b31461025857806318160ddd1461027a57806323b872dd146102bf5780633ccfd60b146102df57600080fd5b806301ffc9a7146101bc57806306fdde03146101f1578063081812fc14610213575b600080fd5b3480156101c857600080fd5b506101dc6101d7366004612292565b6105c1565b60405190151581526020015b60405180910390f35b3480156101fd57600080fd5b506102066106a6565b6040516101e89190612325565b34801561021f57600080fd5b5061023361022e366004612338565b610738565b60405173ffffffffffffffffffffffffffffffffffffffff90911681526020016101e8565b34801561026457600080fd5b5061027861027336600461237a565b6107a2565b005b34801561028657600080fd5b50600154600054037fffffffffffffffffffffffffffffffffffffffffffffffffffffffffffffffff015b6040519081526020016101e8565b3480156102cb57600080fd5b506102786102da3660046123a4565b6108ab565b6102786108b6565b3480156102f357600080fd5b506102786103023660046123a4565b610916565b34801561031357600080fd5b5061032761032236600461245e565b610931565b6040516101e89190612504565b34801561034057600080fd5b5061023361034f366004612338565b610a16565b34801561036057600080fd5b506102b161036f36600461257c565b610a28565b34801561038057600080fd5b50610278610aaa565b610278610397366004612597565b610abe565b3480156103a857600080fd5b506103bc6103b736600461257c565b610bcb565b6040516101e891906125b9565b3480156103d557600080fd5b5060085473ffffffffffffffffffffffffffffffffffffffff16610233565b34801561040057600080fd5b50610206610d6b565b34801561041557600080fd5b506103bc6104243660046125f1565b610d7a565b610278610437366004612338565b610fb4565b34801561044857600080fd5b50610278610457366004612624565b6111ff565b34801561046857600080fd5b506000547fffffffffffffffffffffffffffffffffffffffffffffffffffffffffffffffff016102b1565b34801561049f57600080fd5b506102786104ae366004612660565b6112e5565b3480156104bf57600080fd5b506104d36104ce366004612338565b611355565b6040516101e8919061273e565b3480156104ec57600080fd5b506102066104fb366004612338565b611447565b34801561050c57600080fd5b50610206611510565b34801561052157600080fd5b506101dc610530366004612781565b73ffffffffffffffffffffffffffffffffffffffff918216600090815260076020908152604080832093909416825291909152205460ff1690565b34801561057757600080fd5b5061027861058636600461257c565b61151f565b34801561059757600080fd5b506102066105a6366004612338565b6115d3565b3480156105b757600080fd5b506102b1600d5481565b60007fffffffff0000000000000000000000000000000000000000000000000000000082167f80ac58cd00000000000000000000000000000000000000000000000000000000148061065457507fffffffff0000000000000000000000000000000000000000000000000000000082167f5b5e139f00000000000000000000000000000000000000000000000000000000145b806106a057507f01ffc9a7000000000000000000000000000000000000000000000000000000007fffffffff000000000000000000000000000000000000000000000000000000008316145b92915050565b6060600280546106b5906127b4565b80601f01602080910402602001604051908101604052809291908181526020018280546106e1906127b4565b801561072e5780601f106107035761010080835404028352916020019161072e565b820191906000526020600020905b81548152906001019060200180831161071157829003601f168201915b5050505050905090565b600061074382611733565b610779576040517fcf4700e400000000000000000000000000000000000000000000000000000000815260040160405180910390fd5b5060009081526006602052604090205473ffffffffffffffffffffffffffffffffffffffff1690565b60006107ad82610a16565b90508073ffffffffffffffffffffffffffffffffffffffff168373ffffffffffffffffffffffffffffffffffffffff1603610814576040517f943f7b8c00000000000000000000000000000000000000000000000000000000815260040160405180910390fd5b3373ffffffffffffffffffffffffffffffffffffffff82161461089b5773ffffffffffffffffffffffffffffffffffffffff8116600090815260076020908152604080832033845290915290205460ff1661089b576040517fcfb3b94200000000000000000000000000000000000000000000000000000000815260040160405180910390fd5b6108a6838383611785565b505050565b6108a6838383611806565b6108be611b68565b604051600090339047908381818185875af1925050503d8060008114610900576040519150601f19603f3d011682016040523d82523d6000602084013e610905565b606091505b505090508061091357600080fd5b50565b6108a6838383604051806020016040528060008152506112e5565b805160609060008167ffffffffffffffff811115610951576109516123e0565b6040519080825280602002602001820160405280156109ba57816020015b60408051606081018252600080825260208083018290529282015282527fffffffffffffffffffffffffffffffffffffffffffffffffffffffffffffffff90920191018161096f5790505b50905060005b828114610a0e576109e98582815181106109dc576109dc612807565b6020026020010151611355565b8282815181106109fb576109fb612807565b60209081029190910101526001016109c0565b509392505050565b6000610a2182611be9565b5192915050565b600073ffffffffffffffffffffffffffffffffffffffff8216610a77576040517f8f4eb60400000000000000000000000000000000000000000000000000000000815260040160405180910390fd5b5073ffffffffffffffffffffffffffffffffffffffff1660009081526005602052604090205467ffffffffffffffff1690565b610ab2611b68565b610abc6000611dbf565b565b6000547fffffffffffffffffffffffffffffffffffffffffffffffffffffffffffffffff0181610b4f576040517f08c379a000000000000000000000000000000000000000000000000000000000815260206004820152600f60248201527f4e6f20737461727420706173736564000000000000000000000000000000000060448201526064015b60405180910390fd5b610b5a816001612865565b8214610bc2576040517f08c379a000000000000000000000000000000000000000000000000000000000815260206004820152601360248201527f546f6b656e2069732070617374207374617274000000000000000000000000006044820152606401610b46565b6108a683610fb4565b60606000806000610bdb85610a28565b905060008167ffffffffffffffff811115610bf857610bf86123e0565b604051908082528060200260200182016040528015610c21578160200160208202803683370190505b50604080516060810182526000808252602082018190529181019190915290915060015b838614610d5f576000818152600460209081526040918290208251606081018452905473ffffffffffffffffffffffffffffffffffffffff8116825274010000000000000000000000000000000000000000810467ffffffffffffffff16928201929092527c010000000000000000000000000000000000000000000000000000000090910460ff1615159181018290529250610d5757815173ffffffffffffffffffffffffffffffffffffffff1615610cfe57815194505b8773ffffffffffffffffffffffffffffffffffffffff168573ffffffffffffffffffffffffffffffffffffffff1603610d575780838780600101985081518110610d4a57610d4a612807565b6020026020010181815250505b600101610c45565b50909695505050505050565b6060600380546106b5906127b4565b6060818310610db5576040517f32c1995a00000000000000000000000000000000000000000000000000000000815260040160405180910390fd5b600080546001851015610dc757600194505b80841115610dd3578093505b6000610dde87610a28565b905084861015610dfd5785850381811015610df7578091505b50610e01565b5060005b60008167ffffffffffffffff811115610e1c57610e1c6123e0565b604051908082528060200260200182016040528015610e45578160200160208202803683370190505b50905081600003610e5b579350610fad92505050565b6000610e6688611355565b905060008160400151610e77575080515b885b888114158015610e895750848714155b15610fa1576000818152600460209081526040918290208251606081018452905473ffffffffffffffffffffffffffffffffffffffff8116825274010000000000000000000000000000000000000000810467ffffffffffffffff16928201929092527c010000000000000000000000000000000000000000000000000000000090910460ff1615159181018290529350610f9957825173ffffffffffffffffffffffffffffffffffffffff1615610f4057825191505b8a73ffffffffffffffffffffffffffffffffffffffff168273ffffffffffffffffffffffffffffffffffffffff1603610f995780848880600101995081518110610f8c57610f8c612807565b6020026020010181815250505b600101610e79565b50505092835250909150505b9392505050565b6000547fffffffffffffffffffffffffffffffffffffffffffffffffffffffffffffffff0181611040576040517f08c379a000000000000000000000000000000000000000000000000000000000815260206004820152600760248201527f546f6f20666577000000000000000000000000000000000000000000000000006044820152606401610b46565b600d548211156110ac576040517f08c379a000000000000000000000000000000000000000000000000000000000815260206004820152600860248201527f546f6f206d616e790000000000000000000000000000000000000000000000006044820152606401610b46565b600c546110b98383612865565b1115611121576040517f08c379a000000000000000000000000000000000000000000000000000000000815260206004820152600e60248201527f4d696e74696e6720636c6f7365640000000000000000000000000000000000006044820152606401610b46565b60085473ffffffffffffffffffffffffffffffffffffffff1633146111b557600b5461114d908361287d565b34146111b5576040517f08c379a000000000000000000000000000000000000000000000000000000000815260206004820152600e60248201527f53656e64206578616374204554480000000000000000000000000000000000006044820152606401610b46565b6111bf3383611e36565b7f94242c431036b9ba6723a138d4b275a5b38e13a95ef66227a45df427c0f843f36111ea8383612865565b60405190815260200160405180910390a15050565b3373ffffffffffffffffffffffffffffffffffffffff83160361124e576040517fb06307db00000000000000000000000000000000000000000000000000000000815260040160405180910390fd5b33600081815260076020908152604080832073ffffffffffffffffffffffffffffffffffffffff87168085529083529281902080547fffffffffffffffffffffffffffffffffffffffffffffffffffffffffffffff001686151590811790915590519081529192917f17307eab39ab6107e8899845ad3d59bd9653f200f220920489ca2b5937696c31910160405180910390a35050565b6112f0848484611806565b73ffffffffffffffffffffffffffffffffffffffff83163b1561134f5761131984848484611e54565b61134f576040517fd1a57ed600000000000000000000000000000000000000000000000000000000815260040160405180910390fd5b50505050565b6040805160608082018352600080835260208084018290528385018290528451928301855281835282018190529281019290925290600183108061139b57506000548310155b156113a65792915050565b506000828152600460209081526040918290208251606081018452905473ffffffffffffffffffffffffffffffffffffffff8116825274010000000000000000000000000000000000000000810467ffffffffffffffff16928201929092527c010000000000000000000000000000000000000000000000000000000090910460ff16158015928201929092529061143e5792915050565b610fad83611be9565b606061145282611733565b6114de576040517f08c379a000000000000000000000000000000000000000000000000000000000815260206004820152602f60248201527f4552433732314d657461646174613a2055524920717565727920666f72206e6f60448201527f6e6578697374656e7420746f6b656e00000000000000000000000000000000006064820152608401610b46565b600a6114e9836115d3565b6040516020016114fa9291906128d6565b6040516020818303038152906040529050919050565b6060600980546106b5906127b4565b611527611b68565b73ffffffffffffffffffffffffffffffffffffffff81166115ca576040517f08c379a000000000000000000000000000000000000000000000000000000000815260206004820152602660248201527f4f776e61626c653a206e6577206f776e657220697320746865207a65726f206160448201527f64647265737300000000000000000000000000000000000000000000000000006064820152608401610b46565b61091381611dbf565b60608160000361161657505060408051808201909152600181527f3000000000000000000000000000000000000000000000000000000000000000602082015290565b8160005b8115611640578061162a81612a3a565b91506116399050600a83612a72565b915061161a565b60008167ffffffffffffffff81111561165b5761165b6123e0565b6040519080825280601f01601f191660200182016040528015611685576020820181803683370190505b509050815b851561172a5761169b600182612aad565b905060006116aa600a88612a72565b6116b590600a61287d565b6116bf9088612aad565b6116ca906030612ac4565b905060008160f81b9050808484815181106116e7576116e7612807565b60200101907effffffffffffffffffffffffffffffffffffffffffffffffffffffffffffff1916908160001a905350611721600a89612a72565b9750505061168a565b50949350505050565b600081600111158015611747575060005482105b80156106a05750506000908152600460205260409020547c0100000000000000000000000000000000000000000000000000000000900460ff161590565b60008281526006602052604080822080547fffffffffffffffffffffffff00000000000000000000000000000000000000001673ffffffffffffffffffffffffffffffffffffffff87811691821790925591518593918516917f8c5be1e5ebec7d5bd14f71427d1e84f3dd0314c0f7b2291e5b200ac8c7c3b92591a4505050565b600061181182611be9565b90508373ffffffffffffffffffffffffffffffffffffffff16816000015173ffffffffffffffffffffffffffffffffffffffff161461187c576040517fa114810000000000000000000000000000000000000000000000000000000000815260040160405180910390fd5b60003373ffffffffffffffffffffffffffffffffffffffff861614806118d2575073ffffffffffffffffffffffffffffffffffffffff8516600090815260076020908152604080832033845290915290205460ff165b806118fa5750336118e284610738565b73ffffffffffffffffffffffffffffffffffffffff16145b905080611933576040517f59c896be00000000000000000000000000000000000000000000000000000000815260040160405180910390fd5b73ffffffffffffffffffffffffffffffffffffffff8416611980576040517fea553b3400000000000000000000000000000000000000000000000000000000815260040160405180910390fd5b61198c60008487611785565b73ffffffffffffffffffffffffffffffffffffffff858116600090815260056020908152604080832080547fffffffffffffffffffffffffffffffffffffffffffffffff000000000000000080821667ffffffffffffffff9283167fffffffffffffffffffffffffffffffffffffffffffffffffffffffffffffffff01831617909255898616808652838620805493841693831660019081018416949094179055898652600490945282852080547fffffffff00000000000000000000000000000000000000000000000000000000169094177401000000000000000000000000000000000000000042909216919091021783558701808452922080549193909116611b03576000548214611b03578054602086015167ffffffffffffffff1674010000000000000000000000000000000000000000027fffffffff0000000000000000000000000000000000000000000000000000000090911673ffffffffffffffffffffffffffffffffffffffff8a16171781555b505050828473ffffffffffffffffffffffffffffffffffffffff168673ffffffffffffffffffffffffffffffffffffffff167fddf252ad1be2c89b69c2b068fc378daa952ba7f163c4a11628f55a4df523b3ef60405160405180910390a45050505050565b60085473ffffffffffffffffffffffffffffffffffffffff163314610abc576040517f08c379a000000000000000000000000000000000000000000000000000000000815260206004820181905260248201527f4f776e61626c653a2063616c6c6572206973206e6f7420746865206f776e65726044820152606401610b46565b60408051606081018252600080825260208201819052918101919091528180600111611d8d57600054811015611d8d576000818152600460209081526040918290208251606081018452905473ffffffffffffffffffffffffffffffffffffffff8116825274010000000000000000000000000000000000000000810467ffffffffffffffff16928201929092527c010000000000000000000000000000000000000000000000000000000090910460ff16151591810182905290611d8b57805173ffffffffffffffffffffffffffffffffffffffff1615611ccc579392505050565b507fffffffffffffffffffffffffffffffffffffffffffffffffffffffffffffffff016000818152600460209081526040918290208251606081018452905473ffffffffffffffffffffffffffffffffffffffff811680835274010000000000000000000000000000000000000000820467ffffffffffffffff16938301939093527c0100000000000000000000000000000000000000000000000000000000900460ff1615159281019290925215611d86579392505050565b611ccc565b505b6040517fdf2d9b4200000000000000000000000000000000000000000000000000000000815260040160405180910390fd5b6008805473ffffffffffffffffffffffffffffffffffffffff8381167fffffffffffffffffffffffff0000000000000000000000000000000000000000831681179093556040519116919082907f8be0079c531659141344cd1fd0a4f28419497f9722a3daafe3b4186f6b6457e090600090a35050565b611e50828260405180602001604052806000815250611fcd565b5050565b6040517f150b7a0200000000000000000000000000000000000000000000000000000000815260009073ffffffffffffffffffffffffffffffffffffffff85169063150b7a0290611eaf903390899088908890600401612ae9565b6020604051808303816000875af1925050508015611f08575060408051601f3d9081017fffffffffffffffffffffffffffffffffffffffffffffffffffffffffffffffe0168201909252611f0591810190612b28565b60015b611f7f573d808015611f36576040519150601f19603f3d011682016040523d82523d6000602084013e611f3b565b606091505b508051600003611f77576040517fd1a57ed600000000000000000000000000000000000000000000000000000000815260040160405180910390fd5b805181602001fd5b7fffffffff00000000000000000000000000000000000000000000000000000000167f150b7a0200000000000000000000000000000000000000000000000000000000149050949350505050565b60005473ffffffffffffffffffffffffffffffffffffffff841661201d576040517f2e07630000000000000000000000000000000000000000000000000000000000815260040160405180910390fd5b82600003612057576040517fb562e8dd00000000000000000000000000000000000000000000000000000000815260040160405180910390fd5b73ffffffffffffffffffffffffffffffffffffffff8416600081815260056020908152604080832080547fffffffffffffffffffffffffffffffff00000000000000000000000000000000811667ffffffffffffffff8083168b018116918217680100000000000000007fffffffffffffffffffffffffffffffffffffffffffffffff000000000000000090941690921783900481168b01811690920217909155858452600490925290912080547fffffffff000000000000000000000000000000000000000000000000000000001683177401000000000000000000000000000000000000000042909316929092029190911790558190818501903b15612202575b604051829073ffffffffffffffffffffffffffffffffffffffff8816906000907fddf252ad1be2c89b69c2b068fc378daa952ba7f163c4a11628f55a4df523b3ef908290a46121b26000878480600101955087611e54565b6121e8576040517fd1a57ed600000000000000000000000000000000000000000000000000000000815260040160405180910390fd5b80821061215a5782600054146121fd57600080fd5b612254565b5b60405160018301929073ffffffffffffffffffffffffffffffffffffffff8816906000907fddf252ad1be2c89b69c2b068fc378daa952ba7f163c4a11628f55a4df523b3ef908290a4808210612203575b50600090815561134f9085838684565b7fffffffff000000000000000000000000000000000000000000000000000000008116811461091357600080fd5b6000602082840312156122a457600080fd5b8135610fad81612264565b60005b838110156122ca5781810151838201526020016122b2565b8381111561134f5750506000910152565b600081518084526122f38160208601602086016122af565b601f017fffffffffffffffffffffffffffffffffffffffffffffffffffffffffffffffe0169290920160200192915050565b602081526000610fad60208301846122db565b60006020828403121561234a57600080fd5b5035919050565b803573ffffffffffffffffffffffffffffffffffffffff8116811461237557600080fd5b919050565b6000806040838503121561238d57600080fd5b61239683612351565b946020939093013593505050565b6000806000606084860312156123b957600080fd5b6123c284612351565b92506123d060208501612351565b9150604084013590509250925092565b7f4e487b7100000000000000000000000000000000000000000000000000000000600052604160045260246000fd5b604051601f82017fffffffffffffffffffffffffffffffffffffffffffffffffffffffffffffffe016810167ffffffffffffffff81118282101715612456576124566123e0565b604052919050565b6000602080838503121561247157600080fd5b823567ffffffffffffffff8082111561248957600080fd5b818501915085601f83011261249d57600080fd5b8135818111156124af576124af6123e0565b8060051b91506124c084830161240f565b81815291830184019184810190888411156124da57600080fd5b938501935b838510156124f8578435825293850193908501906124df565b98975050505050505050565b6020808252825182820181905260009190848201906040850190845b81811015610d5f57612569838551805173ffffffffffffffffffffffffffffffffffffffff16825260208082015167ffffffffffffffff16908301526040908101511515910152565b9284019260609290920191600101612520565b60006020828403121561258e57600080fd5b610fad82612351565b600080604083850312156125aa57600080fd5b50508035926020909101359150565b6020808252825182820181905260009190848201906040850190845b81811015610d5f578351835292840192918401916001016125d5565b60008060006060848603121561260657600080fd5b61260f84612351565b95602085013595506040909401359392505050565b6000806040838503121561263757600080fd5b61264083612351565b91506020830135801515811461265557600080fd5b809150509250929050565b6000806000806080858703121561267657600080fd5b61267f85612351565b9350602061268e818701612351565b935060408601359250606086013567ffffffffffffffff808211156126b257600080fd5b818801915088601f8301126126c657600080fd5b8135818111156126d8576126d86123e0565b612708847fffffffffffffffffffffffffffffffffffffffffffffffffffffffffffffffe0601f8401160161240f565b9150808252898482850101111561271e57600080fd5b808484018584013760008482840101525080935050505092959194509250565b815173ffffffffffffffffffffffffffffffffffffffff16815260208083015167ffffffffffffffff1690820152604080830151151590820152606081016106a0565b6000806040838503121561279457600080fd5b61279d83612351565b91506127ab60208401612351565b90509250929050565b600181811c908216806127c857607f821691505b602082108103612801577f4e487b7100000000000000000000000000000000000000000000000000000000600052602260045260246000fd5b50919050565b7f4e487b7100000000000000000000000000000000000000000000000000000000600052603260045260246000fd5b7f4e487b7100000000000000000000000000000000000000000000000000000000600052601160045260246000fd5b6000821982111561287857612878612836565b500190565b6000817fffffffffffffffffffffffffffffffffffffffffffffffffffffffffffffffff04831182151516156128b5576128b5612836565b500290565b600081516128cc8185602086016122af565b9290920192915050565b7f697066733a2f2f000000000000000000000000000000000000000000000000008152600060076000855481600182811c91508083168061291857607f831692505b60208084108203612950577f4e487b710000000000000000000000000000000000000000000000000000000086526022600452602486fd5b8180156129645760018114612997576129c8565b7fffffffffffffffffffffffffffffffffffffffffffffffffffffffffffffff008616888b015287858b010196506129c8565b60008c81526020902060005b868110156129be5781548c82018b01529085019083016129a3565b505087858b010196505b505050505050612a30612a07612a01837f2f6d657461646174612f000000000000000000000000000000000000000000008152600a0190565b876128ba565b7f2e6a736f6e000000000000000000000000000000000000000000000000000000815260050190565b9695505050505050565b60007fffffffffffffffffffffffffffffffffffffffffffffffffffffffffffffffff8203612a6b57612a6b612836565b5060010190565b600082612aa8577f4e487b7100000000000000000000000000000000000000000000000000000000600052601260045260246000fd5b500490565b600082821015612abf57612abf612836565b500390565b600060ff821660ff84168060ff03821115612ae157612ae1612836565b019392505050565b600073ffffffffffffffffffffffffffffffffffffffff808716835280861660208401525083604083015260806060830152612a3060808301846122db565b600060208284031215612b3a57600080fd5b8151610fad8161226456fea2646970667358221220f2ecb4365a5e748e9e2dcdb228a9f20f92773f0e3232e0799ab408b86c9eb57b64736f6c634300080d0033","opcodes":"PUSH1 0x80 PUSH1 0x40 MSTORE PUSH1 0xA PUSH1 0xD SSTORE CALLVALUE DUP1 ISZERO PUSH3 0x16 JUMPI PUSH1 0x0 DUP1 REVERT JUMPDEST POP PUSH1 0x40 MLOAD PUSH3 0x2FFB CODESIZE SUB DUP1 PUSH3 0x2FFB DUP4 CODECOPY DUP2 ADD PUSH1 0x40 DUP2 SWAP1 MSTORE PUSH3 0x39 SWAP2 PUSH3 0x2A6 JUMP JUMPDEST DUP5 MLOAD DUP6 SWAP1 DUP6 SWAP1 PUSH3 0x52 SWAP1 PUSH1 0x2 SWAP1 PUSH1 0x20 DUP6 ADD SWAP1 PUSH3 0x133 JUMP JUMPDEST POP DUP1 MLOAD PUSH3 0x68 SWAP1 PUSH1 0x3 SWAP1 PUSH1 0x20 DUP5 ADD SWAP1 PUSH3 0x133 JUMP JUMPDEST POP POP PUSH1 0x1 PUSH1 0x0 SSTORE POP PUSH3 0x7B CALLER PUSH3 0xE1 JUMP JUMPDEST PUSH1 0xB DUP3 SWAP1 SSTORE PUSH1 0xC DUP2 SWAP1 SSTORE DUP3 MLOAD PUSH3 0x9A SWAP1 PUSH1 0xA SWAP1 PUSH1 0x20 DUP7 ADD SWAP1 PUSH3 0x133 JUMP JUMPDEST POP PUSH1 0xA PUSH1 0x40 MLOAD PUSH1 0x20 ADD PUSH3 0xAF SWAP2 SWAP1 PUSH3 0x386 JUMP JUMPDEST PUSH1 0x40 MLOAD PUSH1 0x20 DUP2 DUP4 SUB SUB DUP2 MSTORE SWAP1 PUSH1 0x40 MSTORE PUSH1 0x9 SWAP1 DUP1 MLOAD SWAP1 PUSH1 0x20 ADD SWAP1 PUSH3 0xD5 SWAP3 SWAP2 SWAP1 PUSH3 0x133 JUMP JUMPDEST POP POP POP POP POP POP PUSH3 0x470 JUMP JUMPDEST PUSH1 0x8 DUP1 SLOAD PUSH1 0x1 PUSH1 0x1 PUSH1 0xA0 SHL SUB DUP4 DUP2 AND PUSH1 0x1 PUSH1 0x1 PUSH1 0xA0 SHL SUB NOT DUP4 AND DUP2 OR SWAP1 SWAP4 SSTORE PUSH1 0x40 MLOAD SWAP2 AND SWAP2 SWAP1 DUP3 SWAP1 PUSH32 0x8BE0079C531659141344CD1FD0A4F28419497F9722A3DAAFE3B4186F6B6457E0 SWAP1 PUSH1 0x0 SWAP1 LOG3 POP POP JUMP JUMPDEST DUP3 DUP1 SLOAD PUSH3 0x141 SWAP1 PUSH3 0x34A JUMP JUMPDEST SWAP1 PUSH1 0x0 MSTORE PUSH1 0x20 PUSH1 0x0 KECCAK256 SWAP1 PUSH1 0x1F ADD PUSH1 0x20 SWAP1 DIV DUP2 ADD SWAP3 DUP3 PUSH3 0x165 JUMPI PUSH1 0x0 DUP6 SSTORE PUSH3 0x1B0 JUMP JUMPDEST DUP3 PUSH1 0x1F LT PUSH3 0x180 JUMPI DUP1 MLOAD PUSH1 0xFF NOT AND DUP4 DUP1 ADD OR DUP6 SSTORE PUSH3 0x1B0 JUMP JUMPDEST DUP3 DUP1 ADD PUSH1 0x1 ADD DUP6 SSTORE DUP3 ISZERO PUSH3 0x1B0 JUMPI SWAP2 DUP3 ADD JUMPDEST DUP3 DUP2 GT ISZERO PUSH3 0x1B0 JUMPI DUP3 MLOAD DUP3 SSTORE SWAP2 PUSH1 0x20 ADD SWAP2 SWAP1 PUSH1 0x1 ADD SWAP1 PUSH3 0x193 JUMP JUMPDEST POP PUSH3 0x1BE SWAP3 SWAP2 POP PUSH3 0x1C2 JUMP JUMPDEST POP SWAP1 JUMP JUMPDEST JUMPDEST DUP1 DUP3 GT ISZERO PUSH3 0x1BE JUMPI PUSH1 0x0 DUP2 SSTORE PUSH1 0x1 ADD PUSH3 0x1C3 JUMP JUMPDEST PUSH4 0x4E487B71 PUSH1 0xE0 SHL PUSH1 0x0 MSTORE PUSH1 0x41 PUSH1 0x4 MSTORE PUSH1 0x24 PUSH1 0x0 REVERT JUMPDEST PUSH1 0x0 DUP3 PUSH1 0x1F DUP4 ADD SLT PUSH3 0x201 JUMPI PUSH1 0x0 DUP1 REVERT JUMPDEST DUP2 MLOAD PUSH1 0x1 PUSH1 0x1 PUSH1 0x40 SHL SUB DUP1 DUP3 GT ISZERO PUSH3 0x21E JUMPI PUSH3 0x21E PUSH3 0x1D9 JUMP JUMPDEST PUSH1 0x40 MLOAD PUSH1 0x1F DUP4 ADD PUSH1 0x1F NOT SWAP1 DUP2 AND PUSH1 0x3F ADD AND DUP2 ADD SWAP1 DUP3 DUP3 GT DUP2 DUP4 LT OR ISZERO PUSH3 0x249 JUMPI PUSH3 0x249 PUSH3 0x1D9 JUMP JUMPDEST DUP2 PUSH1 0x40 MSTORE DUP4 DUP2 MSTORE PUSH1 0x20 SWAP3 POP DUP7 DUP4 DUP6 DUP9 ADD ADD GT ISZERO PUSH3 0x266 JUMPI PUSH1 0x0 DUP1 REVERT JUMPDEST PUSH1 0x0 SWAP2 POP JUMPDEST DUP4 DUP3 LT ISZERO PUSH3 0x28A JUMPI DUP6 DUP3 ADD DUP4 ADD MLOAD DUP2 DUP4 ADD DUP5 ADD MSTORE SWAP1 DUP3 ADD SWAP1 PUSH3 0x26B JUMP JUMPDEST DUP4 DUP3 GT ISZERO PUSH3 0x29C JUMPI PUSH1 0x0 DUP4 DUP6 DUP4 ADD ADD MSTORE JUMPDEST SWAP7 SWAP6 POP POP POP POP POP POP JUMP JUMPDEST PUSH1 0x0 DUP1 PUSH1 0x0 DUP1 PUSH1 0x0 PUSH1 0xA0 DUP7 DUP9 SUB SLT ISZERO PUSH3 0x2BF JUMPI PUSH1 0x0 DUP1 REVERT JUMPDEST DUP6 MLOAD PUSH1 0x1 PUSH1 0x1 PUSH1 0x40 SHL SUB DUP1 DUP3 GT ISZERO PUSH3 0x2D7 JUMPI PUSH1 0x0 DUP1 REVERT JUMPDEST PUSH3 0x2E5 DUP10 DUP4 DUP11 ADD PUSH3 0x1EF JUMP JUMPDEST SWAP7 POP PUSH1 0x20 DUP9 ADD MLOAD SWAP2 POP DUP1 DUP3 GT ISZERO PUSH3 0x2FC JUMPI PUSH1 0x0 DUP1 REVERT JUMPDEST PUSH3 0x30A DUP10 DUP4 DUP11 ADD PUSH3 0x1EF JUMP JUMPDEST SWAP6 POP PUSH1 0x40 DUP9 ADD MLOAD SWAP2 POP DUP1 DUP3 GT ISZERO PUSH3 0x321 JUMPI PUSH1 0x0 DUP1 REVERT JUMPDEST POP PUSH3 0x330 DUP9 DUP3 DUP10 ADD PUSH3 0x1EF JUMP JUMPDEST PUSH1 0x60 DUP9 ADD MLOAD PUSH1 0x80 SWAP1 SWAP9 ADD MLOAD SWAP7 SWAP10 SWAP6 SWAP9 POP SWAP7 SWAP6 SWAP5 SWAP4 POP POP POP POP JUMP JUMPDEST PUSH1 0x1 DUP2 DUP2 SHR SWAP1 DUP3 AND DUP1 PUSH3 0x35F JUMPI PUSH1 0x7F DUP3 AND SWAP2 POP JUMPDEST PUSH1 0x20 DUP3 LT DUP2 SUB PUSH3 0x380 JUMPI PUSH4 0x4E487B71 PUSH1 0xE0 SHL PUSH1 0x0 MSTORE PUSH1 0x22 PUSH1 0x4 MSTORE PUSH1 0x24 PUSH1 0x0 REVERT JUMPDEST POP SWAP2 SWAP1 POP JUMP JUMPDEST PUSH7 0x697066733A2F2F PUSH1 0xC8 SHL DUP2 MSTORE PUSH1 0x0 PUSH1 0x7 PUSH1 0x0 DUP5 SLOAD DUP2 PUSH1 0x1 DUP3 DUP2 SHR SWAP2 POP DUP1 DUP4 AND DUP1 PUSH3 0x3B3 JUMPI PUSH1 0x7F DUP4 AND SWAP3 POP JUMPDEST PUSH1 0x20 DUP1 DUP5 LT DUP3 SUB PUSH3 0x3D3 JUMPI PUSH4 0x4E487B71 PUSH1 0xE0 SHL DUP7 MSTORE PUSH1 0x22 PUSH1 0x4 MSTORE PUSH1 0x24 DUP7 REVERT JUMPDEST DUP2 DUP1 ISZERO PUSH3 0x3EA JUMPI PUSH1 0x1 DUP2 EQ PUSH3 0x400 JUMPI PUSH3 0x433 JUMP JUMPDEST PUSH1 0xFF NOT DUP7 AND DUP11 DUP10 ADD MSTORE DUP5 DUP11 ADD DUP9 ADD SWAP7 POP PUSH3 0x433 JUMP JUMPDEST PUSH1 0x0 DUP12 DUP2 MSTORE PUSH1 0x20 SWAP1 KECCAK256 PUSH1 0x0 JUMPDEST DUP7 DUP2 LT ISZERO PUSH3 0x429 JUMPI DUP2 SLOAD DUP13 DUP3 ADD DUP12 ADD MSTORE SWAP1 DUP6 ADD SWAP1 DUP4 ADD PUSH3 0x40C JUMP JUMPDEST POP POP DUP8 DUP6 DUP12 ADD ADD SWAP7 POP JUMPDEST POP POP POP POP POP POP PUSH3 0x467 DUP2 PUSH32 0x2F636F6E74726163744D657461646174612E6A736F6E00000000000000000000 DUP2 MSTORE PUSH1 0x16 ADD SWAP1 JUMP JUMPDEST SWAP6 SWAP5 POP POP POP POP POP JUMP JUMPDEST PUSH2 0x2B7B DUP1 PUSH3 0x480 PUSH1 0x0 CODECOPY PUSH1 0x0 RETURN INVALID PUSH1 0x80 PUSH1 0x40 MSTORE PUSH1 0x4 CALLDATASIZE LT PUSH2 0x1B7 JUMPI PUSH1 0x0 CALLDATALOAD PUSH1 0xE0 SHR DUP1 PUSH4 0x8DA5CB5B GT PUSH2 0xEC JUMPI DUP1 PUSH4 0xC23DC68F GT PUSH2 0x8A JUMPI DUP1 PUSH4 0xE985E9C5 GT PUSH2 0x64 JUMPI DUP1 PUSH4 0xE985E9C5 EQ PUSH2 0x515 JUMPI DUP1 PUSH4 0xF2FDE38B EQ PUSH2 0x56B JUMPI DUP1 PUSH4 0xF76F950E EQ PUSH2 0x58B JUMPI DUP1 PUSH4 0xFA9B7018 EQ PUSH2 0x5AB JUMPI PUSH1 0x0 DUP1 REVERT JUMPDEST DUP1 PUSH4 0xC23DC68F EQ PUSH2 0x4B3 JUMPI DUP1 PUSH4 0xC87B56DD EQ PUSH2 0x4E0 JUMPI DUP1 PUSH4 0xE8A3D485 EQ PUSH2 0x500 JUMPI PUSH1 0x0 DUP1 REVERT JUMPDEST DUP1 PUSH4 0xA0712D68 GT PUSH2 0xC6 JUMPI DUP1 PUSH4 0xA0712D68 EQ PUSH2 0x429 JUMPI DUP1 PUSH4 0xA22CB465 EQ PUSH2 0x43C JUMPI DUP1 PUSH4 0xA2309FF8 EQ PUSH2 0x45C JUMPI DUP1 PUSH4 0xB88D4FDE EQ PUSH2 0x493 JUMPI PUSH1 0x0 DUP1 REVERT JUMPDEST DUP1 PUSH4 0x8DA5CB5B EQ PUSH2 0x3C9 JUMPI DUP1 PUSH4 0x95D89B41 EQ PUSH2 0x3F4 JUMPI DUP1 PUSH4 0x99A2557A EQ PUSH2 0x409 JUMPI PUSH1 0x0 DUP1 REVERT JUMPDEST DUP1 PUSH4 0x42842E0E GT PUSH2 0x159 JUMPI DUP1 PUSH4 0x70A08231 GT PUSH2 0x133 JUMPI DUP1 PUSH4 0x70A08231 EQ PUSH2 0x354 JUMPI DUP1 PUSH4 0x715018A6 EQ PUSH2 0x374 JUMPI DUP1 PUSH4 0x7A4D892A EQ PUSH2 0x389 JUMPI DUP1 PUSH4 0x8462151C EQ PUSH2 0x39C JUMPI PUSH1 0x0 DUP1 REVERT JUMPDEST DUP1 PUSH4 0x42842E0E EQ PUSH2 0x2E7 JUMPI DUP1 PUSH4 0x5BBB2177 EQ PUSH2 0x307 JUMPI DUP1 PUSH4 0x6352211E EQ PUSH2 0x334 JUMPI PUSH1 0x0 DUP1 REVERT JUMPDEST DUP1 PUSH4 0x95EA7B3 GT PUSH2 0x195 JUMPI DUP1 PUSH4 0x95EA7B3 EQ PUSH2 0x258 JUMPI DUP1 PUSH4 0x18160DDD EQ PUSH2 0x27A JUMPI DUP1 PUSH4 0x23B872DD EQ PUSH2 0x2BF JUMPI DUP1 PUSH4 0x3CCFD60B EQ PUSH2 0x2DF JUMPI PUSH1 0x0 DUP1 REVERT JUMPDEST DUP1 PUSH4 0x1FFC9A7 EQ PUSH2 0x1BC JUMPI DUP1 PUSH4 0x6FDDE03 EQ PUSH2 0x1F1 JUMPI DUP1 PUSH4 0x81812FC EQ PUSH2 0x213 JUMPI JUMPDEST PUSH1 0x0 DUP1 REVERT JUMPDEST CALLVALUE DUP1 ISZERO PUSH2 0x1C8 JUMPI PUSH1 0x0 DUP1 REVERT JUMPDEST POP PUSH2 0x1DC PUSH2 0x1D7 CALLDATASIZE PUSH1 0x4 PUSH2 0x2292 JUMP JUMPDEST PUSH2 0x5C1 JUMP JUMPDEST PUSH1 0x40 MLOAD SWAP1 ISZERO ISZERO DUP2 MSTORE PUSH1 0x20 ADD JUMPDEST PUSH1 0x40 MLOAD DUP1 SWAP2 SUB SWAP1 RETURN JUMPDEST CALLVALUE DUP1 ISZERO PUSH2 0x1FD JUMPI PUSH1 0x0 DUP1 REVERT JUMPDEST POP PUSH2 0x206 PUSH2 0x6A6 JUMP JUMPDEST PUSH1 0x40 MLOAD PUSH2 0x1E8 SWAP2 SWAP1 PUSH2 0x2325 JUMP JUMPDEST CALLVALUE DUP1 ISZERO PUSH2 0x21F JUMPI PUSH1 0x0 DUP1 REVERT JUMPDEST POP PUSH2 0x233 PUSH2 0x22E CALLDATASIZE PUSH1 0x4 PUSH2 0x2338 JUMP JUMPDEST PUSH2 0x738 JUMP JUMPDEST PUSH1 0x40 MLOAD PUSH20 0xFFFFFFFFFFFFFFFFFFFFFFFFFFFFFFFFFFFFFFFF SWAP1 SWAP2 AND DUP2 MSTORE PUSH1 0x20 ADD PUSH2 0x1E8 JUMP JUMPDEST CALLVALUE DUP1 ISZERO PUSH2 0x264 JUMPI PUSH1 0x0 DUP1 REVERT JUMPDEST POP PUSH2 0x278 PUSH2 0x273 CALLDATASIZE PUSH1 0x4 PUSH2 0x237A JUMP JUMPDEST PUSH2 0x7A2 JUMP JUMPDEST STOP JUMPDEST CALLVALUE DUP1 ISZERO PUSH2 0x286 JUMPI PUSH1 0x0 DUP1 REVERT JUMPDEST POP PUSH1 0x1 SLOAD PUSH1 0x0 SLOAD SUB PUSH32 0xFFFFFFFFFFFFFFFFFFFFFFFFFFFFFFFFFFFFFFFFFFFFFFFFFFFFFFFFFFFFFFFF ADD JUMPDEST PUSH1 0x40 MLOAD SWAP1 DUP2 MSTORE PUSH1 0x20 ADD PUSH2 0x1E8 JUMP JUMPDEST CALLVALUE DUP1 ISZERO PUSH2 0x2CB JUMPI PUSH1 0x0 DUP1 REVERT JUMPDEST POP PUSH2 0x278 PUSH2 0x2DA CALLDATASIZE PUSH1 0x4 PUSH2 0x23A4 JUMP JUMPDEST PUSH2 0x8AB JUMP JUMPDEST PUSH2 0x278 PUSH2 0x8B6 JUMP JUMPDEST CALLVALUE DUP1 ISZERO PUSH2 0x2F3 JUMPI PUSH1 0x0 DUP1 REVERT JUMPDEST POP PUSH2 0x278 PUSH2 0x302 CALLDATASIZE PUSH1 0x4 PUSH2 0x23A4 JUMP JUMPDEST PUSH2 0x916 JUMP JUMPDEST CALLVALUE DUP1 ISZERO PUSH2 0x313 JUMPI PUSH1 0x0 DUP1 REVERT JUMPDEST POP PUSH2 0x327 PUSH2 0x322 CALLDATASIZE PUSH1 0x4 PUSH2 0x245E JUMP JUMPDEST PUSH2 0x931 JUMP JUMPDEST PUSH1 0x40 MLOAD PUSH2 0x1E8 SWAP2 SWAP1 PUSH2 0x2504 JUMP JUMPDEST CALLVALUE DUP1 ISZERO PUSH2 0x340 JUMPI PUSH1 0x0 DUP1 REVERT JUMPDEST POP PUSH2 0x233 PUSH2 0x34F CALLDATASIZE PUSH1 0x4 PUSH2 0x2338 JUMP JUMPDEST PUSH2 0xA16 JUMP JUMPDEST CALLVALUE DUP1 ISZERO PUSH2 0x360 JUMPI PUSH1 0x0 DUP1 REVERT JUMPDEST POP PUSH2 0x2B1 PUSH2 0x36F CALLDATASIZE PUSH1 0x4 PUSH2 0x257C JUMP JUMPDEST PUSH2 0xA28 JUMP JUMPDEST CALLVALUE DUP1 ISZERO PUSH2 0x380 JUMPI PUSH1 0x0 DUP1 REVERT JUMPDEST POP PUSH2 0x278 PUSH2 0xAAA JUMP JUMPDEST PUSH2 0x278 PUSH2 0x397 CALLDATASIZE PUSH1 0x4 PUSH2 0x2597 JUMP JUMPDEST PUSH2 0xABE JUMP JUMPDEST CALLVALUE DUP1 ISZERO PUSH2 0x3A8 JUMPI PUSH1 0x0 DUP1 REVERT JUMPDEST POP PUSH2 0x3BC PUSH2 0x3B7 CALLDATASIZE PUSH1 0x4 PUSH2 0x257C JUMP JUMPDEST PUSH2 0xBCB JUMP JUMPDEST PUSH1 0x40 MLOAD PUSH2 0x1E8 SWAP2 SWAP1 PUSH2 0x25B9 JUMP JUMPDEST CALLVALUE DUP1 ISZERO PUSH2 0x3D5 JUMPI PUSH1 0x0 DUP1 REVERT JUMPDEST POP PUSH1 0x8 SLOAD PUSH20 0xFFFFFFFFFFFFFFFFFFFFFFFFFFFFFFFFFFFFFFFF AND PUSH2 0x233 JUMP JUMPDEST CALLVALUE DUP1 ISZERO PUSH2 0x400 JUMPI PUSH1 0x0 DUP1 REVERT JUMPDEST POP PUSH2 0x206 PUSH2 0xD6B JUMP JUMPDEST CALLVALUE DUP1 ISZERO PUSH2 0x415 JUMPI PUSH1 0x0 DUP1 REVERT JUMPDEST POP PUSH2 0x3BC PUSH2 0x424 CALLDATASIZE PUSH1 0x4 PUSH2 0x25F1 JUMP JUMPDEST PUSH2 0xD7A JUMP JUMPDEST PUSH2 0x278 PUSH2 0x437 CALLDATASIZE PUSH1 0x4 PUSH2 0x2338 JUMP JUMPDEST PUSH2 0xFB4 JUMP JUMPDEST CALLVALUE DUP1 ISZERO PUSH2 0x448 JUMPI PUSH1 0x0 DUP1 REVERT JUMPDEST POP PUSH2 0x278 PUSH2 0x457 CALLDATASIZE PUSH1 0x4 PUSH2 0x2624 JUMP JUMPDEST PUSH2 0x11FF JUMP JUMPDEST CALLVALUE DUP1 ISZERO PUSH2 0x468 JUMPI PUSH1 0x0 DUP1 REVERT JUMPDEST POP PUSH1 0x0 SLOAD PUSH32 0xFFFFFFFFFFFFFFFFFFFFFFFFFFFFFFFFFFFFFFFFFFFFFFFFFFFFFFFFFFFFFFFF ADD PUSH2 0x2B1 JUMP JUMPDEST CALLVALUE DUP1 ISZERO PUSH2 0x49F JUMPI PUSH1 0x0 DUP1 REVERT JUMPDEST POP PUSH2 0x278 PUSH2 0x4AE CALLDATASIZE PUSH1 0x4 PUSH2 0x2660 JUMP JUMPDEST PUSH2 0x12E5 JUMP JUMPDEST CALLVALUE DUP1 ISZERO PUSH2 0x4BF JUMPI PUSH1 0x0 DUP1 REVERT JUMPDEST POP PUSH2 0x4D3 PUSH2 0x4CE CALLDATASIZE PUSH1 0x4 PUSH2 0x2338 JUMP JUMPDEST PUSH2 0x1355 JUMP JUMPDEST PUSH1 0x40 MLOAD PUSH2 0x1E8 SWAP2 SWAP1 PUSH2 0x273E JUMP JUMPDEST CALLVALUE DUP1 ISZERO PUSH2 0x4EC JUMPI PUSH1 0x0 DUP1 REVERT JUMPDEST POP PUSH2 0x206 PUSH2 0x4FB CALLDATASIZE PUSH1 0x4 PUSH2 0x2338 JUMP JUMPDEST PUSH2 0x1447 JUMP JUMPDEST CALLVALUE DUP1 ISZERO PUSH2 0x50C JUMPI PUSH1 0x0 DUP1 REVERT JUMPDEST POP PUSH2 0x206 PUSH2 0x1510 JUMP JUMPDEST CALLVALUE DUP1 ISZERO PUSH2 0x521 JUMPI PUSH1 0x0 DUP1 REVERT JUMPDEST POP PUSH2 0x1DC PUSH2 0x530 CALLDATASIZE PUSH1 0x4 PUSH2 0x2781 JUMP JUMPDEST PUSH20 0xFFFFFFFFFFFFFFFFFFFFFFFFFFFFFFFFFFFFFFFF SWAP2 DUP3 AND PUSH1 0x0 SWAP1 DUP2 MSTORE PUSH1 0x7 PUSH1 0x20 SWAP1 DUP2 MSTORE PUSH1 0x40 DUP1 DUP4 KECCAK256 SWAP4 SWAP1 SWAP5 AND DUP3 MSTORE SWAP2 SWAP1 SWAP2 MSTORE KECCAK256 SLOAD PUSH1 0xFF AND SWAP1 JUMP JUMPDEST CALLVALUE DUP1 ISZERO PUSH2 0x577 JUMPI PUSH1 0x0 DUP1 REVERT JUMPDEST POP PUSH2 0x278 PUSH2 0x586 CALLDATASIZE PUSH1 0x4 PUSH2 0x257C JUMP JUMPDEST PUSH2 0x151F JUMP JUMPDEST CALLVALUE DUP1 ISZERO PUSH2 0x597 JUMPI PUSH1 0x0 DUP1 REVERT JUMPDEST POP PUSH2 0x206 PUSH2 0x5A6 CALLDATASIZE PUSH1 0x4 PUSH2 0x2338 JUMP JUMPDEST PUSH2 0x15D3 JUMP JUMPDEST CALLVALUE DUP1 ISZERO PUSH2 0x5B7 JUMPI PUSH1 0x0 DUP1 REVERT JUMPDEST POP PUSH2 0x2B1 PUSH1 0xD SLOAD DUP2 JUMP JUMPDEST PUSH1 0x0 PUSH32 0xFFFFFFFF00000000000000000000000000000000000000000000000000000000 DUP3 AND PUSH32 0x80AC58CD00000000000000000000000000000000000000000000000000000000 EQ DUP1 PUSH2 0x654 JUMPI POP PUSH32 0xFFFFFFFF00000000000000000000000000000000000000000000000000000000 DUP3 AND PUSH32 0x5B5E139F00000000000000000000000000000000000000000000000000000000 EQ JUMPDEST DUP1 PUSH2 0x6A0 JUMPI POP PUSH32 0x1FFC9A700000000000000000000000000000000000000000000000000000000 PUSH32 0xFFFFFFFF00000000000000000000000000000000000000000000000000000000 DUP4 AND EQ JUMPDEST SWAP3 SWAP2 POP POP JUMP JUMPDEST PUSH1 0x60 PUSH1 0x2 DUP1 SLOAD PUSH2 0x6B5 SWAP1 PUSH2 0x27B4 JUMP JUMPDEST DUP1 PUSH1 0x1F ADD PUSH1 0x20 DUP1 SWAP2 DIV MUL PUSH1 0x20 ADD PUSH1 0x40 MLOAD SWAP1 DUP2 ADD PUSH1 0x40 MSTORE DUP1 SWAP3 SWAP2 SWAP1 DUP2 DUP2 MSTORE PUSH1 0x20 ADD DUP3 DUP1 SLOAD PUSH2 0x6E1 SWAP1 PUSH2 0x27B4 JUMP JUMPDEST DUP1 ISZERO PUSH2 0x72E JUMPI DUP1 PUSH1 0x1F LT PUSH2 0x703 JUMPI PUSH2 0x100 DUP1 DUP4 SLOAD DIV MUL DUP4 MSTORE SWAP2 PUSH1 0x20 ADD SWAP2 PUSH2 0x72E JUMP JUMPDEST DUP3 ADD SWAP2 SWAP1 PUSH1 0x0 MSTORE PUSH1 0x20 PUSH1 0x0 KECCAK256 SWAP1 JUMPDEST DUP2 SLOAD DUP2 MSTORE SWAP1 PUSH1 0x1 ADD SWAP1 PUSH1 0x20 ADD DUP1 DUP4 GT PUSH2 0x711 JUMPI DUP3 SWAP1 SUB PUSH1 0x1F AND DUP3 ADD SWAP2 JUMPDEST POP POP POP POP POP SWAP1 POP SWAP1 JUMP JUMPDEST PUSH1 0x0 PUSH2 0x743 DUP3 PUSH2 0x1733 JUMP JUMPDEST PUSH2 0x779 JUMPI PUSH1 0x40 MLOAD PUSH32 0xCF4700E400000000000000000000000000000000000000000000000000000000 DUP2 MSTORE PUSH1 0x4 ADD PUSH1 0x40 MLOAD DUP1 SWAP2 SUB SWAP1 REVERT JUMPDEST POP PUSH1 0x0 SWAP1 DUP2 MSTORE PUSH1 0x6 PUSH1 0x20 MSTORE PUSH1 0x40 SWAP1 KECCAK256 SLOAD PUSH20 0xFFFFFFFFFFFFFFFFFFFFFFFFFFFFFFFFFFFFFFFF AND SWAP1 JUMP JUMPDEST PUSH1 0x0 PUSH2 0x7AD DUP3 PUSH2 0xA16 JUMP JUMPDEST SWAP1 POP DUP1 PUSH20 0xFFFFFFFFFFFFFFFFFFFFFFFFFFFFFFFFFFFFFFFF AND DUP4 PUSH20 0xFFFFFFFFFFFFFFFFFFFFFFFFFFFFFFFFFFFFFFFF AND SUB PUSH2 0x814 JUMPI PUSH1 0x40 MLOAD PUSH32 0x943F7B8C00000000000000000000000000000000000000000000000000000000 DUP2 MSTORE PUSH1 0x4 ADD PUSH1 0x40 MLOAD DUP1 SWAP2 SUB SWAP1 REVERT JUMPDEST CALLER PUSH20 0xFFFFFFFFFFFFFFFFFFFFFFFFFFFFFFFFFFFFFFFF DUP3 AND EQ PUSH2 0x89B JUMPI PUSH20 0xFFFFFFFFFFFFFFFFFFFFFFFFFFFFFFFFFFFFFFFF DUP2 AND PUSH1 0x0 SWAP1 DUP2 MSTORE PUSH1 0x7 PUSH1 0x20 SWAP1 DUP2 MSTORE PUSH1 0x40 DUP1 DUP4 KECCAK256 CALLER DUP5 MSTORE SWAP1 SWAP2 MSTORE SWAP1 KECCAK256 SLOAD PUSH1 0xFF AND PUSH2 0x89B JUMPI PUSH1 0x40 MLOAD PUSH32 0xCFB3B94200000000000000000000000000000000000000000000000000000000 DUP2 MSTORE PUSH1 0x4 ADD PUSH1 0x40 MLOAD DUP1 SWAP2 SUB SWAP1 REVERT JUMPDEST PUSH2 0x8A6 DUP4 DUP4 DUP4 PUSH2 0x1785 JUMP JUMPDEST POP POP POP JUMP JUMPDEST PUSH2 0x8A6 DUP4 DUP4 DUP4 PUSH2 0x1806 JUMP JUMPDEST PUSH2 0x8BE PUSH2 0x1B68 JUMP JUMPDEST PUSH1 0x40 MLOAD PUSH1 0x0 SWAP1 CALLER SWAP1 SELFBALANCE SWAP1 DUP4 DUP2 DUP2 DUP2 DUP6 DUP8 GAS CALL SWAP3 POP POP POP RETURNDATASIZE DUP1 PUSH1 0x0 DUP2 EQ PUSH2 0x900 JUMPI PUSH1 0x40 MLOAD SWAP2 POP PUSH1 0x1F NOT PUSH1 0x3F RETURNDATASIZE ADD AND DUP3 ADD PUSH1 0x40 MSTORE RETURNDATASIZE DUP3 MSTORE RETURNDATASIZE PUSH1 0x0 PUSH1 0x20 DUP5 ADD RETURNDATACOPY PUSH2 0x905 JUMP JUMPDEST PUSH1 0x60 SWAP2 POP JUMPDEST POP POP SWAP1 POP DUP1 PUSH2 0x913 JUMPI PUSH1 0x0 DUP1 REVERT JUMPDEST POP JUMP JUMPDEST PUSH2 0x8A6 DUP4 DUP4 DUP4 PUSH1 0x40 MLOAD DUP1 PUSH1 0x20 ADD PUSH1 0x40 MSTORE DUP1 PUSH1 0x0 DUP2 MSTORE POP PUSH2 0x12E5 JUMP JUMPDEST DUP1 MLOAD PUSH1 0x60 SWAP1 PUSH1 0x0 DUP2 PUSH8 0xFFFFFFFFFFFFFFFF DUP2 GT ISZERO PUSH2 0x951 JUMPI PUSH2 0x951 PUSH2 0x23E0 JUMP JUMPDEST PUSH1 0x40 MLOAD SWAP1 DUP1 DUP3 MSTORE DUP1 PUSH1 0x20 MUL PUSH1 0x20 ADD DUP3 ADD PUSH1 0x40 MSTORE DUP1 ISZERO PUSH2 0x9BA JUMPI DUP2 PUSH1 0x20 ADD JUMPDEST PUSH1 0x40 DUP1 MLOAD PUSH1 0x60 DUP2 ADD DUP3 MSTORE PUSH1 0x0 DUP1 DUP3 MSTORE PUSH1 0x20 DUP1 DUP4 ADD DUP3 SWAP1 MSTORE SWAP3 DUP3 ADD MSTORE DUP3 MSTORE PUSH32 0xFFFFFFFFFFFFFFFFFFFFFFFFFFFFFFFFFFFFFFFFFFFFFFFFFFFFFFFFFFFFFFFF SWAP1 SWAP3 ADD SWAP2 ADD DUP2 PUSH2 0x96F JUMPI SWAP1 POP JUMPDEST POP SWAP1 POP PUSH1 0x0 JUMPDEST DUP3 DUP2 EQ PUSH2 0xA0E JUMPI PUSH2 0x9E9 DUP6 DUP3 DUP2 MLOAD DUP2 LT PUSH2 0x9DC JUMPI PUSH2 0x9DC PUSH2 0x2807 JUMP JUMPDEST PUSH1 0x20 MUL PUSH1 0x20 ADD ADD MLOAD PUSH2 0x1355 JUMP JUMPDEST DUP3 DUP3 DUP2 MLOAD DUP2 LT PUSH2 0x9FB JUMPI PUSH2 0x9FB PUSH2 0x2807 JUMP JUMPDEST PUSH1 0x20 SWAP1 DUP2 MUL SWAP2 SWAP1 SWAP2 ADD ADD MSTORE PUSH1 0x1 ADD PUSH2 0x9C0 JUMP JUMPDEST POP SWAP4 SWAP3 POP POP POP JUMP JUMPDEST PUSH1 0x0 PUSH2 0xA21 DUP3 PUSH2 0x1BE9 JUMP JUMPDEST MLOAD SWAP3 SWAP2 POP POP JUMP JUMPDEST PUSH1 0x0 PUSH20 0xFFFFFFFFFFFFFFFFFFFFFFFFFFFFFFFFFFFFFFFF DUP3 AND PUSH2 0xA77 JUMPI PUSH1 0x40 MLOAD PUSH32 0x8F4EB60400000000000000000000000000000000000000000000000000000000 DUP2 MSTORE PUSH1 0x4 ADD PUSH1 0x40 MLOAD DUP1 SWAP2 SUB SWAP1 REVERT JUMPDEST POP PUSH20 0xFFFFFFFFFFFFFFFFFFFFFFFFFFFFFFFFFFFFFFFF AND PUSH1 0x0 SWAP1 DUP2 MSTORE PUSH1 0x5 PUSH1 0x20 MSTORE PUSH1 0x40 SWAP1 KECCAK256 SLOAD PUSH8 0xFFFFFFFFFFFFFFFF AND SWAP1 JUMP JUMPDEST PUSH2 0xAB2 PUSH2 0x1B68 JUMP JUMPDEST PUSH2 0xABC PUSH1 0x0 PUSH2 0x1DBF JUMP JUMPDEST JUMP JUMPDEST PUSH1 0x0 SLOAD PUSH32 0xFFFFFFFFFFFFFFFFFFFFFFFFFFFFFFFFFFFFFFFFFFFFFFFFFFFFFFFFFFFFFFFF ADD DUP2 PUSH2 0xB4F JUMPI PUSH1 0x40 MLOAD PUSH32 0x8C379A000000000000000000000000000000000000000000000000000000000 DUP2 MSTORE PUSH1 0x20 PUSH1 0x4 DUP3 ADD MSTORE PUSH1 0xF PUSH1 0x24 DUP3 ADD MSTORE PUSH32 0x4E6F207374617274207061737365640000000000000000000000000000000000 PUSH1 0x44 DUP3 ADD MSTORE PUSH1 0x64 ADD JUMPDEST PUSH1 0x40 MLOAD DUP1 SWAP2 SUB SWAP1 REVERT JUMPDEST PUSH2 0xB5A DUP2 PUSH1 0x1 PUSH2 0x2865 JUMP JUMPDEST DUP3 EQ PUSH2 0xBC2 JUMPI PUSH1 0x40 MLOAD PUSH32 0x8C379A000000000000000000000000000000000000000000000000000000000 DUP2 MSTORE PUSH1 0x20 PUSH1 0x4 DUP3 ADD MSTORE PUSH1 0x13 PUSH1 0x24 DUP3 ADD MSTORE PUSH32 0x546F6B656E206973207061737420737461727400000000000000000000000000 PUSH1 0x44 DUP3 ADD MSTORE PUSH1 0x64 ADD PUSH2 0xB46 JUMP JUMPDEST PUSH2 0x8A6 DUP4 PUSH2 0xFB4 JUMP JUMPDEST PUSH1 0x60 PUSH1 0x0 DUP1 PUSH1 0x0 PUSH2 0xBDB DUP6 PUSH2 0xA28 JUMP JUMPDEST SWAP1 POP PUSH1 0x0 DUP2 PUSH8 0xFFFFFFFFFFFFFFFF DUP2 GT ISZERO PUSH2 0xBF8 JUMPI PUSH2 0xBF8 PUSH2 0x23E0 JUMP JUMPDEST PUSH1 0x40 MLOAD SWAP1 DUP1 DUP3 MSTORE DUP1 PUSH1 0x20 MUL PUSH1 0x20 ADD DUP3 ADD PUSH1 0x40 MSTORE DUP1 ISZERO PUSH2 0xC21 JUMPI DUP2 PUSH1 0x20 ADD PUSH1 0x20 DUP3 MUL DUP1 CALLDATASIZE DUP4 CALLDATACOPY ADD SWAP1 POP JUMPDEST POP PUSH1 0x40 DUP1 MLOAD PUSH1 0x60 DUP2 ADD DUP3 MSTORE PUSH1 0x0 DUP1 DUP3 MSTORE PUSH1 0x20 DUP3 ADD DUP2 SWAP1 MSTORE SWAP2 DUP2 ADD SWAP2 SWAP1 SWAP2 MSTORE SWAP1 SWAP2 POP PUSH1 0x1 JUMPDEST DUP4 DUP7 EQ PUSH2 0xD5F JUMPI PUSH1 0x0 DUP2 DUP2 MSTORE PUSH1 0x4 PUSH1 0x20 SWAP1 DUP2 MSTORE PUSH1 0x40 SWAP2 DUP3 SWAP1 KECCAK256 DUP3 MLOAD PUSH1 0x60 DUP2 ADD DUP5 MSTORE SWAP1 SLOAD PUSH20 0xFFFFFFFFFFFFFFFFFFFFFFFFFFFFFFFFFFFFFFFF DUP2 AND DUP3 MSTORE PUSH21 0x10000000000000000000000000000000000000000 DUP2 DIV PUSH8 0xFFFFFFFFFFFFFFFF AND SWAP3 DUP3 ADD SWAP3 SWAP1 SWAP3 MSTORE PUSH29 0x100000000000000000000000000000000000000000000000000000000 SWAP1 SWAP2 DIV PUSH1 0xFF AND ISZERO ISZERO SWAP2 DUP2 ADD DUP3 SWAP1 MSTORE SWAP3 POP PUSH2 0xD57 JUMPI DUP2 MLOAD PUSH20 0xFFFFFFFFFFFFFFFFFFFFFFFFFFFFFFFFFFFFFFFF AND ISZERO PUSH2 0xCFE JUMPI DUP2 MLOAD SWAP5 POP JUMPDEST DUP8 PUSH20 0xFFFFFFFFFFFFFFFFFFFFFFFFFFFFFFFFFFFFFFFF AND DUP6 PUSH20 0xFFFFFFFFFFFFFFFFFFFFFFFFFFFFFFFFFFFFFFFF AND SUB PUSH2 0xD57 JUMPI DUP1 DUP4 DUP8 DUP1 PUSH1 0x1 ADD SWAP9 POP DUP2 MLOAD DUP2 LT PUSH2 0xD4A JUMPI PUSH2 0xD4A PUSH2 0x2807 JUMP JUMPDEST PUSH1 0x20 MUL PUSH1 0x20 ADD ADD DUP2 DUP2 MSTORE POP POP JUMPDEST PUSH1 0x1 ADD PUSH2 0xC45 JUMP JUMPDEST POP SWAP1 SWAP7 SWAP6 POP POP POP POP POP POP JUMP JUMPDEST PUSH1 0x60 PUSH1 0x3 DUP1 SLOAD PUSH2 0x6B5 SWAP1 PUSH2 0x27B4 JUMP JUMPDEST PUSH1 0x60 DUP2 DUP4 LT PUSH2 0xDB5 JUMPI PUSH1 0x40 MLOAD PUSH32 0x32C1995A00000000000000000000000000000000000000000000000000000000 DUP2 MSTORE PUSH1 0x4 ADD PUSH1 0x40 MLOAD DUP1 SWAP2 SUB SWAP1 REVERT JUMPDEST PUSH1 0x0 DUP1 SLOAD PUSH1 0x1 DUP6 LT ISZERO PUSH2 0xDC7 JUMPI PUSH1 0x1 SWAP5 POP JUMPDEST DUP1 DUP5 GT ISZERO PUSH2 0xDD3 JUMPI DUP1 SWAP4 POP JUMPDEST PUSH1 0x0 PUSH2 0xDDE DUP8 PUSH2 0xA28 JUMP JUMPDEST SWAP1 POP DUP5 DUP7 LT ISZERO PUSH2 0xDFD JUMPI DUP6 DUP6 SUB DUP2 DUP2 LT ISZERO PUSH2 0xDF7 JUMPI DUP1 SWAP2 POP JUMPDEST POP PUSH2 0xE01 JUMP JUMPDEST POP PUSH1 0x0 JUMPDEST PUSH1 0x0 DUP2 PUSH8 0xFFFFFFFFFFFFFFFF DUP2 GT ISZERO PUSH2 0xE1C JUMPI PUSH2 0xE1C PUSH2 0x23E0 JUMP JUMPDEST PUSH1 0x40 MLOAD SWAP1 DUP1 DUP3 MSTORE DUP1 PUSH1 0x20 MUL PUSH1 0x20 ADD DUP3 ADD PUSH1 0x40 MSTORE DUP1 ISZERO PUSH2 0xE45 JUMPI DUP2 PUSH1 0x20 ADD PUSH1 0x20 DUP3 MUL DUP1 CALLDATASIZE DUP4 CALLDATACOPY ADD SWAP1 POP JUMPDEST POP SWAP1 POP DUP2 PUSH1 0x0 SUB PUSH2 0xE5B JUMPI SWAP4 POP PUSH2 0xFAD SWAP3 POP POP POP JUMP JUMPDEST PUSH1 0x0 PUSH2 0xE66 DUP9 PUSH2 0x1355 JUMP JUMPDEST SWAP1 POP PUSH1 0x0 DUP2 PUSH1 0x40 ADD MLOAD PUSH2 0xE77 JUMPI POP DUP1 MLOAD JUMPDEST DUP9 JUMPDEST DUP9 DUP2 EQ ISZERO DUP1 ISZERO PUSH2 0xE89 JUMPI POP DUP5 DUP8 EQ ISZERO JUMPDEST ISZERO PUSH2 0xFA1 JUMPI PUSH1 0x0 DUP2 DUP2 MSTORE PUSH1 0x4 PUSH1 0x20 SWAP1 DUP2 MSTORE PUSH1 0x40 SWAP2 DUP3 SWAP1 KECCAK256 DUP3 MLOAD PUSH1 0x60 DUP2 ADD DUP5 MSTORE SWAP1 SLOAD PUSH20 0xFFFFFFFFFFFFFFFFFFFFFFFFFFFFFFFFFFFFFFFF DUP2 AND DUP3 MSTORE PUSH21 0x10000000000000000000000000000000000000000 DUP2 DIV PUSH8 0xFFFFFFFFFFFFFFFF AND SWAP3 DUP3 ADD SWAP3 SWAP1 SWAP3 MSTORE PUSH29 0x100000000000000000000000000000000000000000000000000000000 SWAP1 SWAP2 DIV PUSH1 0xFF AND ISZERO ISZERO SWAP2 DUP2 ADD DUP3 SWAP1 MSTORE SWAP4 POP PUSH2 0xF99 JUMPI DUP3 MLOAD PUSH20 0xFFFFFFFFFFFFFFFFFFFFFFFFFFFFFFFFFFFFFFFF AND ISZERO PUSH2 0xF40 JUMPI DUP3 MLOAD SWAP2 POP JUMPDEST DUP11 PUSH20 0xFFFFFFFFFFFFFFFFFFFFFFFFFFFFFFFFFFFFFFFF AND DUP3 PUSH20 0xFFFFFFFFFFFFFFFFFFFFFFFFFFFFFFFFFFFFFFFF AND SUB PUSH2 0xF99 JUMPI DUP1 DUP5 DUP9 DUP1 PUSH1 0x1 ADD SWAP10 POP DUP2 MLOAD DUP2 LT PUSH2 0xF8C JUMPI PUSH2 0xF8C PUSH2 0x2807 JUMP JUMPDEST PUSH1 0x20 MUL PUSH1 0x20 ADD ADD DUP2 DUP2 MSTORE POP POP JUMPDEST PUSH1 0x1 ADD PUSH2 0xE79 JUMP JUMPDEST POP POP POP SWAP3 DUP4 MSTORE POP SWAP1 SWAP2 POP POP JUMPDEST SWAP4 SWAP3 POP POP POP JUMP JUMPDEST PUSH1 0x0 SLOAD PUSH32 0xFFFFFFFFFFFFFFFFFFFFFFFFFFFFFFFFFFFFFFFFFFFFFFFFFFFFFFFFFFFFFFFF ADD DUP2 PUSH2 0x1040 JUMPI PUSH1 0x40 MLOAD PUSH32 0x8C379A000000000000000000000000000000000000000000000000000000000 DUP2 MSTORE PUSH1 0x20 PUSH1 0x4 DUP3 ADD MSTORE PUSH1 0x7 PUSH1 0x24 DUP3 ADD MSTORE PUSH32 0x546F6F2066657700000000000000000000000000000000000000000000000000 PUSH1 0x44 DUP3 ADD MSTORE PUSH1 0x64 ADD PUSH2 0xB46 JUMP JUMPDEST PUSH1 0xD SLOAD DUP3 GT ISZERO PUSH2 0x10AC JUMPI PUSH1 0x40 MLOAD PUSH32 0x8C379A000000000000000000000000000000000000000000000000000000000 DUP2 MSTORE PUSH1 0x20 PUSH1 0x4 DUP3 ADD MSTORE PUSH1 0x8 PUSH1 0x24 DUP3 ADD MSTORE PUSH32 0x546F6F206D616E79000000000000000000000000000000000000000000000000 PUSH1 0x44 DUP3 ADD MSTORE PUSH1 0x64 ADD PUSH2 0xB46 JUMP JUMPDEST PUSH1 0xC SLOAD PUSH2 0x10B9 DUP4 DUP4 PUSH2 0x2865 JUMP JUMPDEST GT ISZERO PUSH2 0x1121 JUMPI PUSH1 0x40 MLOAD PUSH32 0x8C379A000000000000000000000000000000000000000000000000000000000 DUP2 MSTORE PUSH1 0x20 PUSH1 0x4 DUP3 ADD MSTORE PUSH1 0xE PUSH1 0x24 DUP3 ADD MSTORE PUSH32 0x4D696E74696E6720636C6F736564000000000000000000000000000000000000 PUSH1 0x44 DUP3 ADD MSTORE PUSH1 0x64 ADD PUSH2 0xB46 JUMP JUMPDEST PUSH1 0x8 SLOAD PUSH20 0xFFFFFFFFFFFFFFFFFFFFFFFFFFFFFFFFFFFFFFFF AND CALLER EQ PUSH2 0x11B5 JUMPI PUSH1 0xB SLOAD PUSH2 0x114D SWAP1 DUP4 PUSH2 0x287D JUMP JUMPDEST CALLVALUE EQ PUSH2 0x11B5 JUMPI PUSH1 0x40 MLOAD PUSH32 0x8C379A000000000000000000000000000000000000000000000000000000000 DUP2 MSTORE PUSH1 0x20 PUSH1 0x4 DUP3 ADD MSTORE PUSH1 0xE PUSH1 0x24 DUP3 ADD MSTORE PUSH32 0x53656E6420657861637420455448000000000000000000000000000000000000 PUSH1 0x44 DUP3 ADD MSTORE PUSH1 0x64 ADD PUSH2 0xB46 JUMP JUMPDEST PUSH2 0x11BF CALLER DUP4 PUSH2 0x1E36 JUMP JUMPDEST PUSH32 0x94242C431036B9BA6723A138D4B275A5B38E13A95EF66227A45DF427C0F843F3 PUSH2 0x11EA DUP4 DUP4 PUSH2 0x2865 JUMP JUMPDEST PUSH1 0x40 MLOAD SWAP1 DUP2 MSTORE PUSH1 0x20 ADD PUSH1 0x40 MLOAD DUP1 SWAP2 SUB SWAP1 LOG1 POP POP JUMP JUMPDEST CALLER PUSH20 0xFFFFFFFFFFFFFFFFFFFFFFFFFFFFFFFFFFFFFFFF DUP4 AND SUB PUSH2 0x124E JUMPI PUSH1 0x40 MLOAD PUSH32 0xB06307DB00000000000000000000000000000000000000000000000000000000 DUP2 MSTORE PUSH1 0x4 ADD PUSH1 0x40 MLOAD DUP1 SWAP2 SUB SWAP1 REVERT JUMPDEST CALLER PUSH1 0x0 DUP2 DUP2 MSTORE PUSH1 0x7 PUSH1 0x20 SWAP1 DUP2 MSTORE PUSH1 0x40 DUP1 DUP4 KECCAK256 PUSH20 0xFFFFFFFFFFFFFFFFFFFFFFFFFFFFFFFFFFFFFFFF DUP8 AND DUP1 DUP6 MSTORE SWAP1 DUP4 MSTORE SWAP3 DUP2 SWAP1 KECCAK256 DUP1 SLOAD PUSH32 0xFFFFFFFFFFFFFFFFFFFFFFFFFFFFFFFFFFFFFFFFFFFFFFFFFFFFFFFFFFFFFF00 AND DUP7 ISZERO ISZERO SWAP1 DUP2 OR SWAP1 SWAP2 SSTORE SWAP1 MLOAD SWAP1 DUP2 MSTORE SWAP2 SWAP3 SWAP2 PUSH32 0x17307EAB39AB6107E8899845AD3D59BD9653F200F220920489CA2B5937696C31 SWAP2 ADD PUSH1 0x40 MLOAD DUP1 SWAP2 SUB SWAP1 LOG3 POP POP JUMP JUMPDEST PUSH2 0x12F0 DUP5 DUP5 DUP5 PUSH2 0x1806 JUMP JUMPDEST PUSH20 0xFFFFFFFFFFFFFFFFFFFFFFFFFFFFFFFFFFFFFFFF DUP4 AND EXTCODESIZE ISZERO PUSH2 0x134F JUMPI PUSH2 0x1319 DUP5 DUP5 DUP5 DUP5 PUSH2 0x1E54 JUMP JUMPDEST PUSH2 0x134F JUMPI PUSH1 0x40 MLOAD PUSH32 0xD1A57ED600000000000000000000000000000000000000000000000000000000 DUP2 MSTORE PUSH1 0x4 ADD PUSH1 0x40 MLOAD DUP1 SWAP2 SUB SWAP1 REVERT JUMPDEST POP POP POP POP JUMP JUMPDEST PUSH1 0x40 DUP1 MLOAD PUSH1 0x60 DUP1 DUP3 ADD DUP4 MSTORE PUSH1 0x0 DUP1 DUP4 MSTORE PUSH1 0x20 DUP1 DUP5 ADD DUP3 SWAP1 MSTORE DUP4 DUP6 ADD DUP3 SWAP1 MSTORE DUP5 MLOAD SWAP3 DUP4 ADD DUP6 MSTORE DUP2 DUP4 MSTORE DUP3 ADD DUP2 SWAP1 MSTORE SWAP3 DUP2 ADD SWAP3 SWAP1 SWAP3 MSTORE SWAP1 PUSH1 0x1 DUP4 LT DUP1 PUSH2 0x139B JUMPI POP PUSH1 0x0 SLOAD DUP4 LT ISZERO JUMPDEST ISZERO PUSH2 0x13A6 JUMPI SWAP3 SWAP2 POP POP JUMP JUMPDEST POP PUSH1 0x0 DUP3 DUP2 MSTORE PUSH1 0x4 PUSH1 0x20 SWAP1 DUP2 MSTORE PUSH1 0x40 SWAP2 DUP3 SWAP1 KECCAK256 DUP3 MLOAD PUSH1 0x60 DUP2 ADD DUP5 MSTORE SWAP1 SLOAD PUSH20 0xFFFFFFFFFFFFFFFFFFFFFFFFFFFFFFFFFFFFFFFF DUP2 AND DUP3 MSTORE PUSH21 0x10000000000000000000000000000000000000000 DUP2 DIV PUSH8 0xFFFFFFFFFFFFFFFF AND SWAP3 DUP3 ADD SWAP3 SWAP1 SWAP3 MSTORE PUSH29 0x100000000000000000000000000000000000000000000000000000000 SWAP1 SWAP2 DIV PUSH1 0xFF AND ISZERO DUP1 ISZERO SWAP3 DUP3 ADD SWAP3 SWAP1 SWAP3 MSTORE SWAP1 PUSH2 0x143E JUMPI SWAP3 SWAP2 POP POP JUMP JUMPDEST PUSH2 0xFAD DUP4 PUSH2 0x1BE9 JUMP JUMPDEST PUSH1 0x60 PUSH2 0x1452 DUP3 PUSH2 0x1733 JUMP JUMPDEST PUSH2 0x14DE JUMPI PUSH1 0x40 MLOAD PUSH32 0x8C379A000000000000000000000000000000000000000000000000000000000 DUP2 MSTORE PUSH1 0x20 PUSH1 0x4 DUP3 ADD MSTORE PUSH1 0x2F PUSH1 0x24 DUP3 ADD MSTORE PUSH32 0x4552433732314D657461646174613A2055524920717565727920666F72206E6F PUSH1 0x44 DUP3 ADD MSTORE PUSH32 0x6E6578697374656E7420746F6B656E0000000000000000000000000000000000 PUSH1 0x64 DUP3 ADD MSTORE PUSH1 0x84 ADD PUSH2 0xB46 JUMP JUMPDEST PUSH1 0xA PUSH2 0x14E9 DUP4 PUSH2 0x15D3 JUMP JUMPDEST PUSH1 0x40 MLOAD PUSH1 0x20 ADD PUSH2 0x14FA SWAP3 SWAP2 SWAP1 PUSH2 0x28D6 JUMP JUMPDEST PUSH1 0x40 MLOAD PUSH1 0x20 DUP2 DUP4 SUB SUB DUP2 MSTORE SWAP1 PUSH1 0x40 MSTORE SWAP1 POP SWAP2 SWAP1 POP JUMP JUMPDEST PUSH1 0x60 PUSH1 0x9 DUP1 SLOAD PUSH2 0x6B5 SWAP1 PUSH2 0x27B4 JUMP JUMPDEST PUSH2 0x1527 PUSH2 0x1B68 JUMP JUMPDEST PUSH20 0xFFFFFFFFFFFFFFFFFFFFFFFFFFFFFFFFFFFFFFFF DUP2 AND PUSH2 0x15CA JUMPI PUSH1 0x40 MLOAD PUSH32 0x8C379A000000000000000000000000000000000000000000000000000000000 DUP2 MSTORE PUSH1 0x20 PUSH1 0x4 DUP3 ADD MSTORE PUSH1 0x26 PUSH1 0x24 DUP3 ADD MSTORE PUSH32 0x4F776E61626C653A206E6577206F776E657220697320746865207A65726F2061 PUSH1 0x44 DUP3 ADD MSTORE PUSH32 0x6464726573730000000000000000000000000000000000000000000000000000 PUSH1 0x64 DUP3 ADD MSTORE PUSH1 0x84 ADD PUSH2 0xB46 JUMP JUMPDEST PUSH2 0x913 DUP2 PUSH2 0x1DBF JUMP JUMPDEST PUSH1 0x60 DUP2 PUSH1 0x0 SUB PUSH2 0x1616 JUMPI POP POP PUSH1 0x40 DUP1 MLOAD DUP1 DUP3 ADD SWAP1 SWAP2 MSTORE PUSH1 0x1 DUP2 MSTORE PUSH32 0x3000000000000000000000000000000000000000000000000000000000000000 PUSH1 0x20 DUP3 ADD MSTORE SWAP1 JUMP JUMPDEST DUP2 PUSH1 0x0 JUMPDEST DUP2 ISZERO PUSH2 0x1640 JUMPI DUP1 PUSH2 0x162A DUP2 PUSH2 0x2A3A JUMP JUMPDEST SWAP2 POP PUSH2 0x1639 SWAP1 POP PUSH1 0xA DUP4 PUSH2 0x2A72 JUMP JUMPDEST SWAP2 POP PUSH2 0x161A JUMP JUMPDEST PUSH1 0x0 DUP2 PUSH8 0xFFFFFFFFFFFFFFFF DUP2 GT ISZERO PUSH2 0x165B JUMPI PUSH2 0x165B PUSH2 0x23E0 JUMP JUMPDEST PUSH1 0x40 MLOAD SWAP1 DUP1 DUP3 MSTORE DUP1 PUSH1 0x1F ADD PUSH1 0x1F NOT AND PUSH1 0x20 ADD DUP3 ADD PUSH1 0x40 MSTORE DUP1 ISZERO PUSH2 0x1685 JUMPI PUSH1 0x20 DUP3 ADD DUP2 DUP1 CALLDATASIZE DUP4 CALLDATACOPY ADD SWAP1 POP JUMPDEST POP SWAP1 POP DUP2 JUMPDEST DUP6 ISZERO PUSH2 0x172A JUMPI PUSH2 0x169B PUSH1 0x1 DUP3 PUSH2 0x2AAD JUMP JUMPDEST SWAP1 POP PUSH1 0x0 PUSH2 0x16AA PUSH1 0xA DUP9 PUSH2 0x2A72 JUMP JUMPDEST PUSH2 0x16B5 SWAP1 PUSH1 0xA PUSH2 0x287D JUMP JUMPDEST PUSH2 0x16BF SWAP1 DUP9 PUSH2 0x2AAD JUMP JUMPDEST PUSH2 0x16CA SWAP1 PUSH1 0x30 PUSH2 0x2AC4 JUMP JUMPDEST SWAP1 POP PUSH1 0x0 DUP2 PUSH1 0xF8 SHL SWAP1 POP DUP1 DUP5 DUP5 DUP2 MLOAD DUP2 LT PUSH2 0x16E7 JUMPI PUSH2 0x16E7 PUSH2 0x2807 JUMP JUMPDEST PUSH1 0x20 ADD ADD SWAP1 PUSH31 0xFFFFFFFFFFFFFFFFFFFFFFFFFFFFFFFFFFFFFFFFFFFFFFFFFFFFFFFFFFFFFF NOT AND SWAP1 DUP2 PUSH1 0x0 BYTE SWAP1 MSTORE8 POP PUSH2 0x1721 PUSH1 0xA DUP10 PUSH2 0x2A72 JUMP JUMPDEST SWAP8 POP POP POP PUSH2 0x168A JUMP JUMPDEST POP SWAP5 SWAP4 POP POP POP POP JUMP JUMPDEST PUSH1 0x0 DUP2 PUSH1 0x1 GT ISZERO DUP1 ISZERO PUSH2 0x1747 JUMPI POP PUSH1 0x0 SLOAD DUP3 LT JUMPDEST DUP1 ISZERO PUSH2 0x6A0 JUMPI POP POP PUSH1 0x0 SWAP1 DUP2 MSTORE PUSH1 0x4 PUSH1 0x20 MSTORE PUSH1 0x40 SWAP1 KECCAK256 SLOAD PUSH29 0x100000000000000000000000000000000000000000000000000000000 SWAP1 DIV PUSH1 0xFF AND ISZERO SWAP1 JUMP JUMPDEST PUSH1 0x0 DUP3 DUP2 MSTORE PUSH1 0x6 PUSH1 0x20 MSTORE PUSH1 0x40 DUP1 DUP3 KECCAK256 DUP1 SLOAD PUSH32 0xFFFFFFFFFFFFFFFFFFFFFFFF0000000000000000000000000000000000000000 AND PUSH20 0xFFFFFFFFFFFFFFFFFFFFFFFFFFFFFFFFFFFFFFFF DUP8 DUP2 AND SWAP2 DUP3 OR SWAP1 SWAP3 SSTORE SWAP2 MLOAD DUP6 SWAP4 SWAP2 DUP6 AND SWAP2 PUSH32 0x8C5BE1E5EBEC7D5BD14F71427D1E84F3DD0314C0F7B2291E5B200AC8C7C3B925 SWAP2 LOG4 POP POP POP JUMP JUMPDEST PUSH1 0x0 PUSH2 0x1811 DUP3 PUSH2 0x1BE9 JUMP JUMPDEST SWAP1 POP DUP4 PUSH20 0xFFFFFFFFFFFFFFFFFFFFFFFFFFFFFFFFFFFFFFFF AND DUP2 PUSH1 0x0 ADD MLOAD PUSH20 0xFFFFFFFFFFFFFFFFFFFFFFFFFFFFFFFFFFFFFFFF AND EQ PUSH2 0x187C JUMPI PUSH1 0x40 MLOAD PUSH32 0xA114810000000000000000000000000000000000000000000000000000000000 DUP2 MSTORE PUSH1 0x4 ADD PUSH1 0x40 MLOAD DUP1 SWAP2 SUB SWAP1 REVERT JUMPDEST PUSH1 0x0 CALLER PUSH20 0xFFFFFFFFFFFFFFFFFFFFFFFFFFFFFFFFFFFFFFFF DUP7 AND EQ DUP1 PUSH2 0x18D2 JUMPI POP PUSH20 0xFFFFFFFFFFFFFFFFFFFFFFFFFFFFFFFFFFFFFFFF DUP6 AND PUSH1 0x0 SWAP1 DUP2 MSTORE PUSH1 0x7 PUSH1 0x20 SWAP1 DUP2 MSTORE PUSH1 0x40 DUP1 DUP4 KECCAK256 CALLER DUP5 MSTORE SWAP1 SWAP2 MSTORE SWAP1 KECCAK256 SLOAD PUSH1 0xFF AND JUMPDEST DUP1 PUSH2 0x18FA JUMPI POP CALLER PUSH2 0x18E2 DUP5 PUSH2 0x738 JUMP JUMPDEST PUSH20 0xFFFFFFFFFFFFFFFFFFFFFFFFFFFFFFFFFFFFFFFF AND EQ JUMPDEST SWAP1 POP DUP1 PUSH2 0x1933 JUMPI PUSH1 0x40 MLOAD PUSH32 0x59C896BE00000000000000000000000000000000000000000000000000000000 DUP2 MSTORE PUSH1 0x4 ADD PUSH1 0x40 MLOAD DUP1 SWAP2 SUB SWAP1 REVERT JUMPDEST PUSH20 0xFFFFFFFFFFFFFFFFFFFFFFFFFFFFFFFFFFFFFFFF DUP5 AND PUSH2 0x1980 JUMPI PUSH1 0x40 MLOAD PUSH32 0xEA553B3400000000000000000000000000000000000000000000000000000000 DUP2 MSTORE PUSH1 0x4 ADD PUSH1 0x40 MLOAD DUP1 SWAP2 SUB SWAP1 REVERT JUMPDEST PUSH2 0x198C PUSH1 0x0 DUP5 DUP8 PUSH2 0x1785 JUMP JUMPDEST PUSH20 0xFFFFFFFFFFFFFFFFFFFFFFFFFFFFFFFFFFFFFFFF DUP6 DUP2 AND PUSH1 0x0 SWAP1 DUP2 MSTORE PUSH1 0x5 PUSH1 0x20 SWAP1 DUP2 MSTORE PUSH1 0x40 DUP1 DUP4 KECCAK256 DUP1 SLOAD PUSH32 0xFFFFFFFFFFFFFFFFFFFFFFFFFFFFFFFFFFFFFFFFFFFFFFFF0000000000000000 DUP1 DUP3 AND PUSH8 0xFFFFFFFFFFFFFFFF SWAP3 DUP4 AND PUSH32 0xFFFFFFFFFFFFFFFFFFFFFFFFFFFFFFFFFFFFFFFFFFFFFFFFFFFFFFFFFFFFFFFF ADD DUP4 AND OR SWAP1 SWAP3 SSTORE DUP10 DUP7 AND DUP1 DUP7 MSTORE DUP4 DUP7 KECCAK256 DUP1 SLOAD SWAP4 DUP5 AND SWAP4 DUP4 AND PUSH1 0x1 SWAP1 DUP2 ADD DUP5 AND SWAP5 SWAP1 SWAP5 OR SWAP1 SSTORE DUP10 DUP7 MSTORE PUSH1 0x4 SWAP1 SWAP5 MSTORE DUP3 DUP6 KECCAK256 DUP1 SLOAD PUSH32 0xFFFFFFFF00000000000000000000000000000000000000000000000000000000 AND SWAP1 SWAP5 OR PUSH21 0x10000000000000000000000000000000000000000 TIMESTAMP SWAP1 SWAP3 AND SWAP2 SWAP1 SWAP2 MUL OR DUP4 SSTORE DUP8 ADD DUP1 DUP5 MSTORE SWAP3 KECCAK256 DUP1 SLOAD SWAP2 SWAP4 SWAP1 SWAP2 AND PUSH2 0x1B03 JUMPI PUSH1 0x0 SLOAD DUP3 EQ PUSH2 0x1B03 JUMPI DUP1 SLOAD PUSH1 0x20 DUP7 ADD MLOAD PUSH8 0xFFFFFFFFFFFFFFFF AND PUSH21 0x10000000000000000000000000000000000000000 MUL PUSH32 0xFFFFFFFF00000000000000000000000000000000000000000000000000000000 SWAP1 SWAP2 AND PUSH20 0xFFFFFFFFFFFFFFFFFFFFFFFFFFFFFFFFFFFFFFFF DUP11 AND OR OR DUP2 SSTORE JUMPDEST POP POP POP DUP3 DUP5 PUSH20 0xFFFFFFFFFFFFFFFFFFFFFFFFFFFFFFFFFFFFFFFF AND DUP7 PUSH20 0xFFFFFFFFFFFFFFFFFFFFFFFFFFFFFFFFFFFFFFFF AND PUSH32 0xDDF252AD1BE2C89B69C2B068FC378DAA952BA7F163C4A11628F55A4DF523B3EF PUSH1 0x40 MLOAD PUSH1 0x40 MLOAD DUP1 SWAP2 SUB SWAP1 LOG4 POP POP POP POP POP JUMP JUMPDEST PUSH1 0x8 SLOAD PUSH20 0xFFFFFFFFFFFFFFFFFFFFFFFFFFFFFFFFFFFFFFFF AND CALLER EQ PUSH2 0xABC JUMPI PUSH1 0x40 MLOAD PUSH32 0x8C379A000000000000000000000000000000000000000000000000000000000 DUP2 MSTORE PUSH1 0x20 PUSH1 0x4 DUP3 ADD DUP2 SWAP1 MSTORE PUSH1 0x24 DUP3 ADD MSTORE PUSH32 0x4F776E61626C653A2063616C6C6572206973206E6F7420746865206F776E6572 PUSH1 0x44 DUP3 ADD MSTORE PUSH1 0x64 ADD PUSH2 0xB46 JUMP JUMPDEST PUSH1 0x40 DUP1 MLOAD PUSH1 0x60 DUP2 ADD DUP3 MSTORE PUSH1 0x0 DUP1 DUP3 MSTORE PUSH1 0x20 DUP3 ADD DUP2 SWAP1 MSTORE SWAP2 DUP2 ADD SWAP2 SWAP1 SWAP2 MSTORE DUP2 DUP1 PUSH1 0x1 GT PUSH2 0x1D8D JUMPI PUSH1 0x0 SLOAD DUP2 LT ISZERO PUSH2 0x1D8D JUMPI PUSH1 0x0 DUP2 DUP2 MSTORE PUSH1 0x4 PUSH1 0x20 SWAP1 DUP2 MSTORE PUSH1 0x40 SWAP2 DUP3 SWAP1 KECCAK256 DUP3 MLOAD PUSH1 0x60 DUP2 ADD DUP5 MSTORE SWAP1 SLOAD PUSH20 0xFFFFFFFFFFFFFFFFFFFFFFFFFFFFFFFFFFFFFFFF DUP2 AND DUP3 MSTORE PUSH21 0x10000000000000000000000000000000000000000 DUP2 DIV PUSH8 0xFFFFFFFFFFFFFFFF AND SWAP3 DUP3 ADD SWAP3 SWAP1 SWAP3 MSTORE PUSH29 0x100000000000000000000000000000000000000000000000000000000 SWAP1 SWAP2 DIV PUSH1 0xFF AND ISZERO ISZERO SWAP2 DUP2 ADD DUP3 SWAP1 MSTORE SWAP1 PUSH2 0x1D8B JUMPI DUP1 MLOAD PUSH20 0xFFFFFFFFFFFFFFFFFFFFFFFFFFFFFFFFFFFFFFFF AND ISZERO PUSH2 0x1CCC JUMPI SWAP4 SWAP3 POP POP POP JUMP JUMPDEST POP PUSH32 0xFFFFFFFFFFFFFFFFFFFFFFFFFFFFFFFFFFFFFFFFFFFFFFFFFFFFFFFFFFFFFFFF ADD PUSH1 0x0 DUP2 DUP2 MSTORE PUSH1 0x4 PUSH1 0x20 SWAP1 DUP2 MSTORE PUSH1 0x40 SWAP2 DUP3 SWAP1 KECCAK256 DUP3 MLOAD PUSH1 0x60 DUP2 ADD DUP5 MSTORE SWAP1 SLOAD PUSH20 0xFFFFFFFFFFFFFFFFFFFFFFFFFFFFFFFFFFFFFFFF DUP2 AND DUP1 DUP4 MSTORE PUSH21 0x10000000000000000000000000000000000000000 DUP3 DIV PUSH8 0xFFFFFFFFFFFFFFFF AND SWAP4 DUP4 ADD SWAP4 SWAP1 SWAP4 MSTORE PUSH29 0x100000000000000000000000000000000000000000000000000000000 SWAP1 DIV PUSH1 0xFF AND ISZERO ISZERO SWAP3 DUP2 ADD SWAP3 SWAP1 SWAP3 MSTORE ISZERO PUSH2 0x1D86 JUMPI SWAP4 SWAP3 POP POP POP JUMP JUMPDEST PUSH2 0x1CCC JUMP JUMPDEST POP JUMPDEST PUSH1 0x40 MLOAD PUSH32 0xDF2D9B4200000000000000000000000000000000000000000000000000000000 DUP2 MSTORE PUSH1 0x4 ADD PUSH1 0x40 MLOAD DUP1 SWAP2 SUB SWAP1 REVERT JUMPDEST PUSH1 0x8 DUP1 SLOAD PUSH20 0xFFFFFFFFFFFFFFFFFFFFFFFFFFFFFFFFFFFFFFFF DUP4 DUP2 AND PUSH32 0xFFFFFFFFFFFFFFFFFFFFFFFF0000000000000000000000000000000000000000 DUP4 AND DUP2 OR SWAP1 SWAP4 SSTORE PUSH1 0x40 MLOAD SWAP2 AND SWAP2 SWAP1 DUP3 SWAP1 PUSH32 0x8BE0079C531659141344CD1FD0A4F28419497F9722A3DAAFE3B4186F6B6457E0 SWAP1 PUSH1 0x0 SWAP1 LOG3 POP POP JUMP JUMPDEST PUSH2 0x1E50 DUP3 DUP3 PUSH1 0x40 MLOAD DUP1 PUSH1 0x20 ADD PUSH1 0x40 MSTORE DUP1 PUSH1 0x0 DUP2 MSTORE POP PUSH2 0x1FCD JUMP JUMPDEST POP POP JUMP JUMPDEST PUSH1 0x40 MLOAD PUSH32 0x150B7A0200000000000000000000000000000000000000000000000000000000 DUP2 MSTORE PUSH1 0x0 SWAP1 PUSH20 0xFFFFFFFFFFFFFFFFFFFFFFFFFFFFFFFFFFFFFFFF DUP6 AND SWAP1 PUSH4 0x150B7A02 SWAP1 PUSH2 0x1EAF SWAP1 CALLER SWAP1 DUP10 SWAP1 DUP9 SWAP1 DUP9 SWAP1 PUSH1 0x4 ADD PUSH2 0x2AE9 JUMP JUMPDEST PUSH1 0x20 PUSH1 0x40 MLOAD DUP1 DUP4 SUB DUP2 PUSH1 0x0 DUP8 GAS CALL SWAP3 POP POP POP DUP1 ISZERO PUSH2 0x1F08 JUMPI POP PUSH1 0x40 DUP1 MLOAD PUSH1 0x1F RETURNDATASIZE SWAP1 DUP2 ADD PUSH32 0xFFFFFFFFFFFFFFFFFFFFFFFFFFFFFFFFFFFFFFFFFFFFFFFFFFFFFFFFFFFFFFE0 AND DUP3 ADD SWAP1 SWAP3 MSTORE PUSH2 0x1F05 SWAP2 DUP2 ADD SWAP1 PUSH2 0x2B28 JUMP JUMPDEST PUSH1 0x1 JUMPDEST PUSH2 0x1F7F JUMPI RETURNDATASIZE DUP1 DUP1 ISZERO PUSH2 0x1F36 JUMPI PUSH1 0x40 MLOAD SWAP2 POP PUSH1 0x1F NOT PUSH1 0x3F RETURNDATASIZE ADD AND DUP3 ADD PUSH1 0x40 MSTORE RETURNDATASIZE DUP3 MSTORE RETURNDATASIZE PUSH1 0x0 PUSH1 0x20 DUP5 ADD RETURNDATACOPY PUSH2 0x1F3B JUMP JUMPDEST PUSH1 0x60 SWAP2 POP JUMPDEST POP DUP1 MLOAD PUSH1 0x0 SUB PUSH2 0x1F77 JUMPI PUSH1 0x40 MLOAD PUSH32 0xD1A57ED600000000000000000000000000000000000000000000000000000000 DUP2 MSTORE PUSH1 0x4 ADD PUSH1 0x40 MLOAD DUP1 SWAP2 SUB SWAP1 REVERT JUMPDEST DUP1 MLOAD DUP2 PUSH1 0x20 ADD REVERT JUMPDEST PUSH32 0xFFFFFFFF00000000000000000000000000000000000000000000000000000000 AND PUSH32 0x150B7A0200000000000000000000000000000000000000000000000000000000 EQ SWAP1 POP SWAP5 SWAP4 POP POP POP POP JUMP JUMPDEST PUSH1 0x0 SLOAD PUSH20 0xFFFFFFFFFFFFFFFFFFFFFFFFFFFFFFFFFFFFFFFF DUP5 AND PUSH2 0x201D JUMPI PUSH1 0x40 MLOAD PUSH32 0x2E07630000000000000000000000000000000000000000000000000000000000 DUP2 MSTORE PUSH1 0x4 ADD PUSH1 0x40 MLOAD DUP1 SWAP2 SUB SWAP1 REVERT JUMPDEST DUP3 PUSH1 0x0 SUB PUSH2 0x2057 JUMPI PUSH1 0x40 MLOAD PUSH32 0xB562E8DD00000000000000000000000000000000000000000000000000000000 DUP2 MSTORE PUSH1 0x4 ADD PUSH1 0x40 MLOAD DUP1 SWAP2 SUB SWAP1 REVERT JUMPDEST PUSH20 0xFFFFFFFFFFFFFFFFFFFFFFFFFFFFFFFFFFFFFFFF DUP5 AND PUSH1 0x0 DUP2 DUP2 MSTORE PUSH1 0x5 PUSH1 0x20 SWAP1 DUP2 MSTORE PUSH1 0x40 DUP1 DUP4 KECCAK256 DUP1 SLOAD PUSH32 0xFFFFFFFFFFFFFFFFFFFFFFFFFFFFFFFF00000000000000000000000000000000 DUP2 AND PUSH8 0xFFFFFFFFFFFFFFFF DUP1 DUP4 AND DUP12 ADD DUP2 AND SWAP2 DUP3 OR PUSH9 0x10000000000000000 PUSH32 0xFFFFFFFFFFFFFFFFFFFFFFFFFFFFFFFFFFFFFFFFFFFFFFFF0000000000000000 SWAP1 SWAP5 AND SWAP1 SWAP3 OR DUP4 SWAP1 DIV DUP2 AND DUP12 ADD DUP2 AND SWAP1 SWAP3 MUL OR SWAP1 SWAP2 SSTORE DUP6 DUP5 MSTORE PUSH1 0x4 SWAP1 SWAP3 MSTORE SWAP1 SWAP2 KECCAK256 DUP1 SLOAD PUSH32 0xFFFFFFFF00000000000000000000000000000000000000000000000000000000 AND DUP4 OR PUSH21 0x10000000000000000000000000000000000000000 TIMESTAMP SWAP1 SWAP4 AND SWAP3 SWAP1 SWAP3 MUL SWAP2 SWAP1 SWAP2 OR SWAP1 SSTORE DUP2 SWAP1 DUP2 DUP6 ADD SWAP1 EXTCODESIZE ISZERO PUSH2 0x2202 JUMPI JUMPDEST PUSH1 0x40 MLOAD DUP3 SWAP1 PUSH20 0xFFFFFFFFFFFFFFFFFFFFFFFFFFFFFFFFFFFFFFFF DUP9 AND SWAP1 PUSH1 0x0 SWAP1 PUSH32 0xDDF252AD1BE2C89B69C2B068FC378DAA952BA7F163C4A11628F55A4DF523B3EF SWAP1 DUP3 SWAP1 LOG4 PUSH2 0x21B2 PUSH1 0x0 DUP8 DUP5 DUP1 PUSH1 0x1 ADD SWAP6 POP DUP8 PUSH2 0x1E54 JUMP JUMPDEST PUSH2 0x21E8 JUMPI PUSH1 0x40 MLOAD PUSH32 0xD1A57ED600000000000000000000000000000000000000000000000000000000 DUP2 MSTORE PUSH1 0x4 ADD PUSH1 0x40 MLOAD DUP1 SWAP2 SUB SWAP1 REVERT JUMPDEST DUP1 DUP3 LT PUSH2 0x215A JUMPI DUP3 PUSH1 0x0 SLOAD EQ PUSH2 0x21FD JUMPI PUSH1 0x0 DUP1 REVERT JUMPDEST PUSH2 0x2254 JUMP JUMPDEST JUMPDEST PUSH1 0x40 MLOAD PUSH1 0x1 DUP4 ADD SWAP3 SWAP1 PUSH20 0xFFFFFFFFFFFFFFFFFFFFFFFFFFFFFFFFFFFFFFFF DUP9 AND SWAP1 PUSH1 0x0 SWAP1 PUSH32 0xDDF252AD1BE2C89B69C2B068FC378DAA952BA7F163C4A11628F55A4DF523B3EF SWAP1 DUP3 SWAP1 LOG4 DUP1 DUP3 LT PUSH2 0x2203 JUMPI JUMPDEST POP PUSH1 0x0 SWAP1 DUP2 SSTORE PUSH2 0x134F SWAP1 DUP6 DUP4 DUP7 DUP5 JUMP JUMPDEST PUSH32 0xFFFFFFFF00000000000000000000000000000000000000000000000000000000 DUP2 AND DUP2 EQ PUSH2 0x913 JUMPI PUSH1 0x0 DUP1 REVERT JUMPDEST PUSH1 0x0 PUSH1 0x20 DUP3 DUP5 SUB SLT ISZERO PUSH2 0x22A4 JUMPI PUSH1 0x0 DUP1 REVERT JUMPDEST DUP2 CALLDATALOAD PUSH2 0xFAD DUP2 PUSH2 0x2264 JUMP JUMPDEST PUSH1 0x0 JUMPDEST DUP4 DUP2 LT ISZERO PUSH2 0x22CA JUMPI DUP2 DUP2 ADD MLOAD DUP4 DUP3 ADD MSTORE PUSH1 0x20 ADD PUSH2 0x22B2 JUMP JUMPDEST DUP4 DUP2 GT ISZERO PUSH2 0x134F JUMPI POP POP PUSH1 0x0 SWAP2 ADD MSTORE JUMP JUMPDEST PUSH1 0x0 DUP2 MLOAD DUP1 DUP5 MSTORE PUSH2 0x22F3 DUP2 PUSH1 0x20 DUP7 ADD PUSH1 0x20 DUP7 ADD PUSH2 0x22AF JUMP JUMPDEST PUSH1 0x1F ADD PUSH32 0xFFFFFFFFFFFFFFFFFFFFFFFFFFFFFFFFFFFFFFFFFFFFFFFFFFFFFFFFFFFFFFE0 AND SWAP3 SWAP1 SWAP3 ADD PUSH1 0x20 ADD SWAP3 SWAP2 POP POP JUMP JUMPDEST PUSH1 0x20 DUP2 MSTORE PUSH1 0x0 PUSH2 0xFAD PUSH1 0x20 DUP4 ADD DUP5 PUSH2 0x22DB JUMP JUMPDEST PUSH1 0x0 PUSH1 0x20 DUP3 DUP5 SUB SLT ISZERO PUSH2 0x234A JUMPI PUSH1 0x0 DUP1 REVERT JUMPDEST POP CALLDATALOAD SWAP2 SWAP1 POP JUMP JUMPDEST DUP1 CALLDATALOAD PUSH20 0xFFFFFFFFFFFFFFFFFFFFFFFFFFFFFFFFFFFFFFFF DUP2 AND DUP2 EQ PUSH2 0x2375 JUMPI PUSH1 0x0 DUP1 REVERT JUMPDEST SWAP2 SWAP1 POP JUMP JUMPDEST PUSH1 0x0 DUP1 PUSH1 0x40 DUP4 DUP6 SUB SLT ISZERO PUSH2 0x238D JUMPI PUSH1 0x0 DUP1 REVERT JUMPDEST PUSH2 0x2396 DUP4 PUSH2 0x2351 JUMP JUMPDEST SWAP5 PUSH1 0x20 SWAP4 SWAP1 SWAP4 ADD CALLDATALOAD SWAP4 POP POP POP JUMP JUMPDEST PUSH1 0x0 DUP1 PUSH1 0x0 PUSH1 0x60 DUP5 DUP7 SUB SLT ISZERO PUSH2 0x23B9 JUMPI PUSH1 0x0 DUP1 REVERT JUMPDEST PUSH2 0x23C2 DUP5 PUSH2 0x2351 JUMP JUMPDEST SWAP3 POP PUSH2 0x23D0 PUSH1 0x20 DUP6 ADD PUSH2 0x2351 JUMP JUMPDEST SWAP2 POP PUSH1 0x40 DUP5 ADD CALLDATALOAD SWAP1 POP SWAP3 POP SWAP3 POP SWAP3 JUMP JUMPDEST PUSH32 0x4E487B7100000000000000000000000000000000000000000000000000000000 PUSH1 0x0 MSTORE PUSH1 0x41 PUSH1 0x4 MSTORE PUSH1 0x24 PUSH1 0x0 REVERT JUMPDEST PUSH1 0x40 MLOAD PUSH1 0x1F DUP3 ADD PUSH32 0xFFFFFFFFFFFFFFFFFFFFFFFFFFFFFFFFFFFFFFFFFFFFFFFFFFFFFFFFFFFFFFE0 AND DUP2 ADD PUSH8 0xFFFFFFFFFFFFFFFF DUP2 GT DUP3 DUP3 LT OR ISZERO PUSH2 0x2456 JUMPI PUSH2 0x2456 PUSH2 0x23E0 JUMP JUMPDEST PUSH1 0x40 MSTORE SWAP2 SWAP1 POP JUMP JUMPDEST PUSH1 0x0 PUSH1 0x20 DUP1 DUP4 DUP6 SUB SLT ISZERO PUSH2 0x2471 JUMPI PUSH1 0x0 DUP1 REVERT JUMPDEST DUP3 CALLDATALOAD PUSH8 0xFFFFFFFFFFFFFFFF DUP1 DUP3 GT ISZERO PUSH2 0x2489 JUMPI PUSH1 0x0 DUP1 REVERT JUMPDEST DUP2 DUP6 ADD SWAP2 POP DUP6 PUSH1 0x1F DUP4 ADD SLT PUSH2 0x249D JUMPI PUSH1 0x0 DUP1 REVERT JUMPDEST DUP2 CALLDATALOAD DUP2 DUP2 GT ISZERO PUSH2 0x24AF JUMPI PUSH2 0x24AF PUSH2 0x23E0 JUMP JUMPDEST DUP1 PUSH1 0x5 SHL SWAP2 POP PUSH2 0x24C0 DUP5 DUP4 ADD PUSH2 0x240F JUMP JUMPDEST DUP2 DUP2 MSTORE SWAP2 DUP4 ADD DUP5 ADD SWAP2 DUP5 DUP2 ADD SWAP1 DUP9 DUP5 GT ISZERO PUSH2 0x24DA JUMPI PUSH1 0x0 DUP1 REVERT JUMPDEST SWAP4 DUP6 ADD SWAP4 JUMPDEST DUP4 DUP6 LT ISZERO PUSH2 0x24F8 JUMPI DUP5 CALLDATALOAD DUP3 MSTORE SWAP4 DUP6 ADD SWAP4 SWAP1 DUP6 ADD SWAP1 PUSH2 0x24DF JUMP JUMPDEST SWAP9 SWAP8 POP POP POP POP POP POP POP POP JUMP JUMPDEST PUSH1 0x20 DUP1 DUP3 MSTORE DUP3 MLOAD DUP3 DUP3 ADD DUP2 SWAP1 MSTORE PUSH1 0x0 SWAP2 SWAP1 DUP5 DUP3 ADD SWAP1 PUSH1 0x40 DUP6 ADD SWAP1 DUP5 JUMPDEST DUP2 DUP2 LT ISZERO PUSH2 0xD5F JUMPI PUSH2 0x2569 DUP4 DUP6 MLOAD DUP1 MLOAD PUSH20 0xFFFFFFFFFFFFFFFFFFFFFFFFFFFFFFFFFFFFFFFF AND DUP3 MSTORE PUSH1 0x20 DUP1 DUP3 ADD MLOAD PUSH8 0xFFFFFFFFFFFFFFFF AND SWAP1 DUP4 ADD MSTORE PUSH1 0x40 SWAP1 DUP2 ADD MLOAD ISZERO ISZERO SWAP2 ADD MSTORE JUMP JUMPDEST SWAP3 DUP5 ADD SWAP3 PUSH1 0x60 SWAP3 SWAP1 SWAP3 ADD SWAP2 PUSH1 0x1 ADD PUSH2 0x2520 JUMP JUMPDEST PUSH1 0x0 PUSH1 0x20 DUP3 DUP5 SUB SLT ISZERO PUSH2 0x258E JUMPI PUSH1 0x0 DUP1 REVERT JUMPDEST PUSH2 0xFAD DUP3 PUSH2 0x2351 JUMP JUMPDEST PUSH1 0x0 DUP1 PUSH1 0x40 DUP4 DUP6 SUB SLT ISZERO PUSH2 0x25AA JUMPI PUSH1 0x0 DUP1 REVERT JUMPDEST POP POP DUP1 CALLDATALOAD SWAP3 PUSH1 0x20 SWAP1 SWAP2 ADD CALLDATALOAD SWAP2 POP JUMP JUMPDEST PUSH1 0x20 DUP1 DUP3 MSTORE DUP3 MLOAD DUP3 DUP3 ADD DUP2 SWAP1 MSTORE PUSH1 0x0 SWAP2 SWAP1 DUP5 DUP3 ADD SWAP1 PUSH1 0x40 DUP6 ADD SWAP1 DUP5 JUMPDEST DUP2 DUP2 LT ISZERO PUSH2 0xD5F JUMPI DUP4 MLOAD DUP4 MSTORE SWAP3 DUP5 ADD SWAP3 SWAP2 DUP5 ADD SWAP2 PUSH1 0x1 ADD PUSH2 0x25D5 JUMP JUMPDEST PUSH1 0x0 DUP1 PUSH1 0x0 PUSH1 0x60 DUP5 DUP7 SUB SLT ISZERO PUSH2 0x2606 JUMPI PUSH1 0x0 DUP1 REVERT JUMPDEST PUSH2 0x260F DUP5 PUSH2 0x2351 JUMP JUMPDEST SWAP6 PUSH1 0x20 DUP6 ADD CALLDATALOAD SWAP6 POP PUSH1 0x40 SWAP1 SWAP5 ADD CALLDATALOAD SWAP4 SWAP3 POP POP POP JUMP JUMPDEST PUSH1 0x0 DUP1 PUSH1 0x40 DUP4 DUP6 SUB SLT ISZERO PUSH2 0x2637 JUMPI PUSH1 0x0 DUP1 REVERT JUMPDEST PUSH2 0x2640 DUP4 PUSH2 0x2351 JUMP JUMPDEST SWAP2 POP PUSH1 0x20 DUP4 ADD CALLDATALOAD DUP1 ISZERO ISZERO DUP2 EQ PUSH2 0x2655 JUMPI PUSH1 0x0 DUP1 REVERT JUMPDEST DUP1 SWAP2 POP POP SWAP3 POP SWAP3 SWAP1 POP JUMP JUMPDEST PUSH1 0x0 DUP1 PUSH1 0x0 DUP1 PUSH1 0x80 DUP6 DUP8 SUB SLT ISZERO PUSH2 0x2676 JUMPI PUSH1 0x0 DUP1 REVERT JUMPDEST PUSH2 0x267F DUP6 PUSH2 0x2351 JUMP JUMPDEST SWAP4 POP PUSH1 0x20 PUSH2 0x268E DUP2 DUP8 ADD PUSH2 0x2351 JUMP JUMPDEST SWAP4 POP PUSH1 0x40 DUP7 ADD CALLDATALOAD SWAP3 POP PUSH1 0x60 DUP7 ADD CALLDATALOAD PUSH8 0xFFFFFFFFFFFFFFFF DUP1 DUP3 GT ISZERO PUSH2 0x26B2 JUMPI PUSH1 0x0 DUP1 REVERT JUMPDEST DUP2 DUP9 ADD SWAP2 POP DUP9 PUSH1 0x1F DUP4 ADD SLT PUSH2 0x26C6 JUMPI PUSH1 0x0 DUP1 REVERT JUMPDEST DUP2 CALLDATALOAD DUP2 DUP2 GT ISZERO PUSH2 0x26D8 JUMPI PUSH2 0x26D8 PUSH2 0x23E0 JUMP JUMPDEST PUSH2 0x2708 DUP5 PUSH32 0xFFFFFFFFFFFFFFFFFFFFFFFFFFFFFFFFFFFFFFFFFFFFFFFFFFFFFFFFFFFFFFE0 PUSH1 0x1F DUP5 ADD AND ADD PUSH2 0x240F JUMP JUMPDEST SWAP2 POP DUP1 DUP3 MSTORE DUP10 DUP5 DUP3 DUP6 ADD ADD GT ISZERO PUSH2 0x271E JUMPI PUSH1 0x0 DUP1 REVERT JUMPDEST DUP1 DUP5 DUP5 ADD DUP6 DUP5 ADD CALLDATACOPY PUSH1 0x0 DUP5 DUP3 DUP5 ADD ADD MSTORE POP DUP1 SWAP4 POP POP POP POP SWAP3 SWAP6 SWAP2 SWAP5 POP SWAP3 POP JUMP JUMPDEST DUP2 MLOAD PUSH20 0xFFFFFFFFFFFFFFFFFFFFFFFFFFFFFFFFFFFFFFFF AND DUP2 MSTORE PUSH1 0x20 DUP1 DUP4 ADD MLOAD PUSH8 0xFFFFFFFFFFFFFFFF AND SWAP1 DUP3 ADD MSTORE PUSH1 0x40 DUP1 DUP4 ADD MLOAD ISZERO ISZERO SWAP1 DUP3 ADD MSTORE PUSH1 0x60 DUP2 ADD PUSH2 0x6A0 JUMP JUMPDEST PUSH1 0x0 DUP1 PUSH1 0x40 DUP4 DUP6 SUB SLT ISZERO PUSH2 0x2794 JUMPI PUSH1 0x0 DUP1 REVERT JUMPDEST PUSH2 0x279D DUP4 PUSH2 0x2351 JUMP JUMPDEST SWAP2 POP PUSH2 0x27AB PUSH1 0x20 DUP5 ADD PUSH2 0x2351 JUMP JUMPDEST SWAP1 POP SWAP3 POP SWAP3 SWAP1 POP JUMP JUMPDEST PUSH1 0x1 DUP2 DUP2 SHR SWAP1 DUP3 AND DUP1 PUSH2 0x27C8 JUMPI PUSH1 0x7F DUP3 AND SWAP2 POP JUMPDEST PUSH1 0x20 DUP3 LT DUP2 SUB PUSH2 0x2801 JUMPI PUSH32 0x4E487B7100000000000000000000000000000000000000000000000000000000 PUSH1 0x0 MSTORE PUSH1 0x22 PUSH1 0x4 MSTORE PUSH1 0x24 PUSH1 0x0 REVERT JUMPDEST POP SWAP2 SWAP1 POP JUMP JUMPDEST PUSH32 0x4E487B7100000000000000000000000000000000000000000000000000000000 PUSH1 0x0 MSTORE PUSH1 0x32 PUSH1 0x4 MSTORE PUSH1 0x24 PUSH1 0x0 REVERT JUMPDEST PUSH32 0x4E487B7100000000000000000000000000000000000000000000000000000000 PUSH1 0x0 MSTORE PUSH1 0x11 PUSH1 0x4 MSTORE PUSH1 0x24 PUSH1 0x0 REVERT JUMPDEST PUSH1 0x0 DUP3 NOT DUP3 GT ISZERO PUSH2 0x2878 JUMPI PUSH2 0x2878 PUSH2 0x2836 JUMP JUMPDEST POP ADD SWAP1 JUMP JUMPDEST PUSH1 0x0 DUP2 PUSH32 0xFFFFFFFFFFFFFFFFFFFFFFFFFFFFFFFFFFFFFFFFFFFFFFFFFFFFFFFFFFFFFFFF DIV DUP4 GT DUP3 ISZERO ISZERO AND ISZERO PUSH2 0x28B5 JUMPI PUSH2 0x28B5 PUSH2 0x2836 JUMP JUMPDEST POP MUL SWAP1 JUMP JUMPDEST PUSH1 0x0 DUP2 MLOAD PUSH2 0x28CC DUP2 DUP6 PUSH1 0x20 DUP7 ADD PUSH2 0x22AF JUMP JUMPDEST SWAP3 SWAP1 SWAP3 ADD SWAP3 SWAP2 POP POP JUMP JUMPDEST PUSH32 0x697066733A2F2F00000000000000000000000000000000000000000000000000 DUP2 MSTORE PUSH1 0x0 PUSH1 0x7 PUSH1 0x0 DUP6 SLOAD DUP2 PUSH1 0x1 DUP3 DUP2 SHR SWAP2 POP DUP1 DUP4 AND DUP1 PUSH2 0x2918 JUMPI PUSH1 0x7F DUP4 AND SWAP3 POP JUMPDEST PUSH1 0x20 DUP1 DUP5 LT DUP3 SUB PUSH2 0x2950 JUMPI PUSH32 0x4E487B7100000000000000000000000000000000000000000000000000000000 DUP7 MSTORE PUSH1 0x22 PUSH1 0x4 MSTORE PUSH1 0x24 DUP7 REVERT JUMPDEST DUP2 DUP1 ISZERO PUSH2 0x2964 JUMPI PUSH1 0x1 DUP2 EQ PUSH2 0x2997 JUMPI PUSH2 0x29C8 JUMP JUMPDEST PUSH32 0xFFFFFFFFFFFFFFFFFFFFFFFFFFFFFFFFFFFFFFFFFFFFFFFFFFFFFFFFFFFFFF00 DUP7 AND DUP9 DUP12 ADD MSTORE DUP8 DUP6 DUP12 ADD ADD SWAP7 POP PUSH2 0x29C8 JUMP JUMPDEST PUSH1 0x0 DUP13 DUP2 MSTORE PUSH1 0x20 SWAP1 KECCAK256 PUSH1 0x0 JUMPDEST DUP7 DUP2 LT ISZERO PUSH2 0x29BE JUMPI DUP2 SLOAD DUP13 DUP3 ADD DUP12 ADD MSTORE SWAP1 DUP6 ADD SWAP1 DUP4 ADD PUSH2 0x29A3 JUMP JUMPDEST POP POP DUP8 DUP6 DUP12 ADD ADD SWAP7 POP JUMPDEST POP POP POP POP POP POP PUSH2 0x2A30 PUSH2 0x2A07 PUSH2 0x2A01 DUP4 PUSH32 0x2F6D657461646174612F00000000000000000000000000000000000000000000 DUP2 MSTORE PUSH1 0xA ADD SWAP1 JUMP JUMPDEST DUP8 PUSH2 0x28BA JUMP JUMPDEST PUSH32 0x2E6A736F6E000000000000000000000000000000000000000000000000000000 DUP2 MSTORE PUSH1 0x5 ADD SWAP1 JUMP JUMPDEST SWAP7 SWAP6 POP POP POP POP POP POP JUMP JUMPDEST PUSH1 0x0 PUSH32 0xFFFFFFFFFFFFFFFFFFFFFFFFFFFFFFFFFFFFFFFFFFFFFFFFFFFFFFFFFFFFFFFF DUP3 SUB PUSH2 0x2A6B JUMPI PUSH2 0x2A6B PUSH2 0x2836 JUMP JUMPDEST POP PUSH1 0x1 ADD SWAP1 JUMP JUMPDEST PUSH1 0x0 DUP3 PUSH2 0x2AA8 JUMPI PUSH32 0x4E487B7100000000000000000000000000000000000000000000000000000000 PUSH1 0x0 MSTORE PUSH1 0x12 PUSH1 0x4 MSTORE PUSH1 0x24 PUSH1 0x0 REVERT JUMPDEST POP DIV SWAP1 JUMP JUMPDEST PUSH1 0x0 DUP3 DUP3 LT ISZERO PUSH2 0x2ABF JUMPI PUSH2 0x2ABF PUSH2 0x2836 JUMP JUMPDEST POP SUB SWAP1 JUMP JUMPDEST PUSH1 0x0 PUSH1 0xFF DUP3 AND PUSH1 0xFF DUP5 AND DUP1 PUSH1 0xFF SUB DUP3 GT ISZERO PUSH2 0x2AE1 JUMPI PUSH2 0x2AE1 PUSH2 0x2836 JUMP JUMPDEST ADD SWAP4 SWAP3 POP POP POP JUMP JUMPDEST PUSH1 0x0 PUSH20 0xFFFFFFFFFFFFFFFFFFFFFFFFFFFFFFFFFFFFFFFF DUP1 DUP8 AND DUP4 MSTORE DUP1 DUP7 AND PUSH1 0x20 DUP5 ADD MSTORE POP DUP4 PUSH1 0x40 DUP4 ADD MSTORE PUSH1 0x80 PUSH1 0x60 DUP4 ADD MSTORE PUSH2 0x2A30 PUSH1 0x80 DUP4 ADD DUP5 PUSH2 0x22DB JUMP JUMPDEST PUSH1 0x0 PUSH1 0x20 DUP3 DUP5 SUB SLT ISZERO PUSH2 0x2B3A JUMPI PUSH1 0x0 DUP1 REVERT JUMPDEST DUP2 MLOAD PUSH2 0xFAD DUP2 PUSH2 0x2264 JUMP INVALID LOG2 PUSH5 0x6970667358 0x22 SLT KECCAK256 CALLCODE 0xEC 0xB4 CALLDATASIZE GAS 0x5E PUSH21 0x8E9E2DCDB228A9F20F92773F0E3232E0799AB408B8 PUSH13 0x9EB57B64736F6C634300080D00 CALLER "},"methodIdentifiers":{"MAX_MINT_AMOUNT()":"fa9b7018","approve(address,uint256)":"095ea7b3","balanceOf(address)":"70a08231","contractURI()":"e8a3d485","explicitOwnershipOf(uint256)":"c23dc68f","explicitOwnershipsOf(uint256[])":"5bbb2177","getApproved(uint256)":"081812fc","isApprovedForAll(address,address)":"e985e9c5","mint(uint256)":"a0712d68","mintFromStartOrFail(uint256,uint256)":"7a4d892a","name()":"06fdde03","owner()":"8da5cb5b","ownerOf(uint256)":"6352211e","renounceOwnership()":"715018a6","safeTransferFrom(address,address,uint256)":"42842e0e","safeTransferFrom(address,address,uint256,bytes)":"b88d4fde","setApprovalForAll(address,bool)":"a22cb465","supportsInterface(bytes4)":"01ffc9a7","symbol()":"95d89b41","tokenURI(uint256)":"c87b56dd","tokensOfOwner(address)":"8462151c","tokensOfOwnerIn(address,uint256,uint256)":"99a2557a","totalMinted()":"a2309ff8","totalSupply()":"18160ddd","transferFrom(address,address,uint256)":"23b872dd","transferOwnership(address)":"f2fde38b","uint2str(uint256)":"f76f950e","withdraw()":"3ccfd60b"}}}}}