{
  "contractName": "RecordService",
  "abi": [
    {
      "inputs": [],
      "payable": false,
      "stateMutability": "nonpayable",
      "type": "constructor",
      "signature": "constructor"
    },
    {
      "anonymous": false,
      "inputs": [
        {
          "indexed": false,
          "name": "id",
          "type": "uint256"
        },
        {
          "indexed": false,
          "name": "owner",
          "type": "address"
        },
        {
          "indexed": false,
          "name": "ipfsCid",
          "type": "string"
        },
        {
          "indexed": false,
          "name": "repoId",
          "type": "uint256"
        },
        {
          "indexed": false,
          "name": "eventType",
          "type": "string"
        }
      ],
      "name": "RecordEvent",
      "type": "event",
      "signature": "0x050a6f24947f7fed7d2d6fe904ff10e1cfbee598adc5c40655e61383e60d2b0d"
    },
    {
      "constant": false,
      "inputs": [
        {
          "name": "_repoId",
          "type": "uint256"
        },
        {
          "name": "_ipfsCid",
          "type": "string"
        }
      ],
      "name": "create",
      "outputs": [
        {
          "name": "id",
          "type": "uint256"
        }
      ],
      "payable": false,
      "stateMutability": "nonpayable",
      "type": "function",
      "signature": "0x0118fa49"
    },
    {
      "constant": true,
      "inputs": [
        {
          "name": "_repoId",
          "type": "uint256"
        },
        {
          "name": "_id",
          "type": "uint256"
        }
      ],
      "name": "read",
      "outputs": [
        {
          "name": "id",
          "type": "uint256"
        },
        {
          "name": "owner",
          "type": "address"
        },
        {
          "name": "ipfsCid",
          "type": "string"
        },
        {
          "name": "repoId",
          "type": "uint256"
        }
      ],
      "payable": false,
      "stateMutability": "view",
      "type": "function",
      "signature": "0x75080997"
    },
    {
      "constant": false,
      "inputs": [
        {
          "name": "_repoId",
          "type": "uint256"
        },
        {
          "name": "_id",
          "type": "uint256"
        },
        {
          "name": "_ipfsCid",
          "type": "string"
        }
      ],
      "name": "update",
      "outputs": [],
      "payable": false,
      "stateMutability": "nonpayable",
      "type": "function",
      "signature": "0xd753fd25"
    },
    {
      "constant": true,
      "inputs": [
        {
          "name": "_repoId",
          "type": "uint256"
        }
      ],
      "name": "count",
      "outputs": [
        {
          "name": "theCount",
          "type": "uint256"
        }
      ],
      "payable": false,
      "stateMutability": "view",
      "type": "function",
      "signature": "0x3b3546c8"
    },
    {
      "constant": true,
      "inputs": [
        {
          "name": "_repoId",
          "type": "uint256"
        },
        {
          "name": "_index",
          "type": "uint256"
        }
      ],
      "name": "readByIndex",
      "outputs": [
        {
          "name": "id",
          "type": "uint256"
        },
        {
          "name": "owner",
          "type": "address"
        },
        {
          "name": "ipfsCid",
          "type": "string"
        },
        {
          "name": "repoId",
          "type": "uint256"
        }
      ],
      "payable": false,
      "stateMutability": "view",
      "type": "function",
      "signature": "0x5a24fb94"
    },
    {
      "constant": true,
      "inputs": [
        {
          "name": "_repoId",
          "type": "uint256"
        },
        {
          "name": "_owner",
          "type": "address"
        }
      ],
      "name": "countOwned",
      "outputs": [
        {
          "name": "theCount",
          "type": "uint256"
        }
      ],
      "payable": false,
      "stateMutability": "view",
      "type": "function",
      "signature": "0x0a66e564"
    },
    {
      "constant": true,
      "inputs": [
        {
          "name": "_repoId",
          "type": "uint256"
        },
        {
          "name": "_owner",
          "type": "address"
        },
        {
          "name": "_index",
          "type": "uint256"
        }
      ],
      "name": "readByOwnedIndex",
      "outputs": [
        {
          "name": "id",
          "type": "uint256"
        },
        {
          "name": "owner",
          "type": "address"
        },
        {
          "name": "ipfsCid",
          "type": "string"
        },
        {
          "name": "repoId",
          "type": "uint256"
        }
      ],
      "payable": false,
      "stateMutability": "view",
      "type": "function",
      "signature": "0xf6c8405e"
    }
  ],
  "bytecode": "0x608060405234801561001057600080fd5b50336000806101000a81548173ffffffffffffffffffffffffffffffffffffffff021916908373ffffffffffffffffffffffffffffffffffffffff1602179055506118b2806100606000396000f3fe608060405260043610610083576000357c0100000000000000000000000000000000000000000000000000000000900463ffffffff1680630118fa49146100885780630a66e5641461012c5780633b3546c81461019b5780635a24fb94146101ea57806375080997146102e9578063d753fd25146103e8578063f6c8405e14610482575b600080fd5b34801561009457600080fd5b50610116600480360360408110156100ab57600080fd5b8101908080359060200190929190803590602001906401000000008111156100d257600080fd5b8201836020820111156100e457600080fd5b8035906020019184600183028401116401000000008311171561010657600080fd5b90919293919293905050506105a1565b6040518082815260200191505060405180910390f35b34801561013857600080fd5b506101856004803603604081101561014f57600080fd5b8101908080359060200190929190803573ffffffffffffffffffffffffffffffffffffffff169060200190929190505050610a3e565b6040518082815260200191505060405180910390f35b3480156101a757600080fd5b506101d4600480360360208110156101be57600080fd5b8101908080359060200190929190505050610b91565b6040518082815260200191505060405180910390f35b3480156101f657600080fd5b5061022d6004803603604081101561020d57600080fd5b810190808035906020019092919080359060200190929190505050610c2f565b604051808581526020018473ffffffffffffffffffffffffffffffffffffffff1673ffffffffffffffffffffffffffffffffffffffff16815260200180602001838152602001828103825284818151815260200191508051906020019080838360005b838110156102ab578082015181840152602081019050610290565b50505050905090810190601f1680156102d85780820380516001836020036101000a031916815260200191505b509550505050505060405180910390f35b3480156102f557600080fd5b5061032c6004803603604081101561030c57600080fd5b810190808035906020019092919080359060200190929190505050610df3565b604051808581526020018473ffffffffffffffffffffffffffffffffffffffff1673ffffffffffffffffffffffffffffffffffffffff16815260200180602001838152602001828103825284818151815260200191508051906020019080838360005b838110156103aa57808201518184015260208101905061038f565b50505050905090810190601f1680156103d75780820380516001836020036101000a031916815260200191505b509550505050505060405180910390f35b3480156103f457600080fd5b506104806004803603606081101561040b57600080fd5b8101908080359060200190929190803590602001909291908035906020019064010000000081111561043c57600080fd5b82018360208201111561044e57600080fd5b8035906020019184600183028401116401000000008311171561047057600080fd5b909192939192939050505061105e565b005b34801561048e57600080fd5b506104e5600480360360608110156104a557600080fd5b8101908080359060200190929190803573ffffffffffffffffffffffffffffffffffffffff16906020019092919080359060200190929190505050611445565b604051808581526020018473ffffffffffffffffffffffffffffffffffffffff1673ffffffffffffffffffffffffffffffffffffffff16815260200180602001838152602001828103825284818151815260200191508051906020019080838360005b83811015610563578082015181840152602081019050610548565b50505050905090810190601f1680156105905780820380516001836020036101000a031916815260200191505b509550505050505060405180910390f35b600080841415151561061b576040517f08c379a00000000000000000000000000000000000000000000000000000000081526004018080602001828103825260168152602001807f596f75206d75737420737570706c792061207265706f0000000000000000000081525060200191505060405180910390fd5b600083839050111515610696576040517f08c379a000000000000000000000000000000000000000000000000000000000815260040180806020018281038252601a8152602001807f596f75206d75737420737570706c7920616e206970667343696400000000000081525060200191505060405180910390fd5b600460008154809291906001019190505550600060016000868152602001908152602001600020905060006106cb86336116bd565b905060006002600083815260200190815260200160002090506106ec611722565b60806040519081016040528060045481526020013373ffffffffffffffffffffffffffffffffffffffff16815260200188888080601f016020809104026020016040519081016040528093929190818152602001838380828437600081840152601f19601f8201169050808301925050505050505081526020018981525090508060036000836000015181526020019081526020016000206000820151816000015560208201518160010160006101000a81548173ffffffffffffffffffffffffffffffffffffffff021916908373ffffffffffffffffffffffffffffffffffffffff16021790555060408201518160020190805190602001906107f1929190611761565b5060608201518160030155905050838160000151908060018154018082558091505090600182039060005260206000200160009091929091909150555081816000015190806001815401808255809150509060018203906000526020600020016000909192909190915055507f050a6f24947f7fed7d2d6fe904ff10e1cfbee598adc5c40655e61383e60d2b0d600360008360000151815260200190815260200160002060000154600360008460000151815260200190815260200160002060010160009054906101000a900473ffffffffffffffffffffffffffffffffffffffff166003600085600001518152602001908152602001600020600201600360008660000151815260200190815260200160002060030154604051808581526020018473ffffffffffffffffffffffffffffffffffffffff1673ffffffffffffffffffffffffffffffffffffffff16815260200180602001838152602001806020018381038352858181546001816001161561010002031660029004815260200191508054600181600116156101000203166002900480156109d45780601f106109a9576101008083540402835291602001916109d4565b820191906000526020600020905b8154815290600101906020018083116109b757829003601f168201915b5050838103825260038152602001807f4e45570000000000000000000000000000000000000000000000000000000000815250602001965050505050505060405180910390a160036000868152602001908152602001600020600001549450505050509392505050565b6000808314151515610ab8576040517f08c379a00000000000000000000000000000000000000000000000000000000081526004018080602001828103825260168152602001807f596f75206d75737420737570706c792061207265706f0000000000000000000081525060200191505060405180910390fd5b600073ffffffffffffffffffffffffffffffffffffffff168273ffffffffffffffffffffffffffffffffffffffff1614151515610b5d576040517f08c379a000000000000000000000000000000000000000000000000000000000815260040180806020018281038252601a8152602001807f596f75206d75737420737570706c7920616e206164647265737300000000000081525060200191505060405180910390fd5b6000610b6984846116bd565b9050600060026000838152602001908152602001600020905080805490509250505092915050565b6000808214151515610c0b576040517f08c379a00000000000000000000000000000000000000000000000000000000081526004018080602001828103825260168152602001807f596f75206d75737420737570706c792061207265706f0000000000000000000081525060200191505060405180910390fd5b60006001600084815260200190815260200160002090508080549050915050919050565b60008060606000808614151515610cae576040517f08c379a00000000000000000000000000000000000000000000000000000000081526004018080602001828103825260168152602001807f596f75206d75737420737570706c792061207265706f0000000000000000000081525060200191505060405180910390fd5b6000600160008881526020019081526020016000209050808054905086101515610d40576040517f08c379a00000000000000000000000000000000000000000000000000000000081526004018080602001828103825260128152602001807f4e6f207265636f726420617420696e646578000000000000000000000000000081525060200191505060405180910390fd5b60008187815481101515610d5057fe5b9060005260206000200154905060008110151515610dd6576040517f08c379a00000000000000000000000000000000000000000000000000000000081526004018080602001828103825260138152602001807f496e76616c696420696420617420696e6465780000000000000000000000000081525060200191505060405180910390fd5b610de08882610df3565b9550955095509550505092959194509250565b60008060606000808614151515610e72576040517f08c379a00000000000000000000000000000000000000000000000000000000081526004018080602001828103825260168152602001807f596f75206d75737420737570706c792061207265706f0000000000000000000081525060200191505060405180910390fd5b60008514151515610eeb576040517f08c379a00000000000000000000000000000000000000000000000000000000081526004018080602001828103825260158152602001807f596f75206d75737420737570706c7920616e206964000000000000000000000081525060200191505060405180910390fd5b6000600360008781526020019081526020016000209050868160030154141515610f7d576040517f08c379a000000000000000000000000000000000000000000000000000000000815260040180806020018281038252600f8152602001807f4e6f207265636f726420666f756e64000000000000000000000000000000000081525060200191505060405180910390fd5b80600001548160010160009054906101000a900473ffffffffffffffffffffffffffffffffffffffff16826002018360030154818054600181600116156101000203166002900480601f0160208091040260200160405190810160405280929190818152602001828054600181600116156101000203166002900480156110455780601f1061101a57610100808354040283529160200191611045565b820191906000526020600020905b81548152906001019060200180831161102857829003601f168201915b5050505050915094509450945094505092959194509250565b60006003600085815260200190815260200160002090503373ffffffffffffffffffffffffffffffffffffffff168160010160009054906101000a900473ffffffffffffffffffffffffffffffffffffffff1673ffffffffffffffffffffffffffffffffffffffff1614151561113c576040517f08c379a00000000000000000000000000000000000000000000000000000000081526004018080602001828103825260198152602001807f596f7520646f6e2774206f776e2074686973207265636f72640000000000000081525060200191505060405180910390fd5b8481600301541415156111b7576040517f08c379a000000000000000000000000000000000000000000000000000000000815260040180806020018281038252600f8152602001807f4e6f207265636f726420666f756e64000000000000000000000000000000000081525060200191505060405180910390fd5b600083839050111515611232576040517f08c379a000000000000000000000000000000000000000000000000000000000815260040180806020018281038252601a8152602001807f596f75206d75737420737570706c7920616e206970667343696400000000000081525060200191505060405180910390fd5b828260405180838380828437808301925050509250505060405180910390208160020160405180828054600181600116156101000203166002900480156112b05780601f1061128e5761010080835404028352918201916112b0565b820191906000526020600020905b81548152906001019060200180831161129c575b5050915050604051809103902014151561143e5782828260020191906112d79291906117e1565b507f050a6f24947f7fed7d2d6fe904ff10e1cfbee598adc5c40655e61383e60d2b0d81600001548260010160009054906101000a900473ffffffffffffffffffffffffffffffffffffffff16836002018460030154604051808581526020018473ffffffffffffffffffffffffffffffffffffffff1673ffffffffffffffffffffffffffffffffffffffff16815260200180602001838152602001806020018381038352858181546001816001161561010002031660029004815260200191508054600181600116156101000203166002900480156113f75780601f106113cc576101008083540402835291602001916113f7565b820191906000526020600020905b8154815290600101906020018083116113da57829003601f168201915b5050838103825260068152602001807f5550444154450000000000000000000000000000000000000000000000000000815250602001965050505050505060405180910390a15b5050505050565b600080606060008087141515156114c4576040517f08c379a00000000000000000000000000000000000000000000000000000000081526004018080602001828103825260168152602001807f596f75206d75737420737570706c792061207265706f0000000000000000000081525060200191505060405180910390fd5b600073ffffffffffffffffffffffffffffffffffffffff168673ffffffffffffffffffffffffffffffffffffffff1614151515611569576040517f08c379a000000000000000000000000000000000000000000000000000000000815260040180806020018281038252601a8152602001807f596f75206d75737420737570706c7920616e206164647265737300000000000081525060200191505060405180910390fd5b600061157588886116bd565b90506000600260008381526020019081526020016000209050808054905087101515611609576040517f08c379a00000000000000000000000000000000000000000000000000000000081526004018080602001828103825260128152602001807f4e6f207265636f726420617420696e646578000000000000000000000000000081525060200191505060405180910390fd5b6000818881548110151561161957fe5b906000526020600020015490506000811015151561169f576040517f08c379a00000000000000000000000000000000000000000000000000000000081526004018080602001828103825260138152602001807f496e76616c696420696420617420696e6465780000000000000000000000000081525060200191505060405180910390fd5b6116a98a82610df3565b965096509650965050505093509350935093565b60008183604051602001808373ffffffffffffffffffffffffffffffffffffffff1673ffffffffffffffffffffffffffffffffffffffff1681526020018281526020019250505060405160208183030381529060405280519060200120905092915050565b60806040519081016040528060008152602001600073ffffffffffffffffffffffffffffffffffffffff16815260200160608152602001600081525090565b828054600181600116156101000203166002900490600052602060002090601f016020900481019282601f106117a257805160ff19168380011785556117d0565b828001600101855582156117d0579182015b828111156117cf5782518255916020019190600101906117b4565b5b5090506117dd9190611861565b5090565b828054600181600116156101000203166002900490600052602060002090601f016020900481019282601f1061182257803560ff1916838001178555611850565b82800160010185558215611850579182015b8281111561184f578235825591602001919060010190611834565b5b50905061185d9190611861565b5090565b61188391905b8082111561187f576000816000905550600101611867565b5090565b9056fea165627a7a72305820d8ade91001272362273e85b4ff245c42b94fe07963a1de1b0383b79f2da6e56b0029",
  "source": "pragma solidity ^0.5.0;\n\n/**\n * Note: \n * I'm naming this RecordService because I think naming these things \"Contract\" is an artifact \n * that will quickly disappear once more and more apps start to appear. Naming this \"RecordContract\"\n * would be like naming all of your Java classes \"StudentClass\" and \"DatabaseClass\". \n * \n * We know it's a contract because of the contract keyword. \n */\ncontract RecordService {\n\n    address serviceOwner;\n\n    struct Record {\n        uint256 id;\n        address owner;\n        string ipfsCid;\n        uint repoId;\n    }\n\n    event RecordEvent (\n        uint256 id,\n        address owner,\n        string ipfsCid,\n        uint repoId,\n        string eventType\n    );\n\n\n    constructor() public {\n        serviceOwner = msg.sender;\n    }\n\n    //\n    /**\n     * Map between repoId and the array that holds the indexes for it.\n     * \n     * The uint is the repoId and the uint256[] is an array cointaining\n     * the ids of records held in that repo. The ids in each index are \n     * ordered by when they were created.\n     */\n    mapping(uint => uint256[]) private repoIdIndexesMapping;\n\n    /*\n     * Map between a hash of the repoId and owner address and the array that\n     * holds the indexes for it.\n     */\n    mapping(bytes32 => uint256[]) private repoIdAddressHashToIndexesMapping;\n\n\n    //Records are ultimately stored mapped by their id.\n    mapping(uint256 => Record) private recordMapping;\n\n\n\n    uint256 nextId;\n\n    function create(uint _repoId, string calldata _ipfsCid) external returns (uint256 id) {\n        \n        // require(serviceOwner == msg.sender, \"Permission denied\");\n        require(_repoId != 0, \"You must supply a repo\"); \n        require(bytes(_ipfsCid).length > 0, \"You must supply an ipfsCid\");\n\n        nextId++;\n\n        //Get the existing indexes for this repo\n        uint256[] storage repoIndex = repoIdIndexesMapping[_repoId];\n\n        //Get the existing indexes for this repo/owner\n        bytes32 repoIdAddressHash = keccak256RepoIdAndOwner(_repoId, msg.sender);\n        uint256[] storage repoOwnerIndex = repoIdAddressHashToIndexesMapping[repoIdAddressHash];\n\n        Record memory record = Record({\n            id : nextId,\n            owner: msg.sender,\n            ipfsCid : _ipfsCid,\n            repoId: _repoId\n        });\n\n        //Put item in mapping\n        recordMapping[record.id] = record;\n\n        //Put id in indexes\n        repoIndex.push(record.id);\n        repoOwnerIndex.push(record.id);\n\n\n        emit RecordEvent(\n            recordMapping[record.id].id,\n            recordMapping[record.id].owner,\n            recordMapping[record.id].ipfsCid,\n            recordMapping[record.id].repoId,\n            \"NEW\"\n        );\n\n\n        return recordMapping[id].id;\n    }\n\n    function read(uint _repoId, uint256 _id) public view returns (uint256 id, address owner, string memory ipfsCid, uint repoId) {\n\n        require(_repoId != 0, \"You must supply a repo\");\n        require(_id != 0, \"You must supply an id\");\n\n        Record storage record = recordMapping[_id];\n\n        require(record.repoId == _repoId, \"No record found\");\n\n        return (record.id, record.owner, record.ipfsCid, record.repoId);\n    }\n\n    function update(uint _repoId, uint256 _id, string calldata _ipfsCid) external {\n\n        Record storage record = recordMapping[_id];\n\n        require(record.owner == msg.sender, \"You don't own this record\");\n        require(record.repoId == _repoId, \"No record found\"); \n        require(bytes(_ipfsCid).length > 0, \"You must supply an ipfsCid\"); \n\n\n        if (keccak256(bytes(record.ipfsCid)) != keccak256(bytes(_ipfsCid))) {\n            record.ipfsCid = _ipfsCid;\n\n            emit RecordEvent(\n                record.id,\n                record.owner,\n                record.ipfsCid,\n                record.repoId,\n                \"UPDATE\"\n            );   \n        }\n    }\n\n\n    \n    function count(uint _repoId) external view returns (uint256 theCount) {\n        require(_repoId != 0, \"You must supply a repo\");\n\n        uint256[] storage repoIndex = repoIdIndexesMapping[_repoId];\n        return repoIndex.length;\n    }\n\n    function readByIndex(uint _repoId, uint256 _index) external view returns (uint256 id, address owner, string memory ipfsCid, uint repoId) {\n        \n        require(_repoId != 0, \"You must supply a repo\");\n        uint256[] storage repoIndex = repoIdIndexesMapping[_repoId]; //unit test before adding a record\n\n        require(_index < repoIndex.length, \"No record at index\"); //check if we're passed the end of the array\n\n        uint256 idAtIndex = repoIndex[_index];\n\n        require(idAtIndex >= 0, \"Invalid id at index\");\n\n        return read(_repoId, idAtIndex);\n    }\n\n\n\n\n\n    function countOwned(uint _repoId, address _owner) external view returns (uint256 theCount) {\n        require(_repoId != 0, \"You must supply a repo\");\n        require(_owner != address(0), \"You must supply an address\");\n\n        bytes32 repoIdAddressHash = keccak256RepoIdAndOwner(_repoId, _owner);\n\n        uint256[] storage repoIndex = repoIdAddressHashToIndexesMapping[repoIdAddressHash];\n        return repoIndex.length;\n    }\n\n    function readByOwnedIndex(uint _repoId, address _owner, uint256 _index) external view returns (uint256 id, address owner, string memory ipfsCid, uint repoId) {\n        \n        require(_repoId != 0, \"You must supply a repo\");\n        require(_owner != address(0), \"You must supply an address\");\n        \n        bytes32 repoIdAddressHash = keccak256RepoIdAndOwner(_repoId, _owner);\n\n        uint256[] storage repoOwnerIndex = repoIdAddressHashToIndexesMapping[repoIdAddressHash];\n\n        require(_index < repoOwnerIndex.length, \"No record at index\"); //check if we're passed the end of the array\n\n        uint256 idAtIndex = repoOwnerIndex[_index];\n        require(idAtIndex >= 0, \"Invalid id at index\");\n\n        return read(_repoId, idAtIndex);\n\n\n    }\n\n\n\n    function keccak256RepoIdAndOwner(uint _repoId, address owner) internal pure returns (bytes32) {\n        return keccak256(abi.encode(owner, _repoId));\n    }\n\n}\n\n\n",
  "sourcePath": "/home/ptoner/repos/large/truffle/contracts/RecordService.sol",
  "compiler": {
    "name": "solc",
    "version": "0.5.0+commit.1d4f565a.Emscripten.clang"
  },
  "schemaVersion": "3.0.6",
  "updatedAt": "2019-04-17T17:22:30.425Z",
  "devdoc": {
    "methods": {}
  },
  "userdoc": {
    "methods": {},
    "notice": "Note:  I'm naming this RecordService because I think naming these things \"Contract\" is an artifact  that will quickly disappear once more and more apps start to appear. Naming this \"RecordContract\" would be like naming all of your Java classes \"StudentClass\" and \"DatabaseClass\".   * We know it's a contract because of the contract keyword. "
  }
}