{
  "contractName": "Whitepages",
  "abi": [
    {
      "anonymous": false,
      "inputs": [
        {
          "indexed": false,
          "name": "owner",
          "type": "address"
        },
        {
          "indexed": false,
          "name": "orbitCid",
          "type": "string"
        },
        {
          "indexed": false,
          "name": "eventType",
          "type": "string"
        }
      ],
      "name": "ListingEvent",
      "type": "event"
    },
    {
      "constant": false,
      "inputs": [
        {
          "name": "_orbitCid",
          "type": "string"
        }
      ],
      "name": "create",
      "outputs": [],
      "payable": false,
      "stateMutability": "nonpayable",
      "type": "function"
    },
    {
      "constant": true,
      "inputs": [
        {
          "name": "_address",
          "type": "address"
        }
      ],
      "name": "read",
      "outputs": [
        {
          "name": "orbitCid",
          "type": "string"
        }
      ],
      "payable": false,
      "stateMutability": "view",
      "type": "function"
    },
    {
      "constant": false,
      "inputs": [
        {
          "name": "_orbitCid",
          "type": "string"
        }
      ],
      "name": "update",
      "outputs": [],
      "payable": false,
      "stateMutability": "nonpayable",
      "type": "function"
    },
    {
      "constant": true,
      "inputs": [],
      "name": "count",
      "outputs": [
        {
          "name": "theCount",
          "type": "uint256"
        }
      ],
      "payable": false,
      "stateMutability": "view",
      "type": "function"
    },
    {
      "constant": true,
      "inputs": [
        {
          "name": "_index",
          "type": "uint256"
        }
      ],
      "name": "readByIndex",
      "outputs": [
        {
          "name": "owner",
          "type": "address"
        },
        {
          "name": "orbitCid",
          "type": "string"
        }
      ],
      "payable": false,
      "stateMutability": "view",
      "type": "function"
    }
  ],
  "bytecode": "0x608060405234801561001057600080fd5b50610cd0806100206000396000f3fe608060405234801561001057600080fd5b50600436106100575760003560e01c806306661abd1461005c5780633d7403a31461007a57806393c4dee9146100f3578063a087a87e146101cd578063b6a46b3b1461028a575b600080fd5b610064610303565b6040518082815260200191505060405180910390f35b6100f16004803603602081101561009057600080fd5b81019080803590602001906401000000008111156100ad57600080fd5b8201836020820111156100bf57600080fd5b803590602001918460018302840111640100000000831117156100e157600080fd5b909192939192939050505061030f565b005b61011f6004803603602081101561010957600080fd5b810190808035906020019092919050505061057d565b604051808373ffffffffffffffffffffffffffffffffffffffff1673ffffffffffffffffffffffffffffffffffffffff16815260200180602001828103825283818151815260200191508051906020019080838360005b83811015610191578082015181840152602081019050610176565b50505050905090810190601f1680156101be5780820380516001836020036101000a031916815260200191505b50935050505060405180910390f35b61020f600480360360208110156101e357600080fd5b81019080803573ffffffffffffffffffffffffffffffffffffffff16906020019092919050505061071f565b6040518080602001828103825283818151815260200191508051906020019080838360005b8381101561024f578082015181840152602081019050610234565b50505050905090810190601f16801561027c5780820380516001836020036101000a031916815260200191505b509250505060405180910390f35b610301600480360360208110156102a057600080fd5b81019080803590602001906401000000008111156102bd57600080fd5b8201836020820111156102cf57600080fd5b803590602001918460018302840111640100000000831117156102f157600080fd5b90919293919293905050506108a9565b005b60008080549050905090565b60008282905011610388576040517f08c379a000000000000000000000000000000000000000000000000000000000815260040180806020018281038252601b8152602001807f596f75206d75737420737570706c7920616e206f72626974436964000000000081525060200191505060405180910390fd5b6000600160003373ffffffffffffffffffffffffffffffffffffffff1673ffffffffffffffffffffffffffffffffffffffff1681526020019081526020016000209050828260405180838380828437808301925050509250505060405180910390208160405180828054600181600116156101000203166002900480156104465780601f10610424576101008083540402835291820191610446565b820191906000526020600020905b815481529060010190602001808311610432575b5050915050604051809103902014610578578282600160003373ffffffffffffffffffffffffffffffffffffffff1673ffffffffffffffffffffffffffffffffffffffff16815260200190815260200160002091906104a6929190610bff565b507fcba3def5e875a661c58aa36e2be6a0c4634d200fcc0cb06e8776d2537d0294a2338484604051808473ffffffffffffffffffffffffffffffffffffffff1673ffffffffffffffffffffffffffffffffffffffff16815260200180602001806020018381038352858582818152602001925080828437600081840152601f19601f820116905080830192505050838103825260068152602001807f55504441544500000000000000000000000000000000000000000000000000008152506020019550505050505060405180910390a15b505050565b6000606060008310156105f8576040517f08c379a00000000000000000000000000000000000000000000000000000000081526004018080602001828103825260188152602001807f596f75206d75737420737570706c7920616e20696e646578000000000000000081525060200191505060405180910390fd5b600080848154811061060657fe5b9060005260206000200160009054906101000a900473ffffffffffffffffffffffffffffffffffffffff1690506000600160008373ffffffffffffffffffffffffffffffffffffffff1673ffffffffffffffffffffffffffffffffffffffff16815260200190815260200160002090508181808054600181600116156101000203166002900480601f01602080910402602001604051908101604052809291908181526020018280546001816001161561010002031660029004801561070d5780601f106106e25761010080835404028352916020019161070d565b820191906000526020600020905b8154815290600101906020018083116106f057829003601f168201915b50505050509050935093505050915091565b6060600073ffffffffffffffffffffffffffffffffffffffff168273ffffffffffffffffffffffffffffffffffffffff1614156107c4576040517f08c379a000000000000000000000000000000000000000000000000000000000815260040180806020018281038252601a8152602001807f596f75206d75737420737570706c7920616e206164647265737300000000000081525060200191505060405180910390fd5b6000600160008473ffffffffffffffffffffffffffffffffffffffff1673ffffffffffffffffffffffffffffffffffffffff1681526020019081526020016000209050808054600181600116156101000203166002900480601f01602080910402602001604051908101604052809291908181526020018280546001816001161561010002031660029004801561089c5780601f106108715761010080835404028352916020019161089c565b820191906000526020600020905b81548152906001019060200180831161087f57829003601f168201915b5050505050915050919050565b60008282905011610922576040517f08c379a000000000000000000000000000000000000000000000000000000000815260040180806020018281038252601b8152602001807f596f75206d75737420737570706c7920616e206f72626974436964000000000081525060200191505060405180910390fd5b6060600160003373ffffffffffffffffffffffffffffffffffffffff1673ffffffffffffffffffffffffffffffffffffffff1681526020019081526020016000208054600181600116156101000203166002900480601f0160208091040260200160405190810160405280929190818152602001828054600181600116156101000203166002900480156109f75780601f106109cc576101008083540402835291602001916109f7565b820191906000526020600020905b8154815290600101906020018083116109da57829003601f168201915b505050505090506000815114610a75576040517f08c379a00000000000000000000000000000000000000000000000000000000081526004018080602001828103825260168152602001807f4164647265737320616c7265616479206578697374730000000000000000000081525060200191505060405180910390fd5b8282600160003373ffffffffffffffffffffffffffffffffffffffff1673ffffffffffffffffffffffffffffffffffffffff1681526020019081526020016000209190610ac3929190610bff565b5060003390806001815401808255809150509060018203906000526020600020016000909192909190916101000a81548173ffffffffffffffffffffffffffffffffffffffff021916908373ffffffffffffffffffffffffffffffffffffffff160217905550507fcba3def5e875a661c58aa36e2be6a0c4634d200fcc0cb06e8776d2537d0294a2338484604051808473ffffffffffffffffffffffffffffffffffffffff1673ffffffffffffffffffffffffffffffffffffffff16815260200180602001806020018381038352858582818152602001925080828437600081840152601f19601f820116905080830192505050838103825260038152602001807f4e455700000000000000000000000000000000000000000000000000000000008152506020019550505050505060405180910390a1505050565b828054600181600116156101000203166002900490600052602060002090601f016020900481019282601f10610c4057803560ff1916838001178555610c6e565b82800160010185558215610c6e579182015b82811115610c6d578235825591602001919060010190610c52565b5b509050610c7b9190610c7f565b5090565b610ca191905b80821115610c9d576000816000905550600101610c85565b5090565b9056fea165627a7a72305820b1929f2129d516b1a8fa27ceee3cb865a67f3e02389020ba454e7c954f848b0b0029",
  "source": "pragma solidity ^0.5.0;\n\ncontract Whitepages {\n\n    event ListingEvent (\n        address owner,\n        string orbitCid,\n        string eventType\n    );\n\n    address[] private addresses;\n\n    //Records are ultimately stored mapped by their id.\n    mapping(address => string) private listingMap;\n\n\n    function create(string calldata _orbitCid) external {\n        require(bytes(_orbitCid).length > 0, \"You must supply an orbitCid\");\n\n        string memory existing = listingMap[msg.sender];\n        require(bytes(existing).length == 0, \"Address already exists\");\n\n        listingMap[msg.sender] = _orbitCid;\n\n        //Put id in indexes\n        addresses.push(msg.sender);\n\n        emit ListingEvent(\n            msg.sender,\n            _orbitCid,\n            \"NEW\"\n        );\n\n    }\n\n    function read(address _address) public view returns (string memory orbitCid) {\n\n        require(_address != address(0), \"You must supply an address\");\n\n        string storage _orbitCid = listingMap[_address];\n\n        return (_orbitCid);\n    }\n\n    function update(string calldata _orbitCid) external {\n\n        require(bytes(_orbitCid).length > 0, \"You must supply an orbitCid\");\n\n        string storage _existing = listingMap[msg.sender];\n\n        if (keccak256(bytes(_existing)) != keccak256(bytes(_orbitCid))) {\n            listingMap[msg.sender] = _orbitCid;\n\n            emit ListingEvent(\n                msg.sender,\n                _orbitCid,\n                \"UPDATE\"\n            );\n        }\n    }\n\n    function count() external view returns (uint256 theCount) {\n        return addresses.length;\n    }\n\n    function readByIndex(uint256 _index) external view returns (address owner, string memory orbitCid) {\n\n        require(_index >= 0, \"You must supply an index\");\n\n        address _address = addresses[_index];\n\n        string storage _existing = listingMap[_address];\n\n        return (_address, _existing);\n    }\n\n}\n\n\n",
  "sourcePath": "/usr/src/large/truffle/contracts/Whitepages.sol",
  "compiler": {
    "name": "solc",
    "version": "0.5.8+commit.23d335f2.Emscripten.clang"
  },
  "schemaVersion": "3.0.11",
  "updatedAt": "2019-08-20T17:29:24.645Z",
  "devdoc": {
    "methods": {}
  },
  "userdoc": {
    "methods": {}
  }
}