{
  "contractName": "Whitepages",
  "abi": [
    {
      "anonymous": false,
      "inputs": [
        {
          "indexed": false,
          "name": "owner",
          "type": "address"
        },
        {
          "indexed": false,
          "name": "orbitCid",
          "type": "string"
        },
        {
          "indexed": false,
          "name": "eventType",
          "type": "string"
        }
      ],
      "name": "ListingEvent",
      "type": "event"
    },
    {
      "constant": false,
      "inputs": [
        {
          "name": "_orbitCid",
          "type": "string"
        }
      ],
      "name": "create",
      "outputs": [],
      "payable": false,
      "stateMutability": "nonpayable",
      "type": "function"
    },
    {
      "constant": true,
      "inputs": [
        {
          "name": "_address",
          "type": "address"
        }
      ],
      "name": "read",
      "outputs": [
        {
          "name": "orbitCid",
          "type": "string"
        }
      ],
      "payable": false,
      "stateMutability": "view",
      "type": "function"
    },
    {
      "constant": false,
      "inputs": [
        {
          "name": "_address",
          "type": "address"
        },
        {
          "name": "_orbitCid",
          "type": "string"
        }
      ],
      "name": "update",
      "outputs": [],
      "payable": false,
      "stateMutability": "nonpayable",
      "type": "function"
    },
    {
      "constant": true,
      "inputs": [],
      "name": "count",
      "outputs": [
        {
          "name": "theCount",
          "type": "uint256"
        }
      ],
      "payable": false,
      "stateMutability": "view",
      "type": "function"
    },
    {
      "constant": true,
      "inputs": [
        {
          "name": "_index",
          "type": "uint256"
        }
      ],
      "name": "readByIndex",
      "outputs": [
        {
          "name": "ipfsCid",
          "type": "string"
        }
      ],
      "payable": false,
      "stateMutability": "view",
      "type": "function"
    }
  ],
  "bytecode": "0x608060405234801561001057600080fd5b50610c05806100206000396000f3fe608060405234801561001057600080fd5b50600436106100575760003560e01c806306661abd1461005c578063838e7c3a1461007a57806393c4dee914610113578063a087a87e146101ba578063b6a46b3b14610277575b600080fd5b6100646102f0565b6040518082815260200191505060405180910390f35b6101116004803603604081101561009057600080fd5b81019080803573ffffffffffffffffffffffffffffffffffffffff169060200190929190803590602001906401000000008111156100cd57600080fd5b8201836020820111156100df57600080fd5b8035906020019184600183028401116401000000008311171561010157600080fd5b90919293919293905050506102fc565b005b61013f6004803603602081101561012957600080fd5b810190808035906020019092919050505061060e565b6040518080602001828103825283818151815260200191508051906020019080838360005b8381101561017f578082015181840152602081019050610164565b50505050905090810190601f1680156101ac5780820380516001836020036101000a031916815260200191505b509250505060405180910390f35b6101fc600480360360208110156101d057600080fd5b81019080803573ffffffffffffffffffffffffffffffffffffffff1690602001909291905050506107a8565b6040518080602001828103825283818151815260200191508051906020019080838360005b8381101561023c578082015181840152602081019050610221565b50505050905090810190601f1680156102695780820380516001836020036101000a031916815260200191505b509250505060405180910390f35b6102ee6004803603602081101561028d57600080fd5b81019080803590602001906401000000008111156102aa57600080fd5b8201836020820111156102bc57600080fd5b803590602001918460018302840111640100000000831117156102de57600080fd5b9091929391929390505050610932565b005b60008080549050905090565b600073ffffffffffffffffffffffffffffffffffffffff168373ffffffffffffffffffffffffffffffffffffffff16141561039f576040517f08c379a000000000000000000000000000000000000000000000000000000000815260040180806020018281038252601a8152602001807f596f75206d75737420737570706c7920616e206164647265737300000000000081525060200191505060405180910390fd5b60008282905011610418576040517f08c379a000000000000000000000000000000000000000000000000000000000815260040180806020018281038252601c8152602001807f596f75206d75737420737570706c7920616e206f72626974436964200000000081525060200191505060405180910390fd5b6000600160008573ffffffffffffffffffffffffffffffffffffffff1673ffffffffffffffffffffffffffffffffffffffff1681526020019081526020016000209050828260405180838380828437808301925050509250505060405180910390208160405180828054600181600116156101000203166002900480156104d65780601f106104b45761010080835404028352918201916104d6565b820191906000526020600020905b8154815290600101906020018083116104c2575b5050915050604051809103902014610608578282600160003373ffffffffffffffffffffffffffffffffffffffff1673ffffffffffffffffffffffffffffffffffffffff1681526020019081526020016000209190610536929190610b34565b507fcba3def5e875a661c58aa36e2be6a0c4634d200fcc0cb06e8776d2537d0294a2338484604051808473ffffffffffffffffffffffffffffffffffffffff1673ffffffffffffffffffffffffffffffffffffffff16815260200180602001806020018381038352858582818152602001925080828437600081840152601f19601f820116905080830192505050838103825260068152602001807f55504441544500000000000000000000000000000000000000000000000000008152506020019550505050505060405180910390a15b50505050565b60606000821415610687576040517f08c379a00000000000000000000000000000000000000000000000000000000081526004018080602001828103825260188152602001807f596f75206d75737420737570706c7920616e20696e646578000000000000000081525060200191505060405180910390fd5b600080838154811061069557fe5b9060005260206000200160009054906101000a900473ffffffffffffffffffffffffffffffffffffffff1690506000600160008373ffffffffffffffffffffffffffffffffffffffff1673ffffffffffffffffffffffffffffffffffffffff1681526020019081526020016000209050808054600181600116156101000203166002900480601f01602080910402602001604051908101604052809291908181526020018280546001816001161561010002031660029004801561079a5780601f1061076f5761010080835404028352916020019161079a565b820191906000526020600020905b81548152906001019060200180831161077d57829003601f168201915b505050505092505050919050565b6060600073ffffffffffffffffffffffffffffffffffffffff168273ffffffffffffffffffffffffffffffffffffffff16141561084d576040517f08c379a000000000000000000000000000000000000000000000000000000000815260040180806020018281038252601a8152602001807f596f75206d75737420737570706c7920616e206164647265737300000000000081525060200191505060405180910390fd5b6000600160008473ffffffffffffffffffffffffffffffffffffffff1673ffffffffffffffffffffffffffffffffffffffff1681526020019081526020016000209050808054600181600116156101000203166002900480601f0160208091040260200160405190810160405280929190818152602001828054600181600116156101000203166002900480156109255780601f106108fa57610100808354040283529160200191610925565b820191906000526020600020905b81548152906001019060200180831161090857829003601f168201915b5050505050915050919050565b600082829050116109ab576040517f08c379a000000000000000000000000000000000000000000000000000000000815260040180806020018281038252601b8152602001807f596f75206d75737420737570706c7920616e206f72626974436964000000000081525060200191505060405180910390fd5b8181600160003373ffffffffffffffffffffffffffffffffffffffff1673ffffffffffffffffffffffffffffffffffffffff16815260200190815260200160002091906109f9929190610b34565b5060003390806001815401808255809150509060018203906000526020600020016000909192909190916101000a81548173ffffffffffffffffffffffffffffffffffffffff021916908373ffffffffffffffffffffffffffffffffffffffff160217905550507fcba3def5e875a661c58aa36e2be6a0c4634d200fcc0cb06e8776d2537d0294a2338383604051808473ffffffffffffffffffffffffffffffffffffffff1673ffffffffffffffffffffffffffffffffffffffff16815260200180602001806020018381038352858582818152602001925080828437600081840152601f19601f820116905080830192505050838103825260038152602001807f4e455700000000000000000000000000000000000000000000000000000000008152506020019550505050505060405180910390a15050565b828054600181600116156101000203166002900490600052602060002090601f016020900481019282601f10610b7557803560ff1916838001178555610ba3565b82800160010185558215610ba3579182015b82811115610ba2578235825591602001919060010190610b87565b5b509050610bb09190610bb4565b5090565b610bd691905b80821115610bd2576000816000905550600101610bba565b5090565b9056fea165627a7a7230582030c34e93b6b9f0efae0434f46b4bbdaaf16bf653357b3c2fee1795f02786acb50029",
  "source": "pragma solidity ^0.5.0;\n\ncontract Whitepages {\n\n    event ListingEvent (\n        address owner,\n        string orbitCid,\n        string eventType\n    );\n\n    address[] private addresses;\n\n    //Records are ultimately stored mapped by their id.\n    mapping(address => string) private listingMap;\n\n\n    function create(string calldata _orbitCid) external {\n        require(bytes(_orbitCid).length > 0, \"You must supply an orbitCid\");\n\n        listingMap[msg.sender] = _orbitCid;\n\n        //Put id in indexes\n        addresses.push(msg.sender);\n\n        emit ListingEvent(\n            msg.sender,\n            _orbitCid,\n            \"NEW\"\n        );\n\n    }\n\n    function read(address _address) public view returns (string memory orbitCid) {\n\n        require(_address != address(0), \"You must supply an address\");\n\n        string storage _orbitCid = listingMap[_address];\n\n        return (_orbitCid);\n    }\n\n    function update(address _address, string calldata _orbitCid) external {\n\n        require(_address != address(0), \"You must supply an address\");\n        require(bytes(_orbitCid).length > 0, \"You must supply an orbitCid \");\n\n        string storage _existing = listingMap[_address];\n\n        if (keccak256(bytes(_existing)) != keccak256(bytes(_orbitCid))) {\n            listingMap[msg.sender] = _orbitCid;\n\n            emit ListingEvent(\n                msg.sender,\n                _orbitCid,\n                \"UPDATE\"\n            );\n        }\n    }\n\n    function count() external view returns (uint256 theCount) {\n        return addresses.length;\n    }\n\n    function readByIndex(uint256 _index) external view returns (string memory ipfsCid) {\n\n        require(_index != 0, \"You must supply an index\");\n\n        address _address = addresses[_index];\n        string storage _existing = listingMap[_address];\n\n        return _existing;\n    }\n\n}\n\n\n",
  "sourcePath": "/workspaces/large/truffle/contracts/Whitepages.sol",
  "compiler": {
    "name": "solc",
    "version": "0.5.8+commit.23d335f2.Emscripten.clang"
  },
  "schemaVersion": "3.0.11",
  "updatedAt": "2019-07-30T01:27:22.174Z",
  "devdoc": {
    "methods": {}
  },
  "userdoc": {
    "methods": {}
  }
}