{
  "_format": "hh-sol-artifact-1",
  "contractName": "ERC721A",
  "sourceName": "erc721a/contracts/ERC721A.sol",
  "abi": [
    {
      "inputs": [
        {
          "internalType": "string",
          "name": "name_",
          "type": "string"
        },
        {
          "internalType": "string",
          "name": "symbol_",
          "type": "string"
        }
      ],
      "stateMutability": "nonpayable",
      "type": "constructor"
    },
    {
      "inputs": [],
      "name": "ApprovalCallerNotOwnerNorApproved",
      "type": "error"
    },
    {
      "inputs": [],
      "name": "ApprovalQueryForNonexistentToken",
      "type": "error"
    },
    {
      "inputs": [],
      "name": "ApprovalToCurrentOwner",
      "type": "error"
    },
    {
      "inputs": [],
      "name": "ApproveToCaller",
      "type": "error"
    },
    {
      "inputs": [],
      "name": "BalanceQueryForZeroAddress",
      "type": "error"
    },
    {
      "inputs": [],
      "name": "MintToZeroAddress",
      "type": "error"
    },
    {
      "inputs": [],
      "name": "MintZeroQuantity",
      "type": "error"
    },
    {
      "inputs": [],
      "name": "OwnerQueryForNonexistentToken",
      "type": "error"
    },
    {
      "inputs": [],
      "name": "TransferCallerNotOwnerNorApproved",
      "type": "error"
    },
    {
      "inputs": [],
      "name": "TransferFromIncorrectOwner",
      "type": "error"
    },
    {
      "inputs": [],
      "name": "TransferToNonERC721ReceiverImplementer",
      "type": "error"
    },
    {
      "inputs": [],
      "name": "TransferToZeroAddress",
      "type": "error"
    },
    {
      "inputs": [],
      "name": "URIQueryForNonexistentToken",
      "type": "error"
    },
    {
      "anonymous": false,
      "inputs": [
        {
          "indexed": true,
          "internalType": "address",
          "name": "owner",
          "type": "address"
        },
        {
          "indexed": true,
          "internalType": "address",
          "name": "approved",
          "type": "address"
        },
        {
          "indexed": true,
          "internalType": "uint256",
          "name": "tokenId",
          "type": "uint256"
        }
      ],
      "name": "Approval",
      "type": "event"
    },
    {
      "anonymous": false,
      "inputs": [
        {
          "indexed": true,
          "internalType": "address",
          "name": "owner",
          "type": "address"
        },
        {
          "indexed": true,
          "internalType": "address",
          "name": "operator",
          "type": "address"
        },
        {
          "indexed": false,
          "internalType": "bool",
          "name": "approved",
          "type": "bool"
        }
      ],
      "name": "ApprovalForAll",
      "type": "event"
    },
    {
      "anonymous": false,
      "inputs": [
        {
          "indexed": true,
          "internalType": "address",
          "name": "from",
          "type": "address"
        },
        {
          "indexed": true,
          "internalType": "address",
          "name": "to",
          "type": "address"
        },
        {
          "indexed": true,
          "internalType": "uint256",
          "name": "tokenId",
          "type": "uint256"
        }
      ],
      "name": "Transfer",
      "type": "event"
    },
    {
      "inputs": [
        {
          "internalType": "address",
          "name": "to",
          "type": "address"
        },
        {
          "internalType": "uint256",
          "name": "tokenId",
          "type": "uint256"
        }
      ],
      "name": "approve",
      "outputs": [],
      "stateMutability": "nonpayable",
      "type": "function"
    },
    {
      "inputs": [
        {
          "internalType": "address",
          "name": "owner",
          "type": "address"
        }
      ],
      "name": "balanceOf",
      "outputs": [
        {
          "internalType": "uint256",
          "name": "",
          "type": "uint256"
        }
      ],
      "stateMutability": "view",
      "type": "function"
    },
    {
      "inputs": [
        {
          "internalType": "uint256",
          "name": "tokenId",
          "type": "uint256"
        }
      ],
      "name": "getApproved",
      "outputs": [
        {
          "internalType": "address",
          "name": "",
          "type": "address"
        }
      ],
      "stateMutability": "view",
      "type": "function"
    },
    {
      "inputs": [
        {
          "internalType": "address",
          "name": "owner",
          "type": "address"
        },
        {
          "internalType": "address",
          "name": "operator",
          "type": "address"
        }
      ],
      "name": "isApprovedForAll",
      "outputs": [
        {
          "internalType": "bool",
          "name": "",
          "type": "bool"
        }
      ],
      "stateMutability": "view",
      "type": "function"
    },
    {
      "inputs": [],
      "name": "name",
      "outputs": [
        {
          "internalType": "string",
          "name": "",
          "type": "string"
        }
      ],
      "stateMutability": "view",
      "type": "function"
    },
    {
      "inputs": [
        {
          "internalType": "uint256",
          "name": "tokenId",
          "type": "uint256"
        }
      ],
      "name": "ownerOf",
      "outputs": [
        {
          "internalType": "address",
          "name": "",
          "type": "address"
        }
      ],
      "stateMutability": "view",
      "type": "function"
    },
    {
      "inputs": [
        {
          "internalType": "address",
          "name": "from",
          "type": "address"
        },
        {
          "internalType": "address",
          "name": "to",
          "type": "address"
        },
        {
          "internalType": "uint256",
          "name": "tokenId",
          "type": "uint256"
        }
      ],
      "name": "safeTransferFrom",
      "outputs": [],
      "stateMutability": "nonpayable",
      "type": "function"
    },
    {
      "inputs": [
        {
          "internalType": "address",
          "name": "from",
          "type": "address"
        },
        {
          "internalType": "address",
          "name": "to",
          "type": "address"
        },
        {
          "internalType": "uint256",
          "name": "tokenId",
          "type": "uint256"
        },
        {
          "internalType": "bytes",
          "name": "_data",
          "type": "bytes"
        }
      ],
      "name": "safeTransferFrom",
      "outputs": [],
      "stateMutability": "nonpayable",
      "type": "function"
    },
    {
      "inputs": [
        {
          "internalType": "address",
          "name": "operator",
          "type": "address"
        },
        {
          "internalType": "bool",
          "name": "approved",
          "type": "bool"
        }
      ],
      "name": "setApprovalForAll",
      "outputs": [],
      "stateMutability": "nonpayable",
      "type": "function"
    },
    {
      "inputs": [
        {
          "internalType": "bytes4",
          "name": "interfaceId",
          "type": "bytes4"
        }
      ],
      "name": "supportsInterface",
      "outputs": [
        {
          "internalType": "bool",
          "name": "",
          "type": "bool"
        }
      ],
      "stateMutability": "view",
      "type": "function"
    },
    {
      "inputs": [],
      "name": "symbol",
      "outputs": [
        {
          "internalType": "string",
          "name": "",
          "type": "string"
        }
      ],
      "stateMutability": "view",
      "type": "function"
    },
    {
      "inputs": [
        {
          "internalType": "uint256",
          "name": "tokenId",
          "type": "uint256"
        }
      ],
      "name": "tokenURI",
      "outputs": [
        {
          "internalType": "string",
          "name": "",
          "type": "string"
        }
      ],
      "stateMutability": "view",
      "type": "function"
    },
    {
      "inputs": [],
      "name": "totalSupply",
      "outputs": [
        {
          "internalType": "uint256",
          "name": "",
          "type": "uint256"
        }
      ],
      "stateMutability": "view",
      "type": "function"
    },
    {
      "inputs": [
        {
          "internalType": "address",
          "name": "from",
          "type": "address"
        },
        {
          "internalType": "address",
          "name": "to",
          "type": "address"
        },
        {
          "internalType": "uint256",
          "name": "tokenId",
          "type": "uint256"
        }
      ],
      "name": "transferFrom",
      "outputs": [],
      "stateMutability": "nonpayable",
      "type": "function"
    }
  ],
  "bytecode": "0x60806040523480156200001157600080fd5b5060405162001868380380620018688339810160408190526200003491620001df565b8151620000499060029060208501906200006c565b5080516200005f9060039060208401906200006c565b5050600080555062000285565b8280546200007a9062000249565b90600052602060002090601f0160209004810192826200009e5760008555620000e9565b82601f10620000b957805160ff1916838001178555620000e9565b82800160010185558215620000e9579182015b82811115620000e9578251825591602001919060010190620000cc565b50620000f7929150620000fb565b5090565b5b80821115620000f75760008155600101620000fc565b634e487b7160e01b600052604160045260246000fd5b600082601f8301126200013a57600080fd5b81516001600160401b038082111562000157576200015762000112565b604051601f8301601f19908116603f0116810190828211818310171562000182576200018262000112565b816040528381526020925086838588010111156200019f57600080fd5b600091505b83821015620001c35785820183015181830184015290820190620001a4565b83821115620001d55760008385830101525b9695505050505050565b60008060408385031215620001f357600080fd5b82516001600160401b03808211156200020b57600080fd5b620002198683870162000128565b935060208501519150808211156200023057600080fd5b506200023f8582860162000128565b9150509250929050565b600181811c908216806200025e57607f821691505b6020821081036200027f57634e487b7160e01b600052602260045260246000fd5b50919050565b6115d380620002956000396000f3fe608060405234801561001057600080fd5b50600436106100ea5760003560e01c80636352211e1161008c578063a22cb46511610066578063a22cb465146101e3578063b88d4fde146101f6578063c87b56dd14610209578063e985e9c51461021c57600080fd5b80636352211e146101b557806370a08231146101c857806395d89b41146101db57600080fd5b8063095ea7b3116100c8578063095ea7b31461016457806318160ddd1461017957806323b872dd1461018f57806342842e0e146101a257600080fd5b806301ffc9a7146100ef57806306fdde0314610117578063081812fc1461012c575b600080fd5b6101026100fd366004611098565b610265565b60405190151581526020015b60405180910390f35b61011f61034a565b60405161010e919061112b565b61013f61013a36600461113e565b6103dc565b60405173ffffffffffffffffffffffffffffffffffffffff909116815260200161010e565b610177610172366004611180565b610446565b005b600154600054035b60405190815260200161010e565b61017761019d3660046111aa565b610525565b6101776101b03660046111aa565b610530565b61013f6101c336600461113e565b61054b565b6101816101d63660046111e6565b61055d565b61011f6105df565b6101776101f1366004611201565b6105ee565b61017761020436600461126c565b6106d4565b61011f61021736600461113e565b610744565b61010261022a366004611366565b73ffffffffffffffffffffffffffffffffffffffff918216600090815260076020908152604080832093909416825291909152205460ff1690565b60007fffffffff0000000000000000000000000000000000000000000000000000000082167f80ac58cd0000000000000000000000000000000000000000000000000000000014806102f857507fffffffff0000000000000000000000000000000000000000000000000000000082167f5b5e139f00000000000000000000000000000000000000000000000000000000145b8061034457507f01ffc9a7000000000000000000000000000000000000000000000000000000007fffffffff000000000000000000000000000000000000000000000000000000008316145b92915050565b60606002805461035990611399565b80601f016020809104026020016040519081016040528092919081815260200182805461038590611399565b80156103d25780601f106103a7576101008083540402835291602001916103d2565b820191906000526020600020905b8154815290600101906020018083116103b557829003601f168201915b5050505050905090565b60006103e7826107ee565b61041d576040517fcf4700e400000000000000000000000000000000000000000000000000000000815260040160405180910390fd5b5060009081526006602052604090205473ffffffffffffffffffffffffffffffffffffffff1690565b60006104518261054b565b90508073ffffffffffffffffffffffffffffffffffffffff168373ffffffffffffffffffffffffffffffffffffffff16036104b8576040517f943f7b8c00000000000000000000000000000000000000000000000000000000815260040160405180910390fd5b3373ffffffffffffffffffffffffffffffffffffffff821614610515576104df813361022a565b610515576040517fcfb3b94200000000000000000000000000000000000000000000000000000000815260040160405180910390fd5b610520838383610832565b505050565b6105208383836108b3565b610520838383604051806020016040528060008152506106d4565b600061055682610bea565b5192915050565b600073ffffffffffffffffffffffffffffffffffffffff82166105ac576040517f8f4eb60400000000000000000000000000000000000000000000000000000000815260040160405180910390fd5b5073ffffffffffffffffffffffffffffffffffffffff1660009081526005602052604090205467ffffffffffffffff1690565b60606003805461035990611399565b3373ffffffffffffffffffffffffffffffffffffffff83160361063d576040517fb06307db00000000000000000000000000000000000000000000000000000000815260040160405180910390fd5b33600081815260076020908152604080832073ffffffffffffffffffffffffffffffffffffffff87168085529083529281902080547fffffffffffffffffffffffffffffffffffffffffffffffffffffffffffffff001686151590811790915590519081529192917f17307eab39ab6107e8899845ad3d59bd9653f200f220920489ca2b5937696c31910160405180910390a35050565b6106df8484846108b3565b73ffffffffffffffffffffffffffffffffffffffff83163b1561073e5761070884848484610db8565b61073e576040517fd1a57ed600000000000000000000000000000000000000000000000000000000815260040160405180910390fd5b50505050565b606061074f826107ee565b610785576040517fa14c4b5000000000000000000000000000000000000000000000000000000000815260040160405180910390fd5b600061079c60408051602081019091526000815290565b905080516000036107bc57604051806020016040528060008152506107e7565b806107c684610f32565b6040516020016107d79291906113ec565b6040516020818303038152906040525b9392505050565b60008054821080156103445750506000908152600460205260409020547c0100000000000000000000000000000000000000000000000000000000900460ff161590565b60008281526006602052604080822080547fffffffffffffffffffffffff00000000000000000000000000000000000000001673ffffffffffffffffffffffffffffffffffffffff87811691821790925591518593918516917f8c5be1e5ebec7d5bd14f71427d1e84f3dd0314c0f7b2291e5b200ac8c7c3b92591a4505050565b60006108be82610bea565b90508373ffffffffffffffffffffffffffffffffffffffff16816000015173ffffffffffffffffffffffffffffffffffffffff1614610929576040517fa114810000000000000000000000000000000000000000000000000000000000815260040160405180910390fd5b60003373ffffffffffffffffffffffffffffffffffffffff861614806109545750610954853361022a565b8061097c575033610964846103dc565b73ffffffffffffffffffffffffffffffffffffffff16145b9050806109b5576040517f59c896be00000000000000000000000000000000000000000000000000000000815260040160405180910390fd5b73ffffffffffffffffffffffffffffffffffffffff8416610a02576040517fea553b3400000000000000000000000000000000000000000000000000000000815260040160405180910390fd5b610a0e60008487610832565b73ffffffffffffffffffffffffffffffffffffffff858116600090815260056020908152604080832080547fffffffffffffffffffffffffffffffffffffffffffffffff000000000000000080821667ffffffffffffffff9283167fffffffffffffffffffffffffffffffffffffffffffffffffffffffffffffffff01831617909255898616808652838620805493841693831660019081018416949094179055898652600490945282852080547fffffffff00000000000000000000000000000000000000000000000000000000169094177401000000000000000000000000000000000000000042909216919091021783558701808452922080549193909116610b85576000548214610b85578054602086015167ffffffffffffffff1674010000000000000000000000000000000000000000027fffffffff0000000000000000000000000000000000000000000000000000000090911673ffffffffffffffffffffffffffffffffffffffff8a16171781555b505050828473ffffffffffffffffffffffffffffffffffffffff168673ffffffffffffffffffffffffffffffffffffffff167fddf252ad1be2c89b69c2b068fc378daa952ba7f163c4a11628f55a4df523b3ef60405160405180910390a45050505050565b604080516060810182526000808252602082018190529181019190915281600054811015610d86576000818152600460209081526040918290208251606081018452905473ffffffffffffffffffffffffffffffffffffffff8116825274010000000000000000000000000000000000000000810467ffffffffffffffff16928201929092527c010000000000000000000000000000000000000000000000000000000090910460ff16151591810182905290610d8457805173ffffffffffffffffffffffffffffffffffffffff1615610cc5579392505050565b507fffffffffffffffffffffffffffffffffffffffffffffffffffffffffffffffff016000818152600460209081526040918290208251606081018452905473ffffffffffffffffffffffffffffffffffffffff811680835274010000000000000000000000000000000000000000820467ffffffffffffffff16938301939093527c0100000000000000000000000000000000000000000000000000000000900460ff1615159281019290925215610d7f579392505050565b610cc5565b505b6040517fdf2d9b4200000000000000000000000000000000000000000000000000000000815260040160405180910390fd5b6040517f150b7a0200000000000000000000000000000000000000000000000000000000815260009073ffffffffffffffffffffffffffffffffffffffff85169063150b7a0290610e1390339089908890889060040161141b565b6020604051808303816000875af1925050508015610e6c575060408051601f3d9081017fffffffffffffffffffffffffffffffffffffffffffffffffffffffffffffffe0168201909252610e6991810190611464565b60015b610ee3573d808015610e9a576040519150601f19603f3d011682016040523d82523d6000602084013e610e9f565b606091505b508051600003610edb576040517fd1a57ed600000000000000000000000000000000000000000000000000000000815260040160405180910390fd5b805181602001fd5b7fffffffff00000000000000000000000000000000000000000000000000000000167f150b7a02000000000000000000000000000000000000000000000000000000001490505b949350505050565b606081600003610f7557505060408051808201909152600181527f3000000000000000000000000000000000000000000000000000000000000000602082015290565b8160005b8115610f9f5780610f89816114b0565b9150610f989050600a83611517565b9150610f79565b60008167ffffffffffffffff811115610fba57610fba61123d565b6040519080825280601f01601f191660200182016040528015610fe4576020820181803683370190505b5090505b8415610f2a57610ff960018361152b565b9150611006600a86611542565b611011906030611556565b60f81b8183815181106110265761102661156e565b60200101907effffffffffffffffffffffffffffffffffffffffffffffffffffffffffffff1916908160001a905350611060600a86611517565b9450610fe8565b7fffffffff000000000000000000000000000000000000000000000000000000008116811461109557600080fd5b50565b6000602082840312156110aa57600080fd5b81356107e781611067565b60005b838110156110d05781810151838201526020016110b8565b8381111561073e5750506000910152565b600081518084526110f98160208601602086016110b5565b601f017fffffffffffffffffffffffffffffffffffffffffffffffffffffffffffffffe0169290920160200192915050565b6020815260006107e760208301846110e1565b60006020828403121561115057600080fd5b5035919050565b803573ffffffffffffffffffffffffffffffffffffffff8116811461117b57600080fd5b919050565b6000806040838503121561119357600080fd5b61119c83611157565b946020939093013593505050565b6000806000606084860312156111bf57600080fd5b6111c884611157565b92506111d660208501611157565b9150604084013590509250925092565b6000602082840312156111f857600080fd5b6107e782611157565b6000806040838503121561121457600080fd5b61121d83611157565b91506020830135801515811461123257600080fd5b809150509250929050565b7f4e487b7100000000000000000000000000000000000000000000000000000000600052604160045260246000fd5b6000806000806080858703121561128257600080fd5b61128b85611157565b935061129960208601611157565b925060408501359150606085013567ffffffffffffffff808211156112bd57600080fd5b818701915087601f8301126112d157600080fd5b8135818111156112e3576112e361123d565b604051601f82017fffffffffffffffffffffffffffffffffffffffffffffffffffffffffffffffe0908116603f011681019083821181831017156113295761132961123d565b816040528281528a602084870101111561134257600080fd5b82602086016020830137600060208483010152809550505050505092959194509250565b6000806040838503121561137957600080fd5b61138283611157565b915061139060208401611157565b90509250929050565b600181811c908216806113ad57607f821691505b6020821081036113e6577f4e487b7100000000000000000000000000000000000000000000000000000000600052602260045260246000fd5b50919050565b600083516113fe8184602088016110b5565b8351908301906114128183602088016110b5565b01949350505050565b600073ffffffffffffffffffffffffffffffffffffffff80871683528086166020840152508360408301526080606083015261145a60808301846110e1565b9695505050505050565b60006020828403121561147657600080fd5b81516107e781611067565b7f4e487b7100000000000000000000000000000000000000000000000000000000600052601160045260246000fd5b60007fffffffffffffffffffffffffffffffffffffffffffffffffffffffffffffffff82036114e1576114e1611481565b5060010190565b7f4e487b7100000000000000000000000000000000000000000000000000000000600052601260045260246000fd5b600082611526576115266114e8565b500490565b60008282101561153d5761153d611481565b500390565b600082611551576115516114e8565b500690565b6000821982111561156957611569611481565b500190565b7f4e487b7100000000000000000000000000000000000000000000000000000000600052603260045260246000fdfea26469706673582212200c43dc2797d8c5fd666ff5db5a9406016b13c7c513255cf656ba6d53aca968e164736f6c634300080d0033",
  "linkReferences": {},
  "deployedLinkReferences": {}
}