{
    "contractName": "Whitepages",
    "abi": [
        {
            "constant": true,
            "inputs": [],
            "name": "count",
            "outputs": [
                {
                    "name": "theCount",
                    "type": "uint256"
                }
            ],
            "payable": false,
            "stateMutability": "view",
            "type": "function"
        },
        {
            "constant": false,
            "inputs": [
                {
                    "name": "_orbitCid",
                    "type": "string"
                }
            ],
            "name": "update",
            "outputs": [],
            "payable": false,
            "stateMutability": "nonpayable",
            "type": "function"
        },
        {
            "constant": false,
            "inputs": [
                {
                    "name": "_index",
                    "type": "uint256"
                }
            ],
            "name": "readByIndex",
            "outputs": [
                {
                    "name": "orbitCid",
                    "type": "string"
                }
            ],
            "payable": false,
            "stateMutability": "nonpayable",
            "type": "function"
        },
        {
            "constant": true,
            "inputs": [
                {
                    "name": "_address",
                    "type": "address"
                }
            ],
            "name": "read",
            "outputs": [
                {
                    "name": "orbitCid",
                    "type": "string"
                }
            ],
            "payable": false,
            "stateMutability": "view",
            "type": "function"
        },
        {
            "constant": false,
            "inputs": [
                {
                    "name": "_orbitCid",
                    "type": "string"
                }
            ],
            "name": "create",
            "outputs": [],
            "payable": false,
            "stateMutability": "nonpayable",
            "type": "function"
        },
        {
            "anonymous": false,
            "inputs": [
                {
                    "indexed": false,
                    "name": "message",
                    "type": "address"
                },
                {
                    "indexed": false,
                    "name": "index",
                    "type": "uint256"
                }
            ],
            "name": "DebugEvent",
            "type": "event"
        },
        {
            "anonymous": false,
            "inputs": [
                {
                    "indexed": false,
                    "name": "owner",
                    "type": "address"
                },
                {
                    "indexed": false,
                    "name": "orbitCid",
                    "type": "string"
                },
                {
                    "indexed": false,
                    "name": "eventType",
                    "type": "string"
                }
            ],
            "name": "ListingEvent",
            "type": "event"
        }
    ],
    "bytecode": "608060405234801561001057600080fd5b50610816806100206000396000f3fe608060405234801561001057600080fd5b50600436106100575760003560e01c806306661abd1461005c5780633d7403a31461007657806393c4dee9146100e8578063a087a87e1461017a578063b6a46b3b146101a0575b600080fd5b610064610210565b60408051918252519081900360200190f35b6100e66004803603602081101561008c57600080fd5b8101906020810181356401000000008111156100a757600080fd5b8201836020820111156100b957600080fd5b803590602001918460018302840111640100000000831117156100db57600080fd5b509092509050610217565b005b610105600480360360208110156100fe57600080fd5b50356103af565b6040805160208082528351818301528351919283929083019185019080838360005b8381101561013f578181015183820152602001610127565b50505050905090810190601f16801561016c5780820380516001836020036101000a031916815260200191505b509250505060405180910390f35b6101056004803603602081101561019057600080fd5b50356001600160a01b031661050e565b6100e6600480360360208110156101b657600080fd5b8101906020810181356401000000008111156101d157600080fd5b8201836020820111156101e357600080fd5b8035906020019184600183028401116401000000008311171561020557600080fd5b509092509050610614565b6000545b90565b80610269576040805162461bcd60e51b815260206004820152601b60248201527f596f75206d75737420737570706c7920616e206f726269744369640000000000604482015290519081900360640190fd5b336000908152600160205260409081902090518390839080838380828437808301925050509250505060405180910390208160405180828054600181600116156101000203166002900480156102f65780601f106102d45761010080835404028352918201916102f6565b820191906000526020600020905b8154815290600101906020018083116102e2575b50509150506040518091039020146103aa57336000908152600160205260409020610322908484610749565b5060408051338082526060602083018181529083018690527fcba3def5e875a661c58aa36e2be6a0c4634d200fcc0cb06e8776d2537d0294a29391928792879290820160808301858580828437600083820152601f01601f19169091019384039091525050600681526555504441544560d01b60208201526040805191829003019350915050a15b505050565b606081610403576040805162461bcd60e51b815260206004820152601860248201527f596f75206d75737420737570706c7920616e20696e6465780000000000000000604482015290519081900360640190fd5b600080838154811061041157fe5b60009182526020918290200154604080516001600160a01b0390921680835292820186905280519293507f709df7a76a861609b37755e494b44978943b643e31ef42d0a5ba0d0d3250aeb392918290030190a16001600160a01b03811660009081526001602081815260409283902080548451600294821615610100026000190190911693909304601f81018390048302840183019094528383529283918301828280156105005780601f106104d557610100808354040283529160200191610500565b820191906000526020600020905b8154815290600101906020018083116104e357829003601f168201915b505050505092505050919050565b60606001600160a01b03821661056b576040805162461bcd60e51b815260206004820152601a60248201527f596f75206d75737420737570706c7920616e2061646472657373000000000000604482015290519081900360640190fd5b6001600160a01b03821660009081526001602081815260409283902080548451600294821615610100026000190190911693909304601f81018390048302840183019094528383529283918301828280156106075780601f106105dc57610100808354040283529160200191610607565b820191906000526020600020905b8154815290600101906020018083116105ea57829003601f168201915b5050505050915050919050565b80610666576040805162461bcd60e51b815260206004820152601b60248201527f596f75206d75737420737570706c7920616e206f726269744369640000000000604482015290519081900360640190fd5b336000908152600160205260409020610680908383610749565b50600080546001810182559080527f290decd9548b62a8d60345a988386fc84ba6bc95484008f6362f93160ef3e5630180546001600160a01b03191633908117909155604080518281526060602082018181529082018590527fcba3def5e875a661c58aa36e2be6a0c4634d200fcc0cb06e8776d2537d0294a29392869286929091820160808301858580828437600083820152601f01601f1916909101938403909152505060038152624e455760e81b60208201526040805191829003019350915050a15050565b828054600181600116156101000203166002900490600052602060002090601f016020900481019282601f1061078a5782800160ff198235161785556107b7565b828001600101855582156107b7579182015b828111156107b757823582559160200191906001019061079c565b506107c39291506107c7565b5090565b61021491905b808211156107c357600081556001016107cd56fea265627a7a723058205cfcb6c7dd7d1428ef9870ec853eeae3e2d0c9d0231c9b698570d6f62f0ba63664736f6c634300050a0032",
    "sourcePath": "/workspaces/large/truffle/contracts/Whitepages.sol",
    "compiler": {
        "name": "solc",
        "version": "0.5.10+commit.5a6ea5b1"
    },
    "functionHashes": {
        "count()": "06661abd",
        "create(string)": "b6a46b3b",
        "read(address)": "a087a87e",
        "readByIndex(uint256)": "93c4dee9",
        "update(string)": "3d7403a3"
    },
    "gasEstimates": {
        "creation": {
            "codeDepositCost": "414000",
            "executionCost": "449",
            "totalCost": "414449"
        },
        "external": {
            "count()": "377",
            "create(string)": "infinite",
            "read(address)": "infinite",
            "readByIndex(uint256)": "infinite",
            "update(string)": "infinite"
        }
    }
}