{
  "contractName": "Channel",
  "abi": [
    {
      "inputs": [
        {
          "internalType": "string",
          "name": "name",
          "type": "string"
        },
        {
          "internalType": "string",
          "name": "symbol",
          "type": "string"
        },
        {
          "internalType": "string",
          "name": "ipfsCid",
          "type": "string"
        },
        {
          "internalType": "uint256",
          "name": "mintFee",
          "type": "uint256"
        },
        {
          "internalType": "uint256",
          "name": "maxTokenId",
          "type": "uint256"
        }
      ],
      "stateMutability": "nonpayable",
      "type": "constructor"
    },
    {
      "inputs": [],
      "name": "ApprovalCallerNotOwnerNorApproved",
      "type": "error"
    },
    {
      "inputs": [],
      "name": "ApprovalQueryForNonexistentToken",
      "type": "error"
    },
    {
      "inputs": [],
      "name": "ApprovalToCurrentOwner",
      "type": "error"
    },
    {
      "inputs": [],
      "name": "ApproveToCaller",
      "type": "error"
    },
    {
      "inputs": [],
      "name": "BalanceQueryForZeroAddress",
      "type": "error"
    },
    {
      "inputs": [],
      "name": "InvalidQueryRange",
      "type": "error"
    },
    {
      "inputs": [],
      "name": "MintToZeroAddress",
      "type": "error"
    },
    {
      "inputs": [],
      "name": "MintZeroQuantity",
      "type": "error"
    },
    {
      "inputs": [],
      "name": "OwnerQueryForNonexistentToken",
      "type": "error"
    },
    {
      "inputs": [],
      "name": "TransferCallerNotOwnerNorApproved",
      "type": "error"
    },
    {
      "inputs": [],
      "name": "TransferFromIncorrectOwner",
      "type": "error"
    },
    {
      "inputs": [],
      "name": "TransferToNonERC721ReceiverImplementer",
      "type": "error"
    },
    {
      "inputs": [],
      "name": "TransferToZeroAddress",
      "type": "error"
    },
    {
      "inputs": [],
      "name": "URIQueryForNonexistentToken",
      "type": "error"
    },
    {
      "anonymous": false,
      "inputs": [
        {
          "indexed": true,
          "internalType": "address",
          "name": "owner",
          "type": "address"
        },
        {
          "indexed": true,
          "internalType": "address",
          "name": "approved",
          "type": "address"
        },
        {
          "indexed": true,
          "internalType": "uint256",
          "name": "tokenId",
          "type": "uint256"
        }
      ],
      "name": "Approval",
      "type": "event"
    },
    {
      "anonymous": false,
      "inputs": [
        {
          "indexed": true,
          "internalType": "address",
          "name": "owner",
          "type": "address"
        },
        {
          "indexed": true,
          "internalType": "address",
          "name": "operator",
          "type": "address"
        },
        {
          "indexed": false,
          "internalType": "bool",
          "name": "approved",
          "type": "bool"
        }
      ],
      "name": "ApprovalForAll",
      "type": "event"
    },
    {
      "anonymous": false,
      "inputs": [
        {
          "indexed": false,
          "internalType": "uint256",
          "name": "tokenId",
          "type": "uint256"
        }
      ],
      "name": "MintEvent",
      "type": "event"
    },
    {
      "anonymous": false,
      "inputs": [
        {
          "indexed": true,
          "internalType": "address",
          "name": "previousOwner",
          "type": "address"
        },
        {
          "indexed": true,
          "internalType": "address",
          "name": "newOwner",
          "type": "address"
        }
      ],
      "name": "OwnershipTransferred",
      "type": "event"
    },
    {
      "anonymous": false,
      "inputs": [
        {
          "indexed": true,
          "internalType": "address",
          "name": "from",
          "type": "address"
        },
        {
          "indexed": true,
          "internalType": "address",
          "name": "to",
          "type": "address"
        },
        {
          "indexed": true,
          "internalType": "uint256",
          "name": "tokenId",
          "type": "uint256"
        }
      ],
      "name": "Transfer",
      "type": "event"
    },
    {
      "inputs": [],
      "name": "MAX_MINT_AMOUNT",
      "outputs": [
        {
          "internalType": "uint256",
          "name": "",
          "type": "uint256"
        }
      ],
      "stateMutability": "view",
      "type": "function"
    },
    {
      "inputs": [
        {
          "internalType": "address",
          "name": "to",
          "type": "address"
        },
        {
          "internalType": "uint256",
          "name": "tokenId",
          "type": "uint256"
        }
      ],
      "name": "approve",
      "outputs": [],
      "stateMutability": "nonpayable",
      "type": "function"
    },
    {
      "inputs": [
        {
          "internalType": "address",
          "name": "owner",
          "type": "address"
        }
      ],
      "name": "balanceOf",
      "outputs": [
        {
          "internalType": "uint256",
          "name": "",
          "type": "uint256"
        }
      ],
      "stateMutability": "view",
      "type": "function"
    },
    {
      "inputs": [
        {
          "internalType": "uint256",
          "name": "tokenId",
          "type": "uint256"
        }
      ],
      "name": "explicitOwnershipOf",
      "outputs": [
        {
          "components": [
            {
              "internalType": "address",
              "name": "addr",
              "type": "address"
            },
            {
              "internalType": "uint64",
              "name": "startTimestamp",
              "type": "uint64"
            },
            {
              "internalType": "bool",
              "name": "burned",
              "type": "bool"
            }
          ],
          "internalType": "struct IERC721A.TokenOwnership",
          "name": "",
          "type": "tuple"
        }
      ],
      "stateMutability": "view",
      "type": "function"
    },
    {
      "inputs": [
        {
          "internalType": "uint256[]",
          "name": "tokenIds",
          "type": "uint256[]"
        }
      ],
      "name": "explicitOwnershipsOf",
      "outputs": [
        {
          "components": [
            {
              "internalType": "address",
              "name": "addr",
              "type": "address"
            },
            {
              "internalType": "uint64",
              "name": "startTimestamp",
              "type": "uint64"
            },
            {
              "internalType": "bool",
              "name": "burned",
              "type": "bool"
            }
          ],
          "internalType": "struct IERC721A.TokenOwnership[]",
          "name": "",
          "type": "tuple[]"
        }
      ],
      "stateMutability": "view",
      "type": "function"
    },
    {
      "inputs": [
        {
          "internalType": "uint256",
          "name": "tokenId",
          "type": "uint256"
        }
      ],
      "name": "getApproved",
      "outputs": [
        {
          "internalType": "address",
          "name": "",
          "type": "address"
        }
      ],
      "stateMutability": "view",
      "type": "function"
    },
    {
      "inputs": [
        {
          "internalType": "address",
          "name": "owner",
          "type": "address"
        },
        {
          "internalType": "address",
          "name": "operator",
          "type": "address"
        }
      ],
      "name": "isApprovedForAll",
      "outputs": [
        {
          "internalType": "bool",
          "name": "",
          "type": "bool"
        }
      ],
      "stateMutability": "view",
      "type": "function"
    },
    {
      "inputs": [],
      "name": "name",
      "outputs": [
        {
          "internalType": "string",
          "name": "",
          "type": "string"
        }
      ],
      "stateMutability": "view",
      "type": "function"
    },
    {
      "inputs": [],
      "name": "owner",
      "outputs": [
        {
          "internalType": "address",
          "name": "",
          "type": "address"
        }
      ],
      "stateMutability": "view",
      "type": "function"
    },
    {
      "inputs": [
        {
          "internalType": "uint256",
          "name": "tokenId",
          "type": "uint256"
        }
      ],
      "name": "ownerOf",
      "outputs": [
        {
          "internalType": "address",
          "name": "",
          "type": "address"
        }
      ],
      "stateMutability": "view",
      "type": "function"
    },
    {
      "inputs": [],
      "name": "renounceOwnership",
      "outputs": [],
      "stateMutability": "nonpayable",
      "type": "function"
    },
    {
      "inputs": [
        {
          "internalType": "address",
          "name": "from",
          "type": "address"
        },
        {
          "internalType": "address",
          "name": "to",
          "type": "address"
        },
        {
          "internalType": "uint256",
          "name": "tokenId",
          "type": "uint256"
        }
      ],
      "name": "safeTransferFrom",
      "outputs": [],
      "stateMutability": "nonpayable",
      "type": "function"
    },
    {
      "inputs": [
        {
          "internalType": "address",
          "name": "from",
          "type": "address"
        },
        {
          "internalType": "address",
          "name": "to",
          "type": "address"
        },
        {
          "internalType": "uint256",
          "name": "tokenId",
          "type": "uint256"
        },
        {
          "internalType": "bytes",
          "name": "_data",
          "type": "bytes"
        }
      ],
      "name": "safeTransferFrom",
      "outputs": [],
      "stateMutability": "nonpayable",
      "type": "function"
    },
    {
      "inputs": [
        {
          "internalType": "address",
          "name": "operator",
          "type": "address"
        },
        {
          "internalType": "bool",
          "name": "approved",
          "type": "bool"
        }
      ],
      "name": "setApprovalForAll",
      "outputs": [],
      "stateMutability": "nonpayable",
      "type": "function"
    },
    {
      "inputs": [
        {
          "internalType": "bytes4",
          "name": "interfaceId",
          "type": "bytes4"
        }
      ],
      "name": "supportsInterface",
      "outputs": [
        {
          "internalType": "bool",
          "name": "",
          "type": "bool"
        }
      ],
      "stateMutability": "view",
      "type": "function"
    },
    {
      "inputs": [],
      "name": "symbol",
      "outputs": [
        {
          "internalType": "string",
          "name": "",
          "type": "string"
        }
      ],
      "stateMutability": "view",
      "type": "function"
    },
    {
      "inputs": [
        {
          "internalType": "address",
          "name": "owner",
          "type": "address"
        }
      ],
      "name": "tokensOfOwner",
      "outputs": [
        {
          "internalType": "uint256[]",
          "name": "",
          "type": "uint256[]"
        }
      ],
      "stateMutability": "view",
      "type": "function"
    },
    {
      "inputs": [
        {
          "internalType": "address",
          "name": "owner",
          "type": "address"
        },
        {
          "internalType": "uint256",
          "name": "start",
          "type": "uint256"
        },
        {
          "internalType": "uint256",
          "name": "stop",
          "type": "uint256"
        }
      ],
      "name": "tokensOfOwnerIn",
      "outputs": [
        {
          "internalType": "uint256[]",
          "name": "",
          "type": "uint256[]"
        }
      ],
      "stateMutability": "view",
      "type": "function"
    },
    {
      "inputs": [],
      "name": "totalSupply",
      "outputs": [
        {
          "internalType": "uint256",
          "name": "",
          "type": "uint256"
        }
      ],
      "stateMutability": "view",
      "type": "function"
    },
    {
      "inputs": [
        {
          "internalType": "address",
          "name": "from",
          "type": "address"
        },
        {
          "internalType": "address",
          "name": "to",
          "type": "address"
        },
        {
          "internalType": "uint256",
          "name": "tokenId",
          "type": "uint256"
        }
      ],
      "name": "transferFrom",
      "outputs": [],
      "stateMutability": "nonpayable",
      "type": "function"
    },
    {
      "inputs": [
        {
          "internalType": "address",
          "name": "newOwner",
          "type": "address"
        }
      ],
      "name": "transferOwnership",
      "outputs": [],
      "stateMutability": "nonpayable",
      "type": "function"
    },
    {
      "inputs": [
        {
          "internalType": "uint256",
          "name": "quantity",
          "type": "uint256"
        }
      ],
      "name": "mint",
      "outputs": [],
      "stateMutability": "payable",
      "type": "function"
    },
    {
      "inputs": [
        {
          "internalType": "uint256",
          "name": "quantity",
          "type": "uint256"
        },
        {
          "internalType": "uint256",
          "name": "start",
          "type": "uint256"
        }
      ],
      "name": "mintFromStartOrFail",
      "outputs": [],
      "stateMutability": "payable",
      "type": "function"
    },
    {
      "inputs": [
        {
          "internalType": "uint256",
          "name": "tokenId",
          "type": "uint256"
        }
      ],
      "name": "tokenURI",
      "outputs": [
        {
          "internalType": "string",
          "name": "",
          "type": "string"
        }
      ],
      "stateMutability": "view",
      "type": "function"
    },
    {
      "inputs": [],
      "name": "contractURI",
      "outputs": [
        {
          "internalType": "string",
          "name": "",
          "type": "string"
        }
      ],
      "stateMutability": "view",
      "type": "function"
    },
    {
      "inputs": [],
      "name": "withdraw",
      "outputs": [],
      "stateMutability": "payable",
      "type": "function"
    },
    {
      "inputs": [],
      "name": "totalMinted",
      "outputs": [
        {
          "internalType": "uint256",
          "name": "",
          "type": "uint256"
        }
      ],
      "stateMutability": "view",
      "type": "function"
    },
    {
      "inputs": [
        {
          "internalType": "uint256",
          "name": "_i",
          "type": "uint256"
        }
      ],
      "name": "uint2str",
      "outputs": [
        {
          "internalType": "string",
          "name": "_uintAsString",
          "type": "string"
        }
      ],
      "stateMutability": "pure",
      "type": "function"
    }
  ],
  "bytecode": "0x6080604052600a600c553480156200001657600080fd5b50604051620030113803806200301183398101604081905262000039916200026b565b84518590859062000052906002906020850190620000f8565b50805162000068906003906020840190620000f8565b50506001600055506200007b33620000a6565b600a829055600b81905582516200009a906009906020860190620000f8565b5050505050506200034b565b600880546001600160a01b038381166001600160a01b0319831681179093556040519116919082907f8be0079c531659141344cd1fd0a4f28419497f9722a3daafe3b4186f6b6457e090600090a35050565b82805462000106906200030f565b90600052602060002090601f0160209004810192826200012a576000855562000175565b82601f106200014557805160ff191683800117855562000175565b8280016001018555821562000175579182015b828111156200017557825182559160200191906001019062000158565b506200018392915062000187565b5090565b5b8082111562000183576000815560010162000188565b634e487b7160e01b600052604160045260246000fd5b600082601f830112620001c657600080fd5b81516001600160401b0380821115620001e357620001e36200019e565b604051601f8301601f19908116603f011681019082821181831017156200020e576200020e6200019e565b816040528381526020925086838588010111156200022b57600080fd5b600091505b838210156200024f578582018301518183018401529082019062000230565b83821115620002615760008385830101525b9695505050505050565b600080600080600060a086880312156200028457600080fd5b85516001600160401b03808211156200029c57600080fd5b620002aa89838a01620001b4565b96506020880151915080821115620002c157600080fd5b620002cf89838a01620001b4565b95506040880151915080821115620002e657600080fd5b50620002f588828901620001b4565b606088015160809098015196999598509695949350505050565b600181811c908216806200032457607f821691505b6020821081036200034557634e487b7160e01b600052602260045260246000fd5b50919050565b612cb6806200035b6000396000f3fe6080604052600436106101b75760003560e01c80638da5cb5b116100ec578063c23dc68f1161008a578063e985e9c511610064578063e985e9c514610515578063f2fde38b1461056b578063f76f950e1461058b578063fa9b7018146105ab57600080fd5b8063c23dc68f146104b3578063c87b56dd146104e0578063e8a3d4851461050057600080fd5b8063a0712d68116100c6578063a0712d6814610429578063a22cb4651461043c578063a2309ff81461045c578063b88d4fde1461049357600080fd5b80638da5cb5b146103c957806395d89b41146103f457806399a2557a1461040957600080fd5b806342842e0e1161015957806370a082311161013357806370a0823114610354578063715018a6146103745780637a4d892a146103895780638462151c1461039c57600080fd5b806342842e0e146102e75780635bbb2177146103075780636352211e1461033457600080fd5b8063095ea7b311610195578063095ea7b31461025857806318160ddd1461027a57806323b872dd146102bf5780633ccfd60b146102df57600080fd5b806301ffc9a7146101bc57806306fdde03146101f1578063081812fc14610213575b600080fd5b3480156101c857600080fd5b506101dc6101d7366004612376565b6105c1565b60405190151581526020015b60405180910390f35b3480156101fd57600080fd5b506102066106a6565b6040516101e89190612409565b34801561021f57600080fd5b5061023361022e36600461241c565b610738565b60405173ffffffffffffffffffffffffffffffffffffffff90911681526020016101e8565b34801561026457600080fd5b5061027861027336600461245e565b6107a2565b005b34801561028657600080fd5b50600154600054037fffffffffffffffffffffffffffffffffffffffffffffffffffffffffffffffff015b6040519081526020016101e8565b3480156102cb57600080fd5b506102786102da366004612488565b6108ab565b6102786108b6565b3480156102f357600080fd5b50610278610302366004612488565b610994565b34801561031357600080fd5b50610327610322366004612542565b6109af565b6040516101e891906125e8565b34801561034057600080fd5b5061023361034f36600461241c565b610a94565b34801561036057600080fd5b506102b161036f366004612660565b610aa6565b34801561038057600080fd5b50610278610b28565b61027861039736600461267b565b610bb5565b3480156103a857600080fd5b506103bc6103b7366004612660565b610cbd565b6040516101e8919061269d565b3480156103d557600080fd5b5060085473ffffffffffffffffffffffffffffffffffffffff16610233565b34801561040057600080fd5b50610206610e5d565b34801561041557600080fd5b506103bc6104243660046126d5565b610e6c565b61027861043736600461241c565b6110a6565b34801561044857600080fd5b50610278610457366004612708565b6112d2565b34801561046857600080fd5b506000547fffffffffffffffffffffffffffffffffffffffffffffffffffffffffffffffff016102b1565b34801561049f57600080fd5b506102786104ae366004612744565b6113b8565b3480156104bf57600080fd5b506104d36104ce36600461241c565b611428565b6040516101e89190612822565b3480156104ec57600080fd5b506102066104fb36600461241c565b61151a565b34801561050c57600080fd5b506102066115e3565b34801561052157600080fd5b506101dc610530366004612865565b73ffffffffffffffffffffffffffffffffffffffff918216600090815260076020908152604080832093909416825291909152205460ff1690565b34801561057757600080fd5b50610278610586366004612660565b61160b565b34801561059757600080fd5b506102066105a636600461241c565b611738565b3480156105b757600080fd5b506102b1600c5481565b60007fffffffff0000000000000000000000000000000000000000000000000000000082167f80ac58cd00000000000000000000000000000000000000000000000000000000148061065457507fffffffff0000000000000000000000000000000000000000000000000000000082167f5b5e139f00000000000000000000000000000000000000000000000000000000145b806106a057507f01ffc9a7000000000000000000000000000000000000000000000000000000007fffffffff000000000000000000000000000000000000000000000000000000008316145b92915050565b6060600280546106b590612898565b80601f01602080910402602001604051908101604052809291908181526020018280546106e190612898565b801561072e5780601f106107035761010080835404028352916020019161072e565b820191906000526020600020905b81548152906001019060200180831161071157829003601f168201915b5050505050905090565b600061074382611898565b610779576040517fcf4700e400000000000000000000000000000000000000000000000000000000815260040160405180910390fd5b5060009081526006602052604090205473ffffffffffffffffffffffffffffffffffffffff1690565b60006107ad82610a94565b90508073ffffffffffffffffffffffffffffffffffffffff168373ffffffffffffffffffffffffffffffffffffffff1603610814576040517f943f7b8c00000000000000000000000000000000000000000000000000000000815260040160405180910390fd5b3373ffffffffffffffffffffffffffffffffffffffff82161461089b5773ffffffffffffffffffffffffffffffffffffffff8116600090815260076020908152604080832033845290915290205460ff1661089b576040517fcfb3b94200000000000000000000000000000000000000000000000000000000815260040160405180910390fd5b6108a68383836118ea565b505050565b6108a683838361196b565b60085473ffffffffffffffffffffffffffffffffffffffff16331461093c576040517f08c379a000000000000000000000000000000000000000000000000000000000815260206004820181905260248201527f4f776e61626c653a2063616c6c6572206973206e6f7420746865206f776e657260448201526064015b60405180910390fd5b604051600090339047908381818185875af1925050503d806000811461097e576040519150601f19603f3d011682016040523d82523d6000602084013e610983565b606091505b505090508061099157600080fd5b50565b6108a6838383604051806020016040528060008152506113b8565b805160609060008167ffffffffffffffff8111156109cf576109cf6124c4565b604051908082528060200260200182016040528015610a3857816020015b60408051606081018252600080825260208083018290529282015282527fffffffffffffffffffffffffffffffffffffffffffffffffffffffffffffffff9092019101816109ed5790505b50905060005b828114610a8c57610a67858281518110610a5a57610a5a6128eb565b6020026020010151611428565b828281518110610a7957610a796128eb565b6020908102919091010152600101610a3e565b509392505050565b6000610a9f82611ccd565b5192915050565b600073ffffffffffffffffffffffffffffffffffffffff8216610af5576040517f8f4eb60400000000000000000000000000000000000000000000000000000000815260040160405180910390fd5b5073ffffffffffffffffffffffffffffffffffffffff1660009081526005602052604090205467ffffffffffffffff1690565b60085473ffffffffffffffffffffffffffffffffffffffff163314610ba9576040517f08c379a000000000000000000000000000000000000000000000000000000000815260206004820181905260248201527f4f776e61626c653a2063616c6c6572206973206e6f7420746865206f776e65726044820152606401610933565b610bb36000611ea3565b565b6000547fffffffffffffffffffffffffffffffffffffffffffffffffffffffffffffffff0181610c41576040517f08c379a000000000000000000000000000000000000000000000000000000000815260206004820152600f60248201527f4e6f2073746172742070617373656400000000000000000000000000000000006044820152606401610933565b610c4c816001612949565b8214610cb4576040517f08c379a000000000000000000000000000000000000000000000000000000000815260206004820152601360248201527f546f6b656e2069732070617374207374617274000000000000000000000000006044820152606401610933565b6108a6836110a6565b60606000806000610ccd85610aa6565b905060008167ffffffffffffffff811115610cea57610cea6124c4565b604051908082528060200260200182016040528015610d13578160200160208202803683370190505b50604080516060810182526000808252602082018190529181019190915290915060015b838614610e51576000818152600460209081526040918290208251606081018452905473ffffffffffffffffffffffffffffffffffffffff8116825274010000000000000000000000000000000000000000810467ffffffffffffffff16928201929092527c010000000000000000000000000000000000000000000000000000000090910460ff1615159181018290529250610e4957815173ffffffffffffffffffffffffffffffffffffffff1615610df057815194505b8773ffffffffffffffffffffffffffffffffffffffff168573ffffffffffffffffffffffffffffffffffffffff1603610e495780838780600101985081518110610e3c57610e3c6128eb565b6020026020010181815250505b600101610d37565b50909695505050505050565b6060600380546106b590612898565b6060818310610ea7576040517f32c1995a00000000000000000000000000000000000000000000000000000000815260040160405180910390fd5b600080546001851015610eb957600194505b80841115610ec5578093505b6000610ed087610aa6565b905084861015610eef5785850381811015610ee9578091505b50610ef3565b5060005b60008167ffffffffffffffff811115610f0e57610f0e6124c4565b604051908082528060200260200182016040528015610f37578160200160208202803683370190505b50905081600003610f4d57935061109f92505050565b6000610f5888611428565b905060008160400151610f69575080515b885b888114158015610f7b5750848714155b15611093576000818152600460209081526040918290208251606081018452905473ffffffffffffffffffffffffffffffffffffffff8116825274010000000000000000000000000000000000000000810467ffffffffffffffff16928201929092527c010000000000000000000000000000000000000000000000000000000090910460ff161515918101829052935061108b57825173ffffffffffffffffffffffffffffffffffffffff161561103257825191505b8a73ffffffffffffffffffffffffffffffffffffffff168273ffffffffffffffffffffffffffffffffffffffff160361108b578084888060010199508151811061107e5761107e6128eb565b6020026020010181815250505b600101610f6b565b50505092835250909150505b9392505050565b6000547fffffffffffffffffffffffffffffffffffffffffffffffffffffffffffffffff0181611132576040517f08c379a000000000000000000000000000000000000000000000000000000000815260206004820152600760248201527f546f6f20666577000000000000000000000000000000000000000000000000006044820152606401610933565b600c5482111561119e576040517f08c379a000000000000000000000000000000000000000000000000000000000815260206004820152600860248201527f546f6f206d616e790000000000000000000000000000000000000000000000006044820152606401610933565b600b546111ab8383612949565b1115611213576040517f08c379a000000000000000000000000000000000000000000000000000000000815260206004820152600e60248201527f4d696e74696e6720636c6f7365640000000000000000000000000000000000006044820152606401610933565b600a546112209083612961565b3414611288576040517f08c379a000000000000000000000000000000000000000000000000000000000815260206004820152600e60248201527f53656e64206578616374204554480000000000000000000000000000000000006044820152606401610933565b6112923383611f1a565b7f94242c431036b9ba6723a138d4b275a5b38e13a95ef66227a45df427c0f843f36112bd8383612949565b60405190815260200160405180910390a15050565b3373ffffffffffffffffffffffffffffffffffffffff831603611321576040517fb06307db00000000000000000000000000000000000000000000000000000000815260040160405180910390fd5b33600081815260076020908152604080832073ffffffffffffffffffffffffffffffffffffffff87168085529083529281902080547fffffffffffffffffffffffffffffffffffffffffffffffffffffffffffffff001686151590811790915590519081529192917f17307eab39ab6107e8899845ad3d59bd9653f200f220920489ca2b5937696c31910160405180910390a35050565b6113c384848461196b565b73ffffffffffffffffffffffffffffffffffffffff83163b15611422576113ec84848484611f38565b611422576040517fd1a57ed600000000000000000000000000000000000000000000000000000000815260040160405180910390fd5b50505050565b6040805160608082018352600080835260208084018290528385018290528451928301855281835282018190529281019290925290600183108061146e57506000548310155b156114795792915050565b506000828152600460209081526040918290208251606081018452905473ffffffffffffffffffffffffffffffffffffffff8116825274010000000000000000000000000000000000000000810467ffffffffffffffff16928201929092527c010000000000000000000000000000000000000000000000000000000090910460ff1615801592820192909252906115115792915050565b61109f83611ccd565b606061152582611898565b6115b1576040517f08c379a000000000000000000000000000000000000000000000000000000000815260206004820152602f60248201527f4552433732314d657461646174613a2055524920717565727920666f72206e6f60448201527f6e6578697374656e7420746f6b656e00000000000000000000000000000000006064820152608401610933565b60096115bc83611738565b6040516020016115cd929190612a6e565b6040516020818303038152906040529050919050565b606060096040516020016115f79190612b0c565b604051602081830303815290604052905090565b60085473ffffffffffffffffffffffffffffffffffffffff16331461168c576040517f08c379a000000000000000000000000000000000000000000000000000000000815260206004820181905260248201527f4f776e61626c653a2063616c6c6572206973206e6f7420746865206f776e65726044820152606401610933565b73ffffffffffffffffffffffffffffffffffffffff811661172f576040517f08c379a000000000000000000000000000000000000000000000000000000000815260206004820152602660248201527f4f776e61626c653a206e6577206f776e657220697320746865207a65726f206160448201527f64647265737300000000000000000000000000000000000000000000000000006064820152608401610933565b61099181611ea3565b60608160000361177b57505060408051808201909152600181527f3000000000000000000000000000000000000000000000000000000000000000602082015290565b8160005b81156117a5578061178f81612b6b565b915061179e9050600a83612ba3565b915061177f565b60008167ffffffffffffffff8111156117c0576117c06124c4565b6040519080825280601f01601f1916602001820160405280156117ea576020820181803683370190505b509050815b851561188f57611800600182612bde565b9050600061180f600a88612ba3565b61181a90600a612961565b6118249088612bde565b61182f906030612bf5565b905060008160f81b90508084848151811061184c5761184c6128eb565b60200101907effffffffffffffffffffffffffffffffffffffffffffffffffffffffffffff1916908160001a905350611886600a89612ba3565b975050506117ef565b50949350505050565b6000816001111580156118ac575060005482105b80156106a05750506000908152600460205260409020547c0100000000000000000000000000000000000000000000000000000000900460ff161590565b60008281526006602052604080822080547fffffffffffffffffffffffff00000000000000000000000000000000000000001673ffffffffffffffffffffffffffffffffffffffff87811691821790925591518593918516917f8c5be1e5ebec7d5bd14f71427d1e84f3dd0314c0f7b2291e5b200ac8c7c3b92591a4505050565b600061197682611ccd565b90508373ffffffffffffffffffffffffffffffffffffffff16816000015173ffffffffffffffffffffffffffffffffffffffff16146119e1576040517fa114810000000000000000000000000000000000000000000000000000000000815260040160405180910390fd5b60003373ffffffffffffffffffffffffffffffffffffffff86161480611a37575073ffffffffffffffffffffffffffffffffffffffff8516600090815260076020908152604080832033845290915290205460ff165b80611a5f575033611a4784610738565b73ffffffffffffffffffffffffffffffffffffffff16145b905080611a98576040517f59c896be00000000000000000000000000000000000000000000000000000000815260040160405180910390fd5b73ffffffffffffffffffffffffffffffffffffffff8416611ae5576040517fea553b3400000000000000000000000000000000000000000000000000000000815260040160405180910390fd5b611af1600084876118ea565b73ffffffffffffffffffffffffffffffffffffffff858116600090815260056020908152604080832080547fffffffffffffffffffffffffffffffffffffffffffffffff000000000000000080821667ffffffffffffffff9283167fffffffffffffffffffffffffffffffffffffffffffffffffffffffffffffffff01831617909255898616808652838620805493841693831660019081018416949094179055898652600490945282852080547fffffffff00000000000000000000000000000000000000000000000000000000169094177401000000000000000000000000000000000000000042909216919091021783558701808452922080549193909116611c68576000548214611c68578054602086015167ffffffffffffffff1674010000000000000000000000000000000000000000027fffffffff0000000000000000000000000000000000000000000000000000000090911673ffffffffffffffffffffffffffffffffffffffff8a16171781555b505050828473ffffffffffffffffffffffffffffffffffffffff168673ffffffffffffffffffffffffffffffffffffffff167fddf252ad1be2c89b69c2b068fc378daa952ba7f163c4a11628f55a4df523b3ef60405160405180910390a45050505050565b60408051606081018252600080825260208201819052918101919091528180600111611e7157600054811015611e71576000818152600460209081526040918290208251606081018452905473ffffffffffffffffffffffffffffffffffffffff8116825274010000000000000000000000000000000000000000810467ffffffffffffffff16928201929092527c010000000000000000000000000000000000000000000000000000000090910460ff16151591810182905290611e6f57805173ffffffffffffffffffffffffffffffffffffffff1615611db0579392505050565b507fffffffffffffffffffffffffffffffffffffffffffffffffffffffffffffffff016000818152600460209081526040918290208251606081018452905473ffffffffffffffffffffffffffffffffffffffff811680835274010000000000000000000000000000000000000000820467ffffffffffffffff16938301939093527c0100000000000000000000000000000000000000000000000000000000900460ff1615159281019290925215611e6a579392505050565b611db0565b505b6040517fdf2d9b4200000000000000000000000000000000000000000000000000000000815260040160405180910390fd5b6008805473ffffffffffffffffffffffffffffffffffffffff8381167fffffffffffffffffffffffff0000000000000000000000000000000000000000831681179093556040519116919082907f8be0079c531659141344cd1fd0a4f28419497f9722a3daafe3b4186f6b6457e090600090a35050565b611f348282604051806020016040528060008152506120b1565b5050565b6040517f150b7a0200000000000000000000000000000000000000000000000000000000815260009073ffffffffffffffffffffffffffffffffffffffff85169063150b7a0290611f93903390899088908890600401612c1a565b6020604051808303816000875af1925050508015611fec575060408051601f3d9081017fffffffffffffffffffffffffffffffffffffffffffffffffffffffffffffffe0168201909252611fe991810190612c63565b60015b612063573d80801561201a576040519150601f19603f3d011682016040523d82523d6000602084013e61201f565b606091505b50805160000361205b576040517fd1a57ed600000000000000000000000000000000000000000000000000000000815260040160405180910390fd5b805181602001fd5b7fffffffff00000000000000000000000000000000000000000000000000000000167f150b7a0200000000000000000000000000000000000000000000000000000000149050949350505050565b60005473ffffffffffffffffffffffffffffffffffffffff8416612101576040517f2e07630000000000000000000000000000000000000000000000000000000000815260040160405180910390fd5b8260000361213b576040517fb562e8dd00000000000000000000000000000000000000000000000000000000815260040160405180910390fd5b73ffffffffffffffffffffffffffffffffffffffff8416600081815260056020908152604080832080547fffffffffffffffffffffffffffffffff00000000000000000000000000000000811667ffffffffffffffff8083168b018116918217680100000000000000007fffffffffffffffffffffffffffffffffffffffffffffffff000000000000000090941690921783900481168b01811690920217909155858452600490925290912080547fffffffff000000000000000000000000000000000000000000000000000000001683177401000000000000000000000000000000000000000042909316929092029190911790558190818501903b156122e6575b604051829073ffffffffffffffffffffffffffffffffffffffff8816906000907fddf252ad1be2c89b69c2b068fc378daa952ba7f163c4a11628f55a4df523b3ef908290a46122966000878480600101955087611f38565b6122cc576040517fd1a57ed600000000000000000000000000000000000000000000000000000000815260040160405180910390fd5b80821061223e5782600054146122e157600080fd5b612338565b5b60405160018301929073ffffffffffffffffffffffffffffffffffffffff8816906000907fddf252ad1be2c89b69c2b068fc378daa952ba7f163c4a11628f55a4df523b3ef908290a48082106122e7575b5060009081556114229085838684565b7fffffffff000000000000000000000000000000000000000000000000000000008116811461099157600080fd5b60006020828403121561238857600080fd5b813561109f81612348565b60005b838110156123ae578181015183820152602001612396565b838111156114225750506000910152565b600081518084526123d7816020860160208601612393565b601f017fffffffffffffffffffffffffffffffffffffffffffffffffffffffffffffffe0169290920160200192915050565b60208152600061109f60208301846123bf565b60006020828403121561242e57600080fd5b5035919050565b803573ffffffffffffffffffffffffffffffffffffffff8116811461245957600080fd5b919050565b6000806040838503121561247157600080fd5b61247a83612435565b946020939093013593505050565b60008060006060848603121561249d57600080fd5b6124a684612435565b92506124b460208501612435565b9150604084013590509250925092565b7f4e487b7100000000000000000000000000000000000000000000000000000000600052604160045260246000fd5b604051601f82017fffffffffffffffffffffffffffffffffffffffffffffffffffffffffffffffe016810167ffffffffffffffff8111828210171561253a5761253a6124c4565b604052919050565b6000602080838503121561255557600080fd5b823567ffffffffffffffff8082111561256d57600080fd5b818501915085601f83011261258157600080fd5b813581811115612593576125936124c4565b8060051b91506125a48483016124f3565b81815291830184019184810190888411156125be57600080fd5b938501935b838510156125dc578435825293850193908501906125c3565b98975050505050505050565b6020808252825182820181905260009190848201906040850190845b81811015610e515761264d838551805173ffffffffffffffffffffffffffffffffffffffff16825260208082015167ffffffffffffffff16908301526040908101511515910152565b9284019260609290920191600101612604565b60006020828403121561267257600080fd5b61109f82612435565b6000806040838503121561268e57600080fd5b50508035926020909101359150565b6020808252825182820181905260009190848201906040850190845b81811015610e51578351835292840192918401916001016126b9565b6000806000606084860312156126ea57600080fd5b6126f384612435565b95602085013595506040909401359392505050565b6000806040838503121561271b57600080fd5b61272483612435565b91506020830135801515811461273957600080fd5b809150509250929050565b6000806000806080858703121561275a57600080fd5b61276385612435565b93506020612772818701612435565b935060408601359250606086013567ffffffffffffffff8082111561279657600080fd5b818801915088601f8301126127aa57600080fd5b8135818111156127bc576127bc6124c4565b6127ec847fffffffffffffffffffffffffffffffffffffffffffffffffffffffffffffffe0601f840116016124f3565b9150808252898482850101111561280257600080fd5b808484018584013760008482840101525080935050505092959194509250565b815173ffffffffffffffffffffffffffffffffffffffff16815260208083015167ffffffffffffffff1690820152604080830151151590820152606081016106a0565b6000806040838503121561287857600080fd5b61288183612435565b915061288f60208401612435565b90509250929050565b600181811c908216806128ac57607f821691505b6020821081036128e5577f4e487b7100000000000000000000000000000000000000000000000000000000600052602260045260246000fd5b50919050565b7f4e487b7100000000000000000000000000000000000000000000000000000000600052603260045260246000fd5b7f4e487b7100000000000000000000000000000000000000000000000000000000600052601160045260246000fd5b6000821982111561295c5761295c61291a565b500190565b6000817fffffffffffffffffffffffffffffffffffffffffffffffffffffffffffffffff04831182151516156129995761299961291a565b500290565b8054600090600181811c90808316806129b857607f831692505b602080841082036129f2577f4e487b7100000000000000000000000000000000000000000000000000000000600052602260045260246000fd5b818015612a065760018114612a3557612a62565b7fffffffffffffffffffffffffffffffffffffffffffffffffffffffffffffff00861689528489019650612a62565b60008881526020902060005b86811015612a5a5781548b820152908501908301612a41565b505084890196505b50505050505092915050565b7f697066733a2f2f0000000000000000000000000000000000000000000000000081526000612aa0600783018561299e565b7f2f6d657461646174612f0000000000000000000000000000000000000000000081528351612ad681600a840160208801612393565b7f2e6a736f6e000000000000000000000000000000000000000000000000000000600a9290910191820152600f01949350505050565b7f697066733a2f2f0000000000000000000000000000000000000000000000000081526000612b3e600783018461299e565b7f2f636f6e74726163744d657461646174612e6a736f6e0000000000000000000081526016019392505050565b60007fffffffffffffffffffffffffffffffffffffffffffffffffffffffffffffffff8203612b9c57612b9c61291a565b5060010190565b600082612bd9577f4e487b7100000000000000000000000000000000000000000000000000000000600052601260045260246000fd5b500490565b600082821015612bf057612bf061291a565b500390565b600060ff821660ff84168060ff03821115612c1257612c1261291a565b019392505050565b600073ffffffffffffffffffffffffffffffffffffffff808716835280861660208401525083604083015260806060830152612c5960808301846123bf565b9695505050505050565b600060208284031215612c7557600080fd5b815161109f8161234856fea2646970667358221220d4d754dd492a1460d315dea8ffed5500a5cb18ccd0c38d4f3f817afcee70133264736f6c634300080d0033",
  "immutableReferences": {},
  "source": "// contracts/Channel.sol\r\n// SPDX-License-Identifier: MIT\r\npragma solidity 0.8.13;\r\n\r\nimport \"erc721a/contracts/extensions/ERC721AQueryable.sol\";\r\n\r\nimport \"@openzeppelin/contracts/access/Ownable.sol\";\r\n\r\nimport \"./util/console.sol\";\r\n\r\ncontract Channel is ERC721AQueryable, Ownable {\r\n\r\n    string private _ipfsCid;\r\n\r\n    uint256 private _mintFee;\r\n\r\n    uint256 private _maxTokenId;\r\n\r\n    //set the maximum number an address can mint at a time\r\n    uint256 public MAX_MINT_AMOUNT = 10;\r\n\r\n    event MintEvent(uint256 tokenId);\r\n\r\n\r\n    constructor(string memory name, string memory symbol, string memory ipfsCid, uint256 mintFee, uint256 maxTokenId) ERC721A(name, symbol) {\r\n        _mintFee = mintFee;\r\n        _maxTokenId = maxTokenId;\r\n        _ipfsCid = ipfsCid;\r\n    }\r\n\r\n    function _startTokenId() internal view virtual override returns (uint256) {\r\n        return 1;\r\n    }\r\n\r\n    function mint(uint256 quantity) public payable {\r\n\r\n        /**\r\n        Checks\r\n         */\r\n        uint256 minted = _totalMinted();\r\n\r\n        //No zeros\r\n        require(quantity > 0, \"Too few\");\r\n\r\n        //Enforce mint limit\r\n        require(quantity <= MAX_MINT_AMOUNT, \"Too many\");\r\n\r\n        //Don't mint past final token\r\n        require(minted + quantity <= _maxTokenId, \"Minting closed\");\r\n\r\n        //Validate we have enough ETH. \r\n        require(msg.value == quantity * _mintFee, \"Send exact ETH\");\r\n\r\n        //Mint\r\n        _safeMint(_msgSender(), quantity);\r\n\r\n        emit MintEvent(minted + quantity);\r\n\r\n    }\r\n\r\n\r\n    //A version of mint if users care deeply about which token they start minting from. \r\n    function mintFromStartOrFail(uint256 quantity, uint256 start) public payable {\r\n\r\n        uint256 minted = _totalMinted();\r\n\r\n        require(start > 0, \"No start passed\");\r\n\r\n        //Make sure that token is the same as minted + 1\r\n        require(start == minted + 1, \"Token is past start\"); \r\n\r\n        mint(quantity);\r\n\r\n    }\r\n\r\n\r\n\r\n    function tokenURI(uint256 tokenId) public view virtual override(ERC721A, IERC721Metadata) returns (string memory) {\r\n        \r\n        require(_exists(tokenId), \"ERC721Metadata: URI query for nonexistent token\");\r\n\r\n        return string(abi.encodePacked(\"ipfs://\", _ipfsCid, \"/metadata/\", uint2str(tokenId), \".json\"));\r\n    \r\n    }\r\n\r\n    function contractURI() public view returns (string memory) {\r\n        return string(abi.encodePacked(\"ipfs://\", _ipfsCid, \"/contractMetadata.json\"));\r\n    }\r\n\r\n    function withdraw() public payable onlyOwner {\r\n\r\n        (bool success, ) = payable(msg.sender).call{value: address(this).balance}(\"\");\r\n        require(success);\r\n\r\n    }\r\n\r\n    function totalMinted() public view returns (uint256) {\r\n        return _totalMinted();\r\n    }\r\n\r\n    function uint2str(uint _i) public pure returns (string memory _uintAsString) {\r\n        if (_i == 0) {\r\n            return \"0\";\r\n        }\r\n        uint j = _i;\r\n        uint len;\r\n        while (j != 0) {\r\n            len++;\r\n            j /= 10;\r\n        }\r\n        bytes memory bstr = new bytes(len);\r\n        uint k = len;\r\n        while (_i != 0) {\r\n            k = k-1;\r\n            uint8 temp = (48 + uint8(_i - _i / 10 * 10));\r\n            bytes1 b1 = bytes1(temp);\r\n            bstr[k] = b1;\r\n            _i /= 10;\r\n        }\r\n        return string(bstr);\r\n    }\r\n\r\n}",
  "sourcePath": "C:\\Users\\13309\\repos\\large\\contracts\\Channel.sol",
  "compiler": {
    "name": "solc",
    "version": "0.8.13+commit.abaa5c0e.Emscripten.clang"
  },
  "schemaVersion": "3.4.3",
  "updatedAt": "2022-07-12T17:10:45.985Z",
  "networkType": "ethereum",
  "devdoc": {
    "kind": "dev",
    "methods": {
      "approve(address,uint256)": {
        "details": "See {IERC721-approve}."
      },
      "balanceOf(address)": {
        "details": "See {IERC721-balanceOf}."
      },
      "explicitOwnershipOf(uint256)": {
        "details": "Returns the `TokenOwnership` struct at `tokenId` without reverting. If the `tokenId` is out of bounds:   - `addr` = `address(0)`   - `startTimestamp` = `0`   - `burned` = `false` If the `tokenId` is burned:   - `addr` = `<Address of owner before token was burned>`   - `startTimestamp` = `<Timestamp when token was burned>`   - `burned = `true` Otherwise:   - `addr` = `<Address of owner>`   - `startTimestamp` = `<Timestamp of start of ownership>`   - `burned = `false`"
      },
      "explicitOwnershipsOf(uint256[])": {
        "details": "Returns an array of `TokenOwnership` structs at `tokenIds` in order. See {ERC721AQueryable-explicitOwnershipOf}"
      },
      "getApproved(uint256)": {
        "details": "See {IERC721-getApproved}."
      },
      "isApprovedForAll(address,address)": {
        "details": "See {IERC721-isApprovedForAll}."
      },
      "name()": {
        "details": "See {IERC721Metadata-name}."
      },
      "owner()": {
        "details": "Returns the address of the current owner."
      },
      "ownerOf(uint256)": {
        "details": "See {IERC721-ownerOf}."
      },
      "renounceOwnership()": {
        "details": "Leaves the contract without owner. It will not be possible to call `onlyOwner` functions anymore. Can only be called by the current owner. NOTE: Renouncing ownership will leave the contract without an owner, thereby removing any functionality that is only available to the owner."
      },
      "safeTransferFrom(address,address,uint256)": {
        "details": "See {IERC721-safeTransferFrom}."
      },
      "safeTransferFrom(address,address,uint256,bytes)": {
        "details": "See {IERC721-safeTransferFrom}."
      },
      "setApprovalForAll(address,bool)": {
        "details": "See {IERC721-setApprovalForAll}."
      },
      "supportsInterface(bytes4)": {
        "details": "See {IERC165-supportsInterface}."
      },
      "symbol()": {
        "details": "See {IERC721Metadata-symbol}."
      },
      "tokensOfOwner(address)": {
        "details": "Returns an array of token IDs owned by `owner`. This function scans the ownership mapping and is O(totalSupply) in complexity. It is meant to be called off-chain. See {ERC721AQueryable-tokensOfOwnerIn} for splitting the scan into multiple smaller scans if the collection is large enough to cause an out-of-gas error (10K pfp collections should be fine)."
      },
      "tokensOfOwnerIn(address,uint256,uint256)": {
        "details": "Returns an array of token IDs owned by `owner`, in the range [`start`, `stop`) (i.e. `start <= tokenId < stop`). This function allows for tokens to be queried if the collection grows too big for a single call of {ERC721AQueryable-tokensOfOwner}. Requirements: - `start` < `stop`"
      },
      "totalSupply()": {
        "details": "Burned tokens are calculated here, use _totalMinted() if you want to count just minted tokens."
      },
      "transferFrom(address,address,uint256)": {
        "details": "See {IERC721-transferFrom}."
      },
      "transferOwnership(address)": {
        "details": "Transfers ownership of the contract to a new account (`newOwner`). Can only be called by the current owner."
      }
    },
    "version": 1
  },
  "userdoc": {
    "errors": {
      "ApprovalCallerNotOwnerNorApproved()": [
        {
          "notice": "The caller must own the token or be an approved operator."
        }
      ],
      "ApprovalQueryForNonexistentToken()": [
        {
          "notice": "The token does not exist."
        }
      ],
      "ApprovalToCurrentOwner()": [
        {
          "notice": "The caller cannot approve to the current owner."
        }
      ],
      "ApproveToCaller()": [
        {
          "notice": "The caller cannot approve to their own address."
        }
      ],
      "BalanceQueryForZeroAddress()": [
        {
          "notice": "Cannot query the balance for the zero address."
        }
      ],
      "InvalidQueryRange()": [
        {
          "notice": "Invalid query range (`start` >= `stop`)."
        }
      ],
      "MintToZeroAddress()": [
        {
          "notice": "Cannot mint to the zero address."
        }
      ],
      "MintZeroQuantity()": [
        {
          "notice": "The quantity of tokens minted must be more than zero."
        }
      ],
      "OwnerQueryForNonexistentToken()": [
        {
          "notice": "The token does not exist."
        }
      ],
      "TransferCallerNotOwnerNorApproved()": [
        {
          "notice": "The caller must own the token or be an approved operator."
        }
      ],
      "TransferFromIncorrectOwner()": [
        {
          "notice": "The token must be owned by `from`."
        }
      ],
      "TransferToNonERC721ReceiverImplementer()": [
        {
          "notice": "Cannot safely transfer to a contract that does not implement the ERC721Receiver interface."
        }
      ],
      "TransferToZeroAddress()": [
        {
          "notice": "Cannot transfer to the zero address."
        }
      ],
      "URIQueryForNonexistentToken()": [
        {
          "notice": "The token does not exist."
        }
      ]
    },
    "kind": "user",
    "methods": {},
    "version": 1
  }
}