{
  "contractName": "Channel",
  "abi": [
    {
      "inputs": [
        {
          "internalType": "string",
          "name": "name",
          "type": "string"
        },
        {
          "internalType": "string",
          "name": "symbol",
          "type": "string"
        },
        {
          "internalType": "string",
          "name": "ipfsCid",
          "type": "string"
        },
        {
          "internalType": "uint256",
          "name": "mintFee",
          "type": "uint256"
        },
        {
          "internalType": "uint256",
          "name": "maxTokenId",
          "type": "uint256"
        }
      ],
      "stateMutability": "nonpayable",
      "type": "constructor"
    },
    {
      "anonymous": false,
      "inputs": [
        {
          "indexed": true,
          "internalType": "address",
          "name": "owner",
          "type": "address"
        },
        {
          "indexed": true,
          "internalType": "address",
          "name": "approved",
          "type": "address"
        },
        {
          "indexed": true,
          "internalType": "uint256",
          "name": "tokenId",
          "type": "uint256"
        }
      ],
      "name": "Approval",
      "type": "event"
    },
    {
      "anonymous": false,
      "inputs": [
        {
          "indexed": true,
          "internalType": "address",
          "name": "owner",
          "type": "address"
        },
        {
          "indexed": true,
          "internalType": "address",
          "name": "operator",
          "type": "address"
        },
        {
          "indexed": false,
          "internalType": "bool",
          "name": "approved",
          "type": "bool"
        }
      ],
      "name": "ApprovalForAll",
      "type": "event"
    },
    {
      "anonymous": false,
      "inputs": [
        {
          "indexed": true,
          "internalType": "address",
          "name": "previousOwner",
          "type": "address"
        },
        {
          "indexed": true,
          "internalType": "address",
          "name": "newOwner",
          "type": "address"
        }
      ],
      "name": "OwnershipTransferred",
      "type": "event"
    },
    {
      "anonymous": false,
      "inputs": [
        {
          "indexed": true,
          "internalType": "address",
          "name": "from",
          "type": "address"
        },
        {
          "indexed": true,
          "internalType": "address",
          "name": "to",
          "type": "address"
        },
        {
          "indexed": true,
          "internalType": "uint256",
          "name": "tokenId",
          "type": "uint256"
        }
      ],
      "name": "Transfer",
      "type": "event"
    },
    {
      "inputs": [
        {
          "internalType": "address",
          "name": "to",
          "type": "address"
        },
        {
          "internalType": "uint256",
          "name": "tokenId",
          "type": "uint256"
        }
      ],
      "name": "approve",
      "outputs": [],
      "stateMutability": "nonpayable",
      "type": "function"
    },
    {
      "inputs": [
        {
          "internalType": "address",
          "name": "owner",
          "type": "address"
        }
      ],
      "name": "balanceOf",
      "outputs": [
        {
          "internalType": "uint256",
          "name": "",
          "type": "uint256"
        }
      ],
      "stateMutability": "view",
      "type": "function"
    },
    {
      "inputs": [
        {
          "internalType": "uint256",
          "name": "tokenId",
          "type": "uint256"
        }
      ],
      "name": "getApproved",
      "outputs": [
        {
          "internalType": "address",
          "name": "",
          "type": "address"
        }
      ],
      "stateMutability": "view",
      "type": "function"
    },
    {
      "inputs": [
        {
          "internalType": "address",
          "name": "owner",
          "type": "address"
        },
        {
          "internalType": "address",
          "name": "operator",
          "type": "address"
        }
      ],
      "name": "isApprovedForAll",
      "outputs": [
        {
          "internalType": "bool",
          "name": "",
          "type": "bool"
        }
      ],
      "stateMutability": "view",
      "type": "function"
    },
    {
      "inputs": [],
      "name": "name",
      "outputs": [
        {
          "internalType": "string",
          "name": "",
          "type": "string"
        }
      ],
      "stateMutability": "view",
      "type": "function"
    },
    {
      "inputs": [],
      "name": "owner",
      "outputs": [
        {
          "internalType": "address",
          "name": "",
          "type": "address"
        }
      ],
      "stateMutability": "view",
      "type": "function"
    },
    {
      "inputs": [
        {
          "internalType": "uint256",
          "name": "tokenId",
          "type": "uint256"
        }
      ],
      "name": "ownerOf",
      "outputs": [
        {
          "internalType": "address",
          "name": "",
          "type": "address"
        }
      ],
      "stateMutability": "view",
      "type": "function"
    },
    {
      "inputs": [],
      "name": "renounceOwnership",
      "outputs": [],
      "stateMutability": "nonpayable",
      "type": "function"
    },
    {
      "inputs": [
        {
          "internalType": "address",
          "name": "from",
          "type": "address"
        },
        {
          "internalType": "address",
          "name": "to",
          "type": "address"
        },
        {
          "internalType": "uint256",
          "name": "tokenId",
          "type": "uint256"
        }
      ],
      "name": "safeTransferFrom",
      "outputs": [],
      "stateMutability": "nonpayable",
      "type": "function"
    },
    {
      "inputs": [
        {
          "internalType": "address",
          "name": "from",
          "type": "address"
        },
        {
          "internalType": "address",
          "name": "to",
          "type": "address"
        },
        {
          "internalType": "uint256",
          "name": "tokenId",
          "type": "uint256"
        },
        {
          "internalType": "bytes",
          "name": "_data",
          "type": "bytes"
        }
      ],
      "name": "safeTransferFrom",
      "outputs": [],
      "stateMutability": "nonpayable",
      "type": "function"
    },
    {
      "inputs": [
        {
          "internalType": "address",
          "name": "operator",
          "type": "address"
        },
        {
          "internalType": "bool",
          "name": "approved",
          "type": "bool"
        }
      ],
      "name": "setApprovalForAll",
      "outputs": [],
      "stateMutability": "nonpayable",
      "type": "function"
    },
    {
      "inputs": [
        {
          "internalType": "bytes4",
          "name": "interfaceId",
          "type": "bytes4"
        }
      ],
      "name": "supportsInterface",
      "outputs": [
        {
          "internalType": "bool",
          "name": "",
          "type": "bool"
        }
      ],
      "stateMutability": "view",
      "type": "function"
    },
    {
      "inputs": [],
      "name": "symbol",
      "outputs": [
        {
          "internalType": "string",
          "name": "",
          "type": "string"
        }
      ],
      "stateMutability": "view",
      "type": "function"
    },
    {
      "inputs": [
        {
          "internalType": "uint256",
          "name": "index",
          "type": "uint256"
        }
      ],
      "name": "tokenByIndex",
      "outputs": [
        {
          "internalType": "uint256",
          "name": "",
          "type": "uint256"
        }
      ],
      "stateMutability": "view",
      "type": "function"
    },
    {
      "inputs": [
        {
          "internalType": "address",
          "name": "owner",
          "type": "address"
        },
        {
          "internalType": "uint256",
          "name": "index",
          "type": "uint256"
        }
      ],
      "name": "tokenOfOwnerByIndex",
      "outputs": [
        {
          "internalType": "uint256",
          "name": "",
          "type": "uint256"
        }
      ],
      "stateMutability": "view",
      "type": "function"
    },
    {
      "inputs": [],
      "name": "totalSupply",
      "outputs": [
        {
          "internalType": "uint256",
          "name": "",
          "type": "uint256"
        }
      ],
      "stateMutability": "view",
      "type": "function"
    },
    {
      "inputs": [
        {
          "internalType": "address",
          "name": "from",
          "type": "address"
        },
        {
          "internalType": "address",
          "name": "to",
          "type": "address"
        },
        {
          "internalType": "uint256",
          "name": "tokenId",
          "type": "uint256"
        }
      ],
      "name": "transferFrom",
      "outputs": [],
      "stateMutability": "nonpayable",
      "type": "function"
    },
    {
      "inputs": [
        {
          "internalType": "address",
          "name": "newOwner",
          "type": "address"
        }
      ],
      "name": "transferOwnership",
      "outputs": [],
      "stateMutability": "nonpayable",
      "type": "function"
    },
    {
      "inputs": [
        {
          "internalType": "uint256",
          "name": "tokenId",
          "type": "uint256"
        }
      ],
      "name": "mint",
      "outputs": [],
      "stateMutability": "payable",
      "type": "function"
    },
    {
      "inputs": [
        {
          "internalType": "uint256",
          "name": "tokenId",
          "type": "uint256"
        }
      ],
      "name": "tokenURI",
      "outputs": [
        {
          "internalType": "string",
          "name": "",
          "type": "string"
        }
      ],
      "stateMutability": "view",
      "type": "function"
    },
    {
      "inputs": [],
      "name": "withdraw",
      "outputs": [],
      "stateMutability": "payable",
      "type": "function"
    },
    {
      "inputs": [
        {
          "internalType": "uint256",
          "name": "_i",
          "type": "uint256"
        }
      ],
      "name": "uint2str",
      "outputs": [
        {
          "internalType": "string",
          "name": "_uintAsString",
          "type": "string"
        }
      ],
      "stateMutability": "pure",
      "type": "function"
    }
  ],
  "bytecode": "0x60806040523480156200001157600080fd5b5060405162002c2438038062002c24833981016040819052620000349162000274565b8451859085906200004d90600090602085019062000101565b5080516200006390600190602084019062000101565b505050620000806200007a620000ab60201b60201c565b620000af565b600c829055600d81905582516200009f90600b90602086019062000101565b50505050505062000354565b3390565b600a80546001600160a01b038381166001600160a01b0319831681179093556040519116919082907f8be0079c531659141344cd1fd0a4f28419497f9722a3daafe3b4186f6b6457e090600090a35050565b8280546200010f9062000318565b90600052602060002090601f0160209004810192826200013357600085556200017e565b82601f106200014e57805160ff19168380011785556200017e565b828001600101855582156200017e579182015b828111156200017e57825182559160200191906001019062000161565b506200018c92915062000190565b5090565b5b808211156200018c576000815560010162000191565b634e487b7160e01b600052604160045260246000fd5b600082601f830112620001cf57600080fd5b81516001600160401b0380821115620001ec57620001ec620001a7565b604051601f8301601f19908116603f01168101908282118183101715620002175762000217620001a7565b816040528381526020925086838588010111156200023457600080fd5b600091505b8382101562000258578582018301518183018401529082019062000239565b838211156200026a5760008385830101525b9695505050505050565b600080600080600060a086880312156200028d57600080fd5b85516001600160401b0380821115620002a557600080fd5b620002b389838a01620001bd565b96506020880151915080821115620002ca57600080fd5b620002d889838a01620001bd565b95506040880151915080821115620002ef57600080fd5b50620002fe88828901620001bd565b606088015160809098015196999598509695949350505050565b600181811c908216806200032d57607f821691505b6020821081036200034e57634e487b7160e01b600052602260045260246000fd5b50919050565b6128c080620003646000396000f3fe6080604052600436106101755760003560e01c806370a08231116100cb578063a22cb4651161007f578063e985e9c511610059578063e985e9c5146103e7578063f2fde38b1461043d578063f76f950e1461045d57600080fd5b8063a22cb46514610387578063b88d4fde146103a7578063c87b56dd146103c757600080fd5b80638da5cb5b116100b05780638da5cb5b1461033457806395d89b411461035f578063a0712d681461037457600080fd5b806370a08231146102ff578063715018a61461031f57600080fd5b806323b872dd1161012d57806342842e0e1161010757806342842e0e1461029f5780634f6ccce7146102bf5780636352211e146102df57600080fd5b806323b872dd146102575780632f745c59146102775780633ccfd60b1461029757600080fd5b8063081812fc1161015e578063081812fc146101d1578063095ea7b31461021657806318160ddd1461023857600080fd5b806301ffc9a71461017a57806306fdde03146101af575b600080fd5b34801561018657600080fd5b5061019a6101953660046121c2565b61047d565b60405190151581526020015b60405180910390f35b3480156101bb57600080fd5b506101c46104d9565b6040516101a6919061225c565b3480156101dd57600080fd5b506101f16101ec36600461226f565b61056b565b60405173ffffffffffffffffffffffffffffffffffffffff90911681526020016101a6565b34801561022257600080fd5b506102366102313660046122b1565b61064a565b005b34801561024457600080fd5b506008545b6040519081526020016101a6565b34801561026357600080fd5b506102366102723660046122db565b6107d6565b34801561028357600080fd5b506102496102923660046122b1565b610877565b610236610946565b3480156102ab57600080fd5b506102366102ba3660046122db565b610a1f565b3480156102cb57600080fd5b506102496102da36600461226f565b610a3a565b3480156102eb57600080fd5b506101f16102fa36600461226f565b610af8565b34801561030b57600080fd5b5061024961031a366004612317565b610baa565b34801561032b57600080fd5b50610236610c78565b34801561034057600080fd5b50600a5473ffffffffffffffffffffffffffffffffffffffff166101f1565b34801561036b57600080fd5b506101c4610d05565b61023661038236600461226f565b610d14565b34801561039357600080fd5b506102366103a2366004612332565b610e9d565b3480156103b357600080fd5b506102366103c236600461239d565b610eac565b3480156103d357600080fd5b506101c46103e236600461226f565b610f54565b3480156103f357600080fd5b5061019a610402366004612497565b73ffffffffffffffffffffffffffffffffffffffff918216600090815260056020908152604080832093909416825291909152205460ff1690565b34801561044957600080fd5b50610236610458366004612317565b61103a565b34801561046957600080fd5b506101c461047836600461226f565b611167565b60007fffffffff0000000000000000000000000000000000000000000000000000000082167f780e9d630000000000000000000000000000000000000000000000000000000014806104d357506104d3826112c7565b92915050565b6060600080546104e8906124ca565b80601f0160208091040260200160405190810160405280929190818152602001828054610514906124ca565b80156105615780601f1061053657610100808354040283529160200191610561565b820191906000526020600020905b81548152906001019060200180831161054457829003601f168201915b5050505050905090565b60008181526002602052604081205473ffffffffffffffffffffffffffffffffffffffff16610621576040517f08c379a000000000000000000000000000000000000000000000000000000000815260206004820152602c60248201527f4552433732313a20617070726f76656420717565727920666f72206e6f6e657860448201527f697374656e7420746f6b656e000000000000000000000000000000000000000060648201526084015b60405180910390fd5b5060009081526004602052604090205473ffffffffffffffffffffffffffffffffffffffff1690565b600061065582610af8565b90508073ffffffffffffffffffffffffffffffffffffffff168373ffffffffffffffffffffffffffffffffffffffff1603610712576040517f08c379a000000000000000000000000000000000000000000000000000000000815260206004820152602160248201527f4552433732313a20617070726f76616c20746f2063757272656e74206f776e6560448201527f72000000000000000000000000000000000000000000000000000000000000006064820152608401610618565b3373ffffffffffffffffffffffffffffffffffffffff8216148061073b575061073b8133610402565b6107c7576040517f08c379a000000000000000000000000000000000000000000000000000000000815260206004820152603860248201527f4552433732313a20617070726f76652063616c6c6572206973206e6f74206f7760448201527f6e6572206e6f7220617070726f76656420666f7220616c6c00000000000000006064820152608401610618565b6107d183836113aa565b505050565b6107e0338261144a565b61086c576040517f08c379a000000000000000000000000000000000000000000000000000000000815260206004820152603160248201527f4552433732313a207472616e736665722063616c6c6572206973206e6f74206f60448201527f776e6572206e6f7220617070726f7665640000000000000000000000000000006064820152608401610618565b6107d18383836115ba565b600061088283610baa565b8210610910576040517f08c379a000000000000000000000000000000000000000000000000000000000815260206004820152602b60248201527f455243373231456e756d657261626c653a206f776e657220696e646578206f7560448201527f74206f6620626f756e64730000000000000000000000000000000000000000006064820152608401610618565b5073ffffffffffffffffffffffffffffffffffffffff919091166000908152600660209081526040808320938352929052205490565b600a5473ffffffffffffffffffffffffffffffffffffffff1633146109c7576040517f08c379a000000000000000000000000000000000000000000000000000000000815260206004820181905260248201527f4f776e61626c653a2063616c6c6572206973206e6f7420746865206f776e65726044820152606401610618565b604051600090339047908381818185875af1925050503d8060008114610a09576040519150601f19603f3d011682016040523d82523d6000602084013e610a0e565b606091505b5050905080610a1c57600080fd5b50565b6107d183838360405180602001604052806000815250610eac565b6000610a4560085490565b8210610ad3576040517f08c379a000000000000000000000000000000000000000000000000000000000815260206004820152602c60248201527f455243373231456e756d657261626c653a20676c6f62616c20696e646578206f60448201527f7574206f6620626f756e647300000000000000000000000000000000000000006064820152608401610618565b60088281548110610ae657610ae661251d565b90600052602060002001549050919050565b60008181526002602052604081205473ffffffffffffffffffffffffffffffffffffffff16806104d3576040517f08c379a000000000000000000000000000000000000000000000000000000000815260206004820152602960248201527f4552433732313a206f776e657220717565727920666f72206e6f6e657869737460448201527f656e7420746f6b656e00000000000000000000000000000000000000000000006064820152608401610618565b600073ffffffffffffffffffffffffffffffffffffffff8216610c4f576040517f08c379a000000000000000000000000000000000000000000000000000000000815260206004820152602a60248201527f4552433732313a2062616c616e636520717565727920666f7220746865207a6560448201527f726f2061646472657373000000000000000000000000000000000000000000006064820152608401610618565b5073ffffffffffffffffffffffffffffffffffffffff1660009081526003602052604090205490565b600a5473ffffffffffffffffffffffffffffffffffffffff163314610cf9576040517f08c379a000000000000000000000000000000000000000000000000000000000815260206004820181905260248201527f4f776e61626c653a2063616c6c6572206973206e6f7420746865206f776e65726044820152606401610618565b610d03600061182c565b565b6060600180546104e8906124ca565b600081118015610d265750600d548111155b610d8c576040517f08c379a000000000000000000000000000000000000000000000000000000000815260206004820152600d60248201527f496e76616c696420746f6b656e000000000000000000000000000000000000006044820152606401610618565b60008181526002602052604090205473ffffffffffffffffffffffffffffffffffffffff1615610e18576040517f08c379a000000000000000000000000000000000000000000000000000000000815260206004820152600660248201527f45786973747300000000000000000000000000000000000000000000000000006044820152606401610618565b600c543414610e83576040517f08c379a000000000000000000000000000000000000000000000000000000000815260206004820152600e60248201527f53656e64206578616374204554480000000000000000000000000000000000006044820152606401610618565b610a1c3382604051806020016040528060008152506118a3565b610ea8338383611946565b5050565b610eb6338361144a565b610f42576040517f08c379a000000000000000000000000000000000000000000000000000000000815260206004820152603160248201527f4552433732313a207472616e736665722063616c6c6572206973206e6f74206f60448201527f776e6572206e6f7220617070726f7665640000000000000000000000000000006064820152608401610618565b610f4e84848484611a73565b50505050565b60008181526002602052604090205460609073ffffffffffffffffffffffffffffffffffffffff16611008576040517f08c379a000000000000000000000000000000000000000000000000000000000815260206004820152602f60248201527f4552433732314d657461646174613a2055524920717565727920666f72206e6f60448201527f6e6578697374656e7420746f6b656e00000000000000000000000000000000006064820152608401610618565b600b61101383611167565b604051602001611024929190612568565b6040516020818303038152906040529050919050565b600a5473ffffffffffffffffffffffffffffffffffffffff1633146110bb576040517f08c379a000000000000000000000000000000000000000000000000000000000815260206004820181905260248201527f4f776e61626c653a2063616c6c6572206973206e6f7420746865206f776e65726044820152606401610618565b73ffffffffffffffffffffffffffffffffffffffff811661115e576040517f08c379a000000000000000000000000000000000000000000000000000000000815260206004820152602660248201527f4f776e61626c653a206e6577206f776e657220697320746865207a65726f206160448201527f64647265737300000000000000000000000000000000000000000000000000006064820152608401610618565b610a1c8161182c565b6060816000036111aa57505060408051808201909152600181527f3000000000000000000000000000000000000000000000000000000000000000602082015290565b8160005b81156111d457806111be816126fb565b91506111cd9050600a83612733565b91506111ae565b60008167ffffffffffffffff8111156111ef576111ef61236e565b6040519080825280601f01601f191660200182016040528015611219576020820181803683370190505b509050815b85156112be5761122f60018261276e565b9050600061123e600a88612733565b61124990600a612785565b611253908861276e565b61125e9060306127c2565b905060008160f81b90508084848151811061127b5761127b61251d565b60200101907effffffffffffffffffffffffffffffffffffffffffffffffffffffffffffff1916908160001a9053506112b5600a89612733565b9750505061121e565b50949350505050565b60007fffffffff0000000000000000000000000000000000000000000000000000000082167f80ac58cd00000000000000000000000000000000000000000000000000000000148061135a57507fffffffff0000000000000000000000000000000000000000000000000000000082167f5b5e139f00000000000000000000000000000000000000000000000000000000145b806104d357507f01ffc9a7000000000000000000000000000000000000000000000000000000007fffffffff000000000000000000000000000000000000000000000000000000008316146104d3565b600081815260046020526040902080547fffffffffffffffffffffffff00000000000000000000000000000000000000001673ffffffffffffffffffffffffffffffffffffffff8416908117909155819061140482610af8565b73ffffffffffffffffffffffffffffffffffffffff167f8c5be1e5ebec7d5bd14f71427d1e84f3dd0314c0f7b2291e5b200ac8c7c3b92560405160405180910390a45050565b60008181526002602052604081205473ffffffffffffffffffffffffffffffffffffffff166114fb576040517f08c379a000000000000000000000000000000000000000000000000000000000815260206004820152602c60248201527f4552433732313a206f70657261746f7220717565727920666f72206e6f6e657860448201527f697374656e7420746f6b656e00000000000000000000000000000000000000006064820152608401610618565b600061150683610af8565b90508073ffffffffffffffffffffffffffffffffffffffff168473ffffffffffffffffffffffffffffffffffffffff16148061157557508373ffffffffffffffffffffffffffffffffffffffff1661155d8461056b565b73ffffffffffffffffffffffffffffffffffffffff16145b806115b2575073ffffffffffffffffffffffffffffffffffffffff80821660009081526005602090815260408083209388168352929052205460ff165b949350505050565b8273ffffffffffffffffffffffffffffffffffffffff166115da82610af8565b73ffffffffffffffffffffffffffffffffffffffff161461167d576040517f08c379a000000000000000000000000000000000000000000000000000000000815260206004820152602560248201527f4552433732313a207472616e736665722066726f6d20696e636f72726563742060448201527f6f776e65720000000000000000000000000000000000000000000000000000006064820152608401610618565b73ffffffffffffffffffffffffffffffffffffffff821661171f576040517f08c379a0000000000000000000000000000000000000000000000000000000008152602060048201526024808201527f4552433732313a207472616e7366657220746f20746865207a65726f2061646460448201527f72657373000000000000000000000000000000000000000000000000000000006064820152608401610618565b61172a838383611b16565b6117356000826113aa565b73ffffffffffffffffffffffffffffffffffffffff8316600090815260036020526040812080546001929061176b90849061276e565b909155505073ffffffffffffffffffffffffffffffffffffffff821660009081526003602052604081208054600192906117a69084906127e7565b909155505060008181526002602052604080822080547fffffffffffffffffffffffff00000000000000000000000000000000000000001673ffffffffffffffffffffffffffffffffffffffff86811691821790925591518493918716917fddf252ad1be2c89b69c2b068fc378daa952ba7f163c4a11628f55a4df523b3ef91a4505050565b600a805473ffffffffffffffffffffffffffffffffffffffff8381167fffffffffffffffffffffffff0000000000000000000000000000000000000000831681179093556040519116919082907f8be0079c531659141344cd1fd0a4f28419497f9722a3daafe3b4186f6b6457e090600090a35050565b6118ad8383611c1c565b6118ba6000848484611dea565b6107d1576040517f08c379a000000000000000000000000000000000000000000000000000000000815260206004820152603260248201527f4552433732313a207472616e7366657220746f206e6f6e20455243373231526560448201527f63656976657220696d706c656d656e74657200000000000000000000000000006064820152608401610618565b8173ffffffffffffffffffffffffffffffffffffffff168373ffffffffffffffffffffffffffffffffffffffff16036119db576040517f08c379a000000000000000000000000000000000000000000000000000000000815260206004820152601960248201527f4552433732313a20617070726f766520746f2063616c6c6572000000000000006044820152606401610618565b73ffffffffffffffffffffffffffffffffffffffff83811660008181526005602090815260408083209487168084529482529182902080547fffffffffffffffffffffffffffffffffffffffffffffffffffffffffffffff001686151590811790915591519182527f17307eab39ab6107e8899845ad3d59bd9653f200f220920489ca2b5937696c31910160405180910390a3505050565b611a7e8484846115ba565b611a8a84848484611dea565b610f4e576040517f08c379a000000000000000000000000000000000000000000000000000000000815260206004820152603260248201527f4552433732313a207472616e7366657220746f206e6f6e20455243373231526560448201527f63656976657220696d706c656d656e74657200000000000000000000000000006064820152608401610618565b73ffffffffffffffffffffffffffffffffffffffff8316611b7e57611b7981600880546000838152600960205260408120829055600182018355919091527ff3f7a9fe364faab93b216da50a3214154f22a0a2b415b23a84c8169e8b636ee30155565b611bbb565b8173ffffffffffffffffffffffffffffffffffffffff168373ffffffffffffffffffffffffffffffffffffffff1614611bbb57611bbb8382611fdd565b73ffffffffffffffffffffffffffffffffffffffff8216611bdf576107d181612094565b8273ffffffffffffffffffffffffffffffffffffffff168273ffffffffffffffffffffffffffffffffffffffff16146107d1576107d18282612143565b73ffffffffffffffffffffffffffffffffffffffff8216611c99576040517f08c379a000000000000000000000000000000000000000000000000000000000815260206004820181905260248201527f4552433732313a206d696e7420746f20746865207a65726f20616464726573736044820152606401610618565b60008181526002602052604090205473ffffffffffffffffffffffffffffffffffffffff1615611d25576040517f08c379a000000000000000000000000000000000000000000000000000000000815260206004820152601c60248201527f4552433732313a20746f6b656e20616c7265616479206d696e746564000000006044820152606401610618565b611d3160008383611b16565b73ffffffffffffffffffffffffffffffffffffffff82166000908152600360205260408120805460019290611d679084906127e7565b909155505060008181526002602052604080822080547fffffffffffffffffffffffff00000000000000000000000000000000000000001673ffffffffffffffffffffffffffffffffffffffff861690811790915590518392907fddf252ad1be2c89b69c2b068fc378daa952ba7f163c4a11628f55a4df523b3ef908290a45050565b600073ffffffffffffffffffffffffffffffffffffffff84163b15611fd2576040517f150b7a0200000000000000000000000000000000000000000000000000000000815273ffffffffffffffffffffffffffffffffffffffff85169063150b7a0290611e619033908990889088906004016127ff565b6020604051808303816000875af1925050508015611eba575060408051601f3d9081017fffffffffffffffffffffffffffffffffffffffffffffffffffffffffffffffe0168201909252611eb79181019061283e565b60015b611f87573d808015611ee8576040519150601f19603f3d011682016040523d82523d6000602084013e611eed565b606091505b508051600003611f7f576040517f08c379a000000000000000000000000000000000000000000000000000000000815260206004820152603260248201527f4552433732313a207472616e7366657220746f206e6f6e20455243373231526560448201527f63656976657220696d706c656d656e74657200000000000000000000000000006064820152608401610618565b805181602001fd5b7fffffffff00000000000000000000000000000000000000000000000000000000167f150b7a02000000000000000000000000000000000000000000000000000000001490506115b2565b506001949350505050565b60006001611fea84610baa565b611ff4919061276e565b6000838152600760205260409020549091508082146120545773ffffffffffffffffffffffffffffffffffffffff841660009081526006602090815260408083208584528252808320548484528184208190558352600790915290208190555b50600091825260076020908152604080842084905573ffffffffffffffffffffffffffffffffffffffff9094168352600681528383209183525290812055565b6008546000906120a69060019061276e565b600083815260096020526040812054600880549394509092849081106120ce576120ce61251d565b9060005260206000200154905080600883815481106120ef576120ef61251d565b60009182526020808320909101929092558281526009909152604080822084905585825281205560088054806121275761212761285b565b6001900381819060005260206000200160009055905550505050565b600061214e83610baa565b73ffffffffffffffffffffffffffffffffffffffff9093166000908152600660209081526040808320868452825280832085905593825260079052919091209190915550565b7fffffffff0000000000000000000000000000000000000000000000000000000081168114610a1c57600080fd5b6000602082840312156121d457600080fd5b81356121df81612194565b9392505050565b60005b838110156122015781810151838201526020016121e9565b83811115610f4e5750506000910152565b6000815180845261222a8160208601602086016121e6565b601f017fffffffffffffffffffffffffffffffffffffffffffffffffffffffffffffffe0169290920160200192915050565b6020815260006121df6020830184612212565b60006020828403121561228157600080fd5b5035919050565b803573ffffffffffffffffffffffffffffffffffffffff811681146122ac57600080fd5b919050565b600080604083850312156122c457600080fd5b6122cd83612288565b946020939093013593505050565b6000806000606084860312156122f057600080fd5b6122f984612288565b925061230760208501612288565b9150604084013590509250925092565b60006020828403121561232957600080fd5b6121df82612288565b6000806040838503121561234557600080fd5b61234e83612288565b91506020830135801515811461236357600080fd5b809150509250929050565b7f4e487b7100000000000000000000000000000000000000000000000000000000600052604160045260246000fd5b600080600080608085870312156123b357600080fd5b6123bc85612288565b93506123ca60208601612288565b925060408501359150606085013567ffffffffffffffff808211156123ee57600080fd5b818701915087601f83011261240257600080fd5b8135818111156124145761241461236e565b604051601f82017fffffffffffffffffffffffffffffffffffffffffffffffffffffffffffffffe0908116603f0116810190838211818310171561245a5761245a61236e565b816040528281528a602084870101111561247357600080fd5b82602086016020830137600060208483010152809550505050505092959194509250565b600080604083850312156124aa57600080fd5b6124b383612288565b91506124c160208401612288565b90509250929050565b600181811c908216806124de57607f821691505b602082108103612517577f4e487b7100000000000000000000000000000000000000000000000000000000600052602260045260246000fd5b50919050565b7f4e487b7100000000000000000000000000000000000000000000000000000000600052603260045260246000fd5b6000815161255e8185602086016121e6565b9290920192915050565b7f697066733a2f2f000000000000000000000000000000000000000000000000008152600060076000855481600182811c9150808316806125aa57607f831692505b602080841082036125e2577f4e487b710000000000000000000000000000000000000000000000000000000086526022600452602486fd5b8180156125f657600181146126295761265a565b7fffffffffffffffffffffffffffffffffffffffffffffffffffffffffffffff008616888b015287858b0101965061265a565b60008c81526020902060005b868110156126505781548c82018b0152908501908301612635565b505087858b010196505b5050505050506126c2612699612693837f2f00000000000000000000000000000000000000000000000000000000000000815260010190565b8761254c565b7f2e6a736f6e000000000000000000000000000000000000000000000000000000815260050190565b9695505050505050565b7f4e487b7100000000000000000000000000000000000000000000000000000000600052601160045260246000fd5b60007fffffffffffffffffffffffffffffffffffffffffffffffffffffffffffffffff820361272c5761272c6126cc565b5060010190565b600082612769577f4e487b7100000000000000000000000000000000000000000000000000000000600052601260045260246000fd5b500490565b600082821015612780576127806126cc565b500390565b6000817fffffffffffffffffffffffffffffffffffffffffffffffffffffffffffffffff04831182151516156127bd576127bd6126cc565b500290565b600060ff821660ff84168060ff038211156127df576127df6126cc565b019392505050565b600082198211156127fa576127fa6126cc565b500190565b600073ffffffffffffffffffffffffffffffffffffffff8087168352808616602084015250836040830152608060608301526126c26080830184612212565b60006020828403121561285057600080fd5b81516121df81612194565b7f4e487b7100000000000000000000000000000000000000000000000000000000600052603160045260246000fdfea264697066735822122046ce829a6acbb34ac44837e4165f8be46e37e1c818e39206b189a60738c6885564736f6c634300080d0033",
  "immutableReferences": {},
  "source": "// contracts/Channel.sol\r\n// SPDX-License-Identifier: MIT\r\npragma solidity 0.8.13;\r\n\r\nimport \"@openzeppelin/contracts/token/ERC721/extensions/ERC721Enumerable.sol\";\r\nimport \"@openzeppelin/contracts/access/Ownable.sol\";\r\n// import \"./util/console.sol\";\r\n\r\ncontract Channel is ERC721Enumerable, Ownable {\r\n\r\n    string private _ipfsCid;\r\n\r\n    uint256 private _mintFee;\r\n\r\n    uint256 private _maxTokenId;\r\n\r\n    constructor(string memory name, string memory symbol, string memory ipfsCid, uint256 mintFee, uint256 maxTokenId) ERC721(name, symbol) {\r\n        _mintFee = mintFee;\r\n        _maxTokenId = maxTokenId;\r\n        _ipfsCid = ipfsCid;\r\n    }\r\n\r\n    function mint(uint256 tokenId) public payable {\r\n\r\n        /**\r\n        Checks\r\n         */\r\n\r\n        //Validate tokenId is in range\r\n        require(tokenId > 0 && tokenId <= _maxTokenId, \"Invalid token\");\r\n\r\n        //Make sure this one hasn't been minted\r\n        require(_exists(tokenId) == false, \"Exists\");\r\n\r\n        //Validate we have enough ETH. \r\n        require(msg.value == _mintFee, \"Send exact ETH\");\r\n\r\n        //Mint\r\n        _safeMint(_msgSender(), tokenId, \"\");\r\n\r\n    }\r\n\r\n    function tokenURI(uint256 tokenId) public view virtual override returns (string memory) {\r\n        \r\n        require(_exists(tokenId), \"ERC721Metadata: URI query for nonexistent token\");\r\n\r\n        return string(abi.encodePacked(\"ipfs://\", _ipfsCid, \"/\", uint2str(tokenId), \".json\"));\r\n    \r\n    }\r\n\r\n\r\n    function withdraw() public payable onlyOwner {\r\n\r\n        (bool success, ) = payable(msg.sender).call{value: address(this).balance}(\"\");\r\n        require(success);\r\n\r\n    }\r\n\r\n\r\n\r\n    function uint2str(uint _i) public pure returns (string memory _uintAsString) {\r\n        if (_i == 0) {\r\n            return \"0\";\r\n        }\r\n        uint j = _i;\r\n        uint len;\r\n        while (j != 0) {\r\n            len++;\r\n            j /= 10;\r\n        }\r\n        bytes memory bstr = new bytes(len);\r\n        uint k = len;\r\n        while (_i != 0) {\r\n            k = k-1;\r\n            uint8 temp = (48 + uint8(_i - _i / 10 * 10));\r\n            bytes1 b1 = bytes1(temp);\r\n            bstr[k] = b1;\r\n            _i /= 10;\r\n        }\r\n        return string(bstr);\r\n    }\r\n\r\n\r\n\r\n}",
  "sourcePath": "C:\\Users\\13309\\repos\\large\\contracts\\Channel.sol",
  "compiler": {
    "name": "solc",
    "version": "0.8.13+commit.abaa5c0e.Emscripten.clang"
  },
  "schemaVersion": "3.4.3",
  "updatedAt": "2022-03-22T10:05:06.888Z",
  "devdoc": {
    "kind": "dev",
    "methods": {
      "approve(address,uint256)": {
        "details": "See {IERC721-approve}."
      },
      "balanceOf(address)": {
        "details": "See {IERC721-balanceOf}."
      },
      "getApproved(uint256)": {
        "details": "See {IERC721-getApproved}."
      },
      "isApprovedForAll(address,address)": {
        "details": "See {IERC721-isApprovedForAll}."
      },
      "name()": {
        "details": "See {IERC721Metadata-name}."
      },
      "owner()": {
        "details": "Returns the address of the current owner."
      },
      "ownerOf(uint256)": {
        "details": "See {IERC721-ownerOf}."
      },
      "renounceOwnership()": {
        "details": "Leaves the contract without owner. It will not be possible to call `onlyOwner` functions anymore. Can only be called by the current owner. NOTE: Renouncing ownership will leave the contract without an owner, thereby removing any functionality that is only available to the owner."
      },
      "safeTransferFrom(address,address,uint256)": {
        "details": "See {IERC721-safeTransferFrom}."
      },
      "safeTransferFrom(address,address,uint256,bytes)": {
        "details": "See {IERC721-safeTransferFrom}."
      },
      "setApprovalForAll(address,bool)": {
        "details": "See {IERC721-setApprovalForAll}."
      },
      "supportsInterface(bytes4)": {
        "details": "See {IERC165-supportsInterface}."
      },
      "symbol()": {
        "details": "See {IERC721Metadata-symbol}."
      },
      "tokenByIndex(uint256)": {
        "details": "See {IERC721Enumerable-tokenByIndex}."
      },
      "tokenOfOwnerByIndex(address,uint256)": {
        "details": "See {IERC721Enumerable-tokenOfOwnerByIndex}."
      },
      "tokenURI(uint256)": {
        "details": "See {IERC721Metadata-tokenURI}."
      },
      "totalSupply()": {
        "details": "See {IERC721Enumerable-totalSupply}."
      },
      "transferFrom(address,address,uint256)": {
        "details": "See {IERC721-transferFrom}."
      },
      "transferOwnership(address)": {
        "details": "Transfers ownership of the contract to a new account (`newOwner`). Can only be called by the current owner."
      }
    },
    "version": 1
  },
  "userdoc": {
    "kind": "user",
    "methods": {},
    "version": 1
  }
}