{
  "contractName": "Channel",
  "abi": [
    {
      "inputs": [
        {
          "internalType": "string",
          "name": "name",
          "type": "string"
        },
        {
          "internalType": "string",
          "name": "symbol",
          "type": "string"
        },
        {
          "internalType": "string",
          "name": "ipfsCid",
          "type": "string"
        },
        {
          "internalType": "uint256",
          "name": "mintFee",
          "type": "uint256"
        },
        {
          "internalType": "uint256",
          "name": "maxTokenId",
          "type": "uint256"
        }
      ],
      "stateMutability": "nonpayable",
      "type": "constructor"
    },
    {
      "inputs": [],
      "name": "ApprovalCallerNotOwnerNorApproved",
      "type": "error"
    },
    {
      "inputs": [],
      "name": "ApprovalQueryForNonexistentToken",
      "type": "error"
    },
    {
      "inputs": [],
      "name": "ApprovalToCurrentOwner",
      "type": "error"
    },
    {
      "inputs": [],
      "name": "ApproveToCaller",
      "type": "error"
    },
    {
      "inputs": [],
      "name": "BalanceQueryForZeroAddress",
      "type": "error"
    },
    {
      "inputs": [],
      "name": "MintToZeroAddress",
      "type": "error"
    },
    {
      "inputs": [],
      "name": "MintZeroQuantity",
      "type": "error"
    },
    {
      "inputs": [],
      "name": "OwnerQueryForNonexistentToken",
      "type": "error"
    },
    {
      "inputs": [],
      "name": "TransferCallerNotOwnerNorApproved",
      "type": "error"
    },
    {
      "inputs": [],
      "name": "TransferFromIncorrectOwner",
      "type": "error"
    },
    {
      "inputs": [],
      "name": "TransferToNonERC721ReceiverImplementer",
      "type": "error"
    },
    {
      "inputs": [],
      "name": "TransferToZeroAddress",
      "type": "error"
    },
    {
      "inputs": [],
      "name": "URIQueryForNonexistentToken",
      "type": "error"
    },
    {
      "anonymous": false,
      "inputs": [
        {
          "indexed": true,
          "internalType": "address",
          "name": "owner",
          "type": "address"
        },
        {
          "indexed": true,
          "internalType": "address",
          "name": "approved",
          "type": "address"
        },
        {
          "indexed": true,
          "internalType": "uint256",
          "name": "tokenId",
          "type": "uint256"
        }
      ],
      "name": "Approval",
      "type": "event"
    },
    {
      "anonymous": false,
      "inputs": [
        {
          "indexed": true,
          "internalType": "address",
          "name": "owner",
          "type": "address"
        },
        {
          "indexed": true,
          "internalType": "address",
          "name": "operator",
          "type": "address"
        },
        {
          "indexed": false,
          "internalType": "bool",
          "name": "approved",
          "type": "bool"
        }
      ],
      "name": "ApprovalForAll",
      "type": "event"
    },
    {
      "anonymous": false,
      "inputs": [
        {
          "indexed": true,
          "internalType": "address",
          "name": "previousOwner",
          "type": "address"
        },
        {
          "indexed": true,
          "internalType": "address",
          "name": "newOwner",
          "type": "address"
        }
      ],
      "name": "OwnershipTransferred",
      "type": "event"
    },
    {
      "anonymous": false,
      "inputs": [
        {
          "indexed": true,
          "internalType": "address",
          "name": "from",
          "type": "address"
        },
        {
          "indexed": true,
          "internalType": "address",
          "name": "to",
          "type": "address"
        },
        {
          "indexed": true,
          "internalType": "uint256",
          "name": "tokenId",
          "type": "uint256"
        }
      ],
      "name": "Transfer",
      "type": "event"
    },
    {
      "inputs": [],
      "name": "MAX_MINT_AMOUNT",
      "outputs": [
        {
          "internalType": "uint256",
          "name": "",
          "type": "uint256"
        }
      ],
      "stateMutability": "view",
      "type": "function"
    },
    {
      "inputs": [
        {
          "internalType": "address",
          "name": "to",
          "type": "address"
        },
        {
          "internalType": "uint256",
          "name": "tokenId",
          "type": "uint256"
        }
      ],
      "name": "approve",
      "outputs": [],
      "stateMutability": "nonpayable",
      "type": "function"
    },
    {
      "inputs": [
        {
          "internalType": "address",
          "name": "owner",
          "type": "address"
        }
      ],
      "name": "balanceOf",
      "outputs": [
        {
          "internalType": "uint256",
          "name": "",
          "type": "uint256"
        }
      ],
      "stateMutability": "view",
      "type": "function"
    },
    {
      "inputs": [
        {
          "internalType": "uint256",
          "name": "tokenId",
          "type": "uint256"
        }
      ],
      "name": "getApproved",
      "outputs": [
        {
          "internalType": "address",
          "name": "",
          "type": "address"
        }
      ],
      "stateMutability": "view",
      "type": "function"
    },
    {
      "inputs": [
        {
          "internalType": "address",
          "name": "owner",
          "type": "address"
        },
        {
          "internalType": "address",
          "name": "operator",
          "type": "address"
        }
      ],
      "name": "isApprovedForAll",
      "outputs": [
        {
          "internalType": "bool",
          "name": "",
          "type": "bool"
        }
      ],
      "stateMutability": "view",
      "type": "function"
    },
    {
      "inputs": [],
      "name": "name",
      "outputs": [
        {
          "internalType": "string",
          "name": "",
          "type": "string"
        }
      ],
      "stateMutability": "view",
      "type": "function"
    },
    {
      "inputs": [],
      "name": "owner",
      "outputs": [
        {
          "internalType": "address",
          "name": "",
          "type": "address"
        }
      ],
      "stateMutability": "view",
      "type": "function"
    },
    {
      "inputs": [
        {
          "internalType": "uint256",
          "name": "tokenId",
          "type": "uint256"
        }
      ],
      "name": "ownerOf",
      "outputs": [
        {
          "internalType": "address",
          "name": "",
          "type": "address"
        }
      ],
      "stateMutability": "view",
      "type": "function"
    },
    {
      "inputs": [],
      "name": "renounceOwnership",
      "outputs": [],
      "stateMutability": "nonpayable",
      "type": "function"
    },
    {
      "inputs": [
        {
          "internalType": "address",
          "name": "from",
          "type": "address"
        },
        {
          "internalType": "address",
          "name": "to",
          "type": "address"
        },
        {
          "internalType": "uint256",
          "name": "tokenId",
          "type": "uint256"
        }
      ],
      "name": "safeTransferFrom",
      "outputs": [],
      "stateMutability": "nonpayable",
      "type": "function"
    },
    {
      "inputs": [
        {
          "internalType": "address",
          "name": "from",
          "type": "address"
        },
        {
          "internalType": "address",
          "name": "to",
          "type": "address"
        },
        {
          "internalType": "uint256",
          "name": "tokenId",
          "type": "uint256"
        },
        {
          "internalType": "bytes",
          "name": "_data",
          "type": "bytes"
        }
      ],
      "name": "safeTransferFrom",
      "outputs": [],
      "stateMutability": "nonpayable",
      "type": "function"
    },
    {
      "inputs": [
        {
          "internalType": "address",
          "name": "operator",
          "type": "address"
        },
        {
          "internalType": "bool",
          "name": "approved",
          "type": "bool"
        }
      ],
      "name": "setApprovalForAll",
      "outputs": [],
      "stateMutability": "nonpayable",
      "type": "function"
    },
    {
      "inputs": [
        {
          "internalType": "bytes4",
          "name": "interfaceId",
          "type": "bytes4"
        }
      ],
      "name": "supportsInterface",
      "outputs": [
        {
          "internalType": "bool",
          "name": "",
          "type": "bool"
        }
      ],
      "stateMutability": "view",
      "type": "function"
    },
    {
      "inputs": [],
      "name": "symbol",
      "outputs": [
        {
          "internalType": "string",
          "name": "",
          "type": "string"
        }
      ],
      "stateMutability": "view",
      "type": "function"
    },
    {
      "inputs": [],
      "name": "totalSupply",
      "outputs": [
        {
          "internalType": "uint256",
          "name": "",
          "type": "uint256"
        }
      ],
      "stateMutability": "view",
      "type": "function"
    },
    {
      "inputs": [
        {
          "internalType": "address",
          "name": "from",
          "type": "address"
        },
        {
          "internalType": "address",
          "name": "to",
          "type": "address"
        },
        {
          "internalType": "uint256",
          "name": "tokenId",
          "type": "uint256"
        }
      ],
      "name": "transferFrom",
      "outputs": [],
      "stateMutability": "nonpayable",
      "type": "function"
    },
    {
      "inputs": [
        {
          "internalType": "address",
          "name": "newOwner",
          "type": "address"
        }
      ],
      "name": "transferOwnership",
      "outputs": [],
      "stateMutability": "nonpayable",
      "type": "function"
    },
    {
      "inputs": [
        {
          "internalType": "uint256",
          "name": "quantity",
          "type": "uint256"
        }
      ],
      "name": "mint",
      "outputs": [],
      "stateMutability": "payable",
      "type": "function"
    },
    {
      "inputs": [
        {
          "internalType": "uint256",
          "name": "tokenId",
          "type": "uint256"
        }
      ],
      "name": "tokenURI",
      "outputs": [
        {
          "internalType": "string",
          "name": "",
          "type": "string"
        }
      ],
      "stateMutability": "view",
      "type": "function"
    },
    {
      "inputs": [],
      "name": "withdraw",
      "outputs": [],
      "stateMutability": "payable",
      "type": "function"
    },
    {
      "inputs": [],
      "name": "totalMinted",
      "outputs": [
        {
          "internalType": "uint256",
          "name": "",
          "type": "uint256"
        }
      ],
      "stateMutability": "view",
      "type": "function"
    },
    {
      "inputs": [
        {
          "internalType": "uint256",
          "name": "_i",
          "type": "uint256"
        }
      ],
      "name": "uint2str",
      "outputs": [
        {
          "internalType": "string",
          "name": "_uintAsString",
          "type": "string"
        }
      ],
      "stateMutability": "pure",
      "type": "function"
    }
  ],
  "bytecode": "0x6080604052600a600c553480156200001657600080fd5b50604051620025193803806200251983398101604081905262000039916200026b565b84518590859062000052906002906020850190620000f8565b50805162000068906003906020840190620000f8565b50506001600055506200007b33620000a6565b600a829055600b81905582516200009a906009906020860190620000f8565b5050505050506200034b565b600880546001600160a01b038381166001600160a01b0319831681179093556040519116919082907f8be0079c531659141344cd1fd0a4f28419497f9722a3daafe3b4186f6b6457e090600090a35050565b82805462000106906200030f565b90600052602060002090601f0160209004810192826200012a576000855562000175565b82601f106200014557805160ff191683800117855562000175565b8280016001018555821562000175579182015b828111156200017557825182559160200191906001019062000158565b506200018392915062000187565b5090565b5b8082111562000183576000815560010162000188565b634e487b7160e01b600052604160045260246000fd5b600082601f830112620001c657600080fd5b81516001600160401b0380821115620001e357620001e36200019e565b604051601f8301601f19908116603f011681019082821181831017156200020e576200020e6200019e565b816040528381526020925086838588010111156200022b57600080fd5b600091505b838210156200024f578582018301518183018401529082019062000230565b83821115620002615760008385830101525b9695505050505050565b600080600080600060a086880312156200028457600080fd5b85516001600160401b03808211156200029c57600080fd5b620002aa89838a01620001b4565b96506020880151915080821115620002c157600080fd5b620002cf89838a01620001b4565b95506040880151915080821115620002e657600080fd5b50620002f588828901620001b4565b606088015160809098015196999598509695949350505050565b600181811c908216806200032457607f821691505b6020821081036200034557634e487b7160e01b600052602260045260246000fd5b50919050565b6121be806200035b6000396000f3fe6080604052600436106101755760003560e01c80638da5cb5b116100cb578063b88d4fde1161007f578063f2fde38b11610059578063f2fde38b1461045a578063f76f950e1461047a578063fa9b70181461049a57600080fd5b8063b88d4fde146103c4578063c87b56dd146103e4578063e985e9c51461040457600080fd5b8063a0712d68116100b0578063a0712d681461035a578063a22cb4651461036d578063a2309ff81461038d57600080fd5b80638da5cb5b1461031a57806395d89b411461034557600080fd5b806323b872dd1161012d5780636352211e116101075780636352211e146102c557806370a08231146102e5578063715018a61461030557600080fd5b806323b872dd1461027d5780633ccfd60b1461029d57806342842e0e146102a557600080fd5b8063081812fc1161015e578063081812fc146101d1578063095ea7b31461021657806318160ddd1461023857600080fd5b806301ffc9a71461017a57806306fdde03146101af575b600080fd5b34801561018657600080fd5b5061019a610195366004611aef565b6104b0565b60405190151581526020015b60405180910390f35b3480156101bb57600080fd5b506101c4610595565b6040516101a69190611b89565b3480156101dd57600080fd5b506101f16101ec366004611b9c565b610627565b60405173ffffffffffffffffffffffffffffffffffffffff90911681526020016101a6565b34801561022257600080fd5b50610236610231366004611bde565b610691565b005b34801561024457600080fd5b50600154600054037fffffffffffffffffffffffffffffffffffffffffffffffffffffffffffffffff015b6040519081526020016101a6565b34801561028957600080fd5b50610236610298366004611c08565b610770565b61023661077b565b3480156102b157600080fd5b506102366102c0366004611c08565b610859565b3480156102d157600080fd5b506101f16102e0366004611b9c565b610874565b3480156102f157600080fd5b5061026f610300366004611c44565b610886565b34801561031157600080fd5b50610236610908565b34801561032657600080fd5b5060085473ffffffffffffffffffffffffffffffffffffffff166101f1565b34801561035157600080fd5b506101c4610995565b610236610368366004611b9c565b6109a4565b34801561037957600080fd5b50610236610388366004611c5f565b610b94565b34801561039957600080fd5b506000547fffffffffffffffffffffffffffffffffffffffffffffffffffffffffffffffff0161026f565b3480156103d057600080fd5b506102366103df366004611cca565b610c7a565b3480156103f057600080fd5b506101c46103ff366004611b9c565b610cea565b34801561041057600080fd5b5061019a61041f366004611dc4565b73ffffffffffffffffffffffffffffffffffffffff918216600090815260076020908152604080832093909416825291909152205460ff1690565b34801561046657600080fd5b50610236610475366004611c44565b610db3565b34801561048657600080fd5b506101c4610495366004611b9c565b610ee0565b3480156104a657600080fd5b5061026f600c5481565b60007fffffffff0000000000000000000000000000000000000000000000000000000082167f80ac58cd00000000000000000000000000000000000000000000000000000000148061054357507fffffffff0000000000000000000000000000000000000000000000000000000082167f5b5e139f00000000000000000000000000000000000000000000000000000000145b8061058f57507f01ffc9a7000000000000000000000000000000000000000000000000000000007fffffffff000000000000000000000000000000000000000000000000000000008316145b92915050565b6060600280546105a490611df7565b80601f01602080910402602001604051908101604052809291908181526020018280546105d090611df7565b801561061d5780601f106105f25761010080835404028352916020019161061d565b820191906000526020600020905b81548152906001019060200180831161060057829003601f168201915b5050505050905090565b600061063282611040565b610668576040517fcf4700e400000000000000000000000000000000000000000000000000000000815260040160405180910390fd5b5060009081526006602052604090205473ffffffffffffffffffffffffffffffffffffffff1690565b600061069c82610874565b90508073ffffffffffffffffffffffffffffffffffffffff168373ffffffffffffffffffffffffffffffffffffffff1603610703576040517f943f7b8c00000000000000000000000000000000000000000000000000000000815260040160405180910390fd5b3373ffffffffffffffffffffffffffffffffffffffff8216146107605761072a813361041f565b610760576040517fcfb3b94200000000000000000000000000000000000000000000000000000000815260040160405180910390fd5b61076b838383611092565b505050565b61076b838383611113565b60085473ffffffffffffffffffffffffffffffffffffffff163314610801576040517f08c379a000000000000000000000000000000000000000000000000000000000815260206004820181905260248201527f4f776e61626c653a2063616c6c6572206973206e6f7420746865206f776e657260448201526064015b60405180910390fd5b604051600090339047908381818185875af1925050503d8060008114610843576040519150601f19603f3d011682016040523d82523d6000602084013e610848565b606091505b505090508061085657600080fd5b50565b61076b83838360405180602001604052806000815250610c7a565b600061087f8261144a565b5192915050565b600073ffffffffffffffffffffffffffffffffffffffff82166108d5576040517f8f4eb60400000000000000000000000000000000000000000000000000000000815260040160405180910390fd5b5073ffffffffffffffffffffffffffffffffffffffff1660009081526005602052604090205467ffffffffffffffff1690565b60085473ffffffffffffffffffffffffffffffffffffffff163314610989576040517f08c379a000000000000000000000000000000000000000000000000000000000815260206004820181905260248201527f4f776e61626c653a2063616c6c6572206973206e6f7420746865206f776e657260448201526064016107f8565b6109936000611620565b565b6060600380546105a490611df7565b6000547fffffffffffffffffffffffffffffffffffffffffffffffffffffffffffffffff0181610a30576040517f08c379a000000000000000000000000000000000000000000000000000000000815260206004820152600760248201527f546f6f206665770000000000000000000000000000000000000000000000000060448201526064016107f8565b600c54821115610a9c576040517f08c379a000000000000000000000000000000000000000000000000000000000815260206004820152600860248201527f546f6f206d616e7900000000000000000000000000000000000000000000000060448201526064016107f8565b600b54610aa98383611e79565b1115610b11576040517f08c379a000000000000000000000000000000000000000000000000000000000815260206004820152600e60248201527f4d696e74696e6720636c6f73656400000000000000000000000000000000000060448201526064016107f8565b600a54610b1e9083611e91565b3414610b86576040517f08c379a000000000000000000000000000000000000000000000000000000000815260206004820152600e60248201527f53656e642065786163742045544800000000000000000000000000000000000060448201526064016107f8565b610b903383611697565b5050565b3373ffffffffffffffffffffffffffffffffffffffff831603610be3576040517fb06307db00000000000000000000000000000000000000000000000000000000815260040160405180910390fd5b33600081815260076020908152604080832073ffffffffffffffffffffffffffffffffffffffff87168085529083529281902080547fffffffffffffffffffffffffffffffffffffffffffffffffffffffffffffff001686151590811790915590519081529192917f17307eab39ab6107e8899845ad3d59bd9653f200f220920489ca2b5937696c31910160405180910390a35050565b610c85848484611113565b73ffffffffffffffffffffffffffffffffffffffff83163b15610ce457610cae848484846116b1565b610ce4576040517fd1a57ed600000000000000000000000000000000000000000000000000000000815260040160405180910390fd5b50505050565b6060610cf582611040565b610d81576040517f08c379a000000000000000000000000000000000000000000000000000000000815260206004820152602f60248201527f4552433732314d657461646174613a2055524920717565727920666f72206e6f60448201527f6e6578697374656e7420746f6b656e000000000000000000000000000000000060648201526084016107f8565b6009610d8c83610ee0565b604051602001610d9d929190611eea565b6040516020818303038152906040529050919050565b60085473ffffffffffffffffffffffffffffffffffffffff163314610e34576040517f08c379a000000000000000000000000000000000000000000000000000000000815260206004820181905260248201527f4f776e61626c653a2063616c6c6572206973206e6f7420746865206f776e657260448201526064016107f8565b73ffffffffffffffffffffffffffffffffffffffff8116610ed7576040517f08c379a000000000000000000000000000000000000000000000000000000000815260206004820152602660248201527f4f776e61626c653a206e6577206f776e657220697320746865207a65726f206160448201527f646472657373000000000000000000000000000000000000000000000000000060648201526084016107f8565b61085681611620565b606081600003610f2357505060408051808201909152600181527f3000000000000000000000000000000000000000000000000000000000000000602082015290565b8160005b8115610f4d5780610f378161204e565b9150610f469050600a83612086565b9150610f27565b60008167ffffffffffffffff811115610f6857610f68611c9b565b6040519080825280601f01601f191660200182016040528015610f92576020820181803683370190505b509050815b851561103757610fa86001826120c1565b90506000610fb7600a88612086565b610fc290600a611e91565b610fcc90886120c1565b610fd79060306120d8565b905060008160f81b905080848481518110610ff457610ff46120fd565b60200101907effffffffffffffffffffffffffffffffffffffffffffffffffffffffffffff1916908160001a90535061102e600a89612086565b97505050610f97565b50949350505050565b600081600111158015611054575060005482105b801561058f5750506000908152600460205260409020547c0100000000000000000000000000000000000000000000000000000000900460ff161590565b60008281526006602052604080822080547fffffffffffffffffffffffff00000000000000000000000000000000000000001673ffffffffffffffffffffffffffffffffffffffff87811691821790925591518593918516917f8c5be1e5ebec7d5bd14f71427d1e84f3dd0314c0f7b2291e5b200ac8c7c3b92591a4505050565b600061111e8261144a565b90508373ffffffffffffffffffffffffffffffffffffffff16816000015173ffffffffffffffffffffffffffffffffffffffff1614611189576040517fa114810000000000000000000000000000000000000000000000000000000000815260040160405180910390fd5b60003373ffffffffffffffffffffffffffffffffffffffff861614806111b457506111b4853361041f565b806111dc5750336111c484610627565b73ffffffffffffffffffffffffffffffffffffffff16145b905080611215576040517f59c896be00000000000000000000000000000000000000000000000000000000815260040160405180910390fd5b73ffffffffffffffffffffffffffffffffffffffff8416611262576040517fea553b3400000000000000000000000000000000000000000000000000000000815260040160405180910390fd5b61126e60008487611092565b73ffffffffffffffffffffffffffffffffffffffff858116600090815260056020908152604080832080547fffffffffffffffffffffffffffffffffffffffffffffffff000000000000000080821667ffffffffffffffff9283167fffffffffffffffffffffffffffffffffffffffffffffffffffffffffffffffff01831617909255898616808652838620805493841693831660019081018416949094179055898652600490945282852080547fffffffff000000000000000000000000000000000000000000000000000000001690941774010000000000000000000000000000000000000000429092169190910217835587018084529220805491939091166113e55760005482146113e5578054602086015167ffffffffffffffff1674010000000000000000000000000000000000000000027fffffffff0000000000000000000000000000000000000000000000000000000090911673ffffffffffffffffffffffffffffffffffffffff8a16171781555b505050828473ffffffffffffffffffffffffffffffffffffffff168673ffffffffffffffffffffffffffffffffffffffff167fddf252ad1be2c89b69c2b068fc378daa952ba7f163c4a11628f55a4df523b3ef60405160405180910390a45050505050565b604080516060810182526000808252602082018190529181019190915281806001116115ee576000548110156115ee576000818152600460209081526040918290208251606081018452905473ffffffffffffffffffffffffffffffffffffffff8116825274010000000000000000000000000000000000000000810467ffffffffffffffff16928201929092527c010000000000000000000000000000000000000000000000000000000090910460ff161515918101829052906115ec57805173ffffffffffffffffffffffffffffffffffffffff161561152d579392505050565b507fffffffffffffffffffffffffffffffffffffffffffffffffffffffffffffffff016000818152600460209081526040918290208251606081018452905473ffffffffffffffffffffffffffffffffffffffff811680835274010000000000000000000000000000000000000000820467ffffffffffffffff16938301939093527c0100000000000000000000000000000000000000000000000000000000900460ff16151592810192909252156115e7579392505050565b61152d565b505b6040517fdf2d9b4200000000000000000000000000000000000000000000000000000000815260040160405180910390fd5b6008805473ffffffffffffffffffffffffffffffffffffffff8381167fffffffffffffffffffffffff0000000000000000000000000000000000000000831681179093556040519116919082907f8be0079c531659141344cd1fd0a4f28419497f9722a3daafe3b4186f6b6457e090600090a35050565b610b9082826040518060200160405280600081525061182a565b6040517f150b7a0200000000000000000000000000000000000000000000000000000000815260009073ffffffffffffffffffffffffffffffffffffffff85169063150b7a029061170c90339089908890889060040161212c565b6020604051808303816000875af1925050508015611765575060408051601f3d9081017fffffffffffffffffffffffffffffffffffffffffffffffffffffffffffffffe01682019092526117629181019061216b565b60015b6117dc573d808015611793576040519150601f19603f3d011682016040523d82523d6000602084013e611798565b606091505b5080516000036117d4576040517fd1a57ed600000000000000000000000000000000000000000000000000000000815260040160405180910390fd5b805181602001fd5b7fffffffff00000000000000000000000000000000000000000000000000000000167f150b7a0200000000000000000000000000000000000000000000000000000000149050949350505050565b60005473ffffffffffffffffffffffffffffffffffffffff841661187a576040517f2e07630000000000000000000000000000000000000000000000000000000000815260040160405180910390fd5b826000036118b4576040517fb562e8dd00000000000000000000000000000000000000000000000000000000815260040160405180910390fd5b73ffffffffffffffffffffffffffffffffffffffff8416600081815260056020908152604080832080547fffffffffffffffffffffffffffffffff00000000000000000000000000000000811667ffffffffffffffff8083168b018116918217680100000000000000007fffffffffffffffffffffffffffffffffffffffffffffffff000000000000000090941690921783900481168b01811690920217909155858452600490925290912080547fffffffff000000000000000000000000000000000000000000000000000000001683177401000000000000000000000000000000000000000042909316929092029190911790558190818501903b15611a5f575b604051829073ffffffffffffffffffffffffffffffffffffffff8816906000907fddf252ad1be2c89b69c2b068fc378daa952ba7f163c4a11628f55a4df523b3ef908290a4611a0f60008784806001019550876116b1565b611a45576040517fd1a57ed600000000000000000000000000000000000000000000000000000000815260040160405180910390fd5b8082106119b7578260005414611a5a57600080fd5b611ab1565b5b60405160018301929073ffffffffffffffffffffffffffffffffffffffff8816906000907fddf252ad1be2c89b69c2b068fc378daa952ba7f163c4a11628f55a4df523b3ef908290a4808210611a60575b506000908155610ce49085838684565b7fffffffff000000000000000000000000000000000000000000000000000000008116811461085657600080fd5b600060208284031215611b0157600080fd5b8135611b0c81611ac1565b9392505050565b60005b83811015611b2e578181015183820152602001611b16565b83811115610ce45750506000910152565b60008151808452611b57816020860160208601611b13565b601f017fffffffffffffffffffffffffffffffffffffffffffffffffffffffffffffffe0169290920160200192915050565b602081526000611b0c6020830184611b3f565b600060208284031215611bae57600080fd5b5035919050565b803573ffffffffffffffffffffffffffffffffffffffff81168114611bd957600080fd5b919050565b60008060408385031215611bf157600080fd5b611bfa83611bb5565b946020939093013593505050565b600080600060608486031215611c1d57600080fd5b611c2684611bb5565b9250611c3460208501611bb5565b9150604084013590509250925092565b600060208284031215611c5657600080fd5b611b0c82611bb5565b60008060408385031215611c7257600080fd5b611c7b83611bb5565b915060208301358015158114611c9057600080fd5b809150509250929050565b7f4e487b7100000000000000000000000000000000000000000000000000000000600052604160045260246000fd5b60008060008060808587031215611ce057600080fd5b611ce985611bb5565b9350611cf760208601611bb5565b925060408501359150606085013567ffffffffffffffff80821115611d1b57600080fd5b818701915087601f830112611d2f57600080fd5b813581811115611d4157611d41611c9b565b604051601f82017fffffffffffffffffffffffffffffffffffffffffffffffffffffffffffffffe0908116603f01168101908382118183101715611d8757611d87611c9b565b816040528281528a6020848701011115611da057600080fd5b82602086016020830137600060208483010152809550505050505092959194509250565b60008060408385031215611dd757600080fd5b611de083611bb5565b9150611dee60208401611bb5565b90509250929050565b600181811c90821680611e0b57607f821691505b602082108103611e44577f4e487b7100000000000000000000000000000000000000000000000000000000600052602260045260246000fd5b50919050565b7f4e487b7100000000000000000000000000000000000000000000000000000000600052601160045260246000fd5b60008219821115611e8c57611e8c611e4a565b500190565b6000817fffffffffffffffffffffffffffffffffffffffffffffffffffffffffffffffff0483118215151615611ec957611ec9611e4a565b500290565b60008151611ee0818560208601611b13565b9290920192915050565b7f697066733a2f2f000000000000000000000000000000000000000000000000008152600060076000855481600182811c915080831680611f2c57607f831692505b60208084108203611f64577f4e487b710000000000000000000000000000000000000000000000000000000086526022600452602486fd5b818015611f785760018114611fab57611fdc565b7fffffffffffffffffffffffffffffffffffffffffffffffffffffffffffffff008616888b015287858b01019650611fdc565b60008c81526020902060005b86811015611fd25781548c82018b0152908501908301611fb7565b505087858b010196505b50505050505061204461201b612015837f2f6d657461646174612f000000000000000000000000000000000000000000008152600a0190565b87611ece565b7f2e6a736f6e000000000000000000000000000000000000000000000000000000815260050190565b9695505050505050565b60007fffffffffffffffffffffffffffffffffffffffffffffffffffffffffffffffff820361207f5761207f611e4a565b5060010190565b6000826120bc577f4e487b7100000000000000000000000000000000000000000000000000000000600052601260045260246000fd5b500490565b6000828210156120d3576120d3611e4a565b500390565b600060ff821660ff84168060ff038211156120f5576120f5611e4a565b019392505050565b7f4e487b7100000000000000000000000000000000000000000000000000000000600052603260045260246000fd5b600073ffffffffffffffffffffffffffffffffffffffff8087168352808616602084015250836040830152608060608301526120446080830184611b3f565b60006020828403121561217d57600080fd5b8151611b0c81611ac156fea2646970667358221220d210bbcaa9b547a0396d68fe19543044d6e021ef9b9e6d313e7f3c6cb71aef4464736f6c634300080d0033",
  "immutableReferences": {},
  "source": "// contracts/Channel.sol\r\n// SPDX-License-Identifier: MIT\r\npragma solidity 0.8.13;\r\n\r\nimport \"erc721a/contracts/ERC721A.sol\";\r\n\r\nimport \"@openzeppelin/contracts/access/Ownable.sol\";\r\n\r\n// import \"./util/console.sol\";\r\n\r\ncontract Channel is ERC721A, Ownable {\r\n\r\n    string private _ipfsCid;\r\n\r\n    uint256 private _mintFee;\r\n\r\n    uint256 private _maxTokenId;\r\n\r\n    //set the maximum number an address can mint at a time\r\n    uint256 public MAX_MINT_AMOUNT = 10;\r\n\r\n\r\n    constructor(string memory name, string memory symbol, string memory ipfsCid, uint256 mintFee, uint256 maxTokenId) ERC721A(name, symbol) {\r\n        _mintFee = mintFee;\r\n        _maxTokenId = maxTokenId;\r\n        _ipfsCid = ipfsCid;\r\n    }\r\n\r\n    function _startTokenId() internal view virtual override returns (uint256) {\r\n        return 1;\r\n    }\r\n\r\n    function mint(uint256 quantity) public payable {\r\n\r\n        /**\r\n        Checks\r\n         */\r\n        uint256 minted = _totalMinted();\r\n\r\n        //No zeros\r\n        require(quantity > 0, \"Too few\");\r\n\r\n        //Enforce mint limit\r\n        require(quantity <= MAX_MINT_AMOUNT, \"Too many\");\r\n\r\n        //Don't mint past final token\r\n        require(minted + quantity <= _maxTokenId, \"Minting closed\");\r\n\r\n        //Validate we have enough ETH. \r\n        require(msg.value == quantity * _mintFee, \"Send exact ETH\");\r\n\r\n        //Mint\r\n        _safeMint(_msgSender(), quantity);\r\n\r\n    }\r\n\r\n    function tokenURI(uint256 tokenId) public view virtual override returns (string memory) {\r\n        \r\n        require(_exists(tokenId), \"ERC721Metadata: URI query for nonexistent token\");\r\n\r\n        return string(abi.encodePacked(\"ipfs://\", _ipfsCid, \"/metadata/\", uint2str(tokenId), \".json\"));\r\n    \r\n    }\r\n\r\n    function withdraw() public payable onlyOwner {\r\n\r\n        (bool success, ) = payable(msg.sender).call{value: address(this).balance}(\"\");\r\n        require(success);\r\n\r\n    }\r\n\r\n    function totalMinted() public view returns (uint256) {\r\n        return _totalMinted();\r\n    }\r\n\r\n    function uint2str(uint _i) public pure returns (string memory _uintAsString) {\r\n        if (_i == 0) {\r\n            return \"0\";\r\n        }\r\n        uint j = _i;\r\n        uint len;\r\n        while (j != 0) {\r\n            len++;\r\n            j /= 10;\r\n        }\r\n        bytes memory bstr = new bytes(len);\r\n        uint k = len;\r\n        while (_i != 0) {\r\n            k = k-1;\r\n            uint8 temp = (48 + uint8(_i - _i / 10 * 10));\r\n            bytes1 b1 = bytes1(temp);\r\n            bstr[k] = b1;\r\n            _i /= 10;\r\n        }\r\n        return string(bstr);\r\n    }\r\n\r\n}",
  "sourcePath": "C:\\Users\\13309\\repos\\large\\contracts\\Channel.sol",
  "compiler": {
    "name": "solc",
    "version": "0.8.13+commit.abaa5c0e.Emscripten.clang"
  },
  "schemaVersion": "3.4.3",
  "updatedAt": "2022-05-26T11:03:50.364Z",
  "networkType": "ethereum",
  "devdoc": {
    "kind": "dev",
    "methods": {
      "approve(address,uint256)": {
        "details": "See {IERC721-approve}."
      },
      "balanceOf(address)": {
        "details": "See {IERC721-balanceOf}."
      },
      "getApproved(uint256)": {
        "details": "See {IERC721-getApproved}."
      },
      "isApprovedForAll(address,address)": {
        "details": "See {IERC721-isApprovedForAll}."
      },
      "name()": {
        "details": "See {IERC721Metadata-name}."
      },
      "owner()": {
        "details": "Returns the address of the current owner."
      },
      "ownerOf(uint256)": {
        "details": "See {IERC721-ownerOf}."
      },
      "renounceOwnership()": {
        "details": "Leaves the contract without owner. It will not be possible to call `onlyOwner` functions anymore. Can only be called by the current owner. NOTE: Renouncing ownership will leave the contract without an owner, thereby removing any functionality that is only available to the owner."
      },
      "safeTransferFrom(address,address,uint256)": {
        "details": "See {IERC721-safeTransferFrom}."
      },
      "safeTransferFrom(address,address,uint256,bytes)": {
        "details": "See {IERC721-safeTransferFrom}."
      },
      "setApprovalForAll(address,bool)": {
        "details": "See {IERC721-setApprovalForAll}."
      },
      "supportsInterface(bytes4)": {
        "details": "See {IERC165-supportsInterface}."
      },
      "symbol()": {
        "details": "See {IERC721Metadata-symbol}."
      },
      "tokenURI(uint256)": {
        "details": "See {IERC721Metadata-tokenURI}."
      },
      "totalSupply()": {
        "details": "Burned tokens are calculated here, use _totalMinted() if you want to count just minted tokens."
      },
      "transferFrom(address,address,uint256)": {
        "details": "See {IERC721-transferFrom}."
      },
      "transferOwnership(address)": {
        "details": "Transfers ownership of the contract to a new account (`newOwner`). Can only be called by the current owner."
      }
    },
    "version": 1
  },
  "userdoc": {
    "errors": {
      "ApprovalCallerNotOwnerNorApproved()": [
        {
          "notice": "The caller must own the token or be an approved operator."
        }
      ],
      "ApprovalQueryForNonexistentToken()": [
        {
          "notice": "The token does not exist."
        }
      ],
      "ApprovalToCurrentOwner()": [
        {
          "notice": "The caller cannot approve to the current owner."
        }
      ],
      "ApproveToCaller()": [
        {
          "notice": "The caller cannot approve to their own address."
        }
      ],
      "BalanceQueryForZeroAddress()": [
        {
          "notice": "Cannot query the balance for the zero address."
        }
      ],
      "MintToZeroAddress()": [
        {
          "notice": "Cannot mint to the zero address."
        }
      ],
      "MintZeroQuantity()": [
        {
          "notice": "The quantity of tokens minted must be more than zero."
        }
      ],
      "OwnerQueryForNonexistentToken()": [
        {
          "notice": "The token does not exist."
        }
      ],
      "TransferCallerNotOwnerNorApproved()": [
        {
          "notice": "The caller must own the token or be an approved operator."
        }
      ],
      "TransferFromIncorrectOwner()": [
        {
          "notice": "The token must be owned by `from`."
        }
      ],
      "TransferToNonERC721ReceiverImplementer()": [
        {
          "notice": "Cannot safely transfer to a contract that does not implement the ERC721Receiver interface."
        }
      ],
      "TransferToZeroAddress()": [
        {
          "notice": "Cannot transfer to the zero address."
        }
      ],
      "URIQueryForNonexistentToken()": [
        {
          "notice": "The token does not exist."
        }
      ]
    },
    "kind": "user",
    "methods": {},
    "version": 1
  }
}