{
  "contractName": "Channel",
  "abi": [
    {
      "inputs": [
        {
          "internalType": "string",
          "name": "name",
          "type": "string"
        },
        {
          "internalType": "string",
          "name": "symbol",
          "type": "string"
        },
        {
          "internalType": "string",
          "name": "ipfsCid",
          "type": "string"
        },
        {
          "internalType": "uint256",
          "name": "mintFee",
          "type": "uint256"
        },
        {
          "internalType": "uint256",
          "name": "maxTokenId",
          "type": "uint256"
        }
      ],
      "stateMutability": "nonpayable",
      "type": "constructor"
    },
    {
      "inputs": [],
      "name": "ApprovalCallerNotOwnerNorApproved",
      "type": "error"
    },
    {
      "inputs": [],
      "name": "ApprovalQueryForNonexistentToken",
      "type": "error"
    },
    {
      "inputs": [],
      "name": "ApprovalToCurrentOwner",
      "type": "error"
    },
    {
      "inputs": [],
      "name": "ApproveToCaller",
      "type": "error"
    },
    {
      "inputs": [],
      "name": "BalanceQueryForZeroAddress",
      "type": "error"
    },
    {
      "inputs": [],
      "name": "MintToZeroAddress",
      "type": "error"
    },
    {
      "inputs": [],
      "name": "MintZeroQuantity",
      "type": "error"
    },
    {
      "inputs": [],
      "name": "OwnerQueryForNonexistentToken",
      "type": "error"
    },
    {
      "inputs": [],
      "name": "TransferCallerNotOwnerNorApproved",
      "type": "error"
    },
    {
      "inputs": [],
      "name": "TransferFromIncorrectOwner",
      "type": "error"
    },
    {
      "inputs": [],
      "name": "TransferToNonERC721ReceiverImplementer",
      "type": "error"
    },
    {
      "inputs": [],
      "name": "TransferToZeroAddress",
      "type": "error"
    },
    {
      "inputs": [],
      "name": "URIQueryForNonexistentToken",
      "type": "error"
    },
    {
      "anonymous": false,
      "inputs": [
        {
          "indexed": true,
          "internalType": "address",
          "name": "owner",
          "type": "address"
        },
        {
          "indexed": true,
          "internalType": "address",
          "name": "approved",
          "type": "address"
        },
        {
          "indexed": true,
          "internalType": "uint256",
          "name": "tokenId",
          "type": "uint256"
        }
      ],
      "name": "Approval",
      "type": "event"
    },
    {
      "anonymous": false,
      "inputs": [
        {
          "indexed": true,
          "internalType": "address",
          "name": "owner",
          "type": "address"
        },
        {
          "indexed": true,
          "internalType": "address",
          "name": "operator",
          "type": "address"
        },
        {
          "indexed": false,
          "internalType": "bool",
          "name": "approved",
          "type": "bool"
        }
      ],
      "name": "ApprovalForAll",
      "type": "event"
    },
    {
      "anonymous": false,
      "inputs": [
        {
          "indexed": true,
          "internalType": "address",
          "name": "previousOwner",
          "type": "address"
        },
        {
          "indexed": true,
          "internalType": "address",
          "name": "newOwner",
          "type": "address"
        }
      ],
      "name": "OwnershipTransferred",
      "type": "event"
    },
    {
      "anonymous": false,
      "inputs": [
        {
          "indexed": true,
          "internalType": "address",
          "name": "from",
          "type": "address"
        },
        {
          "indexed": true,
          "internalType": "address",
          "name": "to",
          "type": "address"
        },
        {
          "indexed": true,
          "internalType": "uint256",
          "name": "tokenId",
          "type": "uint256"
        }
      ],
      "name": "Transfer",
      "type": "event"
    },
    {
      "inputs": [],
      "name": "MAX_MINT_AMOUNT",
      "outputs": [
        {
          "internalType": "uint256",
          "name": "",
          "type": "uint256"
        }
      ],
      "stateMutability": "view",
      "type": "function"
    },
    {
      "inputs": [
        {
          "internalType": "address",
          "name": "to",
          "type": "address"
        },
        {
          "internalType": "uint256",
          "name": "tokenId",
          "type": "uint256"
        }
      ],
      "name": "approve",
      "outputs": [],
      "stateMutability": "nonpayable",
      "type": "function"
    },
    {
      "inputs": [
        {
          "internalType": "address",
          "name": "owner",
          "type": "address"
        }
      ],
      "name": "balanceOf",
      "outputs": [
        {
          "internalType": "uint256",
          "name": "",
          "type": "uint256"
        }
      ],
      "stateMutability": "view",
      "type": "function"
    },
    {
      "inputs": [
        {
          "internalType": "uint256",
          "name": "tokenId",
          "type": "uint256"
        }
      ],
      "name": "getApproved",
      "outputs": [
        {
          "internalType": "address",
          "name": "",
          "type": "address"
        }
      ],
      "stateMutability": "view",
      "type": "function"
    },
    {
      "inputs": [
        {
          "internalType": "address",
          "name": "owner",
          "type": "address"
        },
        {
          "internalType": "address",
          "name": "operator",
          "type": "address"
        }
      ],
      "name": "isApprovedForAll",
      "outputs": [
        {
          "internalType": "bool",
          "name": "",
          "type": "bool"
        }
      ],
      "stateMutability": "view",
      "type": "function"
    },
    {
      "inputs": [],
      "name": "name",
      "outputs": [
        {
          "internalType": "string",
          "name": "",
          "type": "string"
        }
      ],
      "stateMutability": "view",
      "type": "function"
    },
    {
      "inputs": [],
      "name": "owner",
      "outputs": [
        {
          "internalType": "address",
          "name": "",
          "type": "address"
        }
      ],
      "stateMutability": "view",
      "type": "function"
    },
    {
      "inputs": [
        {
          "internalType": "uint256",
          "name": "tokenId",
          "type": "uint256"
        }
      ],
      "name": "ownerOf",
      "outputs": [
        {
          "internalType": "address",
          "name": "",
          "type": "address"
        }
      ],
      "stateMutability": "view",
      "type": "function"
    },
    {
      "inputs": [],
      "name": "renounceOwnership",
      "outputs": [],
      "stateMutability": "nonpayable",
      "type": "function"
    },
    {
      "inputs": [
        {
          "internalType": "address",
          "name": "from",
          "type": "address"
        },
        {
          "internalType": "address",
          "name": "to",
          "type": "address"
        },
        {
          "internalType": "uint256",
          "name": "tokenId",
          "type": "uint256"
        }
      ],
      "name": "safeTransferFrom",
      "outputs": [],
      "stateMutability": "nonpayable",
      "type": "function"
    },
    {
      "inputs": [
        {
          "internalType": "address",
          "name": "from",
          "type": "address"
        },
        {
          "internalType": "address",
          "name": "to",
          "type": "address"
        },
        {
          "internalType": "uint256",
          "name": "tokenId",
          "type": "uint256"
        },
        {
          "internalType": "bytes",
          "name": "_data",
          "type": "bytes"
        }
      ],
      "name": "safeTransferFrom",
      "outputs": [],
      "stateMutability": "nonpayable",
      "type": "function"
    },
    {
      "inputs": [
        {
          "internalType": "address",
          "name": "operator",
          "type": "address"
        },
        {
          "internalType": "bool",
          "name": "approved",
          "type": "bool"
        }
      ],
      "name": "setApprovalForAll",
      "outputs": [],
      "stateMutability": "nonpayable",
      "type": "function"
    },
    {
      "inputs": [
        {
          "internalType": "bytes4",
          "name": "interfaceId",
          "type": "bytes4"
        }
      ],
      "name": "supportsInterface",
      "outputs": [
        {
          "internalType": "bool",
          "name": "",
          "type": "bool"
        }
      ],
      "stateMutability": "view",
      "type": "function"
    },
    {
      "inputs": [],
      "name": "symbol",
      "outputs": [
        {
          "internalType": "string",
          "name": "",
          "type": "string"
        }
      ],
      "stateMutability": "view",
      "type": "function"
    },
    {
      "inputs": [],
      "name": "totalSupply",
      "outputs": [
        {
          "internalType": "uint256",
          "name": "",
          "type": "uint256"
        }
      ],
      "stateMutability": "view",
      "type": "function"
    },
    {
      "inputs": [
        {
          "internalType": "address",
          "name": "from",
          "type": "address"
        },
        {
          "internalType": "address",
          "name": "to",
          "type": "address"
        },
        {
          "internalType": "uint256",
          "name": "tokenId",
          "type": "uint256"
        }
      ],
      "name": "transferFrom",
      "outputs": [],
      "stateMutability": "nonpayable",
      "type": "function"
    },
    {
      "inputs": [
        {
          "internalType": "address",
          "name": "newOwner",
          "type": "address"
        }
      ],
      "name": "transferOwnership",
      "outputs": [],
      "stateMutability": "nonpayable",
      "type": "function"
    },
    {
      "inputs": [
        {
          "internalType": "uint256",
          "name": "quantity",
          "type": "uint256"
        }
      ],
      "name": "mint",
      "outputs": [],
      "stateMutability": "payable",
      "type": "function"
    },
    {
      "inputs": [
        {
          "internalType": "uint256",
          "name": "quantity",
          "type": "uint256"
        },
        {
          "internalType": "uint256",
          "name": "start",
          "type": "uint256"
        }
      ],
      "name": "mintFromStartOrFail",
      "outputs": [],
      "stateMutability": "payable",
      "type": "function"
    },
    {
      "inputs": [
        {
          "internalType": "uint256",
          "name": "tokenId",
          "type": "uint256"
        }
      ],
      "name": "tokenURI",
      "outputs": [
        {
          "internalType": "string",
          "name": "",
          "type": "string"
        }
      ],
      "stateMutability": "view",
      "type": "function"
    },
    {
      "inputs": [],
      "name": "contractURI",
      "outputs": [
        {
          "internalType": "string",
          "name": "",
          "type": "string"
        }
      ],
      "stateMutability": "view",
      "type": "function"
    },
    {
      "inputs": [],
      "name": "withdraw",
      "outputs": [],
      "stateMutability": "payable",
      "type": "function"
    },
    {
      "inputs": [],
      "name": "totalMinted",
      "outputs": [
        {
          "internalType": "uint256",
          "name": "",
          "type": "uint256"
        }
      ],
      "stateMutability": "view",
      "type": "function"
    },
    {
      "inputs": [
        {
          "internalType": "uint256",
          "name": "_i",
          "type": "uint256"
        }
      ],
      "name": "uint2str",
      "outputs": [
        {
          "internalType": "string",
          "name": "_uintAsString",
          "type": "string"
        }
      ],
      "stateMutability": "pure",
      "type": "function"
    }
  ],
  "bytecode": "0x6080604052600a600c553480156200001657600080fd5b50604051620029323803806200293283398101604081905262000039916200026b565b84518590859062000052906002906020850190620000f8565b50805162000068906003906020840190620000f8565b50506001600055506200007b33620000a6565b600a829055600b81905582516200009a906009906020860190620000f8565b5050505050506200034b565b600880546001600160a01b038381166001600160a01b0319831681179093556040519116919082907f8be0079c531659141344cd1fd0a4f28419497f9722a3daafe3b4186f6b6457e090600090a35050565b82805462000106906200030f565b90600052602060002090601f0160209004810192826200012a576000855562000175565b82601f106200014557805160ff191683800117855562000175565b8280016001018555821562000175579182015b828111156200017557825182559160200191906001019062000158565b506200018392915062000187565b5090565b5b8082111562000183576000815560010162000188565b634e487b7160e01b600052604160045260246000fd5b600082601f830112620001c657600080fd5b81516001600160401b0380821115620001e357620001e36200019e565b604051601f8301601f19908116603f011681019082821181831017156200020e576200020e6200019e565b816040528381526020925086838588010111156200022b57600080fd5b600091505b838210156200024f578582018301518183018401529082019062000230565b83821115620002615760008385830101525b9695505050505050565b600080600080600060a086880312156200028457600080fd5b85516001600160401b03808211156200029c57600080fd5b620002aa89838a01620001b4565b96506020880151915080821115620002c157600080fd5b620002cf89838a01620001b4565b95506040880151915080821115620002e657600080fd5b50620002f588828901620001b4565b606088015160809098015196999598509695949350505050565b600181811c908216806200032457607f821691505b6020821081036200034557634e487b7160e01b600052602260045260246000fd5b50919050565b6125d7806200035b6000396000f3fe60806040526004361061018b5760003560e01c80638da5cb5b116100d6578063c87b56dd1161007f578063f2fde38b11610059578063f2fde38b14610498578063f76f950e146104b8578063fa9b7018146104d857600080fd5b8063c87b56dd1461040d578063e8a3d4851461042d578063e985e9c51461044257600080fd5b8063a22cb465116100b0578063a22cb46514610396578063a2309ff8146103b6578063b88d4fde146103ed57600080fd5b80638da5cb5b1461034357806395d89b411461036e578063a0712d681461038357600080fd5b80633ccfd60b1161013857806370a082311161011257806370a08231146102fb578063715018a61461031b5780637a4d892a1461033057600080fd5b80633ccfd60b146102b357806342842e0e146102bb5780636352211e146102db57600080fd5b8063095ea7b311610169578063095ea7b31461022c57806318160ddd1461024e57806323b872dd1461029357600080fd5b806301ffc9a71461019057806306fdde03146101c5578063081812fc146101e7575b600080fd5b34801561019c57600080fd5b506101b06101ab366004611e8f565b6104ee565b60405190151581526020015b60405180910390f35b3480156101d157600080fd5b506101da6105d3565b6040516101bc9190611f29565b3480156101f357600080fd5b50610207610202366004611f3c565b610665565b60405173ffffffffffffffffffffffffffffffffffffffff90911681526020016101bc565b34801561023857600080fd5b5061024c610247366004611f7e565b6106cf565b005b34801561025a57600080fd5b50600154600054037fffffffffffffffffffffffffffffffffffffffffffffffffffffffffffffffff015b6040519081526020016101bc565b34801561029f57600080fd5b5061024c6102ae366004611fa8565b6107ae565b61024c6107b9565b3480156102c757600080fd5b5061024c6102d6366004611fa8565b610897565b3480156102e757600080fd5b506102076102f6366004611f3c565b6108b2565b34801561030757600080fd5b50610285610316366004611fe4565b6108c4565b34801561032757600080fd5b5061024c610946565b61024c61033e366004611fff565b6109d3565b34801561034f57600080fd5b5060085473ffffffffffffffffffffffffffffffffffffffff16610207565b34801561037a57600080fd5b506101da610ae4565b61024c610391366004611f3c565b610af3565b3480156103a257600080fd5b5061024c6103b1366004612021565b610d2a565b3480156103c257600080fd5b506000547fffffffffffffffffffffffffffffffffffffffffffffffffffffffffffffffff01610285565b3480156103f957600080fd5b5061024c61040836600461208c565b610e10565b34801561041957600080fd5b506101da610428366004611f3c565b610e80565b34801561043957600080fd5b506101da610f49565b34801561044e57600080fd5b506101b061045d366004612186565b73ffffffffffffffffffffffffffffffffffffffff918216600090815260076020908152604080832093909416825291909152205460ff1690565b3480156104a457600080fd5b5061024c6104b3366004611fe4565b610f71565b3480156104c457600080fd5b506101da6104d3366004611f3c565b61109e565b3480156104e457600080fd5b50610285600c5481565b60007fffffffff0000000000000000000000000000000000000000000000000000000082167f80ac58cd00000000000000000000000000000000000000000000000000000000148061058157507fffffffff0000000000000000000000000000000000000000000000000000000082167f5b5e139f00000000000000000000000000000000000000000000000000000000145b806105cd57507f01ffc9a7000000000000000000000000000000000000000000000000000000007fffffffff000000000000000000000000000000000000000000000000000000008316145b92915050565b6060600280546105e2906121b9565b80601f016020809104026020016040519081016040528092919081815260200182805461060e906121b9565b801561065b5780601f106106305761010080835404028352916020019161065b565b820191906000526020600020905b81548152906001019060200180831161063e57829003601f168201915b5050505050905090565b6000610670826111fe565b6106a6576040517fcf4700e400000000000000000000000000000000000000000000000000000000815260040160405180910390fd5b5060009081526006602052604090205473ffffffffffffffffffffffffffffffffffffffff1690565b60006106da826108b2565b90508073ffffffffffffffffffffffffffffffffffffffff168373ffffffffffffffffffffffffffffffffffffffff1603610741576040517f943f7b8c00000000000000000000000000000000000000000000000000000000815260040160405180910390fd5b3373ffffffffffffffffffffffffffffffffffffffff82161461079e57610768813361045d565b61079e576040517fcfb3b94200000000000000000000000000000000000000000000000000000000815260040160405180910390fd5b6107a9838383611250565b505050565b6107a98383836112d1565b60085473ffffffffffffffffffffffffffffffffffffffff16331461083f576040517f08c379a000000000000000000000000000000000000000000000000000000000815260206004820181905260248201527f4f776e61626c653a2063616c6c6572206973206e6f7420746865206f776e657260448201526064015b60405180910390fd5b604051600090339047908381818185875af1925050503d8060008114610881576040519150601f19603f3d011682016040523d82523d6000602084013e610886565b606091505b505090508061089457600080fd5b50565b6107a983838360405180602001604052806000815250610e10565b60006108bd82611608565b5192915050565b600073ffffffffffffffffffffffffffffffffffffffff8216610913576040517f8f4eb60400000000000000000000000000000000000000000000000000000000815260040160405180910390fd5b5073ffffffffffffffffffffffffffffffffffffffff1660009081526005602052604090205467ffffffffffffffff1690565b60085473ffffffffffffffffffffffffffffffffffffffff1633146109c7576040517f08c379a000000000000000000000000000000000000000000000000000000000815260206004820181905260248201527f4f776e61626c653a2063616c6c6572206973206e6f7420746865206f776e65726044820152606401610836565b6109d160006117de565b565b6000547fffffffffffffffffffffffffffffffffffffffffffffffffffffffffffffffff0181610a5f576040517f08c379a000000000000000000000000000000000000000000000000000000000815260206004820152600f60248201527f4e6f2073746172742070617373656400000000000000000000000000000000006044820152606401610836565b610a6a81600161223b565b8214610ad2576040517f08c379a000000000000000000000000000000000000000000000000000000000815260206004820152601360248201527f546f6b656e2069732070617374207374617274000000000000000000000000006044820152606401610836565b610adb34611855565b6107a983610af3565b6060600380546105e2906121b9565b6000547fffffffffffffffffffffffffffffffffffffffffffffffffffffffffffffffff0181610b7f576040517f08c379a000000000000000000000000000000000000000000000000000000000815260206004820152600760248201527f546f6f20666577000000000000000000000000000000000000000000000000006044820152606401610836565b600c54821115610beb576040517f08c379a000000000000000000000000000000000000000000000000000000000815260206004820152600860248201527f546f6f206d616e790000000000000000000000000000000000000000000000006044820152606401610836565b600b54610bf8838361223b565b1115610c60576040517f08c379a000000000000000000000000000000000000000000000000000000000815260206004820152600e60248201527f4d696e74696e6720636c6f7365640000000000000000000000000000000000006044820152606401610836565b600a54610c6d9083612253565b3414610cd5576040517f08c379a000000000000000000000000000000000000000000000000000000000815260206004820152600e60248201527f53656e64206578616374204554480000000000000000000000000000000000006044820152606401610836565b610cde336118e6565b610ce83383611987565b610d266040518060400160405280600581526020017f68657265320000000000000000000000000000000000000000000000000000008152506119a1565b5050565b3373ffffffffffffffffffffffffffffffffffffffff831603610d79576040517fb06307db00000000000000000000000000000000000000000000000000000000815260040160405180910390fd5b33600081815260076020908152604080832073ffffffffffffffffffffffffffffffffffffffff87168085529083529281902080547fffffffffffffffffffffffffffffffffffffffffffffffffffffffffffffff001686151590811790915590519081529192917f17307eab39ab6107e8899845ad3d59bd9653f200f220920489ca2b5937696c31910160405180910390a35050565b610e1b8484846112d1565b73ffffffffffffffffffffffffffffffffffffffff83163b15610e7a57610e4484848484611a30565b610e7a576040517fd1a57ed600000000000000000000000000000000000000000000000000000000815260040160405180910390fd5b50505050565b6060610e8b826111fe565b610f17576040517f08c379a000000000000000000000000000000000000000000000000000000000815260206004820152602f60248201527f4552433732314d657461646174613a2055524920717565727920666f72206e6f60448201527f6e6578697374656e7420746f6b656e00000000000000000000000000000000006064820152608401610836565b6009610f228361109e565b604051602001610f33929190612360565b6040516020818303038152906040529050919050565b60606009604051602001610f5d91906123fe565b604051602081830303815290604052905090565b60085473ffffffffffffffffffffffffffffffffffffffff163314610ff2576040517f08c379a000000000000000000000000000000000000000000000000000000000815260206004820181905260248201527f4f776e61626c653a2063616c6c6572206973206e6f7420746865206f776e65726044820152606401610836565b73ffffffffffffffffffffffffffffffffffffffff8116611095576040517f08c379a000000000000000000000000000000000000000000000000000000000815260206004820152602660248201527f4f776e61626c653a206e6577206f776e657220697320746865207a65726f206160448201527f64647265737300000000000000000000000000000000000000000000000000006064820152608401610836565b610894816117de565b6060816000036110e157505060408051808201909152600181527f3000000000000000000000000000000000000000000000000000000000000000602082015290565b8160005b811561110b57806110f58161245d565b91506111049050600a83612495565b91506110e5565b60008167ffffffffffffffff8111156111265761112661205d565b6040519080825280601f01601f191660200182016040528015611150576020820181803683370190505b509050815b85156111f5576111666001826124d0565b90506000611175600a88612495565b61118090600a612253565b61118a90886124d0565b6111959060306124e7565b905060008160f81b9050808484815181106111b2576111b261250c565b60200101907effffffffffffffffffffffffffffffffffffffffffffffffffffffffffffff1916908160001a9053506111ec600a89612495565b97505050611155565b50949350505050565b600081600111158015611212575060005482105b80156105cd5750506000908152600460205260409020547c0100000000000000000000000000000000000000000000000000000000900460ff161590565b60008281526006602052604080822080547fffffffffffffffffffffffff00000000000000000000000000000000000000001673ffffffffffffffffffffffffffffffffffffffff87811691821790925591518593918516917f8c5be1e5ebec7d5bd14f71427d1e84f3dd0314c0f7b2291e5b200ac8c7c3b92591a4505050565b60006112dc82611608565b90508373ffffffffffffffffffffffffffffffffffffffff16816000015173ffffffffffffffffffffffffffffffffffffffff1614611347576040517fa114810000000000000000000000000000000000000000000000000000000000815260040160405180910390fd5b60003373ffffffffffffffffffffffffffffffffffffffff861614806113725750611372853361045d565b8061139a57503361138284610665565b73ffffffffffffffffffffffffffffffffffffffff16145b9050806113d3576040517f59c896be00000000000000000000000000000000000000000000000000000000815260040160405180910390fd5b73ffffffffffffffffffffffffffffffffffffffff8416611420576040517fea553b3400000000000000000000000000000000000000000000000000000000815260040160405180910390fd5b61142c60008487611250565b73ffffffffffffffffffffffffffffffffffffffff858116600090815260056020908152604080832080547fffffffffffffffffffffffffffffffffffffffffffffffff000000000000000080821667ffffffffffffffff9283167fffffffffffffffffffffffffffffffffffffffffffffffffffffffffffffffff01831617909255898616808652838620805493841693831660019081018416949094179055898652600490945282852080547fffffffff000000000000000000000000000000000000000000000000000000001690941774010000000000000000000000000000000000000000429092169190910217835587018084529220805491939091166115a35760005482146115a3578054602086015167ffffffffffffffff1674010000000000000000000000000000000000000000027fffffffff0000000000000000000000000000000000000000000000000000000090911673ffffffffffffffffffffffffffffffffffffffff8a16171781555b505050828473ffffffffffffffffffffffffffffffffffffffff168673ffffffffffffffffffffffffffffffffffffffff167fddf252ad1be2c89b69c2b068fc378daa952ba7f163c4a11628f55a4df523b3ef60405160405180910390a45050505050565b604080516060810182526000808252602082018190529181019190915281806001116117ac576000548110156117ac576000818152600460209081526040918290208251606081018452905473ffffffffffffffffffffffffffffffffffffffff8116825274010000000000000000000000000000000000000000810467ffffffffffffffff16928201929092527c010000000000000000000000000000000000000000000000000000000090910460ff161515918101829052906117aa57805173ffffffffffffffffffffffffffffffffffffffff16156116eb579392505050565b507fffffffffffffffffffffffffffffffffffffffffffffffffffffffffffffffff016000818152600460209081526040918290208251606081018452905473ffffffffffffffffffffffffffffffffffffffff811680835274010000000000000000000000000000000000000000820467ffffffffffffffff16938301939093527c0100000000000000000000000000000000000000000000000000000000900460ff16151592810192909252156117a5579392505050565b6116eb565b505b6040517fdf2d9b4200000000000000000000000000000000000000000000000000000000815260040160405180910390fd5b6008805473ffffffffffffffffffffffffffffffffffffffff8381167fffffffffffffffffffffffff0000000000000000000000000000000000000000831681179093556040519116919082907f8be0079c531659141344cd1fd0a4f28419497f9722a3daafe3b4186f6b6457e090600090a35050565b6108948160405160240161186b91815260200190565b604080517fffffffffffffffffffffffffffffffffffffffffffffffffffffffffffffffe08184030181529190526020810180517bffffffffffffffffffffffffffffffffffffffffffffffffffffffff167ff5b1bba900000000000000000000000000000000000000000000000000000000179052611ba9565b60405173ffffffffffffffffffffffffffffffffffffffff8216602482015261089490604401604080517fffffffffffffffffffffffffffffffffffffffffffffffffffffffffffffffe08184030181529190526020810180517bffffffffffffffffffffffffffffffffffffffffffffffffffffffff167f2c2ecbc200000000000000000000000000000000000000000000000000000000179052611ba9565b610d26828260405180602001604052806000815250611bca565b610894816040516024016119b59190611f29565b604080517fffffffffffffffffffffffffffffffffffffffffffffffffffffffffffffffe08184030181529190526020810180517bffffffffffffffffffffffffffffffffffffffffffffffffffffffff167f41304fac00000000000000000000000000000000000000000000000000000000179052611ba9565b6040517f150b7a0200000000000000000000000000000000000000000000000000000000815260009073ffffffffffffffffffffffffffffffffffffffff85169063150b7a0290611a8b90339089908890889060040161253b565b6020604051808303816000875af1925050508015611ae4575060408051601f3d9081017fffffffffffffffffffffffffffffffffffffffffffffffffffffffffffffffe0168201909252611ae191810190612584565b60015b611b5b573d808015611b12576040519150601f19603f3d011682016040523d82523d6000602084013e611b17565b606091505b508051600003611b53576040517fd1a57ed600000000000000000000000000000000000000000000000000000000815260040160405180910390fd5b805181602001fd5b7fffffffff00000000000000000000000000000000000000000000000000000000167f150b7a0200000000000000000000000000000000000000000000000000000000149050949350505050565b80516a636f6e736f6c652e6c6f67602083016000808483855afa5050505050565b60005473ffffffffffffffffffffffffffffffffffffffff8416611c1a576040517f2e07630000000000000000000000000000000000000000000000000000000000815260040160405180910390fd5b82600003611c54576040517fb562e8dd00000000000000000000000000000000000000000000000000000000815260040160405180910390fd5b73ffffffffffffffffffffffffffffffffffffffff8416600081815260056020908152604080832080547fffffffffffffffffffffffffffffffff00000000000000000000000000000000811667ffffffffffffffff8083168b018116918217680100000000000000007fffffffffffffffffffffffffffffffffffffffffffffffff000000000000000090941690921783900481168b01811690920217909155858452600490925290912080547fffffffff000000000000000000000000000000000000000000000000000000001683177401000000000000000000000000000000000000000042909316929092029190911790558190818501903b15611dff575b604051829073ffffffffffffffffffffffffffffffffffffffff8816906000907fddf252ad1be2c89b69c2b068fc378daa952ba7f163c4a11628f55a4df523b3ef908290a4611daf6000878480600101955087611a30565b611de5576040517fd1a57ed600000000000000000000000000000000000000000000000000000000815260040160405180910390fd5b808210611d57578260005414611dfa57600080fd5b611e51565b5b60405160018301929073ffffffffffffffffffffffffffffffffffffffff8816906000907fddf252ad1be2c89b69c2b068fc378daa952ba7f163c4a11628f55a4df523b3ef908290a4808210611e00575b506000908155610e7a9085838684565b7fffffffff000000000000000000000000000000000000000000000000000000008116811461089457600080fd5b600060208284031215611ea157600080fd5b8135611eac81611e61565b9392505050565b60005b83811015611ece578181015183820152602001611eb6565b83811115610e7a5750506000910152565b60008151808452611ef7816020860160208601611eb3565b601f017fffffffffffffffffffffffffffffffffffffffffffffffffffffffffffffffe0169290920160200192915050565b602081526000611eac6020830184611edf565b600060208284031215611f4e57600080fd5b5035919050565b803573ffffffffffffffffffffffffffffffffffffffff81168114611f7957600080fd5b919050565b60008060408385031215611f9157600080fd5b611f9a83611f55565b946020939093013593505050565b600080600060608486031215611fbd57600080fd5b611fc684611f55565b9250611fd460208501611f55565b9150604084013590509250925092565b600060208284031215611ff657600080fd5b611eac82611f55565b6000806040838503121561201257600080fd5b50508035926020909101359150565b6000806040838503121561203457600080fd5b61203d83611f55565b91506020830135801515811461205257600080fd5b809150509250929050565b7f4e487b7100000000000000000000000000000000000000000000000000000000600052604160045260246000fd5b600080600080608085870312156120a257600080fd5b6120ab85611f55565b93506120b960208601611f55565b925060408501359150606085013567ffffffffffffffff808211156120dd57600080fd5b818701915087601f8301126120f157600080fd5b8135818111156121035761210361205d565b604051601f82017fffffffffffffffffffffffffffffffffffffffffffffffffffffffffffffffe0908116603f011681019083821181831017156121495761214961205d565b816040528281528a602084870101111561216257600080fd5b82602086016020830137600060208483010152809550505050505092959194509250565b6000806040838503121561219957600080fd5b6121a283611f55565b91506121b060208401611f55565b90509250929050565b600181811c908216806121cd57607f821691505b602082108103612206577f4e487b7100000000000000000000000000000000000000000000000000000000600052602260045260246000fd5b50919050565b7f4e487b7100000000000000000000000000000000000000000000000000000000600052601160045260246000fd5b6000821982111561224e5761224e61220c565b500190565b6000817fffffffffffffffffffffffffffffffffffffffffffffffffffffffffffffffff048311821515161561228b5761228b61220c565b500290565b8054600090600181811c90808316806122aa57607f831692505b602080841082036122e4577f4e487b7100000000000000000000000000000000000000000000000000000000600052602260045260246000fd5b8180156122f8576001811461232757612354565b7fffffffffffffffffffffffffffffffffffffffffffffffffffffffffffffff00861689528489019650612354565b60008881526020902060005b8681101561234c5781548b820152908501908301612333565b505084890196505b50505050505092915050565b7f697066733a2f2f00000000000000000000000000000000000000000000000000815260006123926007830185612290565b7f2f6d657461646174612f00000000000000000000000000000000000000000000815283516123c881600a840160208801611eb3565b7f2e6a736f6e000000000000000000000000000000000000000000000000000000600a9290910191820152600f01949350505050565b7f697066733a2f2f00000000000000000000000000000000000000000000000000815260006124306007830184612290565b7f2f636f6e74726163744d657461646174612e6a736f6e0000000000000000000081526016019392505050565b60007fffffffffffffffffffffffffffffffffffffffffffffffffffffffffffffffff820361248e5761248e61220c565b5060010190565b6000826124cb577f4e487b7100000000000000000000000000000000000000000000000000000000600052601260045260246000fd5b500490565b6000828210156124e2576124e261220c565b500390565b600060ff821660ff84168060ff038211156125045761250461220c565b019392505050565b7f4e487b7100000000000000000000000000000000000000000000000000000000600052603260045260246000fd5b600073ffffffffffffffffffffffffffffffffffffffff80871683528086166020840152508360408301526080606083015261257a6080830184611edf565b9695505050505050565b60006020828403121561259657600080fd5b8151611eac81611e6156fea2646970667358221220b07781275309fa189a9f303ad9fb01f5746638f488523ba0689342fe5aa51fbc64736f6c634300080d0033",
  "immutableReferences": {},
  "source": "// contracts/Channel.sol\r\n// SPDX-License-Identifier: MIT\r\npragma solidity 0.8.13;\r\n\r\nimport \"erc721a/contracts/ERC721A.sol\";\r\n\r\nimport \"@openzeppelin/contracts/access/Ownable.sol\";\r\n\r\nimport \"./util/console.sol\";\r\n\r\ncontract Channel is ERC721A, Ownable {\r\n\r\n    string private _ipfsCid;\r\n\r\n    uint256 private _mintFee;\r\n\r\n    uint256 private _maxTokenId;\r\n\r\n    //set the maximum number an address can mint at a time\r\n    uint256 public MAX_MINT_AMOUNT = 10;\r\n\r\n\r\n    constructor(string memory name, string memory symbol, string memory ipfsCid, uint256 mintFee, uint256 maxTokenId) ERC721A(name, symbol) {\r\n        _mintFee = mintFee;\r\n        _maxTokenId = maxTokenId;\r\n        _ipfsCid = ipfsCid;\r\n    }\r\n\r\n    function _startTokenId() internal view virtual override returns (uint256) {\r\n        return 1;\r\n    }\r\n\r\n    function mint(uint256 quantity) public payable {\r\n\r\n        /**\r\n        Checks\r\n         */\r\n        uint256 minted = _totalMinted();\r\n\r\n        //No zeros\r\n        require(quantity > 0, \"Too few\");\r\n\r\n        //Enforce mint limit\r\n        require(quantity <= MAX_MINT_AMOUNT, \"Too many\");\r\n\r\n        //Don't mint past final token\r\n        require(minted + quantity <= _maxTokenId, \"Minting closed\");\r\n\r\n        //Validate we have enough ETH. \r\n        require(msg.value == quantity * _mintFee, \"Send exact ETH\");\r\n\r\n        console.log(_msgSender());\r\n\r\n        //Mint\r\n        _safeMint(_msgSender(), quantity);\r\n\r\n        console.log('here2');\r\n\r\n    }\r\n\r\n\r\n    //A version of mint if users care deeply about which token they start minting from. \r\n    function mintFromStartOrFail(uint256 quantity, uint256 start) public payable {\r\n\r\n        uint256 minted = _totalMinted();\r\n\r\n        require(start > 0, \"No start passed\");\r\n\r\n        //Make sure that token is the same as minted + 1\r\n        require(start == minted + 1, \"Token is past start\"); \r\n\r\n        console.log(msg.value);\r\n\r\n        mint(quantity);\r\n\r\n    }\r\n\r\n\r\n\r\n    function tokenURI(uint256 tokenId) public view virtual override returns (string memory) {\r\n        \r\n        require(_exists(tokenId), \"ERC721Metadata: URI query for nonexistent token\");\r\n\r\n        return string(abi.encodePacked(\"ipfs://\", _ipfsCid, \"/metadata/\", uint2str(tokenId), \".json\"));\r\n    \r\n    }\r\n\r\n    function contractURI() public view returns (string memory) {\r\n        return string(abi.encodePacked(\"ipfs://\", _ipfsCid, \"/contractMetadata.json\"));\r\n    }\r\n\r\n    function withdraw() public payable onlyOwner {\r\n\r\n        (bool success, ) = payable(msg.sender).call{value: address(this).balance}(\"\");\r\n        require(success);\r\n\r\n    }\r\n\r\n    function totalMinted() public view returns (uint256) {\r\n        return _totalMinted();\r\n    }\r\n\r\n    function uint2str(uint _i) public pure returns (string memory _uintAsString) {\r\n        if (_i == 0) {\r\n            return \"0\";\r\n        }\r\n        uint j = _i;\r\n        uint len;\r\n        while (j != 0) {\r\n            len++;\r\n            j /= 10;\r\n        }\r\n        bytes memory bstr = new bytes(len);\r\n        uint k = len;\r\n        while (_i != 0) {\r\n            k = k-1;\r\n            uint8 temp = (48 + uint8(_i - _i / 10 * 10));\r\n            bytes1 b1 = bytes1(temp);\r\n            bstr[k] = b1;\r\n            _i /= 10;\r\n        }\r\n        return string(bstr);\r\n    }\r\n\r\n}",
  "sourcePath": "C:\\Users\\13309\\repos\\large\\contracts\\Channel.sol",
  "compiler": {
    "name": "solc",
    "version": "0.8.13+commit.abaa5c0e.Emscripten.clang"
  },
  "schemaVersion": "3.4.3",
  "updatedAt": "2022-06-20T13:25:59.515Z",
  "networkType": "ethereum",
  "devdoc": {
    "kind": "dev",
    "methods": {
      "approve(address,uint256)": {
        "details": "See {IERC721-approve}."
      },
      "balanceOf(address)": {
        "details": "See {IERC721-balanceOf}."
      },
      "getApproved(uint256)": {
        "details": "See {IERC721-getApproved}."
      },
      "isApprovedForAll(address,address)": {
        "details": "See {IERC721-isApprovedForAll}."
      },
      "name()": {
        "details": "See {IERC721Metadata-name}."
      },
      "owner()": {
        "details": "Returns the address of the current owner."
      },
      "ownerOf(uint256)": {
        "details": "See {IERC721-ownerOf}."
      },
      "renounceOwnership()": {
        "details": "Leaves the contract without owner. It will not be possible to call `onlyOwner` functions anymore. Can only be called by the current owner. NOTE: Renouncing ownership will leave the contract without an owner, thereby removing any functionality that is only available to the owner."
      },
      "safeTransferFrom(address,address,uint256)": {
        "details": "See {IERC721-safeTransferFrom}."
      },
      "safeTransferFrom(address,address,uint256,bytes)": {
        "details": "See {IERC721-safeTransferFrom}."
      },
      "setApprovalForAll(address,bool)": {
        "details": "See {IERC721-setApprovalForAll}."
      },
      "supportsInterface(bytes4)": {
        "details": "See {IERC165-supportsInterface}."
      },
      "symbol()": {
        "details": "See {IERC721Metadata-symbol}."
      },
      "tokenURI(uint256)": {
        "details": "See {IERC721Metadata-tokenURI}."
      },
      "totalSupply()": {
        "details": "Burned tokens are calculated here, use _totalMinted() if you want to count just minted tokens."
      },
      "transferFrom(address,address,uint256)": {
        "details": "See {IERC721-transferFrom}."
      },
      "transferOwnership(address)": {
        "details": "Transfers ownership of the contract to a new account (`newOwner`). Can only be called by the current owner."
      }
    },
    "version": 1
  },
  "userdoc": {
    "errors": {
      "ApprovalCallerNotOwnerNorApproved()": [
        {
          "notice": "The caller must own the token or be an approved operator."
        }
      ],
      "ApprovalQueryForNonexistentToken()": [
        {
          "notice": "The token does not exist."
        }
      ],
      "ApprovalToCurrentOwner()": [
        {
          "notice": "The caller cannot approve to the current owner."
        }
      ],
      "ApproveToCaller()": [
        {
          "notice": "The caller cannot approve to their own address."
        }
      ],
      "BalanceQueryForZeroAddress()": [
        {
          "notice": "Cannot query the balance for the zero address."
        }
      ],
      "MintToZeroAddress()": [
        {
          "notice": "Cannot mint to the zero address."
        }
      ],
      "MintZeroQuantity()": [
        {
          "notice": "The quantity of tokens minted must be more than zero."
        }
      ],
      "OwnerQueryForNonexistentToken()": [
        {
          "notice": "The token does not exist."
        }
      ],
      "TransferCallerNotOwnerNorApproved()": [
        {
          "notice": "The caller must own the token or be an approved operator."
        }
      ],
      "TransferFromIncorrectOwner()": [
        {
          "notice": "The token must be owned by `from`."
        }
      ],
      "TransferToNonERC721ReceiverImplementer()": [
        {
          "notice": "Cannot safely transfer to a contract that does not implement the ERC721Receiver interface."
        }
      ],
      "TransferToZeroAddress()": [
        {
          "notice": "Cannot transfer to the zero address."
        }
      ],
      "URIQueryForNonexistentToken()": [
        {
          "notice": "The token does not exist."
        }
      ]
    },
    "kind": "user",
    "methods": {},
    "version": 1
  }
}