{
  "contractName": "ERC721A",
  "abi": [
    {
      "inputs": [
        {
          "internalType": "string",
          "name": "name_",
          "type": "string"
        },
        {
          "internalType": "string",
          "name": "symbol_",
          "type": "string"
        }
      ],
      "stateMutability": "nonpayable",
      "type": "constructor"
    },
    {
      "inputs": [],
      "name": "ApprovalCallerNotOwnerNorApproved",
      "type": "error"
    },
    {
      "inputs": [],
      "name": "ApprovalQueryForNonexistentToken",
      "type": "error"
    },
    {
      "inputs": [],
      "name": "ApprovalToCurrentOwner",
      "type": "error"
    },
    {
      "inputs": [],
      "name": "ApproveToCaller",
      "type": "error"
    },
    {
      "inputs": [],
      "name": "BalanceQueryForZeroAddress",
      "type": "error"
    },
    {
      "inputs": [],
      "name": "MintToZeroAddress",
      "type": "error"
    },
    {
      "inputs": [],
      "name": "MintZeroQuantity",
      "type": "error"
    },
    {
      "inputs": [],
      "name": "OwnerQueryForNonexistentToken",
      "type": "error"
    },
    {
      "inputs": [],
      "name": "TransferCallerNotOwnerNorApproved",
      "type": "error"
    },
    {
      "inputs": [],
      "name": "TransferFromIncorrectOwner",
      "type": "error"
    },
    {
      "inputs": [],
      "name": "TransferToNonERC721ReceiverImplementer",
      "type": "error"
    },
    {
      "inputs": [],
      "name": "TransferToZeroAddress",
      "type": "error"
    },
    {
      "inputs": [],
      "name": "URIQueryForNonexistentToken",
      "type": "error"
    },
    {
      "anonymous": false,
      "inputs": [
        {
          "indexed": true,
          "internalType": "address",
          "name": "owner",
          "type": "address"
        },
        {
          "indexed": true,
          "internalType": "address",
          "name": "approved",
          "type": "address"
        },
        {
          "indexed": true,
          "internalType": "uint256",
          "name": "tokenId",
          "type": "uint256"
        }
      ],
      "name": "Approval",
      "type": "event"
    },
    {
      "anonymous": false,
      "inputs": [
        {
          "indexed": true,
          "internalType": "address",
          "name": "owner",
          "type": "address"
        },
        {
          "indexed": true,
          "internalType": "address",
          "name": "operator",
          "type": "address"
        },
        {
          "indexed": false,
          "internalType": "bool",
          "name": "approved",
          "type": "bool"
        }
      ],
      "name": "ApprovalForAll",
      "type": "event"
    },
    {
      "anonymous": false,
      "inputs": [
        {
          "indexed": true,
          "internalType": "address",
          "name": "from",
          "type": "address"
        },
        {
          "indexed": true,
          "internalType": "address",
          "name": "to",
          "type": "address"
        },
        {
          "indexed": true,
          "internalType": "uint256",
          "name": "tokenId",
          "type": "uint256"
        }
      ],
      "name": "Transfer",
      "type": "event"
    },
    {
      "inputs": [],
      "name": "totalSupply",
      "outputs": [
        {
          "internalType": "uint256",
          "name": "",
          "type": "uint256"
        }
      ],
      "stateMutability": "view",
      "type": "function"
    },
    {
      "inputs": [
        {
          "internalType": "bytes4",
          "name": "interfaceId",
          "type": "bytes4"
        }
      ],
      "name": "supportsInterface",
      "outputs": [
        {
          "internalType": "bool",
          "name": "",
          "type": "bool"
        }
      ],
      "stateMutability": "view",
      "type": "function"
    },
    {
      "inputs": [
        {
          "internalType": "address",
          "name": "owner",
          "type": "address"
        }
      ],
      "name": "balanceOf",
      "outputs": [
        {
          "internalType": "uint256",
          "name": "",
          "type": "uint256"
        }
      ],
      "stateMutability": "view",
      "type": "function"
    },
    {
      "inputs": [
        {
          "internalType": "uint256",
          "name": "tokenId",
          "type": "uint256"
        }
      ],
      "name": "ownerOf",
      "outputs": [
        {
          "internalType": "address",
          "name": "",
          "type": "address"
        }
      ],
      "stateMutability": "view",
      "type": "function"
    },
    {
      "inputs": [],
      "name": "name",
      "outputs": [
        {
          "internalType": "string",
          "name": "",
          "type": "string"
        }
      ],
      "stateMutability": "view",
      "type": "function"
    },
    {
      "inputs": [],
      "name": "symbol",
      "outputs": [
        {
          "internalType": "string",
          "name": "",
          "type": "string"
        }
      ],
      "stateMutability": "view",
      "type": "function"
    },
    {
      "inputs": [
        {
          "internalType": "uint256",
          "name": "tokenId",
          "type": "uint256"
        }
      ],
      "name": "tokenURI",
      "outputs": [
        {
          "internalType": "string",
          "name": "",
          "type": "string"
        }
      ],
      "stateMutability": "view",
      "type": "function"
    },
    {
      "inputs": [
        {
          "internalType": "address",
          "name": "to",
          "type": "address"
        },
        {
          "internalType": "uint256",
          "name": "tokenId",
          "type": "uint256"
        }
      ],
      "name": "approve",
      "outputs": [],
      "stateMutability": "nonpayable",
      "type": "function"
    },
    {
      "inputs": [
        {
          "internalType": "uint256",
          "name": "tokenId",
          "type": "uint256"
        }
      ],
      "name": "getApproved",
      "outputs": [
        {
          "internalType": "address",
          "name": "",
          "type": "address"
        }
      ],
      "stateMutability": "view",
      "type": "function"
    },
    {
      "inputs": [
        {
          "internalType": "address",
          "name": "operator",
          "type": "address"
        },
        {
          "internalType": "bool",
          "name": "approved",
          "type": "bool"
        }
      ],
      "name": "setApprovalForAll",
      "outputs": [],
      "stateMutability": "nonpayable",
      "type": "function"
    },
    {
      "inputs": [
        {
          "internalType": "address",
          "name": "owner",
          "type": "address"
        },
        {
          "internalType": "address",
          "name": "operator",
          "type": "address"
        }
      ],
      "name": "isApprovedForAll",
      "outputs": [
        {
          "internalType": "bool",
          "name": "",
          "type": "bool"
        }
      ],
      "stateMutability": "view",
      "type": "function"
    },
    {
      "inputs": [
        {
          "internalType": "address",
          "name": "from",
          "type": "address"
        },
        {
          "internalType": "address",
          "name": "to",
          "type": "address"
        },
        {
          "internalType": "uint256",
          "name": "tokenId",
          "type": "uint256"
        }
      ],
      "name": "transferFrom",
      "outputs": [],
      "stateMutability": "nonpayable",
      "type": "function"
    },
    {
      "inputs": [
        {
          "internalType": "address",
          "name": "from",
          "type": "address"
        },
        {
          "internalType": "address",
          "name": "to",
          "type": "address"
        },
        {
          "internalType": "uint256",
          "name": "tokenId",
          "type": "uint256"
        }
      ],
      "name": "safeTransferFrom",
      "outputs": [],
      "stateMutability": "nonpayable",
      "type": "function"
    },
    {
      "inputs": [
        {
          "internalType": "address",
          "name": "from",
          "type": "address"
        },
        {
          "internalType": "address",
          "name": "to",
          "type": "address"
        },
        {
          "internalType": "uint256",
          "name": "tokenId",
          "type": "uint256"
        },
        {
          "internalType": "bytes",
          "name": "_data",
          "type": "bytes"
        }
      ],
      "name": "safeTransferFrom",
      "outputs": [],
      "stateMutability": "nonpayable",
      "type": "function"
    }
  ],
  "bytecode": "0x60806040523480156200001157600080fd5b5060405162001868380380620018688339810160408190526200003491620001df565b8151620000499060029060208501906200006c565b5080516200005f9060039060208401906200006c565b5050600080555062000285565b8280546200007a9062000249565b90600052602060002090601f0160209004810192826200009e5760008555620000e9565b82601f10620000b957805160ff1916838001178555620000e9565b82800160010185558215620000e9579182015b82811115620000e9578251825591602001919060010190620000cc565b50620000f7929150620000fb565b5090565b5b80821115620000f75760008155600101620000fc565b634e487b7160e01b600052604160045260246000fd5b600082601f8301126200013a57600080fd5b81516001600160401b038082111562000157576200015762000112565b604051601f8301601f19908116603f0116810190828211818310171562000182576200018262000112565b816040528381526020925086838588010111156200019f57600080fd5b600091505b83821015620001c35785820183015181830184015290820190620001a4565b83821115620001d55760008385830101525b9695505050505050565b60008060408385031215620001f357600080fd5b82516001600160401b03808211156200020b57600080fd5b620002198683870162000128565b935060208501519150808211156200023057600080fd5b506200023f8582860162000128565b9150509250929050565b600181811c908216806200025e57607f821691505b6020821081036200027f57634e487b7160e01b600052602260045260246000fd5b50919050565b6115d380620002956000396000f3fe608060405234801561001057600080fd5b50600436106100ea5760003560e01c80636352211e1161008c578063a22cb46511610066578063a22cb465146101e3578063b88d4fde146101f6578063c87b56dd14610209578063e985e9c51461021c57600080fd5b80636352211e146101b557806370a08231146101c857806395d89b41146101db57600080fd5b8063095ea7b3116100c8578063095ea7b31461016457806318160ddd1461017957806323b872dd1461018f57806342842e0e146101a257600080fd5b806301ffc9a7146100ef57806306fdde0314610117578063081812fc1461012c575b600080fd5b6101026100fd366004611098565b610265565b60405190151581526020015b60405180910390f35b61011f61034a565b60405161010e919061112b565b61013f61013a36600461113e565b6103dc565b60405173ffffffffffffffffffffffffffffffffffffffff909116815260200161010e565b610177610172366004611180565b610446565b005b600154600054035b60405190815260200161010e565b61017761019d3660046111aa565b610525565b6101776101b03660046111aa565b610530565b61013f6101c336600461113e565b61054b565b6101816101d63660046111e6565b61055d565b61011f6105df565b6101776101f1366004611201565b6105ee565b61017761020436600461126c565b6106d4565b61011f61021736600461113e565b610744565b61010261022a366004611366565b73ffffffffffffffffffffffffffffffffffffffff918216600090815260076020908152604080832093909416825291909152205460ff1690565b60007fffffffff0000000000000000000000000000000000000000000000000000000082167f80ac58cd0000000000000000000000000000000000000000000000000000000014806102f857507fffffffff0000000000000000000000000000000000000000000000000000000082167f5b5e139f00000000000000000000000000000000000000000000000000000000145b8061034457507f01ffc9a7000000000000000000000000000000000000000000000000000000007fffffffff000000000000000000000000000000000000000000000000000000008316145b92915050565b60606002805461035990611399565b80601f016020809104026020016040519081016040528092919081815260200182805461038590611399565b80156103d25780601f106103a7576101008083540402835291602001916103d2565b820191906000526020600020905b8154815290600101906020018083116103b557829003601f168201915b5050505050905090565b60006103e7826107ee565b61041d576040517fcf4700e400000000000000000000000000000000000000000000000000000000815260040160405180910390fd5b5060009081526006602052604090205473ffffffffffffffffffffffffffffffffffffffff1690565b60006104518261054b565b90508073ffffffffffffffffffffffffffffffffffffffff168373ffffffffffffffffffffffffffffffffffffffff16036104b8576040517f943f7b8c00000000000000000000000000000000000000000000000000000000815260040160405180910390fd5b3373ffffffffffffffffffffffffffffffffffffffff821614610515576104df813361022a565b610515576040517fcfb3b94200000000000000000000000000000000000000000000000000000000815260040160405180910390fd5b610520838383610832565b505050565b6105208383836108b3565b610520838383604051806020016040528060008152506106d4565b600061055682610bea565b5192915050565b600073ffffffffffffffffffffffffffffffffffffffff82166105ac576040517f8f4eb60400000000000000000000000000000000000000000000000000000000815260040160405180910390fd5b5073ffffffffffffffffffffffffffffffffffffffff1660009081526005602052604090205467ffffffffffffffff1690565b60606003805461035990611399565b3373ffffffffffffffffffffffffffffffffffffffff83160361063d576040517fb06307db00000000000000000000000000000000000000000000000000000000815260040160405180910390fd5b33600081815260076020908152604080832073ffffffffffffffffffffffffffffffffffffffff87168085529083529281902080547fffffffffffffffffffffffffffffffffffffffffffffffffffffffffffffff001686151590811790915590519081529192917f17307eab39ab6107e8899845ad3d59bd9653f200f220920489ca2b5937696c31910160405180910390a35050565b6106df8484846108b3565b73ffffffffffffffffffffffffffffffffffffffff83163b1561073e5761070884848484610db8565b61073e576040517fd1a57ed600000000000000000000000000000000000000000000000000000000815260040160405180910390fd5b50505050565b606061074f826107ee565b610785576040517fa14c4b5000000000000000000000000000000000000000000000000000000000815260040160405180910390fd5b600061079c60408051602081019091526000815290565b905080516000036107bc57604051806020016040528060008152506107e7565b806107c684610f32565b6040516020016107d79291906113ec565b6040516020818303038152906040525b9392505050565b60008054821080156103445750506000908152600460205260409020547c0100000000000000000000000000000000000000000000000000000000900460ff161590565b60008281526006602052604080822080547fffffffffffffffffffffffff00000000000000000000000000000000000000001673ffffffffffffffffffffffffffffffffffffffff87811691821790925591518593918516917f8c5be1e5ebec7d5bd14f71427d1e84f3dd0314c0f7b2291e5b200ac8c7c3b92591a4505050565b60006108be82610bea565b90508373ffffffffffffffffffffffffffffffffffffffff16816000015173ffffffffffffffffffffffffffffffffffffffff1614610929576040517fa114810000000000000000000000000000000000000000000000000000000000815260040160405180910390fd5b60003373ffffffffffffffffffffffffffffffffffffffff861614806109545750610954853361022a565b8061097c575033610964846103dc565b73ffffffffffffffffffffffffffffffffffffffff16145b9050806109b5576040517f59c896be00000000000000000000000000000000000000000000000000000000815260040160405180910390fd5b73ffffffffffffffffffffffffffffffffffffffff8416610a02576040517fea553b3400000000000000000000000000000000000000000000000000000000815260040160405180910390fd5b610a0e60008487610832565b73ffffffffffffffffffffffffffffffffffffffff858116600090815260056020908152604080832080547fffffffffffffffffffffffffffffffffffffffffffffffff000000000000000080821667ffffffffffffffff9283167fffffffffffffffffffffffffffffffffffffffffffffffffffffffffffffffff01831617909255898616808652838620805493841693831660019081018416949094179055898652600490945282852080547fffffffff00000000000000000000000000000000000000000000000000000000169094177401000000000000000000000000000000000000000042909216919091021783558701808452922080549193909116610b85576000548214610b85578054602086015167ffffffffffffffff1674010000000000000000000000000000000000000000027fffffffff0000000000000000000000000000000000000000000000000000000090911673ffffffffffffffffffffffffffffffffffffffff8a16171781555b505050828473ffffffffffffffffffffffffffffffffffffffff168673ffffffffffffffffffffffffffffffffffffffff167fddf252ad1be2c89b69c2b068fc378daa952ba7f163c4a11628f55a4df523b3ef60405160405180910390a45050505050565b604080516060810182526000808252602082018190529181019190915281600054811015610d86576000818152600460209081526040918290208251606081018452905473ffffffffffffffffffffffffffffffffffffffff8116825274010000000000000000000000000000000000000000810467ffffffffffffffff16928201929092527c010000000000000000000000000000000000000000000000000000000090910460ff16151591810182905290610d8457805173ffffffffffffffffffffffffffffffffffffffff1615610cc5579392505050565b507fffffffffffffffffffffffffffffffffffffffffffffffffffffffffffffffff016000818152600460209081526040918290208251606081018452905473ffffffffffffffffffffffffffffffffffffffff811680835274010000000000000000000000000000000000000000820467ffffffffffffffff16938301939093527c0100000000000000000000000000000000000000000000000000000000900460ff1615159281019290925215610d7f579392505050565b610cc5565b505b6040517fdf2d9b4200000000000000000000000000000000000000000000000000000000815260040160405180910390fd5b6040517f150b7a0200000000000000000000000000000000000000000000000000000000815260009073ffffffffffffffffffffffffffffffffffffffff85169063150b7a0290610e1390339089908890889060040161141b565b6020604051808303816000875af1925050508015610e6c575060408051601f3d9081017fffffffffffffffffffffffffffffffffffffffffffffffffffffffffffffffe0168201909252610e6991810190611464565b60015b610ee3573d808015610e9a576040519150601f19603f3d011682016040523d82523d6000602084013e610e9f565b606091505b508051600003610edb576040517fd1a57ed600000000000000000000000000000000000000000000000000000000815260040160405180910390fd5b805181602001fd5b7fffffffff00000000000000000000000000000000000000000000000000000000167f150b7a02000000000000000000000000000000000000000000000000000000001490505b949350505050565b606081600003610f7557505060408051808201909152600181527f3000000000000000000000000000000000000000000000000000000000000000602082015290565b8160005b8115610f9f5780610f89816114b0565b9150610f989050600a83611517565b9150610f79565b60008167ffffffffffffffff811115610fba57610fba61123d565b6040519080825280601f01601f191660200182016040528015610fe4576020820181803683370190505b5090505b8415610f2a57610ff960018361152b565b9150611006600a86611542565b611011906030611556565b60f81b8183815181106110265761102661156e565b60200101907effffffffffffffffffffffffffffffffffffffffffffffffffffffffffffff1916908160001a905350611060600a86611517565b9450610fe8565b7fffffffff000000000000000000000000000000000000000000000000000000008116811461109557600080fd5b50565b6000602082840312156110aa57600080fd5b81356107e781611067565b60005b838110156110d05781810151838201526020016110b8565b8381111561073e5750506000910152565b600081518084526110f98160208601602086016110b5565b601f017fffffffffffffffffffffffffffffffffffffffffffffffffffffffffffffffe0169290920160200192915050565b6020815260006107e760208301846110e1565b60006020828403121561115057600080fd5b5035919050565b803573ffffffffffffffffffffffffffffffffffffffff8116811461117b57600080fd5b919050565b6000806040838503121561119357600080fd5b61119c83611157565b946020939093013593505050565b6000806000606084860312156111bf57600080fd5b6111c884611157565b92506111d660208501611157565b9150604084013590509250925092565b6000602082840312156111f857600080fd5b6107e782611157565b6000806040838503121561121457600080fd5b61121d83611157565b91506020830135801515811461123257600080fd5b809150509250929050565b7f4e487b7100000000000000000000000000000000000000000000000000000000600052604160045260246000fd5b6000806000806080858703121561128257600080fd5b61128b85611157565b935061129960208601611157565b925060408501359150606085013567ffffffffffffffff808211156112bd57600080fd5b818701915087601f8301126112d157600080fd5b8135818111156112e3576112e361123d565b604051601f82017fffffffffffffffffffffffffffffffffffffffffffffffffffffffffffffffe0908116603f011681019083821181831017156113295761132961123d565b816040528281528a602084870101111561134257600080fd5b82602086016020830137600060208483010152809550505050505092959194509250565b6000806040838503121561137957600080fd5b61138283611157565b915061139060208401611157565b90509250929050565b600181811c908216806113ad57607f821691505b6020821081036113e6577f4e487b7100000000000000000000000000000000000000000000000000000000600052602260045260246000fd5b50919050565b600083516113fe8184602088016110b5565b8351908301906114128183602088016110b5565b01949350505050565b600073ffffffffffffffffffffffffffffffffffffffff80871683528086166020840152508360408301526080606083015261145a60808301846110e1565b9695505050505050565b60006020828403121561147657600080fd5b81516107e781611067565b7f4e487b7100000000000000000000000000000000000000000000000000000000600052601160045260246000fd5b60007fffffffffffffffffffffffffffffffffffffffffffffffffffffffffffffffff82036114e1576114e1611481565b5060010190565b7f4e487b7100000000000000000000000000000000000000000000000000000000600052601260045260246000fd5b600082611526576115266114e8565b500490565b60008282101561153d5761153d611481565b500390565b600082611551576115516114e8565b500690565b6000821982111561156957611569611481565b500190565b7f4e487b7100000000000000000000000000000000000000000000000000000000600052603260045260246000fdfea26469706673582212200c43dc2797d8c5fd666ff5db5a9406016b13c7c513255cf656ba6d53aca968e164736f6c634300080d0033",
  "immutableReferences": {},
  "source": "// SPDX-License-Identifier: MIT\n// ERC721A Contracts v3.3.0\n// Creator: Chiru Labs\n\npragma solidity ^0.8.4;\n\nimport './IERC721A.sol';\nimport '@openzeppelin/contracts/token/ERC721/IERC721Receiver.sol';\nimport '@openzeppelin/contracts/utils/Address.sol';\nimport '@openzeppelin/contracts/utils/Context.sol';\nimport '@openzeppelin/contracts/utils/Strings.sol';\nimport '@openzeppelin/contracts/utils/introspection/ERC165.sol';\n\n/**\n * @dev Implementation of https://eips.ethereum.org/EIPS/eip-721[ERC721] Non-Fungible Token Standard, including\n * the Metadata extension. Built to optimize for lower gas during batch mints.\n *\n * Assumes serials are sequentially minted starting at _startTokenId() (defaults to 0, e.g. 0, 1, 2, 3..).\n *\n * Assumes that an owner cannot have more than 2**64 - 1 (max value of uint64) of supply.\n *\n * Assumes that the maximum token id cannot exceed 2**256 - 1 (max value of uint256).\n */\ncontract ERC721A is Context, ERC165, IERC721A {\n    using Address for address;\n    using Strings for uint256;\n\n    // The tokenId of the next token to be minted.\n    uint256 internal _currentIndex;\n\n    // The number of tokens burned.\n    uint256 internal _burnCounter;\n\n    // Token name\n    string private _name;\n\n    // Token symbol\n    string private _symbol;\n\n    // Mapping from token ID to ownership details\n    // An empty struct value does not necessarily mean the token is unowned. See _ownershipOf implementation for details.\n    mapping(uint256 => TokenOwnership) internal _ownerships;\n\n    // Mapping owner address to address data\n    mapping(address => AddressData) private _addressData;\n\n    // Mapping from token ID to approved address\n    mapping(uint256 => address) private _tokenApprovals;\n\n    // Mapping from owner to operator approvals\n    mapping(address => mapping(address => bool)) private _operatorApprovals;\n\n    constructor(string memory name_, string memory symbol_) {\n        _name = name_;\n        _symbol = symbol_;\n        _currentIndex = _startTokenId();\n    }\n\n    /**\n     * To change the starting tokenId, please override this function.\n     */\n    function _startTokenId() internal view virtual returns (uint256) {\n        return 0;\n    }\n\n    /**\n     * @dev Burned tokens are calculated here, use _totalMinted() if you want to count just minted tokens.\n     */\n    function totalSupply() public view override returns (uint256) {\n        // Counter underflow is impossible as _burnCounter cannot be incremented\n        // more than _currentIndex - _startTokenId() times\n        unchecked {\n            return _currentIndex - _burnCounter - _startTokenId();\n        }\n    }\n\n    /**\n     * Returns the total amount of tokens minted in the contract.\n     */\n    function _totalMinted() internal view returns (uint256) {\n        // Counter underflow is impossible as _currentIndex does not decrement,\n        // and it is initialized to _startTokenId()\n        unchecked {\n            return _currentIndex - _startTokenId();\n        }\n    }\n\n    /**\n     * @dev See {IERC165-supportsInterface}.\n     */\n    function supportsInterface(bytes4 interfaceId) public view virtual override(ERC165, IERC165) returns (bool) {\n        return\n            interfaceId == type(IERC721).interfaceId ||\n            interfaceId == type(IERC721Metadata).interfaceId ||\n            super.supportsInterface(interfaceId);\n    }\n\n    /**\n     * @dev See {IERC721-balanceOf}.\n     */\n    function balanceOf(address owner) public view override returns (uint256) {\n        if (owner == address(0)) revert BalanceQueryForZeroAddress();\n        return uint256(_addressData[owner].balance);\n    }\n\n    /**\n     * Returns the number of tokens minted by `owner`.\n     */\n    function _numberMinted(address owner) internal view returns (uint256) {\n        return uint256(_addressData[owner].numberMinted);\n    }\n\n    /**\n     * Returns the number of tokens burned by or on behalf of `owner`.\n     */\n    function _numberBurned(address owner) internal view returns (uint256) {\n        return uint256(_addressData[owner].numberBurned);\n    }\n\n    /**\n     * Returns the auxillary data for `owner`. (e.g. number of whitelist mint slots used).\n     */\n    function _getAux(address owner) internal view returns (uint64) {\n        return _addressData[owner].aux;\n    }\n\n    /**\n     * Sets the auxillary data for `owner`. (e.g. number of whitelist mint slots used).\n     * If there are multiple variables, please pack them into a uint64.\n     */\n    function _setAux(address owner, uint64 aux) internal {\n        _addressData[owner].aux = aux;\n    }\n\n    /**\n     * Gas spent here starts off proportional to the maximum mint batch size.\n     * It gradually moves to O(1) as tokens get transferred around in the collection over time.\n     */\n    function _ownershipOf(uint256 tokenId) internal view returns (TokenOwnership memory) {\n        uint256 curr = tokenId;\n\n        unchecked {\n            if (_startTokenId() <= curr) if (curr < _currentIndex) {\n                TokenOwnership memory ownership = _ownerships[curr];\n                if (!ownership.burned) {\n                    if (ownership.addr != address(0)) {\n                        return ownership;\n                    }\n                    // Invariant:\n                    // There will always be an ownership that has an address and is not burned\n                    // before an ownership that does not have an address and is not burned.\n                    // Hence, curr will not underflow.\n                    while (true) {\n                        curr--;\n                        ownership = _ownerships[curr];\n                        if (ownership.addr != address(0)) {\n                            return ownership;\n                        }\n                    }\n                }\n            }\n        }\n        revert OwnerQueryForNonexistentToken();\n    }\n\n    /**\n     * @dev See {IERC721-ownerOf}.\n     */\n    function ownerOf(uint256 tokenId) public view override returns (address) {\n        return _ownershipOf(tokenId).addr;\n    }\n\n    /**\n     * @dev See {IERC721Metadata-name}.\n     */\n    function name() public view virtual override returns (string memory) {\n        return _name;\n    }\n\n    /**\n     * @dev See {IERC721Metadata-symbol}.\n     */\n    function symbol() public view virtual override returns (string memory) {\n        return _symbol;\n    }\n\n    /**\n     * @dev See {IERC721Metadata-tokenURI}.\n     */\n    function tokenURI(uint256 tokenId) public view virtual override returns (string memory) {\n        if (!_exists(tokenId)) revert URIQueryForNonexistentToken();\n\n        string memory baseURI = _baseURI();\n        return bytes(baseURI).length != 0 ? string(abi.encodePacked(baseURI, tokenId.toString())) : '';\n    }\n\n    /**\n     * @dev Base URI for computing {tokenURI}. If set, the resulting URI for each\n     * token will be the concatenation of the `baseURI` and the `tokenId`. Empty\n     * by default, can be overriden in child contracts.\n     */\n    function _baseURI() internal view virtual returns (string memory) {\n        return '';\n    }\n\n    /**\n     * @dev See {IERC721-approve}.\n     */\n    function approve(address to, uint256 tokenId) public override {\n        address owner = ERC721A.ownerOf(tokenId);\n        if (to == owner) revert ApprovalToCurrentOwner();\n\n        if (_msgSender() != owner) if(!isApprovedForAll(owner, _msgSender())) {\n            revert ApprovalCallerNotOwnerNorApproved();\n        }\n\n        _approve(to, tokenId, owner);\n    }\n\n    /**\n     * @dev See {IERC721-getApproved}.\n     */\n    function getApproved(uint256 tokenId) public view override returns (address) {\n        if (!_exists(tokenId)) revert ApprovalQueryForNonexistentToken();\n\n        return _tokenApprovals[tokenId];\n    }\n\n    /**\n     * @dev See {IERC721-setApprovalForAll}.\n     */\n    function setApprovalForAll(address operator, bool approved) public virtual override {\n        if (operator == _msgSender()) revert ApproveToCaller();\n\n        _operatorApprovals[_msgSender()][operator] = approved;\n        emit ApprovalForAll(_msgSender(), operator, approved);\n    }\n\n    /**\n     * @dev See {IERC721-isApprovedForAll}.\n     */\n    function isApprovedForAll(address owner, address operator) public view virtual override returns (bool) {\n        return _operatorApprovals[owner][operator];\n    }\n\n    /**\n     * @dev See {IERC721-transferFrom}.\n     */\n    function transferFrom(\n        address from,\n        address to,\n        uint256 tokenId\n    ) public virtual override {\n        _transfer(from, to, tokenId);\n    }\n\n    /**\n     * @dev See {IERC721-safeTransferFrom}.\n     */\n    function safeTransferFrom(\n        address from,\n        address to,\n        uint256 tokenId\n    ) public virtual override {\n        safeTransferFrom(from, to, tokenId, '');\n    }\n\n    /**\n     * @dev See {IERC721-safeTransferFrom}.\n     */\n    function safeTransferFrom(\n        address from,\n        address to,\n        uint256 tokenId,\n        bytes memory _data\n    ) public virtual override {\n        _transfer(from, to, tokenId);\n        if (to.isContract()) if(!_checkContractOnERC721Received(from, to, tokenId, _data)) {\n            revert TransferToNonERC721ReceiverImplementer();\n        }\n    }\n\n    /**\n     * @dev Returns whether `tokenId` exists.\n     *\n     * Tokens can be managed by their owner or approved accounts via {approve} or {setApprovalForAll}.\n     *\n     * Tokens start existing when they are minted (`_mint`),\n     */\n    function _exists(uint256 tokenId) internal view returns (bool) {\n        return _startTokenId() <= tokenId && tokenId < _currentIndex && !_ownerships[tokenId].burned;\n    }\n\n    /**\n     * @dev Equivalent to `_safeMint(to, quantity, '')`.\n     */\n    function _safeMint(address to, uint256 quantity) internal {\n        _safeMint(to, quantity, '');\n    }\n\n    /**\n     * @dev Safely mints `quantity` tokens and transfers them to `to`.\n     *\n     * Requirements:\n     *\n     * - If `to` refers to a smart contract, it must implement\n     *   {IERC721Receiver-onERC721Received}, which is called for each safe transfer.\n     * - `quantity` must be greater than 0.\n     *\n     * Emits a {Transfer} event.\n     */\n    function _safeMint(\n        address to,\n        uint256 quantity,\n        bytes memory _data\n    ) internal {\n        uint256 startTokenId = _currentIndex;\n        if (to == address(0)) revert MintToZeroAddress();\n        if (quantity == 0) revert MintZeroQuantity();\n\n        _beforeTokenTransfers(address(0), to, startTokenId, quantity);\n\n        // Overflows are incredibly unrealistic.\n        // balance or numberMinted overflow if current value of either + quantity > 1.8e19 (2**64) - 1\n        // updatedIndex overflows if _currentIndex + quantity > 1.2e77 (2**256) - 1\n        unchecked {\n            _addressData[to].balance += uint64(quantity);\n            _addressData[to].numberMinted += uint64(quantity);\n\n            _ownerships[startTokenId].addr = to;\n            _ownerships[startTokenId].startTimestamp = uint64(block.timestamp);\n\n            uint256 updatedIndex = startTokenId;\n            uint256 end = updatedIndex + quantity;\n\n            if (to.isContract()) {\n                do {\n                    emit Transfer(address(0), to, updatedIndex);\n                    if (!_checkContractOnERC721Received(address(0), to, updatedIndex++, _data)) {\n                        revert TransferToNonERC721ReceiverImplementer();\n                    }\n                } while (updatedIndex < end);\n                // Reentrancy protection\n                if (_currentIndex != startTokenId) revert();\n            } else {\n                do {\n                    emit Transfer(address(0), to, updatedIndex++);\n                } while (updatedIndex < end);\n            }\n            _currentIndex = updatedIndex;\n        }\n        _afterTokenTransfers(address(0), to, startTokenId, quantity);\n    }\n\n    /**\n     * @dev Mints `quantity` tokens and transfers them to `to`.\n     *\n     * Requirements:\n     *\n     * - `to` cannot be the zero address.\n     * - `quantity` must be greater than 0.\n     *\n     * Emits a {Transfer} event.\n     */\n    function _mint(address to, uint256 quantity) internal {\n        uint256 startTokenId = _currentIndex;\n        if (to == address(0)) revert MintToZeroAddress();\n        if (quantity == 0) revert MintZeroQuantity();\n\n        _beforeTokenTransfers(address(0), to, startTokenId, quantity);\n\n        // Overflows are incredibly unrealistic.\n        // balance or numberMinted overflow if current value of either + quantity > 1.8e19 (2**64) - 1\n        // updatedIndex overflows if _currentIndex + quantity > 1.2e77 (2**256) - 1\n        unchecked {\n            _addressData[to].balance += uint64(quantity);\n            _addressData[to].numberMinted += uint64(quantity);\n\n            _ownerships[startTokenId].addr = to;\n            _ownerships[startTokenId].startTimestamp = uint64(block.timestamp);\n\n            uint256 updatedIndex = startTokenId;\n            uint256 end = updatedIndex + quantity;\n\n            do {\n                emit Transfer(address(0), to, updatedIndex++);\n            } while (updatedIndex < end);\n\n            _currentIndex = updatedIndex;\n        }\n        _afterTokenTransfers(address(0), to, startTokenId, quantity);\n    }\n\n    /**\n     * @dev Transfers `tokenId` from `from` to `to`.\n     *\n     * Requirements:\n     *\n     * - `to` cannot be the zero address.\n     * - `tokenId` token must be owned by `from`.\n     *\n     * Emits a {Transfer} event.\n     */\n    function _transfer(\n        address from,\n        address to,\n        uint256 tokenId\n    ) private {\n        TokenOwnership memory prevOwnership = _ownershipOf(tokenId);\n\n        if (prevOwnership.addr != from) revert TransferFromIncorrectOwner();\n\n        bool isApprovedOrOwner = (_msgSender() == from ||\n            isApprovedForAll(from, _msgSender()) ||\n            getApproved(tokenId) == _msgSender());\n\n        if (!isApprovedOrOwner) revert TransferCallerNotOwnerNorApproved();\n        if (to == address(0)) revert TransferToZeroAddress();\n\n        _beforeTokenTransfers(from, to, tokenId, 1);\n\n        // Clear approvals from the previous owner\n        _approve(address(0), tokenId, from);\n\n        // Underflow of the sender's balance is impossible because we check for\n        // ownership above and the recipient's balance can't realistically overflow.\n        // Counter overflow is incredibly unrealistic as tokenId would have to be 2**256.\n        unchecked {\n            _addressData[from].balance -= 1;\n            _addressData[to].balance += 1;\n\n            TokenOwnership storage currSlot = _ownerships[tokenId];\n            currSlot.addr = to;\n            currSlot.startTimestamp = uint64(block.timestamp);\n\n            // If the ownership slot of tokenId+1 is not explicitly set, that means the transfer initiator owns it.\n            // Set the slot of tokenId+1 explicitly in storage to maintain correctness for ownerOf(tokenId+1) calls.\n            uint256 nextTokenId = tokenId + 1;\n            TokenOwnership storage nextSlot = _ownerships[nextTokenId];\n            if (nextSlot.addr == address(0)) {\n                // This will suffice for checking _exists(nextTokenId),\n                // as a burned slot cannot contain the zero address.\n                if (nextTokenId != _currentIndex) {\n                    nextSlot.addr = from;\n                    nextSlot.startTimestamp = prevOwnership.startTimestamp;\n                }\n            }\n        }\n\n        emit Transfer(from, to, tokenId);\n        _afterTokenTransfers(from, to, tokenId, 1);\n    }\n\n    /**\n     * @dev Equivalent to `_burn(tokenId, false)`.\n     */\n    function _burn(uint256 tokenId) internal virtual {\n        _burn(tokenId, false);\n    }\n\n    /**\n     * @dev Destroys `tokenId`.\n     * The approval is cleared when the token is burned.\n     *\n     * Requirements:\n     *\n     * - `tokenId` must exist.\n     *\n     * Emits a {Transfer} event.\n     */\n    function _burn(uint256 tokenId, bool approvalCheck) internal virtual {\n        TokenOwnership memory prevOwnership = _ownershipOf(tokenId);\n\n        address from = prevOwnership.addr;\n\n        if (approvalCheck) {\n            bool isApprovedOrOwner = (_msgSender() == from ||\n                isApprovedForAll(from, _msgSender()) ||\n                getApproved(tokenId) == _msgSender());\n\n            if (!isApprovedOrOwner) revert TransferCallerNotOwnerNorApproved();\n        }\n\n        _beforeTokenTransfers(from, address(0), tokenId, 1);\n\n        // Clear approvals from the previous owner\n        _approve(address(0), tokenId, from);\n\n        // Underflow of the sender's balance is impossible because we check for\n        // ownership above and the recipient's balance can't realistically overflow.\n        // Counter overflow is incredibly unrealistic as tokenId would have to be 2**256.\n        unchecked {\n            AddressData storage addressData = _addressData[from];\n            addressData.balance -= 1;\n            addressData.numberBurned += 1;\n\n            // Keep track of who burned the token, and the timestamp of burning.\n            TokenOwnership storage currSlot = _ownerships[tokenId];\n            currSlot.addr = from;\n            currSlot.startTimestamp = uint64(block.timestamp);\n            currSlot.burned = true;\n\n            // If the ownership slot of tokenId+1 is not explicitly set, that means the burn initiator owns it.\n            // Set the slot of tokenId+1 explicitly in storage to maintain correctness for ownerOf(tokenId+1) calls.\n            uint256 nextTokenId = tokenId + 1;\n            TokenOwnership storage nextSlot = _ownerships[nextTokenId];\n            if (nextSlot.addr == address(0)) {\n                // This will suffice for checking _exists(nextTokenId),\n                // as a burned slot cannot contain the zero address.\n                if (nextTokenId != _currentIndex) {\n                    nextSlot.addr = from;\n                    nextSlot.startTimestamp = prevOwnership.startTimestamp;\n                }\n            }\n        }\n\n        emit Transfer(from, address(0), tokenId);\n        _afterTokenTransfers(from, address(0), tokenId, 1);\n\n        // Overflow not possible, as _burnCounter cannot be exceed _currentIndex times.\n        unchecked {\n            _burnCounter++;\n        }\n    }\n\n    /**\n     * @dev Approve `to` to operate on `tokenId`\n     *\n     * Emits a {Approval} event.\n     */\n    function _approve(\n        address to,\n        uint256 tokenId,\n        address owner\n    ) private {\n        _tokenApprovals[tokenId] = to;\n        emit Approval(owner, to, tokenId);\n    }\n\n    /**\n     * @dev Internal function to invoke {IERC721Receiver-onERC721Received} on a target contract.\n     *\n     * @param from address representing the previous owner of the given token ID\n     * @param to target address that will receive the tokens\n     * @param tokenId uint256 ID of the token to be transferred\n     * @param _data bytes optional data to send along with the call\n     * @return bool whether the call correctly returned the expected magic value\n     */\n    function _checkContractOnERC721Received(\n        address from,\n        address to,\n        uint256 tokenId,\n        bytes memory _data\n    ) private returns (bool) {\n        try IERC721Receiver(to).onERC721Received(_msgSender(), from, tokenId, _data) returns (bytes4 retval) {\n            return retval == IERC721Receiver(to).onERC721Received.selector;\n        } catch (bytes memory reason) {\n            if (reason.length == 0) {\n                revert TransferToNonERC721ReceiverImplementer();\n            } else {\n                assembly {\n                    revert(add(32, reason), mload(reason))\n                }\n            }\n        }\n    }\n\n    /**\n     * @dev Hook that is called before a set of serially-ordered token ids are about to be transferred. This includes minting.\n     * And also called before burning one token.\n     *\n     * startTokenId - the first token id to be transferred\n     * quantity - the amount to be transferred\n     *\n     * Calling conditions:\n     *\n     * - When `from` and `to` are both non-zero, `from`'s `tokenId` will be\n     * transferred to `to`.\n     * - When `from` is zero, `tokenId` will be minted for `to`.\n     * - When `to` is zero, `tokenId` will be burned by `from`.\n     * - `from` and `to` are never both zero.\n     */\n    function _beforeTokenTransfers(\n        address from,\n        address to,\n        uint256 startTokenId,\n        uint256 quantity\n    ) internal virtual {}\n\n    /**\n     * @dev Hook that is called after a set of serially-ordered token ids have been transferred. This includes\n     * minting.\n     * And also called after one token has been burned.\n     *\n     * startTokenId - the first token id to be transferred\n     * quantity - the amount to be transferred\n     *\n     * Calling conditions:\n     *\n     * - When `from` and `to` are both non-zero, `from`'s `tokenId` has been\n     * transferred to `to`.\n     * - When `from` is zero, `tokenId` has been minted for `to`.\n     * - When `to` is zero, `tokenId` has been burned by `from`.\n     * - `from` and `to` are never both zero.\n     */\n    function _afterTokenTransfers(\n        address from,\n        address to,\n        uint256 startTokenId,\n        uint256 quantity\n    ) internal virtual {}\n}\n",
  "sourcePath": "erc721a\\contracts\\ERC721A.sol",
  "compiler": {
    "name": "solc",
    "version": "0.8.13+commit.abaa5c0e.Emscripten.clang"
  },
  "schemaVersion": "3.4.3",
  "updatedAt": "2022-07-26T11:37:54.158Z",
  "devdoc": {
    "details": "Implementation of https://eips.ethereum.org/EIPS/eip-721[ERC721] Non-Fungible Token Standard, including the Metadata extension. Built to optimize for lower gas during batch mints. Assumes serials are sequentially minted starting at _startTokenId() (defaults to 0, e.g. 0, 1, 2, 3..). Assumes that an owner cannot have more than 2**64 - 1 (max value of uint64) of supply. Assumes that the maximum token id cannot exceed 2**256 - 1 (max value of uint256).",
    "kind": "dev",
    "methods": {
      "approve(address,uint256)": {
        "details": "See {IERC721-approve}."
      },
      "balanceOf(address)": {
        "details": "See {IERC721-balanceOf}."
      },
      "getApproved(uint256)": {
        "details": "See {IERC721-getApproved}."
      },
      "isApprovedForAll(address,address)": {
        "details": "See {IERC721-isApprovedForAll}."
      },
      "name()": {
        "details": "See {IERC721Metadata-name}."
      },
      "ownerOf(uint256)": {
        "details": "See {IERC721-ownerOf}."
      },
      "safeTransferFrom(address,address,uint256)": {
        "details": "See {IERC721-safeTransferFrom}."
      },
      "safeTransferFrom(address,address,uint256,bytes)": {
        "details": "See {IERC721-safeTransferFrom}."
      },
      "setApprovalForAll(address,bool)": {
        "details": "See {IERC721-setApprovalForAll}."
      },
      "supportsInterface(bytes4)": {
        "details": "See {IERC165-supportsInterface}."
      },
      "symbol()": {
        "details": "See {IERC721Metadata-symbol}."
      },
      "tokenURI(uint256)": {
        "details": "See {IERC721Metadata-tokenURI}."
      },
      "totalSupply()": {
        "details": "Burned tokens are calculated here, use _totalMinted() if you want to count just minted tokens."
      },
      "transferFrom(address,address,uint256)": {
        "details": "See {IERC721-transferFrom}."
      }
    },
    "version": 1
  },
  "userdoc": {
    "errors": {
      "ApprovalCallerNotOwnerNorApproved()": [
        {
          "notice": "The caller must own the token or be an approved operator."
        }
      ],
      "ApprovalQueryForNonexistentToken()": [
        {
          "notice": "The token does not exist."
        }
      ],
      "ApprovalToCurrentOwner()": [
        {
          "notice": "The caller cannot approve to the current owner."
        }
      ],
      "ApproveToCaller()": [
        {
          "notice": "The caller cannot approve to their own address."
        }
      ],
      "BalanceQueryForZeroAddress()": [
        {
          "notice": "Cannot query the balance for the zero address."
        }
      ],
      "MintToZeroAddress()": [
        {
          "notice": "Cannot mint to the zero address."
        }
      ],
      "MintZeroQuantity()": [
        {
          "notice": "The quantity of tokens minted must be more than zero."
        }
      ],
      "OwnerQueryForNonexistentToken()": [
        {
          "notice": "The token does not exist."
        }
      ],
      "TransferCallerNotOwnerNorApproved()": [
        {
          "notice": "The caller must own the token or be an approved operator."
        }
      ],
      "TransferFromIncorrectOwner()": [
        {
          "notice": "The token must be owned by `from`."
        }
      ],
      "TransferToNonERC721ReceiverImplementer()": [
        {
          "notice": "Cannot safely transfer to a contract that does not implement the ERC721Receiver interface."
        }
      ],
      "TransferToZeroAddress()": [
        {
          "notice": "Cannot transfer to the zero address."
        }
      ],
      "URIQueryForNonexistentToken()": [
        {
          "notice": "The token does not exist."
        }
      ]
    },
    "kind": "user",
    "methods": {},
    "version": 1
  }
}