{
  "_format": "hh-sol-artifact-1",
  "contractName": "Channel",
  "sourceName": "contracts/Channel.sol",
  "abi": [
    {
      "inputs": [
        {
          "internalType": "string",
          "name": "name",
          "type": "string"
        },
        {
          "internalType": "string",
          "name": "symbol",
          "type": "string"
        },
        {
          "internalType": "string",
          "name": "ipfsCid",
          "type": "string"
        },
        {
          "internalType": "uint256",
          "name": "mintFee",
          "type": "uint256"
        },
        {
          "internalType": "uint256",
          "name": "maxTokenId",
          "type": "uint256"
        }
      ],
      "stateMutability": "nonpayable",
      "type": "constructor"
    },
    {
      "inputs": [],
      "name": "ApprovalCallerNotOwnerNorApproved",
      "type": "error"
    },
    {
      "inputs": [],
      "name": "ApprovalQueryForNonexistentToken",
      "type": "error"
    },
    {
      "inputs": [],
      "name": "ApprovalToCurrentOwner",
      "type": "error"
    },
    {
      "inputs": [],
      "name": "ApproveToCaller",
      "type": "error"
    },
    {
      "inputs": [],
      "name": "BalanceQueryForZeroAddress",
      "type": "error"
    },
    {
      "inputs": [],
      "name": "InvalidQueryRange",
      "type": "error"
    },
    {
      "inputs": [],
      "name": "MintToZeroAddress",
      "type": "error"
    },
    {
      "inputs": [],
      "name": "MintZeroQuantity",
      "type": "error"
    },
    {
      "inputs": [],
      "name": "OwnerQueryForNonexistentToken",
      "type": "error"
    },
    {
      "inputs": [],
      "name": "TransferCallerNotOwnerNorApproved",
      "type": "error"
    },
    {
      "inputs": [],
      "name": "TransferFromIncorrectOwner",
      "type": "error"
    },
    {
      "inputs": [],
      "name": "TransferToNonERC721ReceiverImplementer",
      "type": "error"
    },
    {
      "inputs": [],
      "name": "TransferToZeroAddress",
      "type": "error"
    },
    {
      "inputs": [],
      "name": "URIQueryForNonexistentToken",
      "type": "error"
    },
    {
      "anonymous": false,
      "inputs": [
        {
          "indexed": true,
          "internalType": "address",
          "name": "owner",
          "type": "address"
        },
        {
          "indexed": true,
          "internalType": "address",
          "name": "approved",
          "type": "address"
        },
        {
          "indexed": true,
          "internalType": "uint256",
          "name": "tokenId",
          "type": "uint256"
        }
      ],
      "name": "Approval",
      "type": "event"
    },
    {
      "anonymous": false,
      "inputs": [
        {
          "indexed": true,
          "internalType": "address",
          "name": "owner",
          "type": "address"
        },
        {
          "indexed": true,
          "internalType": "address",
          "name": "operator",
          "type": "address"
        },
        {
          "indexed": false,
          "internalType": "bool",
          "name": "approved",
          "type": "bool"
        }
      ],
      "name": "ApprovalForAll",
      "type": "event"
    },
    {
      "anonymous": false,
      "inputs": [
        {
          "indexed": false,
          "internalType": "uint256",
          "name": "tokenId",
          "type": "uint256"
        }
      ],
      "name": "MintEvent",
      "type": "event"
    },
    {
      "anonymous": false,
      "inputs": [
        {
          "indexed": true,
          "internalType": "address",
          "name": "previousOwner",
          "type": "address"
        },
        {
          "indexed": true,
          "internalType": "address",
          "name": "newOwner",
          "type": "address"
        }
      ],
      "name": "OwnershipTransferred",
      "type": "event"
    },
    {
      "anonymous": false,
      "inputs": [
        {
          "indexed": true,
          "internalType": "address",
          "name": "from",
          "type": "address"
        },
        {
          "indexed": true,
          "internalType": "address",
          "name": "to",
          "type": "address"
        },
        {
          "indexed": true,
          "internalType": "uint256",
          "name": "tokenId",
          "type": "uint256"
        }
      ],
      "name": "Transfer",
      "type": "event"
    },
    {
      "inputs": [],
      "name": "MAX_MINT_AMOUNT",
      "outputs": [
        {
          "internalType": "uint256",
          "name": "",
          "type": "uint256"
        }
      ],
      "stateMutability": "view",
      "type": "function"
    },
    {
      "inputs": [
        {
          "internalType": "address",
          "name": "to",
          "type": "address"
        },
        {
          "internalType": "uint256",
          "name": "tokenId",
          "type": "uint256"
        }
      ],
      "name": "approve",
      "outputs": [],
      "stateMutability": "nonpayable",
      "type": "function"
    },
    {
      "inputs": [
        {
          "internalType": "address",
          "name": "owner",
          "type": "address"
        }
      ],
      "name": "balanceOf",
      "outputs": [
        {
          "internalType": "uint256",
          "name": "",
          "type": "uint256"
        }
      ],
      "stateMutability": "view",
      "type": "function"
    },
    {
      "inputs": [],
      "name": "contractURI",
      "outputs": [
        {
          "internalType": "string",
          "name": "",
          "type": "string"
        }
      ],
      "stateMutability": "view",
      "type": "function"
    },
    {
      "inputs": [
        {
          "internalType": "uint256",
          "name": "tokenId",
          "type": "uint256"
        }
      ],
      "name": "explicitOwnershipOf",
      "outputs": [
        {
          "components": [
            {
              "internalType": "address",
              "name": "addr",
              "type": "address"
            },
            {
              "internalType": "uint64",
              "name": "startTimestamp",
              "type": "uint64"
            },
            {
              "internalType": "bool",
              "name": "burned",
              "type": "bool"
            }
          ],
          "internalType": "struct IERC721A.TokenOwnership",
          "name": "",
          "type": "tuple"
        }
      ],
      "stateMutability": "view",
      "type": "function"
    },
    {
      "inputs": [
        {
          "internalType": "uint256[]",
          "name": "tokenIds",
          "type": "uint256[]"
        }
      ],
      "name": "explicitOwnershipsOf",
      "outputs": [
        {
          "components": [
            {
              "internalType": "address",
              "name": "addr",
              "type": "address"
            },
            {
              "internalType": "uint64",
              "name": "startTimestamp",
              "type": "uint64"
            },
            {
              "internalType": "bool",
              "name": "burned",
              "type": "bool"
            }
          ],
          "internalType": "struct IERC721A.TokenOwnership[]",
          "name": "",
          "type": "tuple[]"
        }
      ],
      "stateMutability": "view",
      "type": "function"
    },
    {
      "inputs": [
        {
          "internalType": "uint256",
          "name": "tokenId",
          "type": "uint256"
        }
      ],
      "name": "getApproved",
      "outputs": [
        {
          "internalType": "address",
          "name": "",
          "type": "address"
        }
      ],
      "stateMutability": "view",
      "type": "function"
    },
    {
      "inputs": [
        {
          "internalType": "address",
          "name": "owner",
          "type": "address"
        },
        {
          "internalType": "address",
          "name": "operator",
          "type": "address"
        }
      ],
      "name": "isApprovedForAll",
      "outputs": [
        {
          "internalType": "bool",
          "name": "",
          "type": "bool"
        }
      ],
      "stateMutability": "view",
      "type": "function"
    },
    {
      "inputs": [
        {
          "internalType": "uint256",
          "name": "quantity",
          "type": "uint256"
        }
      ],
      "name": "mint",
      "outputs": [],
      "stateMutability": "payable",
      "type": "function"
    },
    {
      "inputs": [
        {
          "internalType": "uint256",
          "name": "quantity",
          "type": "uint256"
        },
        {
          "internalType": "uint256",
          "name": "start",
          "type": "uint256"
        }
      ],
      "name": "mintFromStartOrFail",
      "outputs": [],
      "stateMutability": "payable",
      "type": "function"
    },
    {
      "inputs": [],
      "name": "name",
      "outputs": [
        {
          "internalType": "string",
          "name": "",
          "type": "string"
        }
      ],
      "stateMutability": "view",
      "type": "function"
    },
    {
      "inputs": [],
      "name": "owner",
      "outputs": [
        {
          "internalType": "address",
          "name": "",
          "type": "address"
        }
      ],
      "stateMutability": "view",
      "type": "function"
    },
    {
      "inputs": [
        {
          "internalType": "uint256",
          "name": "tokenId",
          "type": "uint256"
        }
      ],
      "name": "ownerOf",
      "outputs": [
        {
          "internalType": "address",
          "name": "",
          "type": "address"
        }
      ],
      "stateMutability": "view",
      "type": "function"
    },
    {
      "inputs": [],
      "name": "renounceOwnership",
      "outputs": [],
      "stateMutability": "nonpayable",
      "type": "function"
    },
    {
      "inputs": [
        {
          "internalType": "address",
          "name": "from",
          "type": "address"
        },
        {
          "internalType": "address",
          "name": "to",
          "type": "address"
        },
        {
          "internalType": "uint256",
          "name": "tokenId",
          "type": "uint256"
        }
      ],
      "name": "safeTransferFrom",
      "outputs": [],
      "stateMutability": "nonpayable",
      "type": "function"
    },
    {
      "inputs": [
        {
          "internalType": "address",
          "name": "from",
          "type": "address"
        },
        {
          "internalType": "address",
          "name": "to",
          "type": "address"
        },
        {
          "internalType": "uint256",
          "name": "tokenId",
          "type": "uint256"
        },
        {
          "internalType": "bytes",
          "name": "_data",
          "type": "bytes"
        }
      ],
      "name": "safeTransferFrom",
      "outputs": [],
      "stateMutability": "nonpayable",
      "type": "function"
    },
    {
      "inputs": [
        {
          "internalType": "address",
          "name": "operator",
          "type": "address"
        },
        {
          "internalType": "bool",
          "name": "approved",
          "type": "bool"
        }
      ],
      "name": "setApprovalForAll",
      "outputs": [],
      "stateMutability": "nonpayable",
      "type": "function"
    },
    {
      "inputs": [
        {
          "internalType": "bytes4",
          "name": "interfaceId",
          "type": "bytes4"
        }
      ],
      "name": "supportsInterface",
      "outputs": [
        {
          "internalType": "bool",
          "name": "",
          "type": "bool"
        }
      ],
      "stateMutability": "view",
      "type": "function"
    },
    {
      "inputs": [],
      "name": "symbol",
      "outputs": [
        {
          "internalType": "string",
          "name": "",
          "type": "string"
        }
      ],
      "stateMutability": "view",
      "type": "function"
    },
    {
      "inputs": [
        {
          "internalType": "uint256",
          "name": "tokenId",
          "type": "uint256"
        }
      ],
      "name": "tokenURI",
      "outputs": [
        {
          "internalType": "string",
          "name": "",
          "type": "string"
        }
      ],
      "stateMutability": "view",
      "type": "function"
    },
    {
      "inputs": [
        {
          "internalType": "address",
          "name": "owner",
          "type": "address"
        }
      ],
      "name": "tokensOfOwner",
      "outputs": [
        {
          "internalType": "uint256[]",
          "name": "",
          "type": "uint256[]"
        }
      ],
      "stateMutability": "view",
      "type": "function"
    },
    {
      "inputs": [
        {
          "internalType": "address",
          "name": "owner",
          "type": "address"
        },
        {
          "internalType": "uint256",
          "name": "start",
          "type": "uint256"
        },
        {
          "internalType": "uint256",
          "name": "stop",
          "type": "uint256"
        }
      ],
      "name": "tokensOfOwnerIn",
      "outputs": [
        {
          "internalType": "uint256[]",
          "name": "",
          "type": "uint256[]"
        }
      ],
      "stateMutability": "view",
      "type": "function"
    },
    {
      "inputs": [],
      "name": "totalMinted",
      "outputs": [
        {
          "internalType": "uint256",
          "name": "",
          "type": "uint256"
        }
      ],
      "stateMutability": "view",
      "type": "function"
    },
    {
      "inputs": [],
      "name": "totalSupply",
      "outputs": [
        {
          "internalType": "uint256",
          "name": "",
          "type": "uint256"
        }
      ],
      "stateMutability": "view",
      "type": "function"
    },
    {
      "inputs": [
        {
          "internalType": "address",
          "name": "from",
          "type": "address"
        },
        {
          "internalType": "address",
          "name": "to",
          "type": "address"
        },
        {
          "internalType": "uint256",
          "name": "tokenId",
          "type": "uint256"
        }
      ],
      "name": "transferFrom",
      "outputs": [],
      "stateMutability": "nonpayable",
      "type": "function"
    },
    {
      "inputs": [
        {
          "internalType": "address",
          "name": "newOwner",
          "type": "address"
        }
      ],
      "name": "transferOwnership",
      "outputs": [],
      "stateMutability": "nonpayable",
      "type": "function"
    },
    {
      "inputs": [
        {
          "internalType": "uint256",
          "name": "_i",
          "type": "uint256"
        }
      ],
      "name": "uint2str",
      "outputs": [
        {
          "internalType": "string",
          "name": "_uintAsString",
          "type": "string"
        }
      ],
      "stateMutability": "pure",
      "type": "function"
    },
    {
      "inputs": [],
      "name": "withdraw",
      "outputs": [],
      "stateMutability": "payable",
      "type": "function"
    }
  ],
  "bytecode": "0x6080604052600a600d553480156200001657600080fd5b5060405162002ffb38038062002ffb8339810160408190526200003991620002a6565b8451859085906200005290600290602085019062000133565b5080516200006890600390602084019062000133565b50506001600055506200007b33620000e1565b600b829055600c81905582516200009a90600a90602086019062000133565b50600a604051602001620000af919062000386565b60405160208183030381529060405260099080519060200190620000d592919062000133565b50505050505062000470565b600880546001600160a01b038381166001600160a01b0319831681179093556040519116919082907f8be0079c531659141344cd1fd0a4f28419497f9722a3daafe3b4186f6b6457e090600090a35050565b82805462000141906200034a565b90600052602060002090601f016020900481019282620001655760008555620001b0565b82601f106200018057805160ff1916838001178555620001b0565b82800160010185558215620001b0579182015b82811115620001b057825182559160200191906001019062000193565b50620001be929150620001c2565b5090565b5b80821115620001be5760008155600101620001c3565b634e487b7160e01b600052604160045260246000fd5b600082601f8301126200020157600080fd5b81516001600160401b03808211156200021e576200021e620001d9565b604051601f8301601f19908116603f01168101908282118183101715620002495762000249620001d9565b816040528381526020925086838588010111156200026657600080fd5b600091505b838210156200028a57858201830151818301840152908201906200026b565b838211156200029c5760008385830101525b9695505050505050565b600080600080600060a08688031215620002bf57600080fd5b85516001600160401b0380821115620002d757600080fd5b620002e589838a01620001ef565b96506020880151915080821115620002fc57600080fd5b6200030a89838a01620001ef565b955060408801519150808211156200032157600080fd5b506200033088828901620001ef565b606088015160809098015196999598509695949350505050565b600181811c908216806200035f57607f821691505b6020821081036200038057634e487b7160e01b600052602260045260246000fd5b50919050565b66697066733a2f2f60c81b8152600060076000845481600182811c915080831680620003b357607f831692505b60208084108203620003d357634e487b7160e01b86526022600452602486fd5b818015620003ea5760018114620004005762000433565b60ff1986168a890152848a018801965062000433565b60008b81526020902060005b86811015620004295781548c82018b01529085019083016200040c565b505087858b010196505b50505050505062000467817f2f636f6e74726163744d657461646174612e6a736f6e00000000000000000000815260160190565b95945050505050565b612b7b80620004806000396000f3fe6080604052600436106101b75760003560e01c80638da5cb5b116100ec578063c23dc68f1161008a578063e985e9c511610064578063e985e9c514610515578063f2fde38b1461056b578063f76f950e1461058b578063fa9b7018146105ab57600080fd5b8063c23dc68f146104b3578063c87b56dd146104e0578063e8a3d4851461050057600080fd5b8063a0712d68116100c6578063a0712d6814610429578063a22cb4651461043c578063a2309ff81461045c578063b88d4fde1461049357600080fd5b80638da5cb5b146103c957806395d89b41146103f457806399a2557a1461040957600080fd5b806342842e0e1161015957806370a082311161013357806370a0823114610354578063715018a6146103745780637a4d892a146103895780638462151c1461039c57600080fd5b806342842e0e146102e75780635bbb2177146103075780636352211e1461033457600080fd5b8063095ea7b311610195578063095ea7b31461025857806318160ddd1461027a57806323b872dd146102bf5780633ccfd60b146102df57600080fd5b806301ffc9a7146101bc57806306fdde03146101f1578063081812fc14610213575b600080fd5b3480156101c857600080fd5b506101dc6101d7366004612292565b6105c1565b60405190151581526020015b60405180910390f35b3480156101fd57600080fd5b506102066106a6565b6040516101e89190612325565b34801561021f57600080fd5b5061023361022e366004612338565b610738565b60405173ffffffffffffffffffffffffffffffffffffffff90911681526020016101e8565b34801561026457600080fd5b5061027861027336600461237a565b6107a2565b005b34801561028657600080fd5b50600154600054037fffffffffffffffffffffffffffffffffffffffffffffffffffffffffffffffff015b6040519081526020016101e8565b3480156102cb57600080fd5b506102786102da3660046123a4565b6108ab565b6102786108b6565b3480156102f357600080fd5b506102786103023660046123a4565b610916565b34801561031357600080fd5b5061032761032236600461245e565b610931565b6040516101e89190612504565b34801561034057600080fd5b5061023361034f366004612338565b610a16565b34801561036057600080fd5b506102b161036f36600461257c565b610a28565b34801561038057600080fd5b50610278610aaa565b610278610397366004612597565b610abe565b3480156103a857600080fd5b506103bc6103b736600461257c565b610bcb565b6040516101e891906125b9565b3480156103d557600080fd5b5060085473ffffffffffffffffffffffffffffffffffffffff16610233565b34801561040057600080fd5b50610206610d6b565b34801561041557600080fd5b506103bc6104243660046125f1565b610d7a565b610278610437366004612338565b610fb4565b34801561044857600080fd5b50610278610457366004612624565b6111ff565b34801561046857600080fd5b506000547fffffffffffffffffffffffffffffffffffffffffffffffffffffffffffffffff016102b1565b34801561049f57600080fd5b506102786104ae366004612660565b6112e5565b3480156104bf57600080fd5b506104d36104ce366004612338565b611355565b6040516101e8919061273e565b3480156104ec57600080fd5b506102066104fb366004612338565b611447565b34801561050c57600080fd5b50610206611510565b34801561052157600080fd5b506101dc610530366004612781565b73ffffffffffffffffffffffffffffffffffffffff918216600090815260076020908152604080832093909416825291909152205460ff1690565b34801561057757600080fd5b5061027861058636600461257c565b61151f565b34801561059757600080fd5b506102066105a6366004612338565b6115d3565b3480156105b757600080fd5b506102b1600d5481565b60007fffffffff0000000000000000000000000000000000000000000000000000000082167f80ac58cd00000000000000000000000000000000000000000000000000000000148061065457507fffffffff0000000000000000000000000000000000000000000000000000000082167f5b5e139f00000000000000000000000000000000000000000000000000000000145b806106a057507f01ffc9a7000000000000000000000000000000000000000000000000000000007fffffffff000000000000000000000000000000000000000000000000000000008316145b92915050565b6060600280546106b5906127b4565b80601f01602080910402602001604051908101604052809291908181526020018280546106e1906127b4565b801561072e5780601f106107035761010080835404028352916020019161072e565b820191906000526020600020905b81548152906001019060200180831161071157829003601f168201915b5050505050905090565b600061074382611733565b610779576040517fcf4700e400000000000000000000000000000000000000000000000000000000815260040160405180910390fd5b5060009081526006602052604090205473ffffffffffffffffffffffffffffffffffffffff1690565b60006107ad82610a16565b90508073ffffffffffffffffffffffffffffffffffffffff168373ffffffffffffffffffffffffffffffffffffffff1603610814576040517f943f7b8c00000000000000000000000000000000000000000000000000000000815260040160405180910390fd5b3373ffffffffffffffffffffffffffffffffffffffff82161461089b5773ffffffffffffffffffffffffffffffffffffffff8116600090815260076020908152604080832033845290915290205460ff1661089b576040517fcfb3b94200000000000000000000000000000000000000000000000000000000815260040160405180910390fd5b6108a6838383611785565b505050565b6108a6838383611806565b6108be611b68565b604051600090339047908381818185875af1925050503d8060008114610900576040519150601f19603f3d011682016040523d82523d6000602084013e610905565b606091505b505090508061091357600080fd5b50565b6108a6838383604051806020016040528060008152506112e5565b805160609060008167ffffffffffffffff811115610951576109516123e0565b6040519080825280602002602001820160405280156109ba57816020015b60408051606081018252600080825260208083018290529282015282527fffffffffffffffffffffffffffffffffffffffffffffffffffffffffffffffff90920191018161096f5790505b50905060005b828114610a0e576109e98582815181106109dc576109dc612807565b6020026020010151611355565b8282815181106109fb576109fb612807565b60209081029190910101526001016109c0565b509392505050565b6000610a2182611be9565b5192915050565b600073ffffffffffffffffffffffffffffffffffffffff8216610a77576040517f8f4eb60400000000000000000000000000000000000000000000000000000000815260040160405180910390fd5b5073ffffffffffffffffffffffffffffffffffffffff1660009081526005602052604090205467ffffffffffffffff1690565b610ab2611b68565b610abc6000611dbf565b565b6000547fffffffffffffffffffffffffffffffffffffffffffffffffffffffffffffffff0181610b4f576040517f08c379a000000000000000000000000000000000000000000000000000000000815260206004820152600f60248201527f4e6f20737461727420706173736564000000000000000000000000000000000060448201526064015b60405180910390fd5b610b5a816001612865565b8214610bc2576040517f08c379a000000000000000000000000000000000000000000000000000000000815260206004820152601360248201527f546f6b656e2069732070617374207374617274000000000000000000000000006044820152606401610b46565b6108a683610fb4565b60606000806000610bdb85610a28565b905060008167ffffffffffffffff811115610bf857610bf86123e0565b604051908082528060200260200182016040528015610c21578160200160208202803683370190505b50604080516060810182526000808252602082018190529181019190915290915060015b838614610d5f576000818152600460209081526040918290208251606081018452905473ffffffffffffffffffffffffffffffffffffffff8116825274010000000000000000000000000000000000000000810467ffffffffffffffff16928201929092527c010000000000000000000000000000000000000000000000000000000090910460ff1615159181018290529250610d5757815173ffffffffffffffffffffffffffffffffffffffff1615610cfe57815194505b8773ffffffffffffffffffffffffffffffffffffffff168573ffffffffffffffffffffffffffffffffffffffff1603610d575780838780600101985081518110610d4a57610d4a612807565b6020026020010181815250505b600101610c45565b50909695505050505050565b6060600380546106b5906127b4565b6060818310610db5576040517f32c1995a00000000000000000000000000000000000000000000000000000000815260040160405180910390fd5b600080546001851015610dc757600194505b80841115610dd3578093505b6000610dde87610a28565b905084861015610dfd5785850381811015610df7578091505b50610e01565b5060005b60008167ffffffffffffffff811115610e1c57610e1c6123e0565b604051908082528060200260200182016040528015610e45578160200160208202803683370190505b50905081600003610e5b579350610fad92505050565b6000610e6688611355565b905060008160400151610e77575080515b885b888114158015610e895750848714155b15610fa1576000818152600460209081526040918290208251606081018452905473ffffffffffffffffffffffffffffffffffffffff8116825274010000000000000000000000000000000000000000810467ffffffffffffffff16928201929092527c010000000000000000000000000000000000000000000000000000000090910460ff1615159181018290529350610f9957825173ffffffffffffffffffffffffffffffffffffffff1615610f4057825191505b8a73ffffffffffffffffffffffffffffffffffffffff168273ffffffffffffffffffffffffffffffffffffffff1603610f995780848880600101995081518110610f8c57610f8c612807565b6020026020010181815250505b600101610e79565b50505092835250909150505b9392505050565b6000547fffffffffffffffffffffffffffffffffffffffffffffffffffffffffffffffff0181611040576040517f08c379a000000000000000000000000000000000000000000000000000000000815260206004820152600760248201527f546f6f20666577000000000000000000000000000000000000000000000000006044820152606401610b46565b600d548211156110ac576040517f08c379a000000000000000000000000000000000000000000000000000000000815260206004820152600860248201527f546f6f206d616e790000000000000000000000000000000000000000000000006044820152606401610b46565b600c546110b98383612865565b1115611121576040517f08c379a000000000000000000000000000000000000000000000000000000000815260206004820152600e60248201527f4d696e74696e6720636c6f7365640000000000000000000000000000000000006044820152606401610b46565b60085473ffffffffffffffffffffffffffffffffffffffff1633146111b557600b5461114d908361287d565b34146111b5576040517f08c379a000000000000000000000000000000000000000000000000000000000815260206004820152600e60248201527f53656e64206578616374204554480000000000000000000000000000000000006044820152606401610b46565b6111bf3383611e36565b7f94242c431036b9ba6723a138d4b275a5b38e13a95ef66227a45df427c0f843f36111ea8383612865565b60405190815260200160405180910390a15050565b3373ffffffffffffffffffffffffffffffffffffffff83160361124e576040517fb06307db00000000000000000000000000000000000000000000000000000000815260040160405180910390fd5b33600081815260076020908152604080832073ffffffffffffffffffffffffffffffffffffffff87168085529083529281902080547fffffffffffffffffffffffffffffffffffffffffffffffffffffffffffffff001686151590811790915590519081529192917f17307eab39ab6107e8899845ad3d59bd9653f200f220920489ca2b5937696c31910160405180910390a35050565b6112f0848484611806565b73ffffffffffffffffffffffffffffffffffffffff83163b1561134f5761131984848484611e54565b61134f576040517fd1a57ed600000000000000000000000000000000000000000000000000000000815260040160405180910390fd5b50505050565b6040805160608082018352600080835260208084018290528385018290528451928301855281835282018190529281019290925290600183108061139b57506000548310155b156113a65792915050565b506000828152600460209081526040918290208251606081018452905473ffffffffffffffffffffffffffffffffffffffff8116825274010000000000000000000000000000000000000000810467ffffffffffffffff16928201929092527c010000000000000000000000000000000000000000000000000000000090910460ff16158015928201929092529061143e5792915050565b610fad83611be9565b606061145282611733565b6114de576040517f08c379a000000000000000000000000000000000000000000000000000000000815260206004820152602f60248201527f4552433732314d657461646174613a2055524920717565727920666f72206e6f60448201527f6e6578697374656e7420746f6b656e00000000000000000000000000000000006064820152608401610b46565b600a6114e9836115d3565b6040516020016114fa9291906128d6565b6040516020818303038152906040529050919050565b6060600980546106b5906127b4565b611527611b68565b73ffffffffffffffffffffffffffffffffffffffff81166115ca576040517f08c379a000000000000000000000000000000000000000000000000000000000815260206004820152602660248201527f4f776e61626c653a206e6577206f776e657220697320746865207a65726f206160448201527f64647265737300000000000000000000000000000000000000000000000000006064820152608401610b46565b61091381611dbf565b60608160000361161657505060408051808201909152600181527f3000000000000000000000000000000000000000000000000000000000000000602082015290565b8160005b8115611640578061162a81612a3a565b91506116399050600a83612a72565b915061161a565b60008167ffffffffffffffff81111561165b5761165b6123e0565b6040519080825280601f01601f191660200182016040528015611685576020820181803683370190505b509050815b851561172a5761169b600182612aad565b905060006116aa600a88612a72565b6116b590600a61287d565b6116bf9088612aad565b6116ca906030612ac4565b905060008160f81b9050808484815181106116e7576116e7612807565b60200101907effffffffffffffffffffffffffffffffffffffffffffffffffffffffffffff1916908160001a905350611721600a89612a72565b9750505061168a565b50949350505050565b600081600111158015611747575060005482105b80156106a05750506000908152600460205260409020547c0100000000000000000000000000000000000000000000000000000000900460ff161590565b60008281526006602052604080822080547fffffffffffffffffffffffff00000000000000000000000000000000000000001673ffffffffffffffffffffffffffffffffffffffff87811691821790925591518593918516917f8c5be1e5ebec7d5bd14f71427d1e84f3dd0314c0f7b2291e5b200ac8c7c3b92591a4505050565b600061181182611be9565b90508373ffffffffffffffffffffffffffffffffffffffff16816000015173ffffffffffffffffffffffffffffffffffffffff161461187c576040517fa114810000000000000000000000000000000000000000000000000000000000815260040160405180910390fd5b60003373ffffffffffffffffffffffffffffffffffffffff861614806118d2575073ffffffffffffffffffffffffffffffffffffffff8516600090815260076020908152604080832033845290915290205460ff165b806118fa5750336118e284610738565b73ffffffffffffffffffffffffffffffffffffffff16145b905080611933576040517f59c896be00000000000000000000000000000000000000000000000000000000815260040160405180910390fd5b73ffffffffffffffffffffffffffffffffffffffff8416611980576040517fea553b3400000000000000000000000000000000000000000000000000000000815260040160405180910390fd5b61198c60008487611785565b73ffffffffffffffffffffffffffffffffffffffff858116600090815260056020908152604080832080547fffffffffffffffffffffffffffffffffffffffffffffffff000000000000000080821667ffffffffffffffff9283167fffffffffffffffffffffffffffffffffffffffffffffffffffffffffffffffff01831617909255898616808652838620805493841693831660019081018416949094179055898652600490945282852080547fffffffff00000000000000000000000000000000000000000000000000000000169094177401000000000000000000000000000000000000000042909216919091021783558701808452922080549193909116611b03576000548214611b03578054602086015167ffffffffffffffff1674010000000000000000000000000000000000000000027fffffffff0000000000000000000000000000000000000000000000000000000090911673ffffffffffffffffffffffffffffffffffffffff8a16171781555b505050828473ffffffffffffffffffffffffffffffffffffffff168673ffffffffffffffffffffffffffffffffffffffff167fddf252ad1be2c89b69c2b068fc378daa952ba7f163c4a11628f55a4df523b3ef60405160405180910390a45050505050565b60085473ffffffffffffffffffffffffffffffffffffffff163314610abc576040517f08c379a000000000000000000000000000000000000000000000000000000000815260206004820181905260248201527f4f776e61626c653a2063616c6c6572206973206e6f7420746865206f776e65726044820152606401610b46565b60408051606081018252600080825260208201819052918101919091528180600111611d8d57600054811015611d8d576000818152600460209081526040918290208251606081018452905473ffffffffffffffffffffffffffffffffffffffff8116825274010000000000000000000000000000000000000000810467ffffffffffffffff16928201929092527c010000000000000000000000000000000000000000000000000000000090910460ff16151591810182905290611d8b57805173ffffffffffffffffffffffffffffffffffffffff1615611ccc579392505050565b507fffffffffffffffffffffffffffffffffffffffffffffffffffffffffffffffff016000818152600460209081526040918290208251606081018452905473ffffffffffffffffffffffffffffffffffffffff811680835274010000000000000000000000000000000000000000820467ffffffffffffffff16938301939093527c0100000000000000000000000000000000000000000000000000000000900460ff1615159281019290925215611d86579392505050565b611ccc565b505b6040517fdf2d9b4200000000000000000000000000000000000000000000000000000000815260040160405180910390fd5b6008805473ffffffffffffffffffffffffffffffffffffffff8381167fffffffffffffffffffffffff0000000000000000000000000000000000000000831681179093556040519116919082907f8be0079c531659141344cd1fd0a4f28419497f9722a3daafe3b4186f6b6457e090600090a35050565b611e50828260405180602001604052806000815250611fcd565b5050565b6040517f150b7a0200000000000000000000000000000000000000000000000000000000815260009073ffffffffffffffffffffffffffffffffffffffff85169063150b7a0290611eaf903390899088908890600401612ae9565b6020604051808303816000875af1925050508015611f08575060408051601f3d9081017fffffffffffffffffffffffffffffffffffffffffffffffffffffffffffffffe0168201909252611f0591810190612b28565b60015b611f7f573d808015611f36576040519150601f19603f3d011682016040523d82523d6000602084013e611f3b565b606091505b508051600003611f77576040517fd1a57ed600000000000000000000000000000000000000000000000000000000815260040160405180910390fd5b805181602001fd5b7fffffffff00000000000000000000000000000000000000000000000000000000167f150b7a0200000000000000000000000000000000000000000000000000000000149050949350505050565b60005473ffffffffffffffffffffffffffffffffffffffff841661201d576040517f2e07630000000000000000000000000000000000000000000000000000000000815260040160405180910390fd5b82600003612057576040517fb562e8dd00000000000000000000000000000000000000000000000000000000815260040160405180910390fd5b73ffffffffffffffffffffffffffffffffffffffff8416600081815260056020908152604080832080547fffffffffffffffffffffffffffffffff00000000000000000000000000000000811667ffffffffffffffff8083168b018116918217680100000000000000007fffffffffffffffffffffffffffffffffffffffffffffffff000000000000000090941690921783900481168b01811690920217909155858452600490925290912080547fffffffff000000000000000000000000000000000000000000000000000000001683177401000000000000000000000000000000000000000042909316929092029190911790558190818501903b15612202575b604051829073ffffffffffffffffffffffffffffffffffffffff8816906000907fddf252ad1be2c89b69c2b068fc378daa952ba7f163c4a11628f55a4df523b3ef908290a46121b26000878480600101955087611e54565b6121e8576040517fd1a57ed600000000000000000000000000000000000000000000000000000000815260040160405180910390fd5b80821061215a5782600054146121fd57600080fd5b612254565b5b60405160018301929073ffffffffffffffffffffffffffffffffffffffff8816906000907fddf252ad1be2c89b69c2b068fc378daa952ba7f163c4a11628f55a4df523b3ef908290a4808210612203575b50600090815561134f9085838684565b7fffffffff000000000000000000000000000000000000000000000000000000008116811461091357600080fd5b6000602082840312156122a457600080fd5b8135610fad81612264565b60005b838110156122ca5781810151838201526020016122b2565b8381111561134f5750506000910152565b600081518084526122f38160208601602086016122af565b601f017fffffffffffffffffffffffffffffffffffffffffffffffffffffffffffffffe0169290920160200192915050565b602081526000610fad60208301846122db565b60006020828403121561234a57600080fd5b5035919050565b803573ffffffffffffffffffffffffffffffffffffffff8116811461237557600080fd5b919050565b6000806040838503121561238d57600080fd5b61239683612351565b946020939093013593505050565b6000806000606084860312156123b957600080fd5b6123c284612351565b92506123d060208501612351565b9150604084013590509250925092565b7f4e487b7100000000000000000000000000000000000000000000000000000000600052604160045260246000fd5b604051601f82017fffffffffffffffffffffffffffffffffffffffffffffffffffffffffffffffe016810167ffffffffffffffff81118282101715612456576124566123e0565b604052919050565b6000602080838503121561247157600080fd5b823567ffffffffffffffff8082111561248957600080fd5b818501915085601f83011261249d57600080fd5b8135818111156124af576124af6123e0565b8060051b91506124c084830161240f565b81815291830184019184810190888411156124da57600080fd5b938501935b838510156124f8578435825293850193908501906124df565b98975050505050505050565b6020808252825182820181905260009190848201906040850190845b81811015610d5f57612569838551805173ffffffffffffffffffffffffffffffffffffffff16825260208082015167ffffffffffffffff16908301526040908101511515910152565b9284019260609290920191600101612520565b60006020828403121561258e57600080fd5b610fad82612351565b600080604083850312156125aa57600080fd5b50508035926020909101359150565b6020808252825182820181905260009190848201906040850190845b81811015610d5f578351835292840192918401916001016125d5565b60008060006060848603121561260657600080fd5b61260f84612351565b95602085013595506040909401359392505050565b6000806040838503121561263757600080fd5b61264083612351565b91506020830135801515811461265557600080fd5b809150509250929050565b6000806000806080858703121561267657600080fd5b61267f85612351565b9350602061268e818701612351565b935060408601359250606086013567ffffffffffffffff808211156126b257600080fd5b818801915088601f8301126126c657600080fd5b8135818111156126d8576126d86123e0565b612708847fffffffffffffffffffffffffffffffffffffffffffffffffffffffffffffffe0601f8401160161240f565b9150808252898482850101111561271e57600080fd5b808484018584013760008482840101525080935050505092959194509250565b815173ffffffffffffffffffffffffffffffffffffffff16815260208083015167ffffffffffffffff1690820152604080830151151590820152606081016106a0565b6000806040838503121561279457600080fd5b61279d83612351565b91506127ab60208401612351565b90509250929050565b600181811c908216806127c857607f821691505b602082108103612801577f4e487b7100000000000000000000000000000000000000000000000000000000600052602260045260246000fd5b50919050565b7f4e487b7100000000000000000000000000000000000000000000000000000000600052603260045260246000fd5b7f4e487b7100000000000000000000000000000000000000000000000000000000600052601160045260246000fd5b6000821982111561287857612878612836565b500190565b6000817fffffffffffffffffffffffffffffffffffffffffffffffffffffffffffffffff04831182151516156128b5576128b5612836565b500290565b600081516128cc8185602086016122af565b9290920192915050565b7f697066733a2f2f000000000000000000000000000000000000000000000000008152600060076000855481600182811c91508083168061291857607f831692505b60208084108203612950577f4e487b710000000000000000000000000000000000000000000000000000000086526022600452602486fd5b8180156129645760018114612997576129c8565b7fffffffffffffffffffffffffffffffffffffffffffffffffffffffffffffff008616888b015287858b010196506129c8565b60008c81526020902060005b868110156129be5781548c82018b01529085019083016129a3565b505087858b010196505b505050505050612a30612a07612a01837f2f6d657461646174612f000000000000000000000000000000000000000000008152600a0190565b876128ba565b7f2e6a736f6e000000000000000000000000000000000000000000000000000000815260050190565b9695505050505050565b60007fffffffffffffffffffffffffffffffffffffffffffffffffffffffffffffffff8203612a6b57612a6b612836565b5060010190565b600082612aa8577f4e487b7100000000000000000000000000000000000000000000000000000000600052601260045260246000fd5b500490565b600082821015612abf57612abf612836565b500390565b600060ff821660ff84168060ff03821115612ae157612ae1612836565b019392505050565b600073ffffffffffffffffffffffffffffffffffffffff808716835280861660208401525083604083015260806060830152612a3060808301846122db565b600060208284031215612b3a57600080fd5b8151610fad8161226456fea2646970667358221220f2ecb4365a5e748e9e2dcdb228a9f20f92773f0e3232e0799ab408b86c9eb57b64736f6c634300080d0033",
  "linkReferences": {},
  "deployedLinkReferences": {}
}