{
  "_format": "hh-sol-artifact-1",
  "contractName": "Channel",
  "sourceName": "contracts/Channel.sol",
  "abi": [
    {
      "inputs": [
        {
          "internalType": "string",
          "name": "name",
          "type": "string"
        },
        {
          "internalType": "string",
          "name": "symbol",
          "type": "string"
        },
        {
          "internalType": "string",
          "name": "ipfsCid",
          "type": "string"
        },
        {
          "internalType": "uint256",
          "name": "mintFee",
          "type": "uint256"
        },
        {
          "internalType": "uint256",
          "name": "maxTokenId",
          "type": "uint256"
        }
      ],
      "stateMutability": "nonpayable",
      "type": "constructor"
    },
    {
      "inputs": [],
      "name": "ApprovalCallerNotOwnerNorApproved",
      "type": "error"
    },
    {
      "inputs": [],
      "name": "ApprovalQueryForNonexistentToken",
      "type": "error"
    },
    {
      "inputs": [],
      "name": "ApprovalToCurrentOwner",
      "type": "error"
    },
    {
      "inputs": [],
      "name": "ApproveToCaller",
      "type": "error"
    },
    {
      "inputs": [],
      "name": "BalanceQueryForZeroAddress",
      "type": "error"
    },
    {
      "inputs": [],
      "name": "MintToZeroAddress",
      "type": "error"
    },
    {
      "inputs": [],
      "name": "MintZeroQuantity",
      "type": "error"
    },
    {
      "inputs": [],
      "name": "OwnerQueryForNonexistentToken",
      "type": "error"
    },
    {
      "inputs": [],
      "name": "TransferCallerNotOwnerNorApproved",
      "type": "error"
    },
    {
      "inputs": [],
      "name": "TransferFromIncorrectOwner",
      "type": "error"
    },
    {
      "inputs": [],
      "name": "TransferToNonERC721ReceiverImplementer",
      "type": "error"
    },
    {
      "inputs": [],
      "name": "TransferToZeroAddress",
      "type": "error"
    },
    {
      "inputs": [],
      "name": "URIQueryForNonexistentToken",
      "type": "error"
    },
    {
      "anonymous": false,
      "inputs": [
        {
          "indexed": true,
          "internalType": "address",
          "name": "owner",
          "type": "address"
        },
        {
          "indexed": true,
          "internalType": "address",
          "name": "approved",
          "type": "address"
        },
        {
          "indexed": true,
          "internalType": "uint256",
          "name": "tokenId",
          "type": "uint256"
        }
      ],
      "name": "Approval",
      "type": "event"
    },
    {
      "anonymous": false,
      "inputs": [
        {
          "indexed": true,
          "internalType": "address",
          "name": "owner",
          "type": "address"
        },
        {
          "indexed": true,
          "internalType": "address",
          "name": "operator",
          "type": "address"
        },
        {
          "indexed": false,
          "internalType": "bool",
          "name": "approved",
          "type": "bool"
        }
      ],
      "name": "ApprovalForAll",
      "type": "event"
    },
    {
      "anonymous": false,
      "inputs": [
        {
          "indexed": true,
          "internalType": "address",
          "name": "previousOwner",
          "type": "address"
        },
        {
          "indexed": true,
          "internalType": "address",
          "name": "newOwner",
          "type": "address"
        }
      ],
      "name": "OwnershipTransferred",
      "type": "event"
    },
    {
      "anonymous": false,
      "inputs": [
        {
          "indexed": true,
          "internalType": "address",
          "name": "from",
          "type": "address"
        },
        {
          "indexed": true,
          "internalType": "address",
          "name": "to",
          "type": "address"
        },
        {
          "indexed": true,
          "internalType": "uint256",
          "name": "tokenId",
          "type": "uint256"
        }
      ],
      "name": "Transfer",
      "type": "event"
    },
    {
      "inputs": [],
      "name": "MAX_MINT_AMOUNT",
      "outputs": [
        {
          "internalType": "uint256",
          "name": "",
          "type": "uint256"
        }
      ],
      "stateMutability": "view",
      "type": "function"
    },
    {
      "inputs": [
        {
          "internalType": "address",
          "name": "to",
          "type": "address"
        },
        {
          "internalType": "uint256",
          "name": "tokenId",
          "type": "uint256"
        }
      ],
      "name": "approve",
      "outputs": [],
      "stateMutability": "nonpayable",
      "type": "function"
    },
    {
      "inputs": [
        {
          "internalType": "address",
          "name": "owner",
          "type": "address"
        }
      ],
      "name": "balanceOf",
      "outputs": [
        {
          "internalType": "uint256",
          "name": "",
          "type": "uint256"
        }
      ],
      "stateMutability": "view",
      "type": "function"
    },
    {
      "inputs": [],
      "name": "contractURI",
      "outputs": [
        {
          "internalType": "string",
          "name": "",
          "type": "string"
        }
      ],
      "stateMutability": "view",
      "type": "function"
    },
    {
      "inputs": [
        {
          "internalType": "uint256",
          "name": "tokenId",
          "type": "uint256"
        }
      ],
      "name": "getApproved",
      "outputs": [
        {
          "internalType": "address",
          "name": "",
          "type": "address"
        }
      ],
      "stateMutability": "view",
      "type": "function"
    },
    {
      "inputs": [
        {
          "internalType": "address",
          "name": "owner",
          "type": "address"
        },
        {
          "internalType": "address",
          "name": "operator",
          "type": "address"
        }
      ],
      "name": "isApprovedForAll",
      "outputs": [
        {
          "internalType": "bool",
          "name": "",
          "type": "bool"
        }
      ],
      "stateMutability": "view",
      "type": "function"
    },
    {
      "inputs": [
        {
          "internalType": "uint256",
          "name": "quantity",
          "type": "uint256"
        }
      ],
      "name": "mint",
      "outputs": [],
      "stateMutability": "payable",
      "type": "function"
    },
    {
      "inputs": [
        {
          "internalType": "uint256",
          "name": "quantity",
          "type": "uint256"
        },
        {
          "internalType": "uint256",
          "name": "start",
          "type": "uint256"
        }
      ],
      "name": "mintFromStartOrFail",
      "outputs": [],
      "stateMutability": "payable",
      "type": "function"
    },
    {
      "inputs": [],
      "name": "name",
      "outputs": [
        {
          "internalType": "string",
          "name": "",
          "type": "string"
        }
      ],
      "stateMutability": "view",
      "type": "function"
    },
    {
      "inputs": [],
      "name": "owner",
      "outputs": [
        {
          "internalType": "address",
          "name": "",
          "type": "address"
        }
      ],
      "stateMutability": "view",
      "type": "function"
    },
    {
      "inputs": [
        {
          "internalType": "uint256",
          "name": "tokenId",
          "type": "uint256"
        }
      ],
      "name": "ownerOf",
      "outputs": [
        {
          "internalType": "address",
          "name": "",
          "type": "address"
        }
      ],
      "stateMutability": "view",
      "type": "function"
    },
    {
      "inputs": [],
      "name": "renounceOwnership",
      "outputs": [],
      "stateMutability": "nonpayable",
      "type": "function"
    },
    {
      "inputs": [
        {
          "internalType": "address",
          "name": "from",
          "type": "address"
        },
        {
          "internalType": "address",
          "name": "to",
          "type": "address"
        },
        {
          "internalType": "uint256",
          "name": "tokenId",
          "type": "uint256"
        }
      ],
      "name": "safeTransferFrom",
      "outputs": [],
      "stateMutability": "nonpayable",
      "type": "function"
    },
    {
      "inputs": [
        {
          "internalType": "address",
          "name": "from",
          "type": "address"
        },
        {
          "internalType": "address",
          "name": "to",
          "type": "address"
        },
        {
          "internalType": "uint256",
          "name": "tokenId",
          "type": "uint256"
        },
        {
          "internalType": "bytes",
          "name": "_data",
          "type": "bytes"
        }
      ],
      "name": "safeTransferFrom",
      "outputs": [],
      "stateMutability": "nonpayable",
      "type": "function"
    },
    {
      "inputs": [
        {
          "internalType": "address",
          "name": "operator",
          "type": "address"
        },
        {
          "internalType": "bool",
          "name": "approved",
          "type": "bool"
        }
      ],
      "name": "setApprovalForAll",
      "outputs": [],
      "stateMutability": "nonpayable",
      "type": "function"
    },
    {
      "inputs": [
        {
          "internalType": "bytes4",
          "name": "interfaceId",
          "type": "bytes4"
        }
      ],
      "name": "supportsInterface",
      "outputs": [
        {
          "internalType": "bool",
          "name": "",
          "type": "bool"
        }
      ],
      "stateMutability": "view",
      "type": "function"
    },
    {
      "inputs": [],
      "name": "symbol",
      "outputs": [
        {
          "internalType": "string",
          "name": "",
          "type": "string"
        }
      ],
      "stateMutability": "view",
      "type": "function"
    },
    {
      "inputs": [
        {
          "internalType": "uint256",
          "name": "tokenId",
          "type": "uint256"
        }
      ],
      "name": "tokenURI",
      "outputs": [
        {
          "internalType": "string",
          "name": "",
          "type": "string"
        }
      ],
      "stateMutability": "view",
      "type": "function"
    },
    {
      "inputs": [],
      "name": "totalMinted",
      "outputs": [
        {
          "internalType": "uint256",
          "name": "",
          "type": "uint256"
        }
      ],
      "stateMutability": "view",
      "type": "function"
    },
    {
      "inputs": [],
      "name": "totalSupply",
      "outputs": [
        {
          "internalType": "uint256",
          "name": "",
          "type": "uint256"
        }
      ],
      "stateMutability": "view",
      "type": "function"
    },
    {
      "inputs": [
        {
          "internalType": "address",
          "name": "from",
          "type": "address"
        },
        {
          "internalType": "address",
          "name": "to",
          "type": "address"
        },
        {
          "internalType": "uint256",
          "name": "tokenId",
          "type": "uint256"
        }
      ],
      "name": "transferFrom",
      "outputs": [],
      "stateMutability": "nonpayable",
      "type": "function"
    },
    {
      "inputs": [
        {
          "internalType": "address",
          "name": "newOwner",
          "type": "address"
        }
      ],
      "name": "transferOwnership",
      "outputs": [],
      "stateMutability": "nonpayable",
      "type": "function"
    },
    {
      "inputs": [
        {
          "internalType": "uint256",
          "name": "_i",
          "type": "uint256"
        }
      ],
      "name": "uint2str",
      "outputs": [
        {
          "internalType": "string",
          "name": "_uintAsString",
          "type": "string"
        }
      ],
      "stateMutability": "pure",
      "type": "function"
    },
    {
      "inputs": [],
      "name": "withdraw",
      "outputs": [],
      "stateMutability": "payable",
      "type": "function"
    }
  ],
  "bytecode": "0x6080604052600a600c553480156200001657600080fd5b50604051620027003803806200270083398101604081905262000039916200026b565b84518590859062000052906002906020850190620000f8565b50805162000068906003906020840190620000f8565b50506001600055506200007b33620000a6565b600a829055600b81905582516200009a906009906020860190620000f8565b5050505050506200034b565b600880546001600160a01b038381166001600160a01b0319831681179093556040519116919082907f8be0079c531659141344cd1fd0a4f28419497f9722a3daafe3b4186f6b6457e090600090a35050565b82805462000106906200030f565b90600052602060002090601f0160209004810192826200012a576000855562000175565b82601f106200014557805160ff191683800117855562000175565b8280016001018555821562000175579182015b828111156200017557825182559160200191906001019062000158565b506200018392915062000187565b5090565b5b8082111562000183576000815560010162000188565b634e487b7160e01b600052604160045260246000fd5b600082601f830112620001c657600080fd5b81516001600160401b0380821115620001e357620001e36200019e565b604051601f8301601f19908116603f011681019082821181831017156200020e576200020e6200019e565b816040528381526020925086838588010111156200022b57600080fd5b600091505b838210156200024f578582018301518183018401529082019062000230565b83821115620002615760008385830101525b9695505050505050565b600080600080600060a086880312156200028457600080fd5b85516001600160401b03808211156200029c57600080fd5b620002aa89838a01620001b4565b96506020880151915080821115620002c157600080fd5b620002cf89838a01620001b4565b95506040880151915080821115620002e657600080fd5b50620002f588828901620001b4565b606088015160809098015196999598509695949350505050565b600181811c908216806200032457607f821691505b6020821081036200034557634e487b7160e01b600052602260045260246000fd5b50919050565b6123a5806200035b6000396000f3fe60806040526004361061018b5760003560e01c80638da5cb5b116100d6578063c87b56dd1161007f578063f2fde38b11610059578063f2fde38b14610498578063f76f950e146104b8578063fa9b7018146104d857600080fd5b8063c87b56dd1461040d578063e8a3d4851461042d578063e985e9c51461044257600080fd5b8063a22cb465116100b0578063a22cb46514610396578063a2309ff8146103b6578063b88d4fde146103ed57600080fd5b80638da5cb5b1461034357806395d89b411461036e578063a0712d681461038357600080fd5b80633ccfd60b1161013857806370a082311161011257806370a08231146102fb578063715018a61461031b5780637a4d892a1461033057600080fd5b80633ccfd60b146102b357806342842e0e146102bb5780636352211e146102db57600080fd5b8063095ea7b311610169578063095ea7b31461022c57806318160ddd1461024e57806323b872dd1461029357600080fd5b806301ffc9a71461019057806306fdde03146101c5578063081812fc146101e7575b600080fd5b34801561019c57600080fd5b506101b06101ab366004611c5d565b6104ee565b60405190151581526020015b60405180910390f35b3480156101d157600080fd5b506101da6105d3565b6040516101bc9190611cf7565b3480156101f357600080fd5b50610207610202366004611d0a565b610665565b60405173ffffffffffffffffffffffffffffffffffffffff90911681526020016101bc565b34801561023857600080fd5b5061024c610247366004611d4c565b6106cf565b005b34801561025a57600080fd5b50600154600054037fffffffffffffffffffffffffffffffffffffffffffffffffffffffffffffffff015b6040519081526020016101bc565b34801561029f57600080fd5b5061024c6102ae366004611d76565b6107ae565b61024c6107b9565b3480156102c757600080fd5b5061024c6102d6366004611d76565b610897565b3480156102e757600080fd5b506102076102f6366004611d0a565b6108b2565b34801561030757600080fd5b50610285610316366004611db2565b6108c4565b34801561032757600080fd5b5061024c610946565b61024c61033e366004611dcd565b6109d3565b34801561034f57600080fd5b5060085473ffffffffffffffffffffffffffffffffffffffff16610207565b34801561037a57600080fd5b506101da610adb565b61024c610391366004611d0a565b610aea565b3480156103a257600080fd5b5061024c6103b1366004611def565b610cda565b3480156103c257600080fd5b506000547fffffffffffffffffffffffffffffffffffffffffffffffffffffffffffffffff01610285565b3480156103f957600080fd5b5061024c610408366004611e5a565b610dc0565b34801561041957600080fd5b506101da610428366004611d0a565b610e30565b34801561043957600080fd5b506101da610ef9565b34801561044e57600080fd5b506101b061045d366004611f54565b73ffffffffffffffffffffffffffffffffffffffff918216600090815260076020908152604080832093909416825291909152205460ff1690565b3480156104a457600080fd5b5061024c6104b3366004611db2565b610f21565b3480156104c457600080fd5b506101da6104d3366004611d0a565b61104e565b3480156104e457600080fd5b50610285600c5481565b60007fffffffff0000000000000000000000000000000000000000000000000000000082167f80ac58cd00000000000000000000000000000000000000000000000000000000148061058157507fffffffff0000000000000000000000000000000000000000000000000000000082167f5b5e139f00000000000000000000000000000000000000000000000000000000145b806105cd57507f01ffc9a7000000000000000000000000000000000000000000000000000000007fffffffff000000000000000000000000000000000000000000000000000000008316145b92915050565b6060600280546105e290611f87565b80601f016020809104026020016040519081016040528092919081815260200182805461060e90611f87565b801561065b5780601f106106305761010080835404028352916020019161065b565b820191906000526020600020905b81548152906001019060200180831161063e57829003601f168201915b5050505050905090565b6000610670826111ae565b6106a6576040517fcf4700e400000000000000000000000000000000000000000000000000000000815260040160405180910390fd5b5060009081526006602052604090205473ffffffffffffffffffffffffffffffffffffffff1690565b60006106da826108b2565b90508073ffffffffffffffffffffffffffffffffffffffff168373ffffffffffffffffffffffffffffffffffffffff1603610741576040517f943f7b8c00000000000000000000000000000000000000000000000000000000815260040160405180910390fd5b3373ffffffffffffffffffffffffffffffffffffffff82161461079e57610768813361045d565b61079e576040517fcfb3b94200000000000000000000000000000000000000000000000000000000815260040160405180910390fd5b6107a9838383611200565b505050565b6107a9838383611281565b60085473ffffffffffffffffffffffffffffffffffffffff16331461083f576040517f08c379a000000000000000000000000000000000000000000000000000000000815260206004820181905260248201527f4f776e61626c653a2063616c6c6572206973206e6f7420746865206f776e657260448201526064015b60405180910390fd5b604051600090339047908381818185875af1925050503d8060008114610881576040519150601f19603f3d011682016040523d82523d6000602084013e610886565b606091505b505090508061089457600080fd5b50565b6107a983838360405180602001604052806000815250610dc0565b60006108bd826115b8565b5192915050565b600073ffffffffffffffffffffffffffffffffffffffff8216610913576040517f8f4eb60400000000000000000000000000000000000000000000000000000000815260040160405180910390fd5b5073ffffffffffffffffffffffffffffffffffffffff1660009081526005602052604090205467ffffffffffffffff1690565b60085473ffffffffffffffffffffffffffffffffffffffff1633146109c7576040517f08c379a000000000000000000000000000000000000000000000000000000000815260206004820181905260248201527f4f776e61626c653a2063616c6c6572206973206e6f7420746865206f776e65726044820152606401610836565b6109d1600061178e565b565b6000547fffffffffffffffffffffffffffffffffffffffffffffffffffffffffffffffff0181610a5f576040517f08c379a000000000000000000000000000000000000000000000000000000000815260206004820152600f60248201527f4e6f2073746172742070617373656400000000000000000000000000000000006044820152606401610836565b610a6a816001612009565b8214610ad2576040517f08c379a000000000000000000000000000000000000000000000000000000000815260206004820152601360248201527f546f6b656e2069732070617374207374617274000000000000000000000000006044820152606401610836565b6107a983610aea565b6060600380546105e290611f87565b6000547fffffffffffffffffffffffffffffffffffffffffffffffffffffffffffffffff0181610b76576040517f08c379a000000000000000000000000000000000000000000000000000000000815260206004820152600760248201527f546f6f20666577000000000000000000000000000000000000000000000000006044820152606401610836565b600c54821115610be2576040517f08c379a000000000000000000000000000000000000000000000000000000000815260206004820152600860248201527f546f6f206d616e790000000000000000000000000000000000000000000000006044820152606401610836565b600b54610bef8383612009565b1115610c57576040517f08c379a000000000000000000000000000000000000000000000000000000000815260206004820152600e60248201527f4d696e74696e6720636c6f7365640000000000000000000000000000000000006044820152606401610836565b600a54610c649083612021565b3414610ccc576040517f08c379a000000000000000000000000000000000000000000000000000000000815260206004820152600e60248201527f53656e64206578616374204554480000000000000000000000000000000000006044820152606401610836565b610cd63383611805565b5050565b3373ffffffffffffffffffffffffffffffffffffffff831603610d29576040517fb06307db00000000000000000000000000000000000000000000000000000000815260040160405180910390fd5b33600081815260076020908152604080832073ffffffffffffffffffffffffffffffffffffffff87168085529083529281902080547fffffffffffffffffffffffffffffffffffffffffffffffffffffffffffffff001686151590811790915590519081529192917f17307eab39ab6107e8899845ad3d59bd9653f200f220920489ca2b5937696c31910160405180910390a35050565b610dcb848484611281565b73ffffffffffffffffffffffffffffffffffffffff83163b15610e2a57610df48484848461181f565b610e2a576040517fd1a57ed600000000000000000000000000000000000000000000000000000000815260040160405180910390fd5b50505050565b6060610e3b826111ae565b610ec7576040517f08c379a000000000000000000000000000000000000000000000000000000000815260206004820152602f60248201527f4552433732314d657461646174613a2055524920717565727920666f72206e6f60448201527f6e6578697374656e7420746f6b656e00000000000000000000000000000000006064820152608401610836565b6009610ed28361104e565b604051602001610ee392919061212e565b6040516020818303038152906040529050919050565b60606009604051602001610f0d91906121cc565b604051602081830303815290604052905090565b60085473ffffffffffffffffffffffffffffffffffffffff163314610fa2576040517f08c379a000000000000000000000000000000000000000000000000000000000815260206004820181905260248201527f4f776e61626c653a2063616c6c6572206973206e6f7420746865206f776e65726044820152606401610836565b73ffffffffffffffffffffffffffffffffffffffff8116611045576040517f08c379a000000000000000000000000000000000000000000000000000000000815260206004820152602660248201527f4f776e61626c653a206e6577206f776e657220697320746865207a65726f206160448201527f64647265737300000000000000000000000000000000000000000000000000006064820152608401610836565b6108948161178e565b60608160000361109157505060408051808201909152600181527f3000000000000000000000000000000000000000000000000000000000000000602082015290565b8160005b81156110bb57806110a58161222b565b91506110b49050600a83612263565b9150611095565b60008167ffffffffffffffff8111156110d6576110d6611e2b565b6040519080825280601f01601f191660200182016040528015611100576020820181803683370190505b509050815b85156111a55761111660018261229e565b90506000611125600a88612263565b61113090600a612021565b61113a908861229e565b6111459060306122b5565b905060008160f81b905080848481518110611162576111626122da565b60200101907effffffffffffffffffffffffffffffffffffffffffffffffffffffffffffff1916908160001a90535061119c600a89612263565b97505050611105565b50949350505050565b6000816001111580156111c2575060005482105b80156105cd5750506000908152600460205260409020547c0100000000000000000000000000000000000000000000000000000000900460ff161590565b60008281526006602052604080822080547fffffffffffffffffffffffff00000000000000000000000000000000000000001673ffffffffffffffffffffffffffffffffffffffff87811691821790925591518593918516917f8c5be1e5ebec7d5bd14f71427d1e84f3dd0314c0f7b2291e5b200ac8c7c3b92591a4505050565b600061128c826115b8565b90508373ffffffffffffffffffffffffffffffffffffffff16816000015173ffffffffffffffffffffffffffffffffffffffff16146112f7576040517fa114810000000000000000000000000000000000000000000000000000000000815260040160405180910390fd5b60003373ffffffffffffffffffffffffffffffffffffffff861614806113225750611322853361045d565b8061134a57503361133284610665565b73ffffffffffffffffffffffffffffffffffffffff16145b905080611383576040517f59c896be00000000000000000000000000000000000000000000000000000000815260040160405180910390fd5b73ffffffffffffffffffffffffffffffffffffffff84166113d0576040517fea553b3400000000000000000000000000000000000000000000000000000000815260040160405180910390fd5b6113dc60008487611200565b73ffffffffffffffffffffffffffffffffffffffff858116600090815260056020908152604080832080547fffffffffffffffffffffffffffffffffffffffffffffffff000000000000000080821667ffffffffffffffff9283167fffffffffffffffffffffffffffffffffffffffffffffffffffffffffffffffff01831617909255898616808652838620805493841693831660019081018416949094179055898652600490945282852080547fffffffff00000000000000000000000000000000000000000000000000000000169094177401000000000000000000000000000000000000000042909216919091021783558701808452922080549193909116611553576000548214611553578054602086015167ffffffffffffffff1674010000000000000000000000000000000000000000027fffffffff0000000000000000000000000000000000000000000000000000000090911673ffffffffffffffffffffffffffffffffffffffff8a16171781555b505050828473ffffffffffffffffffffffffffffffffffffffff168673ffffffffffffffffffffffffffffffffffffffff167fddf252ad1be2c89b69c2b068fc378daa952ba7f163c4a11628f55a4df523b3ef60405160405180910390a45050505050565b6040805160608101825260008082526020820181905291810191909152818060011161175c5760005481101561175c576000818152600460209081526040918290208251606081018452905473ffffffffffffffffffffffffffffffffffffffff8116825274010000000000000000000000000000000000000000810467ffffffffffffffff16928201929092527c010000000000000000000000000000000000000000000000000000000090910460ff1615159181018290529061175a57805173ffffffffffffffffffffffffffffffffffffffff161561169b579392505050565b507fffffffffffffffffffffffffffffffffffffffffffffffffffffffffffffffff016000818152600460209081526040918290208251606081018452905473ffffffffffffffffffffffffffffffffffffffff811680835274010000000000000000000000000000000000000000820467ffffffffffffffff16938301939093527c0100000000000000000000000000000000000000000000000000000000900460ff1615159281019290925215611755579392505050565b61169b565b505b6040517fdf2d9b4200000000000000000000000000000000000000000000000000000000815260040160405180910390fd5b6008805473ffffffffffffffffffffffffffffffffffffffff8381167fffffffffffffffffffffffff0000000000000000000000000000000000000000831681179093556040519116919082907f8be0079c531659141344cd1fd0a4f28419497f9722a3daafe3b4186f6b6457e090600090a35050565b610cd6828260405180602001604052806000815250611998565b6040517f150b7a0200000000000000000000000000000000000000000000000000000000815260009073ffffffffffffffffffffffffffffffffffffffff85169063150b7a029061187a903390899088908890600401612309565b6020604051808303816000875af19250505080156118d3575060408051601f3d9081017fffffffffffffffffffffffffffffffffffffffffffffffffffffffffffffffe01682019092526118d091810190612352565b60015b61194a573d808015611901576040519150601f19603f3d011682016040523d82523d6000602084013e611906565b606091505b508051600003611942576040517fd1a57ed600000000000000000000000000000000000000000000000000000000815260040160405180910390fd5b805181602001fd5b7fffffffff00000000000000000000000000000000000000000000000000000000167f150b7a0200000000000000000000000000000000000000000000000000000000149050949350505050565b60005473ffffffffffffffffffffffffffffffffffffffff84166119e8576040517f2e07630000000000000000000000000000000000000000000000000000000000815260040160405180910390fd5b82600003611a22576040517fb562e8dd00000000000000000000000000000000000000000000000000000000815260040160405180910390fd5b73ffffffffffffffffffffffffffffffffffffffff8416600081815260056020908152604080832080547fffffffffffffffffffffffffffffffff00000000000000000000000000000000811667ffffffffffffffff8083168b018116918217680100000000000000007fffffffffffffffffffffffffffffffffffffffffffffffff000000000000000090941690921783900481168b01811690920217909155858452600490925290912080547fffffffff000000000000000000000000000000000000000000000000000000001683177401000000000000000000000000000000000000000042909316929092029190911790558190818501903b15611bcd575b604051829073ffffffffffffffffffffffffffffffffffffffff8816906000907fddf252ad1be2c89b69c2b068fc378daa952ba7f163c4a11628f55a4df523b3ef908290a4611b7d600087848060010195508761181f565b611bb3576040517fd1a57ed600000000000000000000000000000000000000000000000000000000815260040160405180910390fd5b808210611b25578260005414611bc857600080fd5b611c1f565b5b60405160018301929073ffffffffffffffffffffffffffffffffffffffff8816906000907fddf252ad1be2c89b69c2b068fc378daa952ba7f163c4a11628f55a4df523b3ef908290a4808210611bce575b506000908155610e2a9085838684565b7fffffffff000000000000000000000000000000000000000000000000000000008116811461089457600080fd5b600060208284031215611c6f57600080fd5b8135611c7a81611c2f565b9392505050565b60005b83811015611c9c578181015183820152602001611c84565b83811115610e2a5750506000910152565b60008151808452611cc5816020860160208601611c81565b601f017fffffffffffffffffffffffffffffffffffffffffffffffffffffffffffffffe0169290920160200192915050565b602081526000611c7a6020830184611cad565b600060208284031215611d1c57600080fd5b5035919050565b803573ffffffffffffffffffffffffffffffffffffffff81168114611d4757600080fd5b919050565b60008060408385031215611d5f57600080fd5b611d6883611d23565b946020939093013593505050565b600080600060608486031215611d8b57600080fd5b611d9484611d23565b9250611da260208501611d23565b9150604084013590509250925092565b600060208284031215611dc457600080fd5b611c7a82611d23565b60008060408385031215611de057600080fd5b50508035926020909101359150565b60008060408385031215611e0257600080fd5b611e0b83611d23565b915060208301358015158114611e2057600080fd5b809150509250929050565b7f4e487b7100000000000000000000000000000000000000000000000000000000600052604160045260246000fd5b60008060008060808587031215611e7057600080fd5b611e7985611d23565b9350611e8760208601611d23565b925060408501359150606085013567ffffffffffffffff80821115611eab57600080fd5b818701915087601f830112611ebf57600080fd5b813581811115611ed157611ed1611e2b565b604051601f82017fffffffffffffffffffffffffffffffffffffffffffffffffffffffffffffffe0908116603f01168101908382118183101715611f1757611f17611e2b565b816040528281528a6020848701011115611f3057600080fd5b82602086016020830137600060208483010152809550505050505092959194509250565b60008060408385031215611f6757600080fd5b611f7083611d23565b9150611f7e60208401611d23565b90509250929050565b600181811c90821680611f9b57607f821691505b602082108103611fd4577f4e487b7100000000000000000000000000000000000000000000000000000000600052602260045260246000fd5b50919050565b7f4e487b7100000000000000000000000000000000000000000000000000000000600052601160045260246000fd5b6000821982111561201c5761201c611fda565b500190565b6000817fffffffffffffffffffffffffffffffffffffffffffffffffffffffffffffffff048311821515161561205957612059611fda565b500290565b8054600090600181811c908083168061207857607f831692505b602080841082036120b2577f4e487b7100000000000000000000000000000000000000000000000000000000600052602260045260246000fd5b8180156120c657600181146120f557612122565b7fffffffffffffffffffffffffffffffffffffffffffffffffffffffffffffff00861689528489019650612122565b60008881526020902060005b8681101561211a5781548b820152908501908301612101565b505084890196505b50505050505092915050565b7f697066733a2f2f0000000000000000000000000000000000000000000000000081526000612160600783018561205e565b7f2f6d657461646174612f000000000000000000000000000000000000000000008152835161219681600a840160208801611c81565b7f2e6a736f6e000000000000000000000000000000000000000000000000000000600a9290910191820152600f01949350505050565b7f697066733a2f2f00000000000000000000000000000000000000000000000000815260006121fe600783018461205e565b7f2f636f6e74726163744d657461646174612e6a736f6e0000000000000000000081526016019392505050565b60007fffffffffffffffffffffffffffffffffffffffffffffffffffffffffffffffff820361225c5761225c611fda565b5060010190565b600082612299577f4e487b7100000000000000000000000000000000000000000000000000000000600052601260045260246000fd5b500490565b6000828210156122b0576122b0611fda565b500390565b600060ff821660ff84168060ff038211156122d2576122d2611fda565b019392505050565b7f4e487b7100000000000000000000000000000000000000000000000000000000600052603260045260246000fd5b600073ffffffffffffffffffffffffffffffffffffffff8087168352808616602084015250836040830152608060608301526123486080830184611cad565b9695505050505050565b60006020828403121561236457600080fd5b8151611c7a81611c2f56fea2646970667358221220ede266055a397af024fed9f42e22d99d7ac7cabf797c1af6fb20c045f9aa9f9164736f6c634300080d0033",
  "linkReferences": {},
  "deployedLinkReferences": {}
}