{
  "_format": "hh-sol-artifact-1",
  "contractName": "Channel",
  "sourceName": "contracts/Channel.sol",
  "abi": [
    {
      "inputs": [
        {
          "internalType": "string",
          "name": "name",
          "type": "string"
        },
        {
          "internalType": "string",
          "name": "symbol",
          "type": "string"
        },
        {
          "internalType": "string",
          "name": "ipfsCid",
          "type": "string"
        },
        {
          "internalType": "uint256",
          "name": "mintFee",
          "type": "uint256"
        },
        {
          "internalType": "uint256",
          "name": "maxTokenId",
          "type": "uint256"
        }
      ],
      "stateMutability": "nonpayable",
      "type": "constructor"
    },
    {
      "inputs": [],
      "name": "ApprovalCallerNotOwnerNorApproved",
      "type": "error"
    },
    {
      "inputs": [],
      "name": "ApprovalQueryForNonexistentToken",
      "type": "error"
    },
    {
      "inputs": [],
      "name": "BalanceQueryForZeroAddress",
      "type": "error"
    },
    {
      "inputs": [],
      "name": "InvalidQueryRange",
      "type": "error"
    },
    {
      "inputs": [],
      "name": "MintERC2309QuantityExceedsLimit",
      "type": "error"
    },
    {
      "inputs": [],
      "name": "MintToZeroAddress",
      "type": "error"
    },
    {
      "inputs": [],
      "name": "MintZeroQuantity",
      "type": "error"
    },
    {
      "inputs": [],
      "name": "OwnerQueryForNonexistentToken",
      "type": "error"
    },
    {
      "inputs": [],
      "name": "OwnershipNotInitializedForExtraData",
      "type": "error"
    },
    {
      "inputs": [],
      "name": "TransferCallerNotOwnerNorApproved",
      "type": "error"
    },
    {
      "inputs": [],
      "name": "TransferFromIncorrectOwner",
      "type": "error"
    },
    {
      "inputs": [],
      "name": "TransferToNonERC721ReceiverImplementer",
      "type": "error"
    },
    {
      "inputs": [],
      "name": "TransferToZeroAddress",
      "type": "error"
    },
    {
      "inputs": [],
      "name": "URIQueryForNonexistentToken",
      "type": "error"
    },
    {
      "anonymous": false,
      "inputs": [
        {
          "indexed": true,
          "internalType": "address",
          "name": "owner",
          "type": "address"
        },
        {
          "indexed": true,
          "internalType": "address",
          "name": "approved",
          "type": "address"
        },
        {
          "indexed": true,
          "internalType": "uint256",
          "name": "tokenId",
          "type": "uint256"
        }
      ],
      "name": "Approval",
      "type": "event"
    },
    {
      "anonymous": false,
      "inputs": [
        {
          "indexed": true,
          "internalType": "address",
          "name": "owner",
          "type": "address"
        },
        {
          "indexed": true,
          "internalType": "address",
          "name": "operator",
          "type": "address"
        },
        {
          "indexed": false,
          "internalType": "bool",
          "name": "approved",
          "type": "bool"
        }
      ],
      "name": "ApprovalForAll",
      "type": "event"
    },
    {
      "anonymous": false,
      "inputs": [
        {
          "indexed": false,
          "internalType": "uint256",
          "name": "_fromTokenId",
          "type": "uint256"
        },
        {
          "indexed": false,
          "internalType": "uint256",
          "name": "_toTokenId",
          "type": "uint256"
        }
      ],
      "name": "BatchMetadataUpdate",
      "type": "event"
    },
    {
      "anonymous": false,
      "inputs": [
        {
          "indexed": true,
          "internalType": "uint256",
          "name": "fromTokenId",
          "type": "uint256"
        },
        {
          "indexed": false,
          "internalType": "uint256",
          "name": "toTokenId",
          "type": "uint256"
        },
        {
          "indexed": true,
          "internalType": "address",
          "name": "from",
          "type": "address"
        },
        {
          "indexed": true,
          "internalType": "address",
          "name": "to",
          "type": "address"
        }
      ],
      "name": "ConsecutiveTransfer",
      "type": "event"
    },
    {
      "anonymous": false,
      "inputs": [
        {
          "indexed": false,
          "internalType": "uint256",
          "name": "tokenId",
          "type": "uint256"
        }
      ],
      "name": "MintEvent",
      "type": "event"
    },
    {
      "anonymous": false,
      "inputs": [
        {
          "indexed": true,
          "internalType": "address",
          "name": "previousOwner",
          "type": "address"
        },
        {
          "indexed": true,
          "internalType": "address",
          "name": "newOwner",
          "type": "address"
        }
      ],
      "name": "OwnershipTransferred",
      "type": "event"
    },
    {
      "anonymous": false,
      "inputs": [
        {
          "indexed": true,
          "internalType": "address",
          "name": "from",
          "type": "address"
        },
        {
          "indexed": true,
          "internalType": "address",
          "name": "to",
          "type": "address"
        },
        {
          "indexed": true,
          "internalType": "uint256",
          "name": "tokenId",
          "type": "uint256"
        }
      ],
      "name": "Transfer",
      "type": "event"
    },
    {
      "inputs": [],
      "name": "MAX_MINT_AMOUNT",
      "outputs": [
        {
          "internalType": "uint256",
          "name": "",
          "type": "uint256"
        }
      ],
      "stateMutability": "view",
      "type": "function"
    },
    {
      "inputs": [
        {
          "internalType": "address",
          "name": "to",
          "type": "address"
        },
        {
          "internalType": "uint256",
          "name": "tokenId",
          "type": "uint256"
        }
      ],
      "name": "approve",
      "outputs": [],
      "stateMutability": "payable",
      "type": "function"
    },
    {
      "inputs": [
        {
          "internalType": "address",
          "name": "owner",
          "type": "address"
        }
      ],
      "name": "balanceOf",
      "outputs": [
        {
          "internalType": "uint256",
          "name": "",
          "type": "uint256"
        }
      ],
      "stateMutability": "view",
      "type": "function"
    },
    {
      "inputs": [],
      "name": "contractURI",
      "outputs": [
        {
          "internalType": "string",
          "name": "",
          "type": "string"
        }
      ],
      "stateMutability": "view",
      "type": "function"
    },
    {
      "inputs": [
        {
          "internalType": "uint256",
          "name": "tokenId",
          "type": "uint256"
        }
      ],
      "name": "explicitOwnershipOf",
      "outputs": [
        {
          "components": [
            {
              "internalType": "address",
              "name": "addr",
              "type": "address"
            },
            {
              "internalType": "uint64",
              "name": "startTimestamp",
              "type": "uint64"
            },
            {
              "internalType": "bool",
              "name": "burned",
              "type": "bool"
            },
            {
              "internalType": "uint24",
              "name": "extraData",
              "type": "uint24"
            }
          ],
          "internalType": "struct IERC721A.TokenOwnership",
          "name": "",
          "type": "tuple"
        }
      ],
      "stateMutability": "view",
      "type": "function"
    },
    {
      "inputs": [
        {
          "internalType": "uint256[]",
          "name": "tokenIds",
          "type": "uint256[]"
        }
      ],
      "name": "explicitOwnershipsOf",
      "outputs": [
        {
          "components": [
            {
              "internalType": "address",
              "name": "addr",
              "type": "address"
            },
            {
              "internalType": "uint64",
              "name": "startTimestamp",
              "type": "uint64"
            },
            {
              "internalType": "bool",
              "name": "burned",
              "type": "bool"
            },
            {
              "internalType": "uint24",
              "name": "extraData",
              "type": "uint24"
            }
          ],
          "internalType": "struct IERC721A.TokenOwnership[]",
          "name": "",
          "type": "tuple[]"
        }
      ],
      "stateMutability": "view",
      "type": "function"
    },
    {
      "inputs": [
        {
          "internalType": "uint256",
          "name": "tokenId",
          "type": "uint256"
        }
      ],
      "name": "getApproved",
      "outputs": [
        {
          "internalType": "address",
          "name": "",
          "type": "address"
        }
      ],
      "stateMutability": "view",
      "type": "function"
    },
    {
      "inputs": [
        {
          "internalType": "address",
          "name": "owner",
          "type": "address"
        },
        {
          "internalType": "address",
          "name": "operator",
          "type": "address"
        }
      ],
      "name": "isApprovedForAll",
      "outputs": [
        {
          "internalType": "bool",
          "name": "",
          "type": "bool"
        }
      ],
      "stateMutability": "view",
      "type": "function"
    },
    {
      "inputs": [
        {
          "internalType": "uint256",
          "name": "quantity",
          "type": "uint256"
        }
      ],
      "name": "mint",
      "outputs": [],
      "stateMutability": "payable",
      "type": "function"
    },
    {
      "inputs": [
        {
          "internalType": "uint256",
          "name": "quantity",
          "type": "uint256"
        },
        {
          "internalType": "uint256",
          "name": "start",
          "type": "uint256"
        }
      ],
      "name": "mintFromStartOrFail",
      "outputs": [],
      "stateMutability": "payable",
      "type": "function"
    },
    {
      "inputs": [],
      "name": "name",
      "outputs": [
        {
          "internalType": "string",
          "name": "",
          "type": "string"
        }
      ],
      "stateMutability": "view",
      "type": "function"
    },
    {
      "inputs": [],
      "name": "owner",
      "outputs": [
        {
          "internalType": "address",
          "name": "",
          "type": "address"
        }
      ],
      "stateMutability": "view",
      "type": "function"
    },
    {
      "inputs": [
        {
          "internalType": "uint256",
          "name": "tokenId",
          "type": "uint256"
        }
      ],
      "name": "ownerOf",
      "outputs": [
        {
          "internalType": "address",
          "name": "",
          "type": "address"
        }
      ],
      "stateMutability": "view",
      "type": "function"
    },
    {
      "inputs": [],
      "name": "renounceOwnership",
      "outputs": [],
      "stateMutability": "nonpayable",
      "type": "function"
    },
    {
      "inputs": [
        {
          "internalType": "address",
          "name": "from",
          "type": "address"
        },
        {
          "internalType": "address",
          "name": "to",
          "type": "address"
        },
        {
          "internalType": "uint256",
          "name": "tokenId",
          "type": "uint256"
        }
      ],
      "name": "safeTransferFrom",
      "outputs": [],
      "stateMutability": "payable",
      "type": "function"
    },
    {
      "inputs": [
        {
          "internalType": "address",
          "name": "from",
          "type": "address"
        },
        {
          "internalType": "address",
          "name": "to",
          "type": "address"
        },
        {
          "internalType": "uint256",
          "name": "tokenId",
          "type": "uint256"
        },
        {
          "internalType": "bytes",
          "name": "_data",
          "type": "bytes"
        }
      ],
      "name": "safeTransferFrom",
      "outputs": [],
      "stateMutability": "payable",
      "type": "function"
    },
    {
      "inputs": [
        {
          "internalType": "address",
          "name": "operator",
          "type": "address"
        },
        {
          "internalType": "bool",
          "name": "approved",
          "type": "bool"
        }
      ],
      "name": "setApprovalForAll",
      "outputs": [],
      "stateMutability": "nonpayable",
      "type": "function"
    },
    {
      "inputs": [
        {
          "internalType": "bytes4",
          "name": "interfaceId",
          "type": "bytes4"
        }
      ],
      "name": "supportsInterface",
      "outputs": [
        {
          "internalType": "bool",
          "name": "",
          "type": "bool"
        }
      ],
      "stateMutability": "view",
      "type": "function"
    },
    {
      "inputs": [],
      "name": "symbol",
      "outputs": [
        {
          "internalType": "string",
          "name": "",
          "type": "string"
        }
      ],
      "stateMutability": "view",
      "type": "function"
    },
    {
      "inputs": [
        {
          "internalType": "uint256",
          "name": "tokenId",
          "type": "uint256"
        }
      ],
      "name": "tokenURI",
      "outputs": [
        {
          "internalType": "string",
          "name": "",
          "type": "string"
        }
      ],
      "stateMutability": "view",
      "type": "function"
    },
    {
      "inputs": [
        {
          "internalType": "address",
          "name": "owner",
          "type": "address"
        }
      ],
      "name": "tokensOfOwner",
      "outputs": [
        {
          "internalType": "uint256[]",
          "name": "",
          "type": "uint256[]"
        }
      ],
      "stateMutability": "view",
      "type": "function"
    },
    {
      "inputs": [
        {
          "internalType": "address",
          "name": "owner",
          "type": "address"
        },
        {
          "internalType": "uint256",
          "name": "start",
          "type": "uint256"
        },
        {
          "internalType": "uint256",
          "name": "stop",
          "type": "uint256"
        }
      ],
      "name": "tokensOfOwnerIn",
      "outputs": [
        {
          "internalType": "uint256[]",
          "name": "",
          "type": "uint256[]"
        }
      ],
      "stateMutability": "view",
      "type": "function"
    },
    {
      "inputs": [],
      "name": "totalMinted",
      "outputs": [
        {
          "internalType": "uint256",
          "name": "",
          "type": "uint256"
        }
      ],
      "stateMutability": "view",
      "type": "function"
    },
    {
      "inputs": [],
      "name": "totalSupply",
      "outputs": [
        {
          "internalType": "uint256",
          "name": "",
          "type": "uint256"
        }
      ],
      "stateMutability": "view",
      "type": "function"
    },
    {
      "inputs": [
        {
          "internalType": "address",
          "name": "from",
          "type": "address"
        },
        {
          "internalType": "address",
          "name": "to",
          "type": "address"
        },
        {
          "internalType": "uint256",
          "name": "tokenId",
          "type": "uint256"
        }
      ],
      "name": "transferFrom",
      "outputs": [],
      "stateMutability": "payable",
      "type": "function"
    },
    {
      "inputs": [
        {
          "internalType": "address",
          "name": "newOwner",
          "type": "address"
        }
      ],
      "name": "transferOwnership",
      "outputs": [],
      "stateMutability": "nonpayable",
      "type": "function"
    },
    {
      "inputs": [
        {
          "internalType": "uint256",
          "name": "_i",
          "type": "uint256"
        }
      ],
      "name": "uint2str",
      "outputs": [
        {
          "internalType": "string",
          "name": "_uintAsString",
          "type": "string"
        }
      ],
      "stateMutability": "pure",
      "type": "function"
    },
    {
      "inputs": [
        {
          "internalType": "string",
          "name": "ipfsCid",
          "type": "string"
        },
        {
          "internalType": "uint256",
          "name": "mintFee",
          "type": "uint256"
        },
        {
          "internalType": "uint256",
          "name": "maxTokenId",
          "type": "uint256"
        }
      ],
      "name": "update",
      "outputs": [],
      "stateMutability": "nonpayable",
      "type": "function"
    },
    {
      "inputs": [],
      "name": "withdraw",
      "outputs": [],
      "stateMutability": "payable",
      "type": "function"
    }
  ],
  "bytecode": "0x6080604052600a600d553480156200001657600080fd5b5060405162002ec638038062002ec68339810160408190526200003991620001da565b848460026200004983826200030d565b5060036200005882826200030d565b50506001600055506200006b33620000c3565b600b829055600c819055600a6200008384826200030d565b50600a604051602001620000989190620003d9565b60405160208183030381529060405260099081620000b791906200030d565b50505050505062000495565b600880546001600160a01b038381166001600160a01b0319831681179093556040519116919082907f8be0079c531659141344cd1fd0a4f28419497f9722a3daafe3b4186f6b6457e090600090a35050565b634e487b7160e01b600052604160045260246000fd5b600082601f8301126200013d57600080fd5b81516001600160401b03808211156200015a576200015a62000115565b604051601f8301601f19908116603f0116810190828211818310171562000185576200018562000115565b81604052838152602092508683858801011115620001a257600080fd5b600091505b83821015620001c65785820183015181830184015290820190620001a7565b600093810190920192909252949350505050565b600080600080600060a08688031215620001f357600080fd5b85516001600160401b03808211156200020b57600080fd5b6200021989838a016200012b565b965060208801519150808211156200023057600080fd5b6200023e89838a016200012b565b955060408801519150808211156200025557600080fd5b5062000264888289016200012b565b606088015160809098015196999598509695949350505050565b600181811c908216806200029357607f821691505b602082108103620002b457634e487b7160e01b600052602260045260246000fd5b50919050565b601f8211156200030857600081815260208120601f850160051c81016020861015620002e35750805b601f850160051c820191505b818110156200030457828155600101620002ef565b5050505b505050565b81516001600160401b0381111562000329576200032962000115565b62000341816200033a84546200027e565b84620002ba565b602080601f831160018114620003795760008415620003605750858301515b600019600386901b1c1916600185901b17855562000304565b600085815260208120601f198616915b82811015620003aa5788860151825594840194600190910190840162000389565b5085821015620003c95787850151600019600388901b60f8161c191681555b5050505050600190811b01905550565b66697066733a2f2f60c81b81526000600760008454620003f9816200027e565b600182811680156200041457600181146200042e5762000463565b60ff19841688870152821515830288018601945062000463565b8860005260208060002060005b85811015620004585781548b82018a01529084019082016200043b565b505050858389010194505b50507f2f636f6e74726163744d657461646174612e6a736f6e0000000000000000000083525050601601949350505050565b612a2180620004a56000396000f3fe6080604052600436106101c25760003560e01c80638da5cb5b116100f7578063c23dc68f11610095578063e985e9c511610064578063e985e9c51461050c578063f2fde38b14610562578063f76f950e14610582578063fa9b7018146105a257600080fd5b8063c23dc68f1461048a578063c87b56dd146104b7578063d8bb9bb3146104d7578063e8a3d485146104f757600080fd5b8063a0712d68116100d1578063a0712d681461040d578063a22cb46514610420578063a2309ff814610440578063b88d4fde1461047757600080fd5b80638da5cb5b146103ad57806395d89b41146103d857806399a2557a146103ed57600080fd5b806342842e0e1161016457806370a082311161013e57806370a0823114610338578063715018a6146103585780637a4d892a1461036d5780638462151c1461038057600080fd5b806342842e0e146102d85780635bbb2177146102eb5780636352211e1461031857600080fd5b8063095ea7b3116101a0578063095ea7b31461026357806318160ddd1461027857806323b872dd146102bd5780633ccfd60b146102d057600080fd5b806301ffc9a7146101c757806306fdde03146101fc578063081812fc1461021e575b600080fd5b3480156101d357600080fd5b506101e76101e2366004611fce565b6105b8565b60405190151581526020015b60405180910390f35b34801561020857600080fd5b50610211610614565b6040516101f39190612059565b34801561022a57600080fd5b5061023e61023936600461206c565b6106a6565b60405173ffffffffffffffffffffffffffffffffffffffff90911681526020016101f3565b6102766102713660046120ae565b610710565b005b34801561028457600080fd5b50600154600054037fffffffffffffffffffffffffffffffffffffffffffffffffffffffffffffffff015b6040519081526020016101f3565b6102766102cb3660046120d8565b6107fb565b610276610a8b565b6102766102e63660046120d8565b610aeb565b3480156102f757600080fd5b5061030b610306366004612114565b610b0b565b6040516101f39190612189565b34801561032457600080fd5b5061023e61033336600461206c565b610bf5565b34801561034457600080fd5b506102af610353366004612213565b610c00565b34801561036457600080fd5b50610276610c82565b61027661037b36600461222e565b610c96565b34801561038c57600080fd5b506103a061039b366004612213565b610da3565b6040516101f39190612250565b3480156103b957600080fd5b5060085473ffffffffffffffffffffffffffffffffffffffff1661023e565b3480156103e457600080fd5b50610211610ece565b3480156103f957600080fd5b506103a0610408366004612288565b610edd565b61027661041b36600461206c565b6110a5565b34801561042c57600080fd5b5061027661043b3660046122bb565b6112f0565b34801561044c57600080fd5b506000547fffffffffffffffffffffffffffffffffffffffffffffffffffffffffffffffff016102af565b6102766104853660046123ba565b611387565b34801561049657600080fd5b506104aa6104a536600461206c565b6113f7565b6040516101f39190612436565b3480156104c357600080fd5b506102116104d236600461206c565b61147f565b3480156104e357600080fd5b506102766104f2366004612488565b611548565b34801561050357600080fd5b506102116115f5565b34801561051857600080fd5b506101e76105273660046124ea565b73ffffffffffffffffffffffffffffffffffffffff918216600090815260076020908152604080832093909416825291909152205460ff1690565b34801561056e57600080fd5b5061027661057d366004612213565b611604565b34801561058e57600080fd5b5061021161059d36600461206c565b6116b8565b3480156105ae57600080fd5b506102af600d5481565b60007fffffffff0000000000000000000000000000000000000000000000000000000082167f4906490600000000000000000000000000000000000000000000000000000000148061060e575061060e8261180f565b92915050565b6060600280546106239061251d565b80601f016020809104026020016040519081016040528092919081815260200182805461064f9061251d565b801561069c5780601f106106715761010080835404028352916020019161069c565b820191906000526020600020905b81548152906001019060200180831161067f57829003601f168201915b5050505050905090565b60006106b1826118f0565b6106e7576040517fcf4700e400000000000000000000000000000000000000000000000000000000815260040160405180910390fd5b5060009081526006602052604090205473ffffffffffffffffffffffffffffffffffffffff1690565b600061071b82610bf5565b90503373ffffffffffffffffffffffffffffffffffffffff82161461077a576107448133610527565b61077a576040517fcfb3b94200000000000000000000000000000000000000000000000000000000815260040160405180910390fd5b60008281526006602052604080822080547fffffffffffffffffffffffff00000000000000000000000000000000000000001673ffffffffffffffffffffffffffffffffffffffff87811691821790925591518593918516917f8c5be1e5ebec7d5bd14f71427d1e84f3dd0314c0f7b2291e5b200ac8c7c3b92591a4505050565b60006108068261193e565b90508373ffffffffffffffffffffffffffffffffffffffff168173ffffffffffffffffffffffffffffffffffffffff161461086d576040517fa114810000000000000000000000000000000000000000000000000000000000815260040160405180910390fd5b600082815260066020526040902080543380821473ffffffffffffffffffffffffffffffffffffffff8816909114176108e0576108aa8633610527565b6108e0576040517f59c896be00000000000000000000000000000000000000000000000000000000815260040160405180910390fd5b73ffffffffffffffffffffffffffffffffffffffff851661092d576040517fea553b3400000000000000000000000000000000000000000000000000000000815260040160405180910390fd5b801561093857600082555b73ffffffffffffffffffffffffffffffffffffffff86811660009081526005602052604080822080547fffffffffffffffffffffffffffffffffffffffffffffffffffffffffffffffff019055918716808252919020805460010190554260a01b177c0200000000000000000000000000000000000000000000000000000000176000858152600460205260408120919091557c020000000000000000000000000000000000000000000000000000000084169003610a2757600184016000818152600460205260408120549003610a25576000548114610a255760008181526004602052604090208490555b505b838573ffffffffffffffffffffffffffffffffffffffff168773ffffffffffffffffffffffffffffffffffffffff167fddf252ad1be2c89b69c2b068fc378daa952ba7f163c4a11628f55a4df523b3ef60405160405180910390a45b505050505050565b610a936119fd565b604051600090339047908381818185875af1925050503d8060008114610ad5576040519150601f19603f3d011682016040523d82523d6000602084013e610ada565b606091505b5050905080610ae857600080fd5b50565b610b0683838360405180602001604052806000815250611387565b505050565b60608160008167ffffffffffffffff811115610b2957610b296122f7565b604051908082528060200260200182016040528015610b9957816020015b6040805160808101825260008082526020808301829052928201819052606082015282527fffffffffffffffffffffffffffffffffffffffffffffffffffffffffffffffff909201910181610b475790505b50905060005b828114610bec57610bc7868683818110610bbb57610bbb612570565b905060200201356113f7565b828281518110610bd957610bd9612570565b6020908102919091010152600101610b9f565b50949350505050565b600061060e8261193e565b600073ffffffffffffffffffffffffffffffffffffffff8216610c4f576040517f8f4eb60400000000000000000000000000000000000000000000000000000000815260040160405180910390fd5b5073ffffffffffffffffffffffffffffffffffffffff1660009081526005602052604090205467ffffffffffffffff1690565b610c8a6119fd565b610c946000611a7e565b565b6000547fffffffffffffffffffffffffffffffffffffffffffffffffffffffffffffffff0181610d27576040517f08c379a000000000000000000000000000000000000000000000000000000000815260206004820152600f60248201527f4e6f20737461727420706173736564000000000000000000000000000000000060448201526064015b60405180910390fd5b610d328160016125ce565b8214610d9a576040517f08c379a000000000000000000000000000000000000000000000000000000000815260206004820152601360248201527f546f6b656e2069732070617374207374617274000000000000000000000000006044820152606401610d1e565b610b06836110a5565b60606000806000610db385610c00565b905060008167ffffffffffffffff811115610dd057610dd06122f7565b604051908082528060200260200182016040528015610df9578160200160208202803683370190505b5060408051608081018252600080825260208201819052918101829052606081019190915290915060015b838614610ec257610e3481611af5565b91508160400151610eba57815173ffffffffffffffffffffffffffffffffffffffff1615610e6157815194505b8773ffffffffffffffffffffffffffffffffffffffff168573ffffffffffffffffffffffffffffffffffffffff1603610eba5780838780600101985081518110610ead57610ead612570565b6020026020010181815250505b600101610e24565b50909695505050505050565b6060600380546106239061251d565b6060818310610f18576040517f32c1995a00000000000000000000000000000000000000000000000000000000815260040160405180910390fd5b600080610f2460005490565b90506001851015610f3457600194505b80841115610f40578093505b6000610f4b87610c00565b905084861015610f6a5785850381811015610f64578091505b50610f6e565b5060005b60008167ffffffffffffffff811115610f8957610f896122f7565b604051908082528060200260200182016040528015610fb2578160200160208202803683370190505b50905081600003610fc857935061109e92505050565b6000610fd3886113f7565b905060008160400151610fe4575080515b885b888114158015610ff65750848714155b156110925761100481611af5565b9250826040015161108a57825173ffffffffffffffffffffffffffffffffffffffff161561103157825191505b8a73ffffffffffffffffffffffffffffffffffffffff168273ffffffffffffffffffffffffffffffffffffffff160361108a578084888060010199508151811061107d5761107d612570565b6020026020010181815250505b600101610fe6565b50505092835250909150505b9392505050565b6000547fffffffffffffffffffffffffffffffffffffffffffffffffffffffffffffffff0181611131576040517f08c379a000000000000000000000000000000000000000000000000000000000815260206004820152600760248201527f546f6f20666577000000000000000000000000000000000000000000000000006044820152606401610d1e565b600d5482111561119d576040517f08c379a000000000000000000000000000000000000000000000000000000000815260206004820152600860248201527f546f6f206d616e790000000000000000000000000000000000000000000000006044820152606401610d1e565b600c546111aa83836125ce565b1115611212576040517f08c379a000000000000000000000000000000000000000000000000000000000815260206004820152600e60248201527f4d696e74696e6720636c6f7365640000000000000000000000000000000000006044820152606401610d1e565b60085473ffffffffffffffffffffffffffffffffffffffff1633146112a657600b5461123e90836125e1565b34146112a6576040517f08c379a000000000000000000000000000000000000000000000000000000000815260206004820152600e60248201527f53656e64206578616374204554480000000000000000000000000000000000006044820152606401610d1e565b6112b03383611b9a565b7f94242c431036b9ba6723a138d4b275a5b38e13a95ef66227a45df427c0f843f36112db83836125ce565b60405190815260200160405180910390a15050565b33600081815260076020908152604080832073ffffffffffffffffffffffffffffffffffffffff87168085529083529281902080547fffffffffffffffffffffffffffffffffffffffffffffffffffffffffffffff001686151590811790915590519081529192917f17307eab39ab6107e8899845ad3d59bd9653f200f220920489ca2b5937696c31910160405180910390a35050565b6113928484846107fb565b73ffffffffffffffffffffffffffffffffffffffff83163b156113f1576113bb84848484611bb8565b6113f1576040517fd1a57ed600000000000000000000000000000000000000000000000000000000815260040160405180910390fd5b50505050565b604080516080810182526000808252602082018190529181018290526060810191909152604080516080810182526000808252602082018190529181018290526060810191909152600183108061145057506000548310155b1561145b5792915050565b61146483611af5565b90508060400151156114765792915050565b61109e83611d31565b606061148a826118f0565b611516576040517f08c379a000000000000000000000000000000000000000000000000000000000815260206004820152602f60248201527f4552433732314d657461646174613a2055524920717565727920666f72206e6f60448201527f6e6578697374656e7420746f6b656e00000000000000000000000000000000006064820152608401610d1e565b600a611521836116b8565b604051602001611532929190612689565b6040516020818303038152906040529050919050565b6115506119fd565b600b829055600c819055600a611566848261276d565b50600a6040516020016115799190612887565b60405160208183030381529060405260099081611596919061276d565b5060408051600181527fffffffffffffffffffffffffffffffffffffffffffffffffffffffffffffffff60208201527f6bd5c950a8d8df17f772f5af37cb3655737899cbf903264b9795592da439661c910160405180910390a1505050565b6060600980546106239061251d565b61160c6119fd565b73ffffffffffffffffffffffffffffffffffffffff81166116af576040517f08c379a000000000000000000000000000000000000000000000000000000000815260206004820152602660248201527f4f776e61626c653a206e6577206f776e657220697320746865207a65726f206160448201527f64647265737300000000000000000000000000000000000000000000000000006064820152608401610d1e565b610ae881611a7e565b6060816000036116fb57505060408051808201909152600181527f3000000000000000000000000000000000000000000000000000000000000000602082015290565b8160005b8115611725578061170f816128e6565b915061171e9050600a8361291e565b91506116ff565b60008167ffffffffffffffff811115611740576117406122f7565b6040519080825280601f01601f19166020018201604052801561176a576020820181803683370190505b509050815b8515610bec57611780600182612959565b9050600061178f600a8861291e565b61179a90600a6125e1565b6117a49088612959565b6117af90603061296c565b905060008160f81b9050808484815181106117cc576117cc612570565b60200101907effffffffffffffffffffffffffffffffffffffffffffffffffffffffffffff1916908160001a905350611806600a8961291e565b9750505061176f565b60007f01ffc9a7000000000000000000000000000000000000000000000000000000007fffffffff00000000000000000000000000000000000000000000000000000000831614806118a257507f80ac58cd000000000000000000000000000000000000000000000000000000007fffffffff000000000000000000000000000000000000000000000000000000008316145b8061060e5750507fffffffff00000000000000000000000000000000000000000000000000000000167f5b5e139f000000000000000000000000000000000000000000000000000000001490565b600081600111158015611904575060005482105b801561060e5750506000908152600460205260409020547c0100000000000000000000000000000000000000000000000000000000161590565b600081806001116119cb576000548110156119cb57600081815260046020526040812054907c0100000000000000000000000000000000000000000000000000000000821690036119c9575b8060000361109e57507fffffffffffffffffffffffffffffffffffffffffffffffffffffffffffffffff0160008181526004602052604090205461198a565b505b6040517fdf2d9b4200000000000000000000000000000000000000000000000000000000815260040160405180910390fd5b60085473ffffffffffffffffffffffffffffffffffffffff163314610c94576040517f08c379a000000000000000000000000000000000000000000000000000000000815260206004820181905260248201527f4f776e61626c653a2063616c6c6572206973206e6f7420746865206f776e65726044820152606401610d1e565b6008805473ffffffffffffffffffffffffffffffffffffffff8381167fffffffffffffffffffffffff0000000000000000000000000000000000000000831681179093556040519116919082907f8be0079c531659141344cd1fd0a4f28419497f9722a3daafe3b4186f6b6457e090600090a35050565b60408051608081018252600080825260208201819052918101829052606081019190915260008281526004602052604090205461060e906040805160808101825273ffffffffffffffffffffffffffffffffffffffff8316815260a083901c67ffffffffffffffff1660208201527c0100000000000000000000000000000000000000000000000000000000831615159181019190915260e89190911c606082015290565b611bb4828260405180602001604052806000815250611dcf565b5050565b6040517f150b7a0200000000000000000000000000000000000000000000000000000000815260009073ffffffffffffffffffffffffffffffffffffffff85169063150b7a0290611c13903390899088908890600401612985565b6020604051808303816000875af1925050508015611c6c575060408051601f3d9081017fffffffffffffffffffffffffffffffffffffffffffffffffffffffffffffffe0168201909252611c69918101906129ce565b60015b611ce3573d808015611c9a576040519150601f19603f3d011682016040523d82523d6000602084013e611c9f565b606091505b508051600003611cdb576040517fd1a57ed600000000000000000000000000000000000000000000000000000000815260040160405180910390fd5b805181602001fd5b7fffffffff00000000000000000000000000000000000000000000000000000000167f150b7a0200000000000000000000000000000000000000000000000000000000149050949350505050565b60408051608081018252600080825260208201819052918101829052606081019190915261060e611d618361193e565b6040805160808101825273ffffffffffffffffffffffffffffffffffffffff8316815260a083901c67ffffffffffffffff1660208201527c0100000000000000000000000000000000000000000000000000000000831615159181019190915260e89190911c606082015290565b611dd98383611e62565b73ffffffffffffffffffffffffffffffffffffffff83163b15610b06576000548281035b611e106000868380600101945086611bb8565b611e46576040517fd1a57ed600000000000000000000000000000000000000000000000000000000815260040160405180910390fd5b818110611dfd578160005414611e5b57600080fd5b5050505050565b6000805490829003611ea0576040517fb562e8dd00000000000000000000000000000000000000000000000000000000815260040160405180910390fd5b73ffffffffffffffffffffffffffffffffffffffff831660008181526005602090815260408083208054680100000000000000018802019055848352600490915281206001851460e11b4260a01b178317905582840190839083907fddf252ad1be2c89b69c2b068fc378daa952ba7f163c4a11628f55a4df523b3ef8180a4600183015b818114611f5c57808360007fddf252ad1be2c89b69c2b068fc378daa952ba7f163c4a11628f55a4df523b3ef600080a4600101611f24565b5081600003611f97576040517f2e07630000000000000000000000000000000000000000000000000000000000815260040160405180910390fd5b60005550505050565b7fffffffff0000000000000000000000000000000000000000000000000000000081168114610ae857600080fd5b600060208284031215611fe057600080fd5b813561109e81611fa0565b60005b83811015612006578181015183820152602001611fee565b50506000910152565b60008151808452612027816020860160208601611feb565b601f017fffffffffffffffffffffffffffffffffffffffffffffffffffffffffffffffe0169290920160200192915050565b60208152600061109e602083018461200f565b60006020828403121561207e57600080fd5b5035919050565b803573ffffffffffffffffffffffffffffffffffffffff811681146120a957600080fd5b919050565b600080604083850312156120c157600080fd5b6120ca83612085565b946020939093013593505050565b6000806000606084860312156120ed57600080fd5b6120f684612085565b925061210460208501612085565b9150604084013590509250925092565b6000806020838503121561212757600080fd5b823567ffffffffffffffff8082111561213f57600080fd5b818501915085601f83011261215357600080fd5b81358181111561216257600080fd5b8660208260051b850101111561217757600080fd5b60209290920196919550909350505050565b6020808252825182820181905260009190848201906040850190845b81811015610ec25761220083855173ffffffffffffffffffffffffffffffffffffffff815116825267ffffffffffffffff602082015116602083015260408101511515604083015262ffffff60608201511660608301525050565b92840192608092909201916001016121a5565b60006020828403121561222557600080fd5b61109e82612085565b6000806040838503121561224157600080fd5b50508035926020909101359150565b6020808252825182820181905260009190848201906040850190845b81811015610ec25783518352928401929184019160010161226c565b60008060006060848603121561229d57600080fd5b6122a684612085565b95602085013595506040909401359392505050565b600080604083850312156122ce57600080fd5b6122d783612085565b9150602083013580151581146122ec57600080fd5b809150509250929050565b7f4e487b7100000000000000000000000000000000000000000000000000000000600052604160045260246000fd5b600067ffffffffffffffff80841115612341576123416122f7565b604051601f85017fffffffffffffffffffffffffffffffffffffffffffffffffffffffffffffffe0908116603f01168101908282118183101715612387576123876122f7565b816040528093508581528686860111156123a057600080fd5b858560208301376000602087830101525050509392505050565b600080600080608085870312156123d057600080fd5b6123d985612085565b93506123e760208601612085565b925060408501359150606085013567ffffffffffffffff81111561240a57600080fd5b8501601f8101871361241b57600080fd5b61242a87823560208401612326565b91505092959194509250565b815173ffffffffffffffffffffffffffffffffffffffff16815260208083015167ffffffffffffffff169082015260408083015115159082015260608083015162ffffff16908201526080810161060e565b60008060006060848603121561249d57600080fd5b833567ffffffffffffffff8111156124b457600080fd5b8401601f810186136124c557600080fd5b6124d486823560208401612326565b9660208601359650604090950135949350505050565b600080604083850312156124fd57600080fd5b61250683612085565b915061251460208401612085565b90509250929050565b600181811c9082168061253157607f821691505b60208210810361256a577f4e487b7100000000000000000000000000000000000000000000000000000000600052602260045260246000fd5b50919050565b7f4e487b7100000000000000000000000000000000000000000000000000000000600052603260045260246000fd5b7f4e487b7100000000000000000000000000000000000000000000000000000000600052601160045260246000fd5b8082018082111561060e5761060e61259f565b808202811582820484141761060e5761060e61259f565b600081546126058161251d565b6001828116801561261d57600181146126505761267f565b7fffffffffffffffffffffffffffffffffffffffffffffffffffffffffffffff008416875282151583028701945061267f565b8560005260208060002060005b858110156126765781548a82015290840190820161265d565b50505082870194505b5050505092915050565b7f697066733a2f2f00000000000000000000000000000000000000000000000000815260006126bb60078301856125f8565b7f2f6d657461646174612f00000000000000000000000000000000000000000000815283516126f181600a840160208801611feb565b7f2e6a736f6e000000000000000000000000000000000000000000000000000000600a9290910191820152600f01949350505050565b601f821115610b0657600081815260208120601f850160051c8101602086101561274e5750805b601f850160051c820191505b81811015610a835782815560010161275a565b815167ffffffffffffffff811115612787576127876122f7565b61279b81612795845461251d565b84612727565b602080601f8311600181146127ee57600084156127b85750858301515b7fffffffffffffffffffffffffffffffffffffffffffffffffffffffffffffffff600386901b1c1916600185901b178555610a83565b6000858152602081207fffffffffffffffffffffffffffffffffffffffffffffffffffffffffffffffe08616915b8281101561283b5788860151825594840194600190910190840161281c565b508582101561287757878501517fffffffffffffffffffffffffffffffffffffffffffffffffffffffffffffffff600388901b60f8161c191681555b5050505050600190811b01905550565b7f697066733a2f2f00000000000000000000000000000000000000000000000000815260006128b960078301846125f8565b7f2f636f6e74726163744d657461646174612e6a736f6e0000000000000000000081526016019392505050565b60007fffffffffffffffffffffffffffffffffffffffffffffffffffffffffffffffff82036129175761291761259f565b5060010190565b600082612954577f4e487b7100000000000000000000000000000000000000000000000000000000600052601260045260246000fd5b500490565b8181038181111561060e5761060e61259f565b60ff818116838216019081111561060e5761060e61259f565b600073ffffffffffffffffffffffffffffffffffffffff8087168352808616602084015250836040830152608060608301526129c4608083018461200f565b9695505050505050565b6000602082840312156129e057600080fd5b815161109e81611fa056fea2646970667358221220c61f2c13e5b7042c1c512f1c3d4c014c886a9ecc969b7adee7611d1ee734a12964736f6c63430008150033",
  "linkReferences": {},
  "deployedLinkReferences": {}
}